{
  "abi": [
    {
      "inputs": [
        {
          "internalType": "address",
          "name": "_owner",
          "type": "address"
        }
      ],
      "stateMutability": "nonpayable",
      "type": "constructor"
    },
    {
      "anonymous": false,
      "inputs": [
        {
          "indexed": true,
          "internalType": "address",
          "name": "previousOwner",
          "type": "address"
        },
        {
          "indexed": true,
          "internalType": "address",
          "name": "newOwner",
          "type": "address"
        }
      ],
      "name": "OwnershipTransferred",
      "type": "event"
    },
    {
      "anonymous": false,
      "inputs": [
        {
          "indexed": false,
          "internalType": "address",
          "name": "user",
          "type": "address"
        },
        {
          "indexed": false,
          "internalType": "uint256",
          "name": "amount",
          "type": "uint256"
        }
      ],
      "name": "received",
      "type": "event"
    },
    {
      "anonymous": false,
      "inputs": [
        {
          "indexed": false,
          "internalType": "address",
          "name": "user",
          "type": "address"
        },
        {
          "indexed": false,
          "internalType": "uint256",
          "name": "amount",
          "type": "uint256"
        }
      ],
      "name": "withdrawal",
      "type": "event"
    },
    {
      "stateMutability": "payable",
      "type": "fallback"
    },
    {
      "inputs": [],
      "name": "EMIamountPerMonth",
      "outputs": [
        {
          "internalType": "uint256",
          "name": "",
          "type": "uint256"
        }
      ],
      "stateMutability": "view",
      "type": "function"
    },
    {
      "inputs": [],
      "name": "blockedAmount",
      "outputs": [
        {
          "internalType": "uint256",
          "name": "",
          "type": "uint256"
        }
      ],
      "stateMutability": "view",
      "type": "function"
    },
    {
      "inputs": [],
      "name": "deposit",
      "outputs": [],
      "stateMutability": "payable",
      "type": "function"
    },
    {
      "inputs": [
        {
          "internalType": "address",
          "name": "_token",
          "type": "address"
        },
        {
          "internalType": "uint256",
          "name": "_amount",
          "type": "uint256"
        }
      ],
      "name": "depositToken",
      "outputs": [],
      "stateMutability": "nonpayable",
      "type": "function"
    },
    {
      "inputs": [],
      "name": "developer",
      "outputs": [
        {
          "internalType": "address",
          "name": "",
          "type": "address"
        }
      ],
      "stateMutability": "view",
      "type": "function"
    },
    {
      "inputs": [],
      "name": "getBalance",
      "outputs": [
        {
          "internalType": "uint256",
          "name": "",
          "type": "uint256"
        }
      ],
      "stateMutability": "view",
      "type": "function"
    },
    {
      "inputs": [
        {
          "internalType": "address",
          "name": "token",
          "type": "address"
        }
      ],
      "name": "getTokenBalance",
      "outputs": [
        {
          "internalType": "uint256",
          "name": "",
          "type": "uint256"
        }
      ],
      "stateMutability": "view",
      "type": "function"
    },
    {
      "inputs": [],
      "name": "interestFreePeriod",
      "outputs": [
        {
          "internalType": "uint256",
          "name": "",
          "type": "uint256"
        }
      ],
      "stateMutability": "view",
      "type": "function"
    },
    {
      "inputs": [],
      "name": "interestRatePerMonth",
      "outputs": [
        {
          "internalType": "uint256",
          "name": "",
          "type": "uint256"
        }
      ],
      "stateMutability": "view",
      "type": "function"
    },
    {
      "inputs": [
        {
          "internalType": "address",
          "name": "",
          "type": "address"
        },
        {
          "internalType": "address",
          "name": "",
          "type": "address"
        },
        {
          "internalType": "uint256",
          "name": "",
          "type": "uint256"
        },
        {
          "internalType": "bytes",
          "name": "",
          "type": "bytes"
        }
      ],
      "name": "onERC721Received",
      "outputs": [
        {
          "internalType": "bytes4",
          "name": "",
          "type": "bytes4"
        }
      ],
      "stateMutability": "nonpayable",
      "type": "function"
    },
    {
      "inputs": [],
      "name": "owner",
      "outputs": [
        {
          "internalType": "address",
          "name": "",
          "type": "address"
        }
      ],
      "stateMutability": "view",
      "type": "function"
    },
    {
      "inputs": [],
      "name": "pauseContract",
      "outputs": [],
      "stateMutability": "nonpayable",
      "type": "function"
    },
    {
      "inputs": [
        {
          "internalType": "address",
          "name": "_reciever",
          "type": "address"
        },
        {
          "internalType": "uint256",
          "name": "_amount",
          "type": "uint256"
        }
      ],
      "name": "pay",
      "outputs": [],
      "stateMutability": "nonpayable",
      "type": "function"
    },
    {
      "inputs": [
        {
          "internalType": "address",
          "name": "token",
          "type": "address"
        },
        {
          "internalType": "address",
          "name": "reciever",
          "type": "address"
        },
        {
          "internalType": "uint256",
          "name": "_amount",
          "type": "uint256"
        }
      ],
      "name": "payinToken",
      "outputs": [],
      "stateMutability": "nonpayable",
      "type": "function"
    },
    {
      "inputs": [],
      "name": "payments",
      "outputs": [
        {
          "internalType": "address",
          "name": "",
          "type": "address"
        }
      ],
      "stateMutability": "view",
      "type": "function"
    },
    {
      "inputs": [],
      "name": "reedemableBalance",
      "outputs": [
        {
          "internalType": "uint256",
          "name": "",
          "type": "uint256"
        }
      ],
      "stateMutability": "view",
      "type": "function"
    },
    {
      "inputs": [],
      "name": "renounceOwnership",
      "outputs": [],
      "stateMutability": "nonpayable",
      "type": "function"
    },
    {
      "inputs": [],
      "name": "totalBalance",
      "outputs": [
        {
          "internalType": "uint256",
          "name": "",
          "type": "uint256"
        }
      ],
      "stateMutability": "view",
      "type": "function"
    },
    {
      "inputs": [
        {
          "internalType": "address",
          "name": "newOwner",
          "type": "address"
        }
      ],
      "name": "transferOwnership",
      "outputs": [],
      "stateMutability": "nonpayable",
      "type": "function"
    },
    {
      "inputs": [
        {
          "internalType": "address payable",
          "name": "_to",
          "type": "address"
        },
        {
          "internalType": "uint256",
          "name": "_amount",
          "type": "uint256"
        }
      ],
      "name": "withdrawEthTo",
      "outputs": [
        {
          "internalType": "bool",
          "name": "",
          "type": "bool"
        }
      ],
      "stateMutability": "nonpayable",
      "type": "function"
    },
    {
      "inputs": [
        {
          "internalType": "address",
          "name": "token",
          "type": "address"
        },
        {
          "internalType": "address payable",
          "name": "_to",
          "type": "address"
        },
        {
          "internalType": "uint256",
          "name": "_amount",
          "type": "uint256"
        }
      ],
      "name": "withdrawTokens",
      "outputs": [
        {
          "internalType": "bool",
          "name": "",
          "type": "bool"
        }
      ],
      "stateMutability": "nonpayable",
      "type": "function"
    },
    {
      "stateMutability": "payable",
      "type": "receive"
    }
  ],
  "devdoc": {
    "events": {
      "received(address,uint256)": {
        "details": "events to keep track of ether receive and Withdrawl"
      }
    },
    "kind": "dev",
    "methods": {
      "deposit()": {
        "details": "to deposit ETH"
      },
      "depositToken(address,uint256)": {
        "details": "to deposit any kind of ERC20 token",
        "params": {
          "_amount": ": Amount of the tokens to be deposited , in the converted format",
          "_token": ": address of the token contract that needs to be deposited"
        }
      },
      "getBalance()": {
        "details": "check the balance of the contract at any point of time",
        "returns": {
          "_0": "returns balance of contract address (DAO)"
        }
      },
      "onERC721Received(address,address,uint256,bytes)": {
        "details": "See {IERC721Receiver-onERC721Received}. Always returns `IERC721Receiver.onERC721Received.selector`."
      },
      "owner()": {
        "details": "Returns the address of the current owner."
      },
      "pauseContract()": {
        "details": "Pause the contract's withdrawl or deposit"
      },
      "renounceOwnership()": {
        "details": "Leaves the contract without owner. It will not be possible to call `onlyOwner` functions anymore. Can only be called by the current owner. NOTE: Renouncing ownership will leave the contract without an owner, thereby removing any functionality that is only available to the owner."
      },
      "transferOwnership(address)": {
        "details": "Transfers ownership of the contract to a new account (`newOwner`). Can only be called by the current owner."
      },
      "withdrawEthTo(address,uint256)": {
        "details": "withdraw eth to a particular address in case of grants",
        "params": {
          "_amount": ":  amount to be withdrawn",
          "_to": ": to the address to pay"
        }
      },
      "withdrawTokens(address,address,uint256)": {
        "details": "withdraw tokens to a particular address in case of grants",
        "params": {
          "_amount": ":  amount to be withdrawn",
          "_to": ": to the address to pay"
        }
      }
    },
    "version": 1
  },
  "evm": {
    "assembly": "    /* \"profileWallet.sol\":405:5519  contract profileWallet is Ownable, ERC721Holder {... */\n  mstore(0x40, 0x80)\n    /* \"profileWallet.sol\":797:798  0 */\n  0x00\n    /* \"profileWallet.sol\":766:798  uint256 public blockedAmount = 0 */\n  0x02\n  sstore\n    /* \"profileWallet.sol\":834:855  address(this).balance */\n  selfbalance\n    /* \"profileWallet.sol\":804:855  uint256 public totalBalance = address(this).balance */\n  0x03\n  sstore\n    /* \"profileWallet.sol\":911:924  blockedAmount */\n  sload(0x02)\n    /* \"profileWallet.sol\":896:908  totalBalance */\n  sload(0x03)\n    /* \"profileWallet.sol\":896:924  totalBalance - blockedAmount */\n  tag_1\n  swap2\n  swap1\n  tag_2\n  jump\t// in\ntag_1:\n    /* \"profileWallet.sol\":861:924  uint256 public reedemableBalance = totalBalance - blockedAmount */\n  0x04\n  sstore\n    /* \"profileWallet.sol\":966:967  0 */\n  0x00\n    /* \"profileWallet.sol\":931:967  uint256 public EMIamountPerMonth = 0 */\n  0x05\n  sstore\n    /* \"profileWallet.sol\":1146:1216  constructor(address _owner) {... */\n  callvalue\n  dup1\n  iszero\n  tag_3\n  jumpi\n  0x00\n  dup1\n  revert\ntag_3:\n  pop\n  mload(0x40)\n  sub(codesize, bytecodeSize)\n  dup1\n  bytecodeSize\n  dup4\n  codecopy\n  dup2\n  add\n  0x40\n  dup2\n  swap1\n  mstore\n  tag_4\n  swap2\n  tag_5\n  jump\t// in\ntag_4:\n    /* \"@openzeppelin/contracts/access/Ownable.sol\":936:968   */\n  tag_9\n    /* \"@openzeppelin/contracts/utils/Context.sol\":719:729   */\n  caller\n    /* \"@openzeppelin/contracts/access/Ownable.sol\":936:954   */\n  tag_12\n    /* \"@openzeppelin/contracts/access/Ownable.sol\":936:968   */\n  jump\t// in\ntag_9:\n    /* \"profileWallet.sol\":1184:1209  transferOwnership(_owner) */\n  tag_14\n    /* \"profileWallet.sol\":1202:1208  _owner */\n  dup2\n    /* \"profileWallet.sol\":1184:1201  transferOwnership */\n  tag_15\n    /* \"profileWallet.sol\":1184:1209  transferOwnership(_owner) */\n  jump\t// in\ntag_14:\n    /* \"profileWallet.sol\":1146:1216  constructor(address _owner) {... */\n  pop\n    /* \"profileWallet.sol\":405:5519  contract profileWallet is Ownable, ERC721Holder {... */\n  jump(tag_35)\n    /* \"@openzeppelin/contracts/access/Ownable.sol\":2433:2620   */\ntag_12:\n    /* \"@openzeppelin/contracts/access/Ownable.sol\":2506:2522   */\n  0x00\n    /* \"@openzeppelin/contracts/access/Ownable.sol\":2525:2531   */\n  dup1\n  sload\n  sub(shl(0xa0, 0x01), 0x01)\n    /* \"@openzeppelin/contracts/access/Ownable.sol\":2541:2558   */\n  dup4\n  dup2\n  and\n  not(sub(shl(0xa0, 0x01), 0x01))\n  dup4\n  and\n  dup2\n  or\n  dup5\n  sstore\n    /* \"@openzeppelin/contracts/access/Ownable.sol\":2573:2613   */\n  mload(0x40)\n    /* \"@openzeppelin/contracts/access/Ownable.sol\":2525:2531   */\n  swap2\n  swap1\n  swap3\n  and\n  swap3\n  dup4\n  swap2\n    /* \"@openzeppelin/contracts/access/Ownable.sol\":2573:2613   */\n  0x8be0079c531659141344cd1fd0a4f28419497f9722a3daafe3b4186f6b6457e0\n  swap2\n    /* \"@openzeppelin/contracts/access/Ownable.sol\":2506:2522   */\n  swap1\n    /* \"@openzeppelin/contracts/access/Ownable.sol\":2573:2613   */\n  log3\n    /* \"@openzeppelin/contracts/access/Ownable.sol\":2496:2620   */\n  pop\n    /* \"@openzeppelin/contracts/access/Ownable.sol\":2433:2620   */\n  pop\n  jump\t// out\n    /* \"@openzeppelin/contracts/access/Ownable.sol\":2081:2279   */\ntag_15:\n    /* \"@openzeppelin/contracts/access/Ownable.sol\":1094:1107   */\n  tag_20\n    /* \"@openzeppelin/contracts/access/Ownable.sol\":1094:1105   */\n  tag_21\n    /* \"@openzeppelin/contracts/access/Ownable.sol\":1094:1107   */\n  jump\t// in\ntag_20:\n  sub(shl(0xa0, 0x01), 0x01)\n    /* \"@openzeppelin/contracts/access/Ownable.sol\":2169:2191   */\n  dup2\n  and\n    /* \"@openzeppelin/contracts/access/Ownable.sol\":2161:2234   */\n  tag_23\n  jumpi\n  mload(0x40)\n  shl(0xe5, 0x461bcd)\n  dup2\n  mstore\n    /* \"#utility.yul\":738:740   */\n  0x20\n    /* \"@openzeppelin/contracts/access/Ownable.sol\":2161:2234   */\n  0x04\n  dup3\n  add\n    /* \"#utility.yul\":720:741   */\n  mstore\n    /* \"#utility.yul\":777:779   */\n  0x26\n    /* \"#utility.yul\":757:775   */\n  0x24\n  dup3\n  add\n    /* \"#utility.yul\":750:780   */\n  mstore\n    /* \"#utility.yul\":816:850   */\n  0x4f776e61626c653a206e6577206f776e657220697320746865207a65726f2061\n    /* \"#utility.yul\":796:814   */\n  0x44\n  dup3\n  add\n    /* \"#utility.yul\":789:851   */\n  mstore\n  shl(0xd0, 0x646472657373)\n    /* \"#utility.yul\":867:885   */\n  0x64\n  dup3\n  add\n    /* \"#utility.yul\":860:896   */\n  mstore\n    /* \"#utility.yul\":913:932   */\n  0x84\n  add\n    /* \"@openzeppelin/contracts/access/Ownable.sol\":2161:2234   */\ntag_24:\n  mload(0x40)\n  dup1\n  swap2\n  sub\n  swap1\n  revert\ntag_23:\n    /* \"@openzeppelin/contracts/access/Ownable.sol\":2244:2272   */\n  tag_26\n    /* \"@openzeppelin/contracts/access/Ownable.sol\":2263:2271   */\n  dup2\n    /* \"@openzeppelin/contracts/access/Ownable.sol\":2244:2262   */\n  tag_12\n    /* \"@openzeppelin/contracts/access/Ownable.sol\":2244:2272   */\n  jump\t// in\ntag_26:\n    /* \"@openzeppelin/contracts/access/Ownable.sol\":2081:2279   */\n  pop\n  jump\t// out\n    /* \"@openzeppelin/contracts/access/Ownable.sol\":1359:1489   */\ntag_21:\n    /* \"@openzeppelin/contracts/access/Ownable.sol\":1247:1254   */\n  0x00\n    /* \"@openzeppelin/contracts/access/Ownable.sol\":1273:1279   */\n  sload\n  sub(shl(0xa0, 0x01), 0x01)\n  and\n    /* \"@openzeppelin/contracts/utils/Context.sol\":719:729   */\n  caller\n    /* \"@openzeppelin/contracts/access/Ownable.sol\":1422:1445   */\n  eq\n    /* \"@openzeppelin/contracts/access/Ownable.sol\":1414:1482   */\n  tag_31\n  jumpi\n  mload(0x40)\n  shl(0xe5, 0x461bcd)\n  dup2\n  mstore\n    /* \"#utility.yul\":1145:1147   */\n  0x20\n    /* \"@openzeppelin/contracts/access/Ownable.sol\":1414:1482   */\n  0x04\n  dup3\n  add\n    /* \"#utility.yul\":1127:1148   */\n  dup2\n  swap1\n  mstore\n    /* \"#utility.yul\":1164:1182   */\n  0x24\n  dup3\n  add\n    /* \"#utility.yul\":1157:1187   */\n  mstore\n    /* \"#utility.yul\":1223:1257   */\n  0x4f776e61626c653a2063616c6c6572206973206e6f7420746865206f776e6572\n    /* \"#utility.yul\":1203:1221   */\n  0x44\n  dup3\n  add\n    /* \"#utility.yul\":1196:1258   */\n  mstore\n    /* \"#utility.yul\":1275:1293   */\n  0x64\n  add\n    /* \"@openzeppelin/contracts/access/Ownable.sol\":1414:1482   */\n  tag_24\n    /* \"#utility.yul\":943:1299   */\n  jump\n    /* \"@openzeppelin/contracts/access/Ownable.sol\":1414:1482   */\ntag_31:\n    /* \"@openzeppelin/contracts/access/Ownable.sol\":1359:1489   */\n  jump\t// out\n    /* \"#utility.yul\":14:236   */\ntag_2:\n    /* \"#utility.yul\":54:58   */\n  0x00\n    /* \"#utility.yul\":82:83   */\n  dup3\n    /* \"#utility.yul\":79:80   */\n  dup3\n    /* \"#utility.yul\":76:84   */\n  lt\n    /* \"#utility.yul\":73:204   */\n  iszero\n  tag_37\n  jumpi\n    /* \"#utility.yul\":126:136   */\n  0x4e487b71\n    /* \"#utility.yul\":121:124   */\n  0xe0\n    /* \"#utility.yul\":117:137   */\n  shl\n    /* \"#utility.yul\":114:115   */\n  0x00\n    /* \"#utility.yul\":107:138   */\n  mstore\n    /* \"#utility.yul\":161:165   */\n  0x11\n    /* \"#utility.yul\":158:159   */\n  0x04\n    /* \"#utility.yul\":151:166   */\n  mstore\n    /* \"#utility.yul\":189:193   */\n  0x24\n    /* \"#utility.yul\":186:187   */\n  0x00\n    /* \"#utility.yul\":179:194   */\n  revert\n    /* \"#utility.yul\":73:204   */\ntag_37:\n  pop\n    /* \"#utility.yul\":221:230   */\n  sub\n  swap1\n    /* \"#utility.yul\":14:236   */\n  jump\t// out\n    /* \"#utility.yul\":241:531   */\ntag_5:\n    /* \"#utility.yul\":311:317   */\n  0x00\n    /* \"#utility.yul\":364:366   */\n  0x20\n    /* \"#utility.yul\":352:361   */\n  dup3\n    /* \"#utility.yul\":343:350   */\n  dup5\n    /* \"#utility.yul\":339:362   */\n  sub\n    /* \"#utility.yul\":335:367   */\n  slt\n    /* \"#utility.yul\":332:384   */\n  iszero\n  tag_39\n  jumpi\n    /* \"#utility.yul\":380:381   */\n  0x00\n    /* \"#utility.yul\":377:378   */\n  dup1\n    /* \"#utility.yul\":370:382   */\n  revert\n    /* \"#utility.yul\":332:384   */\ntag_39:\n    /* \"#utility.yul\":406:422   */\n  dup2\n  mload\n  sub(shl(0xa0, 0x01), 0x01)\n    /* \"#utility.yul\":451:482   */\n  dup2\n  and\n    /* \"#utility.yul\":441:483   */\n  dup2\n  eq\n    /* \"#utility.yul\":431:501   */\n  tag_40\n  jumpi\n    /* \"#utility.yul\":497:498   */\n  0x00\n    /* \"#utility.yul\":494:495   */\n  dup1\n    /* \"#utility.yul\":487:499   */\n  revert\n    /* \"#utility.yul\":431:501   */\ntag_40:\n    /* \"#utility.yul\":520:525   */\n  swap4\n    /* \"#utility.yul\":241:531   */\n  swap3\n  pop\n  pop\n  pop\n  jump\t// out\n    /* \"#utility.yul\":943:1299   */\ntag_35:\n    /* \"profileWallet.sol\":405:5519  contract profileWallet is Ownable, ERC721Holder {... */\n  dataSize(sub_0)\n  dup1\n  dataOffset(sub_0)\n  0x00\n  codecopy\n  0x00\n  return\nstop\n\nsub_0: assembly {\n        /* \"profileWallet.sol\":405:5519  contract profileWallet is Ownable, ERC721Holder {... */\n      mstore(0x40, 0x80)\n      jumpi(tag_1, lt(calldatasize, 0x04))\n      shr(0xe0, calldataload(0x00))\n      dup1\n      0x715018a6\n      gt\n      tag_24\n      jumpi\n      dup1\n      0xad7a672f\n      gt\n      tag_25\n      jumpi\n      dup1\n      0xca4b208b\n      gt\n      tag_26\n      jumpi\n      dup1\n      0xca4b208b\n      eq\n      tag_21\n      jumpi\n      dup1\n      0xd0e30db0\n      eq\n      tag_22\n      jumpi\n      dup1\n      0xf2fde38b\n      eq\n      tag_23\n      jumpi\n      stop\n    tag_26:\n      dup1\n      0xad7a672f\n      eq\n      tag_18\n      jumpi\n      dup1\n      0xc33af250\n      eq\n      tag_19\n      jumpi\n      dup1\n      0xc4076876\n      eq\n      tag_20\n      jumpi\n      stop\n    tag_25:\n      dup1\n      0x92772047\n      gt\n      tag_27\n      jumpi\n      dup1\n      0x92772047\n      eq\n      tag_15\n      jumpi\n      dup1\n      0xa0af39fc\n      eq\n      tag_16\n      jumpi\n      dup1\n      0xa6d23e10\n      eq\n      tag_17\n      jumpi\n      stop\n    tag_27:\n      dup1\n      0x715018a6\n      eq\n      tag_13\n      jumpi\n      dup1\n      0x8da5cb5b\n      eq\n      tag_14\n      jumpi\n      stop\n    tag_24:\n      dup1\n      0x4b2a7b7d\n      gt\n      tag_28\n      jumpi\n      dup1\n      0x5e35359e\n      gt\n      tag_29\n      jumpi\n      dup1\n      0x5e35359e\n      eq\n      tag_10\n      jumpi\n      dup1\n      0x6457d0b2\n      eq\n      tag_11\n      jumpi\n      dup1\n      0x6b4943a7\n      eq\n      tag_12\n      jumpi\n      stop\n    tag_29:\n      dup1\n      0x4b2a7b7d\n      eq\n      tag_8\n      jumpi\n      dup1\n      0x55eb3e34\n      eq\n      tag_9\n      jumpi\n      stop\n    tag_28:\n      dup1\n      0x338b5dea\n      gt\n      tag_30\n      jumpi\n      dup1\n      0x338b5dea\n      eq\n      tag_5\n      jumpi\n      dup1\n      0x3aecd0e3\n      eq\n      tag_6\n      jumpi\n      dup1\n      0x439766ce\n      eq\n      tag_7\n      jumpi\n      stop\n    tag_30:\n      dup1\n      0x12065fe0\n      eq\n      tag_3\n      jumpi\n      dup1\n      0x150b7a02\n      eq\n      tag_4\n      jumpi\n      stop\n    tag_1:\n      jumpi(tag_2, calldatasize)\n        /* \"profileWallet.sol\":5321:5327  paused */\n      sload(0x01)\n      shl(0xa0, 0x01)\n      swap1\n      div\n      0xff\n      and\n        /* \"profileWallet.sol\":5320:5327  !paused */\n      iszero\n        /* \"profileWallet.sol\":5312:5360  require(!paused, \"Contract is currently paused\") */\n      tag_33\n      jumpi\n      mload(0x40)\n      shl(0xe5, 0x461bcd)\n      dup2\n      mstore\n        /* \"#utility.yul\":216:218   */\n      0x20\n        /* \"profileWallet.sol\":5312:5360  require(!paused, \"Contract is currently paused\") */\n      0x04\n      dup3\n      add\n        /* \"#utility.yul\":198:219   */\n      mstore\n        /* \"#utility.yul\":255:257   */\n      0x1c\n        /* \"#utility.yul\":235:253   */\n      0x24\n      dup3\n      add\n        /* \"#utility.yul\":228:258   */\n      mstore\n        /* \"#utility.yul\":294:324   */\n      0x436f6e74726163742069732063757272656e746c792070617573656400000000\n        /* \"#utility.yul\":274:292   */\n      0x44\n      dup3\n      add\n        /* \"#utility.yul\":267:325   */\n      mstore\n        /* \"#utility.yul\":342:360   */\n      0x64\n      add\n        /* \"profileWallet.sol\":5312:5360  require(!paused, \"Contract is currently paused\") */\n    tag_34:\n      mload(0x40)\n      dup1\n      swap2\n      sub\n      swap1\n      revert\n    tag_33:\n        /* \"profileWallet.sol\":5375:5406  received(msg.sender, msg.value) */\n      0x40\n      dup1\n      mload\n        /* \"profileWallet.sol\":5384:5394  msg.sender */\n      caller\n        /* \"#utility.yul\":545:619   */\n      dup2\n      mstore\n        /* \"profileWallet.sol\":5396:5405  msg.value */\n      callvalue\n        /* \"#utility.yul\":650:652   */\n      0x20\n        /* \"#utility.yul\":635:653   */\n      dup3\n      add\n        /* \"#utility.yul\":628:662   */\n      mstore\n        /* \"profileWallet.sol\":5375:5406  received(msg.sender, msg.value) */\n      0xf11e547d796cc64acdf758e7cee90439494fd886a19159454aa61e473fdbafef\n      swap2\n        /* \"#utility.yul\":518:536   */\n      add\n        /* \"profileWallet.sol\":5375:5406  received(msg.sender, msg.value) */\n      mload(0x40)\n      dup1\n      swap2\n      sub\n      swap1\n      log1\n        /* \"profileWallet.sol\":405:5519  contract profileWallet is Ownable, ERC721Holder {... */\n      stop\n    tag_2:\n      stop\n        /* \"profileWallet.sol\":2331:2428  function getBalance() public view returns (uint256) {... */\n    tag_3:\n      callvalue\n      dup1\n      iszero\n      tag_40\n      jumpi\n      0x00\n      dup1\n      revert\n    tag_40:\n      pop\n        /* \"profileWallet.sol\":2400:2421  address(this).balance */\n      selfbalance\n        /* \"profileWallet.sol\":2331:2428  function getBalance() public view returns (uint256) {... */\n    tag_41:\n      mload(0x40)\n        /* \"#utility.yul\":819:844   */\n      swap1\n      dup2\n      mstore\n        /* \"#utility.yul\":807:809   */\n      0x20\n        /* \"#utility.yul\":792:810   */\n      add\n        /* \"profileWallet.sol\":2331:2428  function getBalance() public view returns (uint256) {... */\n    tag_43:\n      mload(0x40)\n      dup1\n      swap2\n      sub\n      swap1\n      return\n        /* \"@openzeppelin/contracts/token/ERC721/utils/ERC721Holder.sol\":588:788   */\n    tag_4:\n      callvalue\n      dup1\n      iszero\n      tag_45\n      jumpi\n      0x00\n      dup1\n      revert\n    tag_45:\n      pop\n      tag_46\n      tag_47\n      calldatasize\n      0x04\n      tag_48\n      jump\t// in\n    tag_47:\n      shl(0xe1, 0x0a85bd01)\n      swap5\n      swap4\n      pop\n      pop\n      pop\n      pop\n      jump\n    tag_46:\n      mload(0x40)\n        /* \"#utility.yul\":2591:2611   */\n      0xffffffff00000000000000000000000000000000000000000000000000000000\n        /* \"#utility.yul\":2579:2612   */\n      swap1\n      swap2\n      and\n        /* \"#utility.yul\":2561:2613   */\n      dup2\n      mstore\n        /* \"#utility.yul\":2549:2551   */\n      0x20\n        /* \"#utility.yul\":2534:2552   */\n      add\n        /* \"@openzeppelin/contracts/token/ERC721/utils/ERC721Holder.sol\":588:788   */\n      tag_43\n        /* \"#utility.yul\":2417:2619   */\n      jump\n        /* \"profileWallet.sol\":3891:4073  function depositToken(address _token, uint256 _amount)... */\n    tag_5:\n      callvalue\n      dup1\n      iszero\n      tag_52\n      jumpi\n      0x00\n      dup1\n      revert\n    tag_52:\n      pop\n      tag_2\n      tag_54\n      calldatasize\n      0x04\n      tag_55\n      jump\t// in\n    tag_54:\n      tag_56\n      jump\t// in\n        /* \"profileWallet.sol\":2434:2566  function getTokenBalance(address token) public view returns (uint256) {... */\n    tag_6:\n      callvalue\n      dup1\n      iszero\n      tag_57\n      jumpi\n      0x00\n      dup1\n      revert\n    tag_57:\n      pop\n      tag_41\n      tag_59\n      calldatasize\n      0x04\n      tag_60\n      jump\t// in\n    tag_59:\n      tag_61\n      jump\t// in\n        /* \"profileWallet.sol\":5131:5206  function pauseContract() public onlyOwner {... */\n    tag_7:\n      callvalue\n      dup1\n      iszero\n      tag_63\n      jumpi\n      0x00\n      dup1\n      revert\n    tag_63:\n      pop\n      tag_2\n      tag_65\n      jump\t// in\n        /* \"profileWallet.sol\":931:967  uint256 public EMIamountPerMonth = 0 */\n    tag_8:\n      callvalue\n      dup1\n      iszero\n      tag_66\n      jumpi\n      0x00\n      dup1\n      revert\n    tag_66:\n      pop\n      tag_41\n      sload(0x05)\n      dup2\n      jump\n        /* \"profileWallet.sol\":1028:1080  uint256 public constant interestFreePeriod = 30 days */\n    tag_9:\n      callvalue\n      dup1\n      iszero\n      tag_70\n      jumpi\n      0x00\n      dup1\n      revert\n    tag_70:\n      pop\n      tag_41\n        /* \"profileWallet.sol\":1073:1080  30 days */\n      0x278d00\n        /* \"profileWallet.sol\":1028:1080  uint256 public constant interestFreePeriod = 30 days */\n      dup2\n      jump\n        /* \"profileWallet.sol\":4800:5070  function withdrawTokens(... */\n    tag_10:\n      callvalue\n      dup1\n      iszero\n      tag_74\n      jumpi\n      0x00\n      dup1\n      revert\n    tag_74:\n      pop\n      tag_75\n      tag_76\n      calldatasize\n      0x04\n      tag_77\n      jump\t// in\n    tag_76:\n      tag_78\n      jump\t// in\n    tag_75:\n      mload(0x40)\n        /* \"#utility.yul\":3830:3844   */\n      swap1\n      iszero\n        /* \"#utility.yul\":3823:3845   */\n      iszero\n        /* \"#utility.yul\":3805:3846   */\n      dup2\n      mstore\n        /* \"#utility.yul\":3793:3795   */\n      0x20\n        /* \"#utility.yul\":3778:3796   */\n      add\n        /* \"profileWallet.sol\":4800:5070  function withdrawTokens(... */\n      tag_43\n        /* \"#utility.yul\":3665:3852   */\n      jump\n        /* \"profileWallet.sol\":861:924  uint256 public reedemableBalance = totalBalance - blockedAmount */\n    tag_11:\n      callvalue\n      dup1\n      iszero\n      tag_81\n      jumpi\n      0x00\n      dup1\n      revert\n    tag_81:\n      pop\n      tag_41\n      sload(0x04)\n      dup2\n      jump\n        /* \"profileWallet.sol\":766:798  uint256 public blockedAmount = 0 */\n    tag_12:\n      callvalue\n      dup1\n      iszero\n      tag_85\n      jumpi\n      0x00\n      dup1\n      revert\n    tag_85:\n      pop\n      tag_41\n      sload(0x02)\n      dup2\n      jump\n        /* \"@openzeppelin/contracts/access/Ownable.sol\":1831:1932   */\n    tag_13:\n      callvalue\n      dup1\n      iszero\n      tag_89\n      jumpi\n      0x00\n      dup1\n      revert\n    tag_89:\n      pop\n      tag_2\n      tag_91\n      jump\t// in\n        /* \"@openzeppelin/contracts/access/Ownable.sol\":1201:1286   */\n    tag_14:\n      callvalue\n      dup1\n      iszero\n      tag_92\n      jumpi\n      0x00\n      dup1\n      revert\n    tag_92:\n      pop\n        /* \"@openzeppelin/contracts/access/Ownable.sol\":1247:1254   */\n      0x00\n        /* \"@openzeppelin/contracts/access/Ownable.sol\":1273:1279   */\n      sload\n      sub(shl(0xa0, 0x01), 0x01)\n      and\n        /* \"@openzeppelin/contracts/access/Ownable.sol\":1201:1286   */\n    tag_93:\n      mload(0x40)\n      sub(shl(0xa0, 0x01), 0x01)\n        /* \"#utility.yul\":4021:4076   */\n      swap1\n      swap2\n      and\n        /* \"#utility.yul\":4003:4077   */\n      dup2\n      mstore\n        /* \"#utility.yul\":3991:3993   */\n      0x20\n        /* \"#utility.yul\":3976:3994   */\n      add\n        /* \"@openzeppelin/contracts/access/Ownable.sol\":1201:1286   */\n      tag_43\n        /* \"#utility.yul\":3857:4083   */\n      jump\n        /* \"profileWallet.sol\":2962:3372  function payinToken(... */\n    tag_15:\n      callvalue\n      dup1\n      iszero\n      tag_97\n      jumpi\n      0x00\n      dup1\n      revert\n    tag_97:\n      pop\n      tag_2\n      tag_99\n      calldatasize\n      0x04\n      tag_77\n      jump\t// in\n    tag_99:\n      tag_101\n      jump\t// in\n        /* \"profileWallet.sol\":973:1022  uint256 public constant interestRatePerMonth = 12 */\n    tag_16:\n      callvalue\n      dup1\n      iszero\n      tag_102\n      jumpi\n      0x00\n      dup1\n      revert\n    tag_102:\n      pop\n      tag_41\n        /* \"profileWallet.sol\":1020:1022  12 */\n      0x0c\n        /* \"profileWallet.sol\":973:1022  uint256 public constant interestRatePerMonth = 12 */\n      dup2\n      jump\n        /* \"profileWallet.sol\":459:482  address public payments */\n    tag_17:\n      callvalue\n      dup1\n      iszero\n      tag_106\n      jumpi\n      0x00\n      dup1\n      revert\n    tag_106:\n      pop\n      sload(0x01)\n      tag_93\n      swap1\n      sub(shl(0xa0, 0x01), 0x01)\n      and\n      dup2\n      jump\n        /* \"profileWallet.sol\":804:855  uint256 public totalBalance = address(this).balance */\n    tag_18:\n      callvalue\n      dup1\n      iszero\n      tag_110\n      jumpi\n      0x00\n      dup1\n      revert\n    tag_110:\n      pop\n      tag_41\n      sload(0x03)\n      dup2\n      jump\n        /* \"profileWallet.sol\":4239:4631  function withdrawEthTo(address payable _to, uint256 _amount)... */\n    tag_19:\n      callvalue\n      dup1\n      iszero\n      tag_114\n      jumpi\n      0x00\n      dup1\n      revert\n    tag_114:\n      pop\n      tag_75\n      tag_116\n      calldatasize\n      0x04\n      tag_55\n      jump\t// in\n    tag_116:\n      tag_118\n      jump\t// in\n        /* \"profileWallet.sol\":2572:2956  function pay(address _reciever, uint256 _amount) public onlyApproved {... */\n    tag_20:\n      callvalue\n      dup1\n      iszero\n      tag_120\n      jumpi\n      0x00\n      dup1\n      revert\n    tag_120:\n      pop\n      tag_2\n      tag_122\n      calldatasize\n      0x04\n      tag_55\n      jump\t// in\n    tag_122:\n      tag_123\n      jump\t// in\n        /* \"profileWallet.sol\":488:574  address public constant developer =... */\n    tag_21:\n      callvalue\n      dup1\n      iszero\n      tag_124\n      jumpi\n      0x00\n      dup1\n      revert\n    tag_124:\n      pop\n      tag_93\n        /* \"profileWallet.sol\":532:574  0xe22eCBbA8fB9C0124eeCb6AfE0bf6A487424989f */\n      0xe22ecbba8fb9c0124eecb6afe0bf6a487424989f\n        /* \"profileWallet.sol\":488:574  address public constant developer =... */\n      dup2\n      jump\n        /* \"profileWallet.sol\":3509:3668  function deposit() external payable onlyWhenNotPaused {... */\n    tag_22:\n      tag_2\n      tag_129\n      jump\t// in\n        /* \"@openzeppelin/contracts/access/Ownable.sol\":2081:2279   */\n    tag_23:\n      callvalue\n      dup1\n      iszero\n      tag_130\n      jumpi\n      0x00\n      dup1\n      revert\n    tag_130:\n      pop\n      tag_2\n      tag_132\n      calldatasize\n      0x04\n      tag_60\n      jump\t// in\n    tag_132:\n      tag_133\n      jump\t// in\n        /* \"profileWallet.sol\":3891:4073  function depositToken(address _token, uint256 _amount)... */\n    tag_56:\n        /* \"profileWallet.sol\":1270:1276  paused */\n      sload(0x01)\n      shl(0xa0, 0x01)\n      swap1\n      div\n      0xff\n      and\n        /* \"profileWallet.sol\":1269:1276  !paused */\n      iszero\n        /* \"profileWallet.sol\":1261:1309  require(!paused, \"Contract is currently paused\") */\n      tag_137\n      jumpi\n      mload(0x40)\n      shl(0xe5, 0x461bcd)\n      dup2\n      mstore\n        /* \"#utility.yul\":216:218   */\n      0x20\n        /* \"profileWallet.sol\":1261:1309  require(!paused, \"Contract is currently paused\") */\n      0x04\n      dup3\n      add\n        /* \"#utility.yul\":198:219   */\n      mstore\n        /* \"#utility.yul\":255:257   */\n      0x1c\n        /* \"#utility.yul\":235:253   */\n      0x24\n      dup3\n      add\n        /* \"#utility.yul\":228:258   */\n      mstore\n        /* \"#utility.yul\":294:324   */\n      0x436f6e74726163742069732063757272656e746c792070617573656400000000\n        /* \"#utility.yul\":274:292   */\n      0x44\n      dup3\n      add\n        /* \"#utility.yul\":267:325   */\n      mstore\n        /* \"#utility.yul\":342:360   */\n      0x64\n      add\n        /* \"profileWallet.sol\":1261:1309  require(!paused, \"Contract is currently paused\") */\n      tag_34\n        /* \"#utility.yul\":14:366   */\n      jump\n        /* \"profileWallet.sol\":1261:1309  require(!paused, \"Contract is currently paused\") */\n    tag_137:\n        /* \"profileWallet.sol\":4003:4066  IERC20(_token).transferFrom(msg.sender, address(this), _amount) */\n      mload(0x40)\n      shl(0xe0, 0x23b872dd)\n      dup2\n      mstore\n        /* \"profileWallet.sol\":4031:4041  msg.sender */\n      caller\n        /* \"profileWallet.sol\":4003:4066  IERC20(_token).transferFrom(msg.sender, address(this), _amount) */\n      0x04\n      dup3\n      add\n        /* \"#utility.yul\":5140:5174   */\n      mstore\n        /* \"profileWallet.sol\":4051:4055  this */\n      address\n        /* \"#utility.yul\":5190:5208   */\n      0x24\n      dup3\n      add\n        /* \"#utility.yul\":5183:5226   */\n      mstore\n        /* \"#utility.yul\":5242:5260   */\n      0x44\n      dup2\n      add\n        /* \"#utility.yul\":5235:5269   */\n      dup3\n      swap1\n      mstore\n      sub(shl(0xa0, 0x01), 0x01)\n        /* \"profileWallet.sol\":4003:4030  IERC20(_token).transferFrom */\n      dup4\n      and\n      swap1\n      0x23b872dd\n      swap1\n        /* \"#utility.yul\":5052:5070   */\n      0x64\n      add\n        /* \"profileWallet.sol\":4003:4066  IERC20(_token).transferFrom(msg.sender, address(this), _amount) */\n      0x20\n      mload(0x40)\n      dup1\n      dup4\n      sub\n      dup2\n      0x00\n      dup8\n      gas\n      call\n      iszero\n      dup1\n      iszero\n      tag_143\n      jumpi\n      returndatasize\n      0x00\n      dup1\n      returndatacopy\n      revert(0x00, returndatasize)\n    tag_143:\n      pop\n      pop\n      pop\n      pop\n      mload(0x40)\n      returndatasize\n      not(0x1f)\n      0x1f\n      dup3\n      add\n      and\n      dup3\n      add\n      dup1\n      0x40\n      mstore\n      pop\n      dup2\n      add\n      swap1\n      tag_144\n      swap2\n      swap1\n      tag_145\n      jump\t// in\n    tag_144:\n      pop\n        /* \"profileWallet.sol\":3891:4073  function depositToken(address _token, uint256 _amount)... */\n      pop\n      pop\n      jump\t// out\n        /* \"profileWallet.sol\":2434:2566  function getTokenBalance(address token) public view returns (uint256) {... */\n    tag_61:\n        /* \"profileWallet.sol\":2521:2559  IERC20(token).balanceOf(address(this)) */\n      mload(0x40)\n      shl(0xe0, 0x70a08231)\n      dup2\n      mstore\n        /* \"profileWallet.sol\":2553:2557  this */\n      address\n        /* \"profileWallet.sol\":2521:2559  IERC20(token).balanceOf(address(this)) */\n      0x04\n      dup3\n      add\n        /* \"#utility.yul\":4003:4077   */\n      mstore\n        /* \"profileWallet.sol\":2495:2502  uint256 */\n      0x00\n      swap1\n      sub(shl(0xa0, 0x01), 0x01)\n        /* \"profileWallet.sol\":2521:2544  IERC20(token).balanceOf */\n      dup4\n      and\n      swap1\n      0x70a08231\n      swap1\n        /* \"#utility.yul\":3976:3994   */\n      0x24\n      add\n        /* \"profileWallet.sol\":2521:2559  IERC20(token).balanceOf(address(this)) */\n      0x20\n      mload(0x40)\n      dup1\n      dup4\n      sub\n      dup2\n      dup7\n      gas\n      staticcall\n      iszero\n      dup1\n      iszero\n      tag_149\n      jumpi\n      returndatasize\n      0x00\n      dup1\n      returndatacopy\n      revert(0x00, returndatasize)\n    tag_149:\n      pop\n      pop\n      pop\n      pop\n      mload(0x40)\n      returndatasize\n      not(0x1f)\n      0x1f\n      dup3\n      add\n      and\n      dup3\n      add\n      dup1\n      0x40\n      mstore\n      pop\n      dup2\n      add\n      swap1\n      tag_150\n      swap2\n      swap1\n      tag_151\n      jump\t// in\n    tag_150:\n        /* \"profileWallet.sol\":2514:2559  return IERC20(token).balanceOf(address(this)) */\n      swap3\n        /* \"profileWallet.sol\":2434:2566  function getTokenBalance(address token) public view returns (uint256) {... */\n      swap2\n      pop\n      pop\n      jump\t// out\n        /* \"profileWallet.sol\":5131:5206  function pauseContract() public onlyOwner {... */\n    tag_65:\n        /* \"@openzeppelin/contracts/access/Ownable.sol\":1094:1107   */\n      tag_153\n        /* \"@openzeppelin/contracts/access/Ownable.sol\":1094:1105   */\n      tag_154\n        /* \"@openzeppelin/contracts/access/Ownable.sol\":1094:1107   */\n      jump\t// in\n    tag_153:\n        /* \"profileWallet.sol\":5193:5199  paused */\n      0x01\n      dup1\n      sload\n        /* \"profileWallet.sol\":5183:5199  paused = !paused */\n      0xffffffffffffffffffffff00ffffffffffffffffffffffffffffffffffffffff\n      dup2\n      and\n      shl(0xa0, 0x01)\n        /* \"profileWallet.sol\":5193:5199  paused */\n      swap2\n      dup3\n      swap1\n      div\n      0xff\n      and\n        /* \"profileWallet.sol\":5192:5199  !paused */\n      iszero\n        /* \"profileWallet.sol\":5183:5199  paused = !paused */\n      swap1\n      swap2\n      mul\n      or\n      swap1\n      sstore\n        /* \"profileWallet.sol\":5131:5206  function pauseContract() public onlyOwner {... */\n      jump\t// out\n        /* \"profileWallet.sol\":4800:5070  function withdrawTokens(... */\n    tag_78:\n        /* \"profileWallet.sol\":4951:4955  bool */\n      0x00\n        /* \"@openzeppelin/contracts/access/Ownable.sol\":1094:1107   */\n      tag_157\n        /* \"@openzeppelin/contracts/access/Ownable.sol\":1094:1105   */\n      tag_154\n        /* \"@openzeppelin/contracts/access/Ownable.sol\":1094:1107   */\n      jump\t// in\n    tag_157:\n        /* \"profileWallet.sol\":1270:1276  paused */\n      sload(0x01)\n      shl(0xa0, 0x01)\n      swap1\n      div\n      0xff\n      and\n        /* \"profileWallet.sol\":1269:1276  !paused */\n      iszero\n        /* \"profileWallet.sol\":1261:1309  require(!paused, \"Contract is currently paused\") */\n      tag_159\n      jumpi\n      mload(0x40)\n      shl(0xe5, 0x461bcd)\n      dup2\n      mstore\n        /* \"#utility.yul\":216:218   */\n      0x20\n        /* \"profileWallet.sol\":1261:1309  require(!paused, \"Contract is currently paused\") */\n      0x04\n      dup3\n      add\n        /* \"#utility.yul\":198:219   */\n      mstore\n        /* \"#utility.yul\":255:257   */\n      0x1c\n        /* \"#utility.yul\":235:253   */\n      0x24\n      dup3\n      add\n        /* \"#utility.yul\":228:258   */\n      mstore\n        /* \"#utility.yul\":294:324   */\n      0x436f6e74726163742069732063757272656e746c792070617573656400000000\n        /* \"#utility.yul\":274:292   */\n      0x44\n      dup3\n      add\n        /* \"#utility.yul\":267:325   */\n      mstore\n        /* \"#utility.yul\":342:360   */\n      0x64\n      add\n        /* \"profileWallet.sol\":1261:1309  require(!paused, \"Contract is currently paused\") */\n      tag_34\n        /* \"#utility.yul\":14:366   */\n      jump\n        /* \"profileWallet.sol\":1261:1309  require(!paused, \"Contract is currently paused\") */\n    tag_159:\n        /* \"profileWallet.sol\":4967:5003  IERC20(token).transfer(_to, _amount) */\n      mload(0x40)\n      shl(0xe0, 0xa9059cbb)\n      dup2\n      mstore\n      sub(shl(0xa0, 0x01), 0x01)\n        /* \"#utility.yul\":563:618   */\n      dup5\n      dup2\n      and\n        /* \"profileWallet.sol\":4967:5003  IERC20(token).transfer(_to, _amount) */\n      0x04\n      dup4\n      add\n        /* \"#utility.yul\":545:619   */\n      mstore\n        /* \"#utility.yul\":635:653   */\n      0x24\n      dup3\n      add\n        /* \"#utility.yul\":628:662   */\n      dup5\n      swap1\n      mstore\n        /* \"profileWallet.sol\":4967:4989  IERC20(token).transfer */\n      dup6\n      and\n      swap1\n      0xa9059cbb\n      swap1\n        /* \"#utility.yul\":518:536   */\n      0x44\n      add\n        /* \"profileWallet.sol\":4967:5003  IERC20(token).transfer(_to, _amount) */\n      0x20\n      mload(0x40)\n      dup1\n      dup4\n      sub\n      dup2\n      0x00\n      dup8\n      gas\n      call\n      iszero\n      dup1\n      iszero\n      tag_165\n      jumpi\n      returndatasize\n      0x00\n      dup1\n      returndatacopy\n      revert(0x00, returndatasize)\n    tag_165:\n      pop\n      pop\n      pop\n      pop\n      mload(0x40)\n      returndatasize\n      not(0x1f)\n      0x1f\n      dup3\n      add\n      and\n      dup3\n      add\n      dup1\n      0x40\n      mstore\n      pop\n      dup2\n      add\n      swap1\n      tag_166\n      swap2\n      swap1\n      tag_145\n      jump\t// in\n    tag_166:\n      pop\n        /* \"profileWallet.sol\":5018:5042  withdrawal(_to, _amount) */\n      0x40\n      dup1\n      mload\n      sub(shl(0xa0, 0x01), 0x01)\n        /* \"#utility.yul\":563:618   */\n      dup6\n      and\n        /* \"#utility.yul\":545:619   */\n      dup2\n      mstore\n        /* \"#utility.yul\":650:652   */\n      0x20\n        /* \"#utility.yul\":635:653   */\n      dup2\n      add\n        /* \"#utility.yul\":628:662   */\n      dup5\n      swap1\n      mstore\n        /* \"profileWallet.sol\":5018:5042  withdrawal(_to, _amount) */\n      0x5a6b26bafd3957bf06ea3b4915f51221953ed272573c779820e6e39df3e646cf\n      swap2\n        /* \"#utility.yul\":518:536   */\n      add\n        /* \"profileWallet.sol\":5018:5042  withdrawal(_to, _amount) */\n      mload(0x40)\n      dup1\n      swap2\n      sub\n      swap1\n      log1\n      pop\n        /* \"profileWallet.sol\":5059:5063  true */\n      0x01\n        /* \"profileWallet.sol\":4800:5070  function withdrawTokens(... */\n      swap4\n      swap3\n      pop\n      pop\n      pop\n      jump\t// out\n        /* \"@openzeppelin/contracts/access/Ownable.sol\":1831:1932   */\n    tag_91:\n        /* \"@openzeppelin/contracts/access/Ownable.sol\":1094:1107   */\n      tag_169\n        /* \"@openzeppelin/contracts/access/Ownable.sol\":1094:1105   */\n      tag_154\n        /* \"@openzeppelin/contracts/access/Ownable.sol\":1094:1107   */\n      jump\t// in\n    tag_169:\n        /* \"@openzeppelin/contracts/access/Ownable.sol\":1895:1925   */\n      tag_171\n        /* \"@openzeppelin/contracts/access/Ownable.sol\":1922:1923   */\n      0x00\n        /* \"@openzeppelin/contracts/access/Ownable.sol\":1895:1913   */\n      tag_172\n        /* \"@openzeppelin/contracts/access/Ownable.sol\":1895:1925   */\n      jump\t// in\n    tag_171:\n        /* \"@openzeppelin/contracts/access/Ownable.sol\":1831:1932   */\n      jump\t// out\n        /* \"profileWallet.sol\":2962:3372  function payinToken(... */\n    tag_101:\n        /* \"profileWallet.sol\":2109:2117  payments */\n      and(sub(shl(0xa0, 0x01), 0x01), sload(0x01))\n        /* \"profileWallet.sol\":2095:2105  msg.sender */\n      caller\n        /* \"profileWallet.sol\":2095:2117  msg.sender == payments */\n      eq\n      dup1\n        /* \"profileWallet.sol\":2095:2142  msg.sender == payments || msg.sender == owner() */\n      tag_175\n      jumpi\n      pop\n        /* \"@openzeppelin/contracts/access/Ownable.sol\":1247:1254   */\n      0x00\n        /* \"@openzeppelin/contracts/access/Ownable.sol\":1273:1279   */\n      sload\n      sub(shl(0xa0, 0x01), 0x01)\n      and\n        /* \"profileWallet.sol\":2121:2131  msg.sender */\n      caller\n        /* \"profileWallet.sol\":2121:2142  msg.sender == owner() */\n      eq\n        /* \"profileWallet.sol\":2095:2142  msg.sender == payments || msg.sender == owner() */\n    tag_175:\n        /* \"profileWallet.sol\":2074:2181  require(... */\n      tag_177\n      jumpi\n      mload(0x40)\n      shl(0xe5, 0x461bcd)\n      dup2\n      mstore\n        /* \"#utility.yul\":6263:6265   */\n      0x20\n        /* \"profileWallet.sol\":2074:2181  require(... */\n      0x04\n      dup3\n      add\n        /* \"#utility.yul\":6245:6266   */\n      mstore\n        /* \"#utility.yul\":6302:6304   */\n      0x0d\n        /* \"#utility.yul\":6282:6300   */\n      0x24\n      dup3\n      add\n        /* \"#utility.yul\":6275:6305   */\n      mstore\n      shl(0x9d, 0x02737ba1020b8383937bb32b21)\n        /* \"#utility.yul\":6321:6339   */\n      0x44\n      dup3\n      add\n        /* \"#utility.yul\":6314:6357   */\n      mstore\n        /* \"#utility.yul\":6374:6392   */\n      0x64\n      add\n        /* \"profileWallet.sol\":2074:2181  require(... */\n      tag_34\n        /* \"#utility.yul\":6061:6398   */\n      jump\n        /* \"profileWallet.sol\":2074:2181  require(... */\n    tag_177:\n        /* \"profileWallet.sol\":3124:3159  IERC20(token).balanceOf(msg.sender) */\n      mload(0x40)\n      shl(0xe0, 0x70a08231)\n      dup2\n      mstore\n        /* \"profileWallet.sol\":3148:3158  msg.sender */\n      caller\n        /* \"profileWallet.sol\":3124:3159  IERC20(token).balanceOf(msg.sender) */\n      0x04\n      dup3\n      add\n        /* \"#utility.yul\":4003:4077   */\n      mstore\n      sub(shl(0xa0, 0x01), 0x01)\n        /* \"profileWallet.sol\":3124:3147  IERC20(token).balanceOf */\n      dup5\n      and\n      swap1\n      0x70a08231\n      swap1\n        /* \"#utility.yul\":3976:3994   */\n      0x24\n      add\n        /* \"profileWallet.sol\":3124:3159  IERC20(token).balanceOf(msg.sender) */\n      0x20\n      mload(0x40)\n      dup1\n      dup4\n      sub\n      dup2\n      dup7\n      gas\n      staticcall\n      iszero\n      dup1\n      iszero\n      tag_183\n      jumpi\n      returndatasize\n      0x00\n      dup1\n      returndatacopy\n      revert(0x00, returndatasize)\n    tag_183:\n      pop\n      pop\n      pop\n      pop\n      mload(0x40)\n      returndatasize\n      not(0x1f)\n      0x1f\n      dup3\n      add\n      and\n      dup3\n      add\n      dup1\n      0x40\n      mstore\n      pop\n      dup2\n      add\n      swap1\n      tag_184\n      swap2\n      swap1\n      tag_151\n      jump\t// in\n    tag_184:\n        /* \"profileWallet.sol\":3113:3120  _amount */\n      dup2\n        /* \"profileWallet.sol\":3113:3159  _amount <= IERC20(token).balanceOf(msg.sender) */\n      gt\n      iszero\n        /* \"profileWallet.sol\":3113:3174  _amount <= IERC20(token).balanceOf(msg.sender) && _amount > 0 */\n      dup1\n      iszero\n      tag_185\n      jumpi\n      pop\n        /* \"profileWallet.sol\":3173:3174  0 */\n      0x00\n        /* \"profileWallet.sol\":3163:3170  _amount */\n      dup2\n        /* \"profileWallet.sol\":3163:3174  _amount > 0 */\n      gt\n        /* \"profileWallet.sol\":3113:3174  _amount <= IERC20(token).balanceOf(msg.sender) && _amount > 0 */\n    tag_185:\n        /* \"profileWallet.sol\":3092:3234  require(... */\n      tag_186\n      jumpi\n      mload(0x40)\n      shl(0xe5, 0x461bcd)\n      dup2\n      mstore\n        /* \"#utility.yul\":6605:6607   */\n      0x20\n        /* \"profileWallet.sol\":3092:3234  require(... */\n      0x04\n      dup3\n      add\n        /* \"#utility.yul\":6587:6608   */\n      mstore\n        /* \"#utility.yul\":6644:6646   */\n      0x22\n        /* \"#utility.yul\":6624:6642   */\n      0x24\n      dup3\n      add\n        /* \"#utility.yul\":6617:6647   */\n      mstore\n        /* \"#utility.yul\":6683:6717   */\n      0x416d6f756e74206e6f742056616c6964206f72206e6f7420617661696c61626c\n        /* \"#utility.yul\":6663:6681   */\n      0x44\n      dup3\n      add\n        /* \"#utility.yul\":6656:6718   */\n      mstore\n      shl(0xf5, 0x0329)\n        /* \"#utility.yul\":6734:6752   */\n      0x64\n      dup3\n      add\n        /* \"#utility.yul\":6727:6759   */\n      mstore\n        /* \"#utility.yul\":6776:6795   */\n      0x84\n      add\n        /* \"profileWallet.sol\":3092:3234  require(... */\n      tag_34\n        /* \"#utility.yul\":6403:6801   */\n      jump\n        /* \"profileWallet.sol\":3092:3234  require(... */\n    tag_186:\n      sub(shl(0xa0, 0x01), 0x01)\n        /* \"profileWallet.sol\":3252:3274  reciever != address(0) */\n      dup3\n      and\n        /* \"profileWallet.sol\":3244:3298  require(reciever != address(0), \"Not a valid address\") */\n      tag_189\n      jumpi\n      mload(0x40)\n      shl(0xe5, 0x461bcd)\n      dup2\n      mstore\n        /* \"#utility.yul\":7008:7010   */\n      0x20\n        /* \"profileWallet.sol\":3244:3298  require(reciever != address(0), \"Not a valid address\") */\n      0x04\n      dup3\n      add\n        /* \"#utility.yul\":6990:7011   */\n      mstore\n        /* \"#utility.yul\":7047:7049   */\n      0x13\n        /* \"#utility.yul\":7027:7045   */\n      0x24\n      dup3\n      add\n        /* \"#utility.yul\":7020:7050   */\n      mstore\n        /* \"#utility.yul\":7086:7107   */\n      0x4e6f7420612076616c6964206164647265737300000000000000000000000000\n        /* \"#utility.yul\":7066:7084   */\n      0x44\n      dup3\n      add\n        /* \"#utility.yul\":7059:7108   */\n      mstore\n        /* \"#utility.yul\":7125:7143   */\n      0x64\n      add\n        /* \"profileWallet.sol\":3244:3298  require(reciever != address(0), \"Not a valid address\") */\n      tag_34\n        /* \"#utility.yul\":6806:7149   */\n      jump\n        /* \"profileWallet.sol\":3244:3298  require(reciever != address(0), \"Not a valid address\") */\n    tag_189:\n        /* \"profileWallet.sol\":3308:3365  IERC20(token).transferFrom(msg.sender, reciever, _amount) */\n      mload(0x40)\n      shl(0xe0, 0x23b872dd)\n      dup2\n      mstore\n        /* \"profileWallet.sol\":3335:3345  msg.sender */\n      caller\n        /* \"profileWallet.sol\":3308:3365  IERC20(token).transferFrom(msg.sender, reciever, _amount) */\n      0x04\n      dup3\n      add\n        /* \"#utility.yul\":5140:5174   */\n      mstore\n      sub(shl(0xa0, 0x01), 0x01)\n        /* \"#utility.yul\":5210:5225   */\n      dup4\n      dup2\n      and\n        /* \"#utility.yul\":5190:5208   */\n      0x24\n      dup4\n      add\n        /* \"#utility.yul\":5183:5226   */\n      mstore\n        /* \"#utility.yul\":5242:5260   */\n      0x44\n      dup3\n      add\n        /* \"#utility.yul\":5235:5269   */\n      dup4\n      swap1\n      mstore\n        /* \"profileWallet.sol\":3308:3334  IERC20(token).transferFrom */\n      dup5\n      and\n      swap1\n      0x23b872dd\n      swap1\n        /* \"#utility.yul\":5052:5070   */\n      0x64\n      add\n        /* \"profileWallet.sol\":3308:3365  IERC20(token).transferFrom(msg.sender, reciever, _amount) */\n      0x20\n      mload(0x40)\n      dup1\n      dup4\n      sub\n      dup2\n      0x00\n      dup8\n      gas\n      call\n      iszero\n      dup1\n      iszero\n      tag_194\n      jumpi\n      returndatasize\n      0x00\n      dup1\n      returndatacopy\n      revert(0x00, returndatasize)\n    tag_194:\n      pop\n      pop\n      pop\n      pop\n      mload(0x40)\n      returndatasize\n      not(0x1f)\n      0x1f\n      dup3\n      add\n      and\n      dup3\n      add\n      dup1\n      0x40\n      mstore\n      pop\n      dup2\n      add\n      swap1\n      tag_195\n      swap2\n      swap1\n      tag_145\n      jump\t// in\n    tag_195:\n      pop\n        /* \"profileWallet.sol\":2962:3372  function payinToken(... */\n      pop\n      pop\n      pop\n      jump\t// out\n        /* \"profileWallet.sol\":4239:4631  function withdrawEthTo(address payable _to, uint256 _amount)... */\n    tag_118:\n        /* \"profileWallet.sol\":4376:4380  bool */\n      0x00\n        /* \"@openzeppelin/contracts/access/Ownable.sol\":1094:1107   */\n      tag_197\n        /* \"@openzeppelin/contracts/access/Ownable.sol\":1094:1105   */\n      tag_154\n        /* \"@openzeppelin/contracts/access/Ownable.sol\":1094:1107   */\n      jump\t// in\n    tag_197:\n        /* \"profileWallet.sol\":1270:1276  paused */\n      sload(0x01)\n      shl(0xa0, 0x01)\n      swap1\n      div\n      0xff\n      and\n        /* \"profileWallet.sol\":1269:1276  !paused */\n      iszero\n        /* \"profileWallet.sol\":1261:1309  require(!paused, \"Contract is currently paused\") */\n      tag_199\n      jumpi\n      mload(0x40)\n      shl(0xe5, 0x461bcd)\n      dup2\n      mstore\n        /* \"#utility.yul\":216:218   */\n      0x20\n        /* \"profileWallet.sol\":1261:1309  require(!paused, \"Contract is currently paused\") */\n      0x04\n      dup3\n      add\n        /* \"#utility.yul\":198:219   */\n      mstore\n        /* \"#utility.yul\":255:257   */\n      0x1c\n        /* \"#utility.yul\":235:253   */\n      0x24\n      dup3\n      add\n        /* \"#utility.yul\":228:258   */\n      mstore\n        /* \"#utility.yul\":294:324   */\n      0x436f6e74726163742069732063757272656e746c792070617573656400000000\n        /* \"#utility.yul\":274:292   */\n      0x44\n      dup3\n      add\n        /* \"#utility.yul\":267:325   */\n      mstore\n        /* \"#utility.yul\":342:360   */\n      0x64\n      add\n        /* \"profileWallet.sol\":1261:1309  require(!paused, \"Contract is currently paused\") */\n      tag_34\n        /* \"#utility.yul\":14:366   */\n      jump\n        /* \"profileWallet.sol\":1261:1309  require(!paused, \"Contract is currently paused\") */\n    tag_199:\n        /* \"profileWallet.sol\":4427:4444  reedemableBalance */\n      sload(0x04)\n        /* \"profileWallet.sol\":4417:4424  _amount */\n      dup3\n        /* \"profileWallet.sol\":4417:4444  _amount < reedemableBalance */\n      lt\n        /* \"profileWallet.sol\":4396:4504  require(... */\n      tag_202\n      jumpi\n      mload(0x40)\n      shl(0xe5, 0x461bcd)\n      dup2\n      mstore\n        /* \"#utility.yul\":7356:7358   */\n      0x20\n        /* \"profileWallet.sol\":4396:4504  require(... */\n      0x04\n      dup3\n      add\n        /* \"#utility.yul\":7338:7359   */\n      mstore\n        /* \"#utility.yul\":7395:7397   */\n      0x22\n        /* \"#utility.yul\":7375:7393   */\n      0x24\n      dup3\n      add\n        /* \"#utility.yul\":7368:7398   */\n      mstore\n        /* \"#utility.yul\":7434:7468   */\n      0x43616e2774207769746864726177206d6f7265207468616e20746865206c696d\n        /* \"#utility.yul\":7414:7432   */\n      0x44\n      dup3\n      add\n        /* \"#utility.yul\":7407:7469   */\n      mstore\n      shl(0xf2, 0x1a5d)\n        /* \"#utility.yul\":7485:7503   */\n      0x64\n      dup3\n      add\n        /* \"#utility.yul\":7478:7510   */\n      mstore\n        /* \"#utility.yul\":7527:7546   */\n      0x84\n      add\n        /* \"profileWallet.sol\":4396:4504  require(... */\n      tag_34\n        /* \"#utility.yul\":7154:7552   */\n      jump\n        /* \"profileWallet.sol\":4396:4504  require(... */\n    tag_202:\n        /* \"profileWallet.sol\":4515:4527  bool success */\n      0x00\n        /* \"profileWallet.sol\":4533:4536  _to */\n      dup4\n      sub(shl(0xa0, 0x01), 0x01)\n        /* \"profileWallet.sol\":4533:4541  _to.call */\n      and\n        /* \"profileWallet.sol\":4549:4556  _amount */\n      dup4\n        /* \"profileWallet.sol\":4533:4561  _to.call{value: _amount}(\"\") */\n      mload(0x40)\n      0x00\n      mload(0x40)\n      dup1\n      dup4\n      sub\n      dup2\n      dup6\n      dup8\n      gas\n      call\n      swap3\n      pop\n      pop\n      pop\n      returndatasize\n      dup1\n      0x00\n      dup2\n      eq\n      tag_209\n      jumpi\n      mload(0x40)\n      swap2\n      pop\n      and(add(returndatasize, 0x3f), not(0x1f))\n      dup3\n      add\n      0x40\n      mstore\n      returndatasize\n      dup3\n      mstore\n      returndatasize\n      0x00\n      0x20\n      dup5\n      add\n      returndatacopy\n      jump(tag_208)\n    tag_209:\n      0x60\n      swap2\n      pop\n    tag_208:\n      pop\n      pop\n        /* \"profileWallet.sol\":4576:4600  withdrawal(_to, _amount) */\n      0x40\n      dup1\n      mload\n      sub(shl(0xa0, 0x01), 0x01)\n        /* \"#utility.yul\":563:618   */\n      dup8\n      and\n        /* \"#utility.yul\":545:619   */\n      dup2\n      mstore\n        /* \"#utility.yul\":650:652   */\n      0x20\n        /* \"#utility.yul\":635:653   */\n      dup2\n      add\n        /* \"#utility.yul\":628:662   */\n      dup7\n      swap1\n      mstore\n        /* \"profileWallet.sol\":4514:4561  (bool success, ) = _to.call{value: _amount}(\"\") */\n      swap2\n      swap3\n      pop\n        /* \"profileWallet.sol\":4576:4600  withdrawal(_to, _amount) */\n      0x5a6b26bafd3957bf06ea3b4915f51221953ed272573c779820e6e39df3e646cf\n      swap2\n        /* \"#utility.yul\":518:536   */\n      add\n        /* \"profileWallet.sol\":4576:4600  withdrawal(_to, _amount) */\n      mload(0x40)\n      dup1\n      swap2\n      sub\n      swap1\n      log1\n        /* \"profileWallet.sol\":4617:4624  success */\n      swap4\n        /* \"profileWallet.sol\":4239:4631  function withdrawEthTo(address payable _to, uint256 _amount)... */\n      swap3\n      pop\n      pop\n      pop\n      jump\t// out\n        /* \"profileWallet.sol\":2572:2956  function pay(address _reciever, uint256 _amount) public onlyApproved {... */\n    tag_123:\n        /* \"profileWallet.sol\":2109:2117  payments */\n      and(sub(shl(0xa0, 0x01), 0x01), sload(0x01))\n        /* \"profileWallet.sol\":2095:2105  msg.sender */\n      caller\n        /* \"profileWallet.sol\":2095:2117  msg.sender == payments */\n      eq\n      dup1\n        /* \"profileWallet.sol\":2095:2142  msg.sender == payments || msg.sender == owner() */\n      tag_212\n      jumpi\n      pop\n        /* \"@openzeppelin/contracts/access/Ownable.sol\":1247:1254   */\n      0x00\n        /* \"@openzeppelin/contracts/access/Ownable.sol\":1273:1279   */\n      sload\n      sub(shl(0xa0, 0x01), 0x01)\n      and\n        /* \"profileWallet.sol\":2121:2131  msg.sender */\n      caller\n        /* \"profileWallet.sol\":2121:2142  msg.sender == owner() */\n      eq\n        /* \"profileWallet.sol\":2095:2142  msg.sender == payments || msg.sender == owner() */\n    tag_212:\n        /* \"profileWallet.sol\":2074:2181  require(... */\n      tag_214\n      jumpi\n      mload(0x40)\n      shl(0xe5, 0x461bcd)\n      dup2\n      mstore\n        /* \"#utility.yul\":6263:6265   */\n      0x20\n        /* \"profileWallet.sol\":2074:2181  require(... */\n      0x04\n      dup3\n      add\n        /* \"#utility.yul\":6245:6266   */\n      mstore\n        /* \"#utility.yul\":6302:6304   */\n      0x0d\n        /* \"#utility.yul\":6282:6300   */\n      0x24\n      dup3\n      add\n        /* \"#utility.yul\":6275:6305   */\n      mstore\n      shl(0x9d, 0x02737ba1020b8383937bb32b21)\n        /* \"#utility.yul\":6321:6339   */\n      0x44\n      dup3\n      add\n        /* \"#utility.yul\":6314:6357   */\n      mstore\n        /* \"#utility.yul\":6374:6392   */\n      0x64\n      add\n        /* \"profileWallet.sol\":2074:2181  require(... */\n      tag_34\n        /* \"#utility.yul\":6061:6398   */\n      jump\n        /* \"profileWallet.sol\":2074:2181  require(... */\n    tag_214:\n        /* \"profileWallet.sol\":2683:2700  reedemableBalance */\n      sload(0x04)\n        /* \"profileWallet.sol\":2672:2679  _amount */\n      dup2\n        /* \"profileWallet.sol\":2672:2700  _amount <= reedemableBalance */\n      gt\n      iszero\n        /* \"profileWallet.sol\":2651:2770  require(... */\n      tag_217\n      jumpi\n      mload(0x40)\n      shl(0xe5, 0x461bcd)\n      dup2\n      mstore\n        /* \"#utility.yul\":7969:7971   */\n      0x20\n        /* \"profileWallet.sol\":2651:2770  require(... */\n      0x04\n      dup3\n      add\n        /* \"#utility.yul\":7951:7972   */\n      mstore\n        /* \"#utility.yul\":8008:8010   */\n      0x2c\n        /* \"#utility.yul\":7988:8006   */\n      0x24\n      dup3\n      add\n        /* \"#utility.yul\":7981:8011   */\n      mstore\n        /* \"#utility.yul\":8047:8081   */\n      0x416d6f756e742073686f756c64206265206c657373207468616e207265656465\n        /* \"#utility.yul\":8027:8045   */\n      0x44\n      dup3\n      add\n        /* \"#utility.yul\":8020:8082   */\n      mstore\n        /* \"#utility.yul\":8118:8132   */\n      0x6d61626c6520616d6f756e740000000000000000000000000000000000000000\n        /* \"#utility.yul\":8098:8116   */\n      0x64\n      dup3\n      add\n        /* \"#utility.yul\":8091:8133   */\n      mstore\n        /* \"#utility.yul\":8150:8169   */\n      0x84\n      add\n        /* \"profileWallet.sol\":2651:2770  require(... */\n      tag_34\n        /* \"#utility.yul\":7767:8175   */\n      jump\n        /* \"profileWallet.sol\":2651:2770  require(... */\n    tag_217:\n      sub(shl(0xa0, 0x01), 0x01)\n        /* \"profileWallet.sol\":2788:2811  _reciever != address(0) */\n      dup3\n      and\n        /* \"profileWallet.sol\":2780:2835  require(_reciever != address(0), \"Not a valid address\") */\n      tag_220\n      jumpi\n      mload(0x40)\n      shl(0xe5, 0x461bcd)\n      dup2\n      mstore\n        /* \"#utility.yul\":7008:7010   */\n      0x20\n        /* \"profileWallet.sol\":2780:2835  require(_reciever != address(0), \"Not a valid address\") */\n      0x04\n      dup3\n      add\n        /* \"#utility.yul\":6990:7011   */\n      mstore\n        /* \"#utility.yul\":7047:7049   */\n      0x13\n        /* \"#utility.yul\":7027:7045   */\n      0x24\n      dup3\n      add\n        /* \"#utility.yul\":7020:7050   */\n      mstore\n        /* \"#utility.yul\":7086:7107   */\n      0x4e6f7420612076616c6964206164647265737300000000000000000000000000\n        /* \"#utility.yul\":7066:7084   */\n      0x44\n      dup3\n      add\n        /* \"#utility.yul\":7059:7108   */\n      mstore\n        /* \"#utility.yul\":7125:7143   */\n      0x64\n      add\n        /* \"profileWallet.sol\":2780:2835  require(_reciever != address(0), \"Not a valid address\") */\n      tag_34\n        /* \"#utility.yul\":6806:7149   */\n      jump\n        /* \"profileWallet.sol\":2780:2835  require(_reciever != address(0), \"Not a valid address\") */\n    tag_220:\n        /* \"profileWallet.sol\":2846:2858  bool success */\n      0x00\n        /* \"profileWallet.sol\":2864:2873  _reciever */\n      dup3\n      sub(shl(0xa0, 0x01), 0x01)\n        /* \"profileWallet.sol\":2864:2878  _reciever.call */\n      and\n        /* \"profileWallet.sol\":2886:2893  _amount */\n      dup3\n        /* \"profileWallet.sol\":2864:2898  _reciever.call{value: _amount}(\"\") */\n      mload(0x40)\n      0x00\n      mload(0x40)\n      dup1\n      dup4\n      sub\n      dup2\n      dup6\n      dup8\n      gas\n      call\n      swap3\n      pop\n      pop\n      pop\n      returndatasize\n      dup1\n      0x00\n      dup2\n      eq\n      tag_225\n      jumpi\n      mload(0x40)\n      swap2\n      pop\n      and(add(returndatasize, 0x3f), not(0x1f))\n      dup3\n      add\n      0x40\n      mstore\n      returndatasize\n      dup3\n      mstore\n      returndatasize\n      0x00\n      0x20\n      dup5\n      add\n      returndatacopy\n      jump(tag_224)\n    tag_225:\n      0x60\n      swap2\n      pop\n    tag_224:\n      pop\n        /* \"profileWallet.sol\":2845:2898  (bool success, ) = _reciever.call{value: _amount}(\"\") */\n      pop\n      swap1\n      pop\n        /* \"profileWallet.sol\":2916:2923  success */\n      dup1\n        /* \"profileWallet.sol\":2908:2949  require(success, \"Payment Not Completed\") */\n      tag_144\n      jumpi\n      mload(0x40)\n      shl(0xe5, 0x461bcd)\n      dup2\n      mstore\n        /* \"#utility.yul\":8382:8384   */\n      0x20\n        /* \"profileWallet.sol\":2908:2949  require(success, \"Payment Not Completed\") */\n      0x04\n      dup3\n      add\n        /* \"#utility.yul\":8364:8385   */\n      mstore\n        /* \"#utility.yul\":8421:8423   */\n      0x15\n        /* \"#utility.yul\":8401:8419   */\n      0x24\n      dup3\n      add\n        /* \"#utility.yul\":8394:8424   */\n      mstore\n        /* \"#utility.yul\":8460:8483   */\n      0x5061796d656e74204e6f7420436f6d706c657465640000000000000000000000\n        /* \"#utility.yul\":8440:8458   */\n      0x44\n      dup3\n      add\n        /* \"#utility.yul\":8433:8484   */\n      mstore\n        /* \"#utility.yul\":8501:8519   */\n      0x64\n      add\n        /* \"profileWallet.sol\":2908:2949  require(success, \"Payment Not Completed\") */\n      tag_34\n        /* \"#utility.yul\":8180:8525   */\n      jump\n        /* \"profileWallet.sol\":3509:3668  function deposit() external payable onlyWhenNotPaused {... */\n    tag_129:\n        /* \"profileWallet.sol\":1270:1276  paused */\n      sload(0x01)\n      shl(0xa0, 0x01)\n      swap1\n      div\n      0xff\n      and\n        /* \"profileWallet.sol\":1269:1276  !paused */\n      iszero\n        /* \"profileWallet.sol\":1261:1309  require(!paused, \"Contract is currently paused\") */\n      tag_230\n      jumpi\n      mload(0x40)\n      shl(0xe5, 0x461bcd)\n      dup2\n      mstore\n        /* \"#utility.yul\":216:218   */\n      0x20\n        /* \"profileWallet.sol\":1261:1309  require(!paused, \"Contract is currently paused\") */\n      0x04\n      dup3\n      add\n        /* \"#utility.yul\":198:219   */\n      mstore\n        /* \"#utility.yul\":255:257   */\n      0x1c\n        /* \"#utility.yul\":235:253   */\n      0x24\n      dup3\n      add\n        /* \"#utility.yul\":228:258   */\n      mstore\n        /* \"#utility.yul\":294:324   */\n      0x436f6e74726163742069732063757272656e746c792070617573656400000000\n        /* \"#utility.yul\":274:292   */\n      0x44\n      dup3\n      add\n        /* \"#utility.yul\":267:325   */\n      mstore\n        /* \"#utility.yul\":342:360   */\n      0x64\n      add\n        /* \"profileWallet.sol\":1261:1309  require(!paused, \"Contract is currently paused\") */\n      tag_34\n        /* \"#utility.yul\":14:366   */\n      jump\n        /* \"profileWallet.sol\":1261:1309  require(!paused, \"Contract is currently paused\") */\n    tag_230:\n        /* \"profileWallet.sol\":3593:3594  0 */\n      0x00\n        /* \"profileWallet.sol\":3581:3590  msg.value */\n      callvalue\n        /* \"profileWallet.sol\":3581:3594  msg.value > 0 */\n      gt\n        /* \"profileWallet.sol\":3573:3615  require(msg.value > 0, \"Value can't be 0\") */\n      tag_233\n      jumpi\n      mload(0x40)\n      shl(0xe5, 0x461bcd)\n      dup2\n      mstore\n        /* \"#utility.yul\":8732:8734   */\n      0x20\n        /* \"profileWallet.sol\":3573:3615  require(msg.value > 0, \"Value can't be 0\") */\n      0x04\n      dup3\n      add\n        /* \"#utility.yul\":8714:8735   */\n      mstore\n        /* \"#utility.yul\":8771:8773   */\n      0x10\n        /* \"#utility.yul\":8751:8769   */\n      0x24\n      dup3\n      add\n        /* \"#utility.yul\":8744:8774   */\n      mstore\n        /* \"#utility.yul\":8810:8828   */\n      0x56616c75652063616e2774206265203000000000000000000000000000000000\n        /* \"#utility.yul\":8790:8808   */\n      0x44\n      dup3\n      add\n        /* \"#utility.yul\":8783:8829   */\n      mstore\n        /* \"#utility.yul\":8846:8864   */\n      0x64\n      add\n        /* \"profileWallet.sol\":3573:3615  require(msg.value > 0, \"Value can't be 0\") */\n      tag_34\n        /* \"#utility.yul\":8530:8870   */\n      jump\n        /* \"profileWallet.sol\":3573:3615  require(msg.value > 0, \"Value can't be 0\") */\n    tag_233:\n        /* \"profileWallet.sol\":3630:3661  received(msg.sender, msg.value) */\n      0x40\n      dup1\n      mload\n        /* \"profileWallet.sol\":3639:3649  msg.sender */\n      caller\n        /* \"#utility.yul\":545:619   */\n      dup2\n      mstore\n        /* \"profileWallet.sol\":3651:3660  msg.value */\n      callvalue\n        /* \"#utility.yul\":650:652   */\n      0x20\n        /* \"#utility.yul\":635:653   */\n      dup3\n      add\n        /* \"#utility.yul\":628:662   */\n      mstore\n        /* \"profileWallet.sol\":3630:3661  received(msg.sender, msg.value) */\n      0xf11e547d796cc64acdf758e7cee90439494fd886a19159454aa61e473fdbafef\n      swap2\n        /* \"#utility.yul\":518:536   */\n      add\n        /* \"profileWallet.sol\":3630:3661  received(msg.sender, msg.value) */\n      mload(0x40)\n      dup1\n      swap2\n      sub\n      swap1\n      log1\n        /* \"profileWallet.sol\":3509:3668  function deposit() external payable onlyWhenNotPaused {... */\n      jump\t// out\n        /* \"@openzeppelin/contracts/access/Ownable.sol\":2081:2279   */\n    tag_133:\n        /* \"@openzeppelin/contracts/access/Ownable.sol\":1094:1107   */\n      tag_238\n        /* \"@openzeppelin/contracts/access/Ownable.sol\":1094:1105   */\n      tag_154\n        /* \"@openzeppelin/contracts/access/Ownable.sol\":1094:1107   */\n      jump\t// in\n    tag_238:\n      sub(shl(0xa0, 0x01), 0x01)\n        /* \"@openzeppelin/contracts/access/Ownable.sol\":2169:2191   */\n      dup2\n      and\n        /* \"@openzeppelin/contracts/access/Ownable.sol\":2161:2234   */\n      tag_240\n      jumpi\n      mload(0x40)\n      shl(0xe5, 0x461bcd)\n      dup2\n      mstore\n        /* \"#utility.yul\":9077:9079   */\n      0x20\n        /* \"@openzeppelin/contracts/access/Ownable.sol\":2161:2234   */\n      0x04\n      dup3\n      add\n        /* \"#utility.yul\":9059:9080   */\n      mstore\n        /* \"#utility.yul\":9116:9118   */\n      0x26\n        /* \"#utility.yul\":9096:9114   */\n      0x24\n      dup3\n      add\n        /* \"#utility.yul\":9089:9119   */\n      mstore\n        /* \"#utility.yul\":9155:9189   */\n      0x4f776e61626c653a206e6577206f776e657220697320746865207a65726f2061\n        /* \"#utility.yul\":9135:9153   */\n      0x44\n      dup3\n      add\n        /* \"#utility.yul\":9128:9190   */\n      mstore\n        /* \"#utility.yul\":9226:9234   */\n      0x6464726573730000000000000000000000000000000000000000000000000000\n        /* \"#utility.yul\":9206:9224   */\n      0x64\n      dup3\n      add\n        /* \"#utility.yul\":9199:9235   */\n      mstore\n        /* \"#utility.yul\":9252:9271   */\n      0x84\n      add\n        /* \"@openzeppelin/contracts/access/Ownable.sol\":2161:2234   */\n      tag_34\n        /* \"#utility.yul\":8875:9277   */\n      jump\n        /* \"@openzeppelin/contracts/access/Ownable.sol\":2161:2234   */\n    tag_240:\n        /* \"@openzeppelin/contracts/access/Ownable.sol\":2244:2272   */\n      tag_243\n        /* \"@openzeppelin/contracts/access/Ownable.sol\":2263:2271   */\n      dup2\n        /* \"@openzeppelin/contracts/access/Ownable.sol\":2244:2262   */\n      tag_172\n        /* \"@openzeppelin/contracts/access/Ownable.sol\":2244:2272   */\n      jump\t// in\n    tag_243:\n        /* \"@openzeppelin/contracts/access/Ownable.sol\":2081:2279   */\n      pop\n      jump\t// out\n        /* \"@openzeppelin/contracts/access/Ownable.sol\":1359:1489   */\n    tag_154:\n        /* \"@openzeppelin/contracts/access/Ownable.sol\":1247:1254   */\n      0x00\n        /* \"@openzeppelin/contracts/access/Ownable.sol\":1273:1279   */\n      sload\n      sub(shl(0xa0, 0x01), 0x01)\n      and\n        /* \"@openzeppelin/contracts/utils/Context.sol\":719:729   */\n      caller\n        /* \"@openzeppelin/contracts/access/Ownable.sol\":1422:1445   */\n      eq\n        /* \"@openzeppelin/contracts/access/Ownable.sol\":1414:1482   */\n      tag_171\n      jumpi\n      mload(0x40)\n      shl(0xe5, 0x461bcd)\n      dup2\n      mstore\n        /* \"#utility.yul\":9484:9486   */\n      0x20\n        /* \"@openzeppelin/contracts/access/Ownable.sol\":1414:1482   */\n      0x04\n      dup3\n      add\n        /* \"#utility.yul\":9466:9487   */\n      dup2\n      swap1\n      mstore\n        /* \"#utility.yul\":9503:9521   */\n      0x24\n      dup3\n      add\n        /* \"#utility.yul\":9496:9526   */\n      mstore\n        /* \"#utility.yul\":9562:9596   */\n      0x4f776e61626c653a2063616c6c6572206973206e6f7420746865206f776e6572\n        /* \"#utility.yul\":9542:9560   */\n      0x44\n      dup3\n      add\n        /* \"#utility.yul\":9535:9597   */\n      mstore\n        /* \"#utility.yul\":9614:9632   */\n      0x64\n      add\n        /* \"@openzeppelin/contracts/access/Ownable.sol\":1414:1482   */\n      tag_34\n        /* \"#utility.yul\":9282:9638   */\n      jump\n        /* \"@openzeppelin/contracts/access/Ownable.sol\":2433:2620   */\n    tag_172:\n        /* \"@openzeppelin/contracts/access/Ownable.sol\":2506:2522   */\n      0x00\n        /* \"@openzeppelin/contracts/access/Ownable.sol\":2525:2531   */\n      dup1\n      sload\n      sub(shl(0xa0, 0x01), 0x01)\n        /* \"@openzeppelin/contracts/access/Ownable.sol\":2541:2558   */\n      dup4\n      dup2\n      and\n      0xffffffffffffffffffffffff0000000000000000000000000000000000000000\n      dup4\n      and\n      dup2\n      or\n      dup5\n      sstore\n        /* \"@openzeppelin/contracts/access/Ownable.sol\":2573:2613   */\n      mload(0x40)\n        /* \"@openzeppelin/contracts/access/Ownable.sol\":2525:2531   */\n      swap2\n      swap1\n      swap3\n      and\n      swap3\n      dup4\n      swap2\n        /* \"@openzeppelin/contracts/access/Ownable.sol\":2573:2613   */\n      0x8be0079c531659141344cd1fd0a4f28419497f9722a3daafe3b4186f6b6457e0\n      swap2\n        /* \"@openzeppelin/contracts/access/Ownable.sol\":2506:2522   */\n      swap1\n        /* \"@openzeppelin/contracts/access/Ownable.sol\":2573:2613   */\n      log3\n        /* \"@openzeppelin/contracts/access/Ownable.sol\":2496:2620   */\n      pop\n        /* \"@openzeppelin/contracts/access/Ownable.sol\":2433:2620   */\n      pop\n      jump\t// out\n        /* \"#utility.yul\":855:1009   */\n    tag_253:\n      sub(shl(0xa0, 0x01), 0x01)\n        /* \"#utility.yul\":934:939   */\n      dup2\n        /* \"#utility.yul\":930:984   */\n      and\n        /* \"#utility.yul\":923:928   */\n      dup2\n        /* \"#utility.yul\":920:985   */\n      eq\n        /* \"#utility.yul\":910:1003   */\n      tag_243\n      jumpi\n        /* \"#utility.yul\":999:1000   */\n      0x00\n        /* \"#utility.yul\":996:997   */\n      dup1\n        /* \"#utility.yul\":989:1001   */\n      revert\n        /* \"#utility.yul\":1014:1141   */\n    tag_254:\n        /* \"#utility.yul\":1075:1085   */\n      0x4e487b71\n        /* \"#utility.yul\":1070:1073   */\n      0xe0\n        /* \"#utility.yul\":1066:1086   */\n      shl\n        /* \"#utility.yul\":1063:1064   */\n      0x00\n        /* \"#utility.yul\":1056:1087   */\n      mstore\n        /* \"#utility.yul\":1106:1110   */\n      0x41\n        /* \"#utility.yul\":1103:1104   */\n      0x04\n        /* \"#utility.yul\":1096:1111   */\n      mstore\n        /* \"#utility.yul\":1130:1134   */\n      0x24\n        /* \"#utility.yul\":1127:1128   */\n      0x00\n        /* \"#utility.yul\":1120:1135   */\n      revert\n        /* \"#utility.yul\":1146:2412   */\n    tag_48:\n        /* \"#utility.yul\":1241:1247   */\n      0x00\n        /* \"#utility.yul\":1249:1255   */\n      dup1\n        /* \"#utility.yul\":1257:1263   */\n      0x00\n        /* \"#utility.yul\":1265:1271   */\n      dup1\n        /* \"#utility.yul\":1318:1321   */\n      0x80\n        /* \"#utility.yul\":1306:1315   */\n      dup6\n        /* \"#utility.yul\":1297:1304   */\n      dup8\n        /* \"#utility.yul\":1293:1316   */\n      sub\n        /* \"#utility.yul\":1289:1322   */\n      slt\n        /* \"#utility.yul\":1286:1339   */\n      iszero\n      tag_263\n      jumpi\n        /* \"#utility.yul\":1335:1336   */\n      0x00\n        /* \"#utility.yul\":1332:1333   */\n      dup1\n        /* \"#utility.yul\":1325:1337   */\n      revert\n        /* \"#utility.yul\":1286:1339   */\n    tag_263:\n        /* \"#utility.yul\":1374:1383   */\n      dup5\n        /* \"#utility.yul\":1361:1384   */\n      calldataload\n        /* \"#utility.yul\":1393:1424   */\n      tag_264\n        /* \"#utility.yul\":1418:1423   */\n      dup2\n        /* \"#utility.yul\":1393:1424   */\n      tag_253\n      jump\t// in\n    tag_264:\n        /* \"#utility.yul\":1443:1448   */\n      swap4\n      pop\n        /* \"#utility.yul\":1500:1502   */\n      0x20\n        /* \"#utility.yul\":1485:1503   */\n      dup6\n      add\n        /* \"#utility.yul\":1472:1504   */\n      calldataload\n        /* \"#utility.yul\":1513:1546   */\n      tag_265\n        /* \"#utility.yul\":1472:1504   */\n      dup2\n        /* \"#utility.yul\":1513:1546   */\n      tag_253\n      jump\t// in\n    tag_265:\n        /* \"#utility.yul\":1565:1572   */\n      swap3\n      pop\n        /* \"#utility.yul\":1619:1621   */\n      0x40\n        /* \"#utility.yul\":1604:1622   */\n      dup6\n      add\n        /* \"#utility.yul\":1591:1623   */\n      calldataload\n      swap2\n      pop\n        /* \"#utility.yul\":1674:1676   */\n      0x60\n        /* \"#utility.yul\":1659:1677   */\n      dup6\n      add\n        /* \"#utility.yul\":1646:1678   */\n      calldataload\n        /* \"#utility.yul\":1697:1715   */\n      0xffffffffffffffff\n        /* \"#utility.yul\":1727:1741   */\n      dup1\n      dup3\n      gt\n        /* \"#utility.yul\":1724:1758   */\n      iszero\n      tag_266\n      jumpi\n        /* \"#utility.yul\":1754:1755   */\n      0x00\n        /* \"#utility.yul\":1751:1752   */\n      dup1\n        /* \"#utility.yul\":1744:1756   */\n      revert\n        /* \"#utility.yul\":1724:1758   */\n    tag_266:\n        /* \"#utility.yul\":1792:1798   */\n      dup2\n        /* \"#utility.yul\":1781:1790   */\n      dup8\n        /* \"#utility.yul\":1777:1799   */\n      add\n        /* \"#utility.yul\":1767:1799   */\n      swap2\n      pop\n        /* \"#utility.yul\":1837:1844   */\n      dup8\n        /* \"#utility.yul\":1830:1834   */\n      0x1f\n        /* \"#utility.yul\":1826:1828   */\n      dup4\n        /* \"#utility.yul\":1822:1835   */\n      add\n        /* \"#utility.yul\":1818:1845   */\n      slt\n        /* \"#utility.yul\":1808:1863   */\n      tag_267\n      jumpi\n        /* \"#utility.yul\":1859:1860   */\n      0x00\n        /* \"#utility.yul\":1856:1857   */\n      dup1\n        /* \"#utility.yul\":1849:1861   */\n      revert\n        /* \"#utility.yul\":1808:1863   */\n    tag_267:\n        /* \"#utility.yul\":1895:1897   */\n      dup2\n        /* \"#utility.yul\":1882:1898   */\n      calldataload\n        /* \"#utility.yul\":1917:1919   */\n      dup2\n        /* \"#utility.yul\":1913:1915   */\n      dup2\n        /* \"#utility.yul\":1910:1920   */\n      gt\n        /* \"#utility.yul\":1907:1943   */\n      iszero\n      tag_269\n      jumpi\n        /* \"#utility.yul\":1923:1941   */\n      tag_269\n      tag_254\n      jump\t// in\n    tag_269:\n        /* \"#utility.yul\":1998:2000   */\n      0x40\n        /* \"#utility.yul\":1992:2001   */\n      mload\n        /* \"#utility.yul\":1966:1968   */\n      0x1f\n        /* \"#utility.yul\":2052:2065   */\n      dup3\n      add\n      not(0x1f)\n        /* \"#utility.yul\":2048:2070   */\n      swap1\n      dup2\n      and\n        /* \"#utility.yul\":2072:2074   */\n      0x3f\n        /* \"#utility.yul\":2044:2075   */\n      add\n        /* \"#utility.yul\":2040:2080   */\n      and\n        /* \"#utility.yul\":2028:2081   */\n      dup2\n      add\n      swap1\n        /* \"#utility.yul\":2096:2114   */\n      dup4\n      dup3\n      gt\n        /* \"#utility.yul\":2116:2138   */\n      dup2\n      dup4\n      lt\n        /* \"#utility.yul\":2093:2139   */\n      or\n        /* \"#utility.yul\":2090:2162   */\n      iszero\n      tag_271\n      jumpi\n        /* \"#utility.yul\":2142:2160   */\n      tag_271\n      tag_254\n      jump\t// in\n    tag_271:\n        /* \"#utility.yul\":2182:2192   */\n      dup2\n        /* \"#utility.yul\":2178:2180   */\n      0x40\n        /* \"#utility.yul\":2171:2193   */\n      mstore\n        /* \"#utility.yul\":2217:2219   */\n      dup3\n        /* \"#utility.yul\":2209:2215   */\n      dup2\n        /* \"#utility.yul\":2202:2220   */\n      mstore\n        /* \"#utility.yul\":2257:2264   */\n      dup11\n        /* \"#utility.yul\":2252:2254   */\n      0x20\n        /* \"#utility.yul\":2247:2249   */\n      dup5\n        /* \"#utility.yul\":2243:2245   */\n      dup8\n        /* \"#utility.yul\":2239:2250   */\n      add\n        /* \"#utility.yul\":2235:2255   */\n      add\n        /* \"#utility.yul\":2232:2265   */\n      gt\n        /* \"#utility.yul\":2229:2282   */\n      iszero\n      tag_272\n      jumpi\n        /* \"#utility.yul\":2278:2279   */\n      0x00\n        /* \"#utility.yul\":2275:2276   */\n      dup1\n        /* \"#utility.yul\":2268:2280   */\n      revert\n        /* \"#utility.yul\":2229:2282   */\n    tag_272:\n        /* \"#utility.yul\":2334:2336   */\n      dup3\n        /* \"#utility.yul\":2329:2331   */\n      0x20\n        /* \"#utility.yul\":2325:2327   */\n      dup7\n        /* \"#utility.yul\":2321:2332   */\n      add\n        /* \"#utility.yul\":2316:2318   */\n      0x20\n        /* \"#utility.yul\":2308:2314   */\n      dup4\n        /* \"#utility.yul\":2304:2319   */\n      add\n        /* \"#utility.yul\":2291:2337   */\n      calldatacopy\n        /* \"#utility.yul\":2379:2380   */\n      0x00\n        /* \"#utility.yul\":2374:2376   */\n      0x20\n        /* \"#utility.yul\":2369:2371   */\n      dup5\n        /* \"#utility.yul\":2361:2367   */\n      dup4\n        /* \"#utility.yul\":2357:2372   */\n      add\n        /* \"#utility.yul\":2353:2377   */\n      add\n        /* \"#utility.yul\":2346:2381   */\n      mstore\n        /* \"#utility.yul\":2400:2406   */\n      dup1\n        /* \"#utility.yul\":2390:2406   */\n      swap6\n      pop\n      pop\n      pop\n      pop\n      pop\n      pop\n        /* \"#utility.yul\":1146:2412   */\n      swap3\n      swap6\n      swap2\n      swap5\n      pop\n      swap3\n      pop\n      jump\t// out\n        /* \"#utility.yul\":2624:2939   */\n    tag_55:\n        /* \"#utility.yul\":2692:2698   */\n      0x00\n        /* \"#utility.yul\":2700:2706   */\n      dup1\n        /* \"#utility.yul\":2753:2755   */\n      0x40\n        /* \"#utility.yul\":2741:2750   */\n      dup4\n        /* \"#utility.yul\":2732:2739   */\n      dup6\n        /* \"#utility.yul\":2728:2751   */\n      sub\n        /* \"#utility.yul\":2724:2756   */\n      slt\n        /* \"#utility.yul\":2721:2773   */\n      iszero\n      tag_275\n      jumpi\n        /* \"#utility.yul\":2769:2770   */\n      0x00\n        /* \"#utility.yul\":2766:2767   */\n      dup1\n        /* \"#utility.yul\":2759:2771   */\n      revert\n        /* \"#utility.yul\":2721:2773   */\n    tag_275:\n        /* \"#utility.yul\":2808:2817   */\n      dup3\n        /* \"#utility.yul\":2795:2818   */\n      calldataload\n        /* \"#utility.yul\":2827:2858   */\n      tag_276\n        /* \"#utility.yul\":2852:2857   */\n      dup2\n        /* \"#utility.yul\":2827:2858   */\n      tag_253\n      jump\t// in\n    tag_276:\n        /* \"#utility.yul\":2877:2882   */\n      swap5\n        /* \"#utility.yul\":2929:2931   */\n      0x20\n        /* \"#utility.yul\":2914:2932   */\n      swap4\n      swap1\n      swap4\n      add\n        /* \"#utility.yul\":2901:2933   */\n      calldataload\n      swap4\n      pop\n      pop\n      pop\n        /* \"#utility.yul\":2624:2939   */\n      jump\t// out\n        /* \"#utility.yul\":2944:3191   */\n    tag_60:\n        /* \"#utility.yul\":3003:3009   */\n      0x00\n        /* \"#utility.yul\":3056:3058   */\n      0x20\n        /* \"#utility.yul\":3044:3053   */\n      dup3\n        /* \"#utility.yul\":3035:3042   */\n      dup5\n        /* \"#utility.yul\":3031:3054   */\n      sub\n        /* \"#utility.yul\":3027:3059   */\n      slt\n        /* \"#utility.yul\":3024:3076   */\n      iszero\n      tag_278\n      jumpi\n        /* \"#utility.yul\":3072:3073   */\n      0x00\n        /* \"#utility.yul\":3069:3070   */\n      dup1\n        /* \"#utility.yul\":3062:3074   */\n      revert\n        /* \"#utility.yul\":3024:3076   */\n    tag_278:\n        /* \"#utility.yul\":3111:3120   */\n      dup2\n        /* \"#utility.yul\":3098:3121   */\n      calldataload\n        /* \"#utility.yul\":3130:3161   */\n      tag_279\n        /* \"#utility.yul\":3155:3160   */\n      dup2\n        /* \"#utility.yul\":3130:3161   */\n      tag_253\n      jump\t// in\n    tag_279:\n        /* \"#utility.yul\":3180:3185   */\n      swap4\n        /* \"#utility.yul\":2944:3191   */\n      swap3\n      pop\n      pop\n      pop\n      jump\t// out\n        /* \"#utility.yul\":3196:3660   */\n    tag_77:\n        /* \"#utility.yul\":3281:3287   */\n      0x00\n        /* \"#utility.yul\":3289:3295   */\n      dup1\n        /* \"#utility.yul\":3297:3303   */\n      0x00\n        /* \"#utility.yul\":3350:3352   */\n      0x60\n        /* \"#utility.yul\":3338:3347   */\n      dup5\n        /* \"#utility.yul\":3329:3336   */\n      dup7\n        /* \"#utility.yul\":3325:3348   */\n      sub\n        /* \"#utility.yul\":3321:3353   */\n      slt\n        /* \"#utility.yul\":3318:3370   */\n      iszero\n      tag_281\n      jumpi\n        /* \"#utility.yul\":3366:3367   */\n      0x00\n        /* \"#utility.yul\":3363:3364   */\n      dup1\n        /* \"#utility.yul\":3356:3368   */\n      revert\n        /* \"#utility.yul\":3318:3370   */\n    tag_281:\n        /* \"#utility.yul\":3405:3414   */\n      dup4\n        /* \"#utility.yul\":3392:3415   */\n      calldataload\n        /* \"#utility.yul\":3424:3455   */\n      tag_282\n        /* \"#utility.yul\":3449:3454   */\n      dup2\n        /* \"#utility.yul\":3424:3455   */\n      tag_253\n      jump\t// in\n    tag_282:\n        /* \"#utility.yul\":3474:3479   */\n      swap3\n      pop\n        /* \"#utility.yul\":3531:3533   */\n      0x20\n        /* \"#utility.yul\":3516:3534   */\n      dup5\n      add\n        /* \"#utility.yul\":3503:3535   */\n      calldataload\n        /* \"#utility.yul\":3544:3577   */\n      tag_283\n        /* \"#utility.yul\":3503:3535   */\n      dup2\n        /* \"#utility.yul\":3544:3577   */\n      tag_253\n      jump\t// in\n    tag_283:\n        /* \"#utility.yul\":3196:3660   */\n      swap3\n      swap6\n        /* \"#utility.yul\":3596:3603   */\n      swap3\n      swap5\n      pop\n      pop\n      pop\n        /* \"#utility.yul\":3650:3652   */\n      0x40\n        /* \"#utility.yul\":3635:3653   */\n      swap2\n      swap1\n      swap2\n      add\n        /* \"#utility.yul\":3622:3654   */\n      calldataload\n      swap1\n        /* \"#utility.yul\":3196:3660   */\n      jump\t// out\n        /* \"#utility.yul\":5280:5557   */\n    tag_145:\n        /* \"#utility.yul\":5347:5353   */\n      0x00\n        /* \"#utility.yul\":5400:5402   */\n      0x20\n        /* \"#utility.yul\":5388:5397   */\n      dup3\n        /* \"#utility.yul\":5379:5386   */\n      dup5\n        /* \"#utility.yul\":5375:5398   */\n      sub\n        /* \"#utility.yul\":5371:5403   */\n      slt\n        /* \"#utility.yul\":5368:5420   */\n      iszero\n      tag_295\n      jumpi\n        /* \"#utility.yul\":5416:5417   */\n      0x00\n        /* \"#utility.yul\":5413:5414   */\n      dup1\n        /* \"#utility.yul\":5406:5418   */\n      revert\n        /* \"#utility.yul\":5368:5420   */\n    tag_295:\n        /* \"#utility.yul\":5448:5457   */\n      dup2\n        /* \"#utility.yul\":5442:5458   */\n      mload\n        /* \"#utility.yul\":5501:5506   */\n      dup1\n        /* \"#utility.yul\":5494:5507   */\n      iszero\n        /* \"#utility.yul\":5487:5508   */\n      iszero\n        /* \"#utility.yul\":5480:5485   */\n      dup2\n        /* \"#utility.yul\":5477:5509   */\n      eq\n        /* \"#utility.yul\":5467:5527   */\n      tag_279\n      jumpi\n        /* \"#utility.yul\":5523:5524   */\n      0x00\n        /* \"#utility.yul\":5520:5521   */\n      dup1\n        /* \"#utility.yul\":5513:5525   */\n      revert\n        /* \"#utility.yul\":5562:5746   */\n    tag_151:\n        /* \"#utility.yul\":5632:5638   */\n      0x00\n        /* \"#utility.yul\":5685:5687   */\n      0x20\n        /* \"#utility.yul\":5673:5682   */\n      dup3\n        /* \"#utility.yul\":5664:5671   */\n      dup5\n        /* \"#utility.yul\":5660:5683   */\n      sub\n        /* \"#utility.yul\":5656:5688   */\n      slt\n        /* \"#utility.yul\":5653:5705   */\n      iszero\n      tag_298\n      jumpi\n        /* \"#utility.yul\":5701:5702   */\n      0x00\n        /* \"#utility.yul\":5698:5699   */\n      dup1\n        /* \"#utility.yul\":5691:5703   */\n      revert\n        /* \"#utility.yul\":5653:5705   */\n    tag_298:\n      pop\n        /* \"#utility.yul\":5724:5740   */\n      mload\n      swap2\n        /* \"#utility.yul\":5562:5746   */\n      swap1\n      pop\n      jump\t// out\n\n    auxdata: 0xa26469706673582212205203f15fbfbf7c5bf9a031baee23ec4cfc04a4c68e03b3545ec30e22f93195b064736f6c634300080d0033\n}\n",
    "bytecode": {
      "linkReferences": {},
      "object": "60806040526000600255476003556002546003546200001f9190620001a5565b60045560006005553480156200003457600080fd5b50604051620012d9380380620012d98339810160408190526200005791620001cb565b620000623362000074565b6200006d81620000c4565b50620001fd565b600080546001600160a01b038381166001600160a01b0319831681178455604051919092169283917f8be0079c531659141344cd1fd0a4f28419497f9722a3daafe3b4186f6b6457e09190a35050565b620000ce62000147565b6001600160a01b038116620001395760405162461bcd60e51b815260206004820152602660248201527f4f776e61626c653a206e6577206f776e657220697320746865207a65726f206160448201526564647265737360d01b60648201526084015b60405180910390fd5b620001448162000074565b50565b6000546001600160a01b03163314620001a35760405162461bcd60e51b815260206004820181905260248201527f4f776e61626c653a2063616c6c6572206973206e6f7420746865206f776e6572604482015260640162000130565b565b600082821015620001c657634e487b7160e01b600052601160045260246000fd5b500390565b600060208284031215620001de57600080fd5b81516001600160a01b0381168114620001f657600080fd5b9392505050565b6110cc806200020d6000396000f3fe6080604052600436106101565760003560e01c8063715018a6116100bf578063ad7a672f11610079578063ca4b208b11610056578063ca4b208b14610444578063d0e30db01461046c578063f2fde38b1461047457005b8063ad7a672f146103ee578063c33af25014610404578063c40768761461042457005b806392772047116100a75780639277204714610399578063a0af39fc146103b9578063a6d23e10146103ce57005b8063715018a6146103525780638da5cb5b1461036757005b80634b2a7b7d116101105780635e35359e116100f85780635e35359e146102f65780636457d0b2146103265780636b4943a71461033c57005b80634b2a7b7d146102c957806355eb3e34146102df57005b8063338b5dea1161013e578063338b5dea146102745780633aecd0e314610294578063439766ce146102b457005b806312065fe0146101f6578063150b7a021461021857005b366101f457600154600160a01b900460ff16156101ba5760405162461bcd60e51b815260206004820152601c60248201527f436f6e74726163742069732063757272656e746c79207061757365640000000060448201526064015b60405180910390fd5b604080513381523460208201527ff11e547d796cc64acdf758e7cee90439494fd886a19159454aa61e473fdbafef910160405180910390a1005b005b34801561020257600080fd5b50475b6040519081526020015b60405180910390f35b34801561022457600080fd5b50610243610233366004610eea565b630a85bd0160e11b949350505050565b6040517fffffffff00000000000000000000000000000000000000000000000000000000909116815260200161020f565b34801561028057600080fd5b506101f461028f366004610fca565b610494565b3480156102a057600080fd5b506102056102af366004610ff6565b61056a565b3480156102c057600080fd5b506101f46105db565b3480156102d557600080fd5b5061020560055481565b3480156102eb57600080fd5b5061020562278d0081565b34801561030257600080fd5b5061031661031136600461101a565b61061f565b604051901515815260200161020f565b34801561033257600080fd5b5061020560045481565b34801561034857600080fd5b5061020560025481565b34801561035e57600080fd5b506101f4610743565b34801561037357600080fd5b506000546001600160a01b03165b6040516001600160a01b03909116815260200161020f565b3480156103a557600080fd5b506101f46103b436600461101a565b610757565b3480156103c557600080fd5b50610205600c81565b3480156103da57600080fd5b50600154610381906001600160a01b031681565b3480156103fa57600080fd5b5061020560035481565b34801561041057600080fd5b5061031661041f366004610fca565b610959565b34801561043057600080fd5b506101f461043f366004610fca565b610ab9565b34801561045057600080fd5b5061038173e22ecbba8fb9c0124eecb6afe0bf6a487424989f81565b6101f4610c89565b34801561048057600080fd5b506101f461048f366004610ff6565b610d6d565b600154600160a01b900460ff16156104ee5760405162461bcd60e51b815260206004820152601c60248201527f436f6e74726163742069732063757272656e746c79207061757365640000000060448201526064016101b1565b6040516323b872dd60e01b8152336004820152306024820152604481018290526001600160a01b038316906323b872dd906064016020604051808303816000875af1158015610541573d6000803e3d6000fd5b505050506040513d601f19601f82011682018060405250810190610565919061105b565b505050565b6040516370a0823160e01b81523060048201526000906001600160a01b038316906370a0823190602401602060405180830381865afa1580156105b1573d6000803e3d6000fd5b505050506040513d601f19601f820116820180604052508101906105d5919061107d565b92915050565b6105e3610dfd565b600180547fffffffffffffffffffffff00ffffffffffffffffffffffffffffffffffffffff8116600160a01b9182900460ff1615909102179055565b6000610629610dfd565b600154600160a01b900460ff16156106835760405162461bcd60e51b815260206004820152601c60248201527f436f6e74726163742069732063757272656e746c79207061757365640000000060448201526064016101b1565b60405163a9059cbb60e01b81526001600160a01b0384811660048301526024820184905285169063a9059cbb906044016020604051808303816000875af11580156106d2573d6000803e3d6000fd5b505050506040513d601f19601f820116820180604052508101906106f6919061105b565b50604080516001600160a01b0385168152602081018490527f5a6b26bafd3957bf06ea3b4915f51221953ed272573c779820e6e39df3e646cf910160405180910390a15060019392505050565b61074b610dfd565b6107556000610e57565b565b6001546001600160a01b031633148061077a57506000546001600160a01b031633145b6107b65760405162461bcd60e51b815260206004820152600d60248201526c02737ba1020b8383937bb32b21609d1b60448201526064016101b1565b6040516370a0823160e01b81523360048201526001600160a01b038416906370a0823190602401602060405180830381865afa1580156107fa573d6000803e3d6000fd5b505050506040513d601f19601f8201168201806040525081019061081e919061107d565b811115801561082d5750600081115b6108845760405162461bcd60e51b815260206004820152602260248201527f416d6f756e74206e6f742056616c6964206f72206e6f7420617661696c61626c604482015261032960f51b60648201526084016101b1565b6001600160a01b0382166108da5760405162461bcd60e51b815260206004820152601360248201527f4e6f7420612076616c696420616464726573730000000000000000000000000060448201526064016101b1565b6040516323b872dd60e01b81523360048201526001600160a01b038381166024830152604482018390528416906323b872dd906064016020604051808303816000875af115801561092f573d6000803e3d6000fd5b505050506040513d601f19601f82011682018060405250810190610953919061105b565b50505050565b6000610963610dfd565b600154600160a01b900460ff16156109bd5760405162461bcd60e51b815260206004820152601c60248201527f436f6e74726163742069732063757272656e746c79207061757365640000000060448201526064016101b1565b6004548210610a195760405162461bcd60e51b815260206004820152602260248201527f43616e2774207769746864726177206d6f7265207468616e20746865206c696d6044820152611a5d60f21b60648201526084016101b1565b6000836001600160a01b03168360405160006040518083038185875af1925050503d8060008114610a66576040519150601f19603f3d011682016040523d82523d6000602084013e610a6b565b606091505b5050604080516001600160a01b0387168152602081018690529192507f5a6b26bafd3957bf06ea3b4915f51221953ed272573c779820e6e39df3e646cf910160405180910390a19392505050565b6001546001600160a01b0316331480610adc57506000546001600160a01b031633145b610b185760405162461bcd60e51b815260206004820152600d60248201526c02737ba1020b8383937bb32b21609d1b60448201526064016101b1565b600454811115610b905760405162461bcd60e51b815260206004820152602c60248201527f416d6f756e742073686f756c64206265206c657373207468616e20726565646560448201527f6d61626c6520616d6f756e74000000000000000000000000000000000000000060648201526084016101b1565b6001600160a01b038216610be65760405162461bcd60e51b815260206004820152601360248201527f4e6f7420612076616c696420616464726573730000000000000000000000000060448201526064016101b1565b6000826001600160a01b03168260405160006040518083038185875af1925050503d8060008114610c33576040519150601f19603f3d011682016040523d82523d6000602084013e610c38565b606091505b50509050806105655760405162461bcd60e51b815260206004820152601560248201527f5061796d656e74204e6f7420436f6d706c65746564000000000000000000000060448201526064016101b1565b600154600160a01b900460ff1615610ce35760405162461bcd60e51b815260206004820152601c60248201527f436f6e74726163742069732063757272656e746c79207061757365640000000060448201526064016101b1565b60003411610d335760405162461bcd60e51b815260206004820152601060248201527f56616c75652063616e277420626520300000000000000000000000000000000060448201526064016101b1565b604080513381523460208201527ff11e547d796cc64acdf758e7cee90439494fd886a19159454aa61e473fdbafef910160405180910390a1565b610d75610dfd565b6001600160a01b038116610df15760405162461bcd60e51b815260206004820152602660248201527f4f776e61626c653a206e6577206f776e657220697320746865207a65726f206160448201527f646472657373000000000000000000000000000000000000000000000000000060648201526084016101b1565b610dfa81610e57565b50565b6000546001600160a01b031633146107555760405162461bcd60e51b815260206004820181905260248201527f4f776e61626c653a2063616c6c6572206973206e6f7420746865206f776e657260448201526064016101b1565b600080546001600160a01b038381167fffffffffffffffffffffffff0000000000000000000000000000000000000000831681178455604051919092169283917f8be0079c531659141344cd1fd0a4f28419497f9722a3daafe3b4186f6b6457e09190a35050565b6001600160a01b0381168114610dfa57600080fd5b634e487b7160e01b600052604160045260246000fd5b60008060008060808587031215610f0057600080fd5b8435610f0b81610ebf565b93506020850135610f1b81610ebf565b925060408501359150606085013567ffffffffffffffff80821115610f3f57600080fd5b818701915087601f830112610f5357600080fd5b813581811115610f6557610f65610ed4565b604051601f8201601f19908116603f01168101908382118183101715610f8d57610f8d610ed4565b816040528281528a6020848701011115610fa657600080fd5b82602086016020830137600060208483010152809550505050505092959194509250565b60008060408385031215610fdd57600080fd5b8235610fe881610ebf565b946020939093013593505050565b60006020828403121561100857600080fd5b813561101381610ebf565b9392505050565b60008060006060848603121561102f57600080fd5b833561103a81610ebf565b9250602084013561104a81610ebf565b929592945050506040919091013590565b60006020828403121561106d57600080fd5b8151801515811461101357600080fd5b60006020828403121561108f57600080fd5b505191905056fea26469706673582212205203f15fbfbf7c5bf9a031baee23ec4cfc04a4c68e03b3545ec30e22f93195b064736f6c634300080d0033",
      "opcodes": "PUSH1 0x80 PUSH1 0x40 MSTORE PUSH1 0x0 PUSH1 0x2 SSTORE SELFBALANCE PUSH1 0x3 SSTORE PUSH1 0x2 SLOAD PUSH1 0x3 SLOAD PUSH3 0x1F SWAP2 SWAP1 PUSH3 0x1A5 JUMP JUMPDEST PUSH1 0x4 SSTORE PUSH1 0x0 PUSH1 0x5 SSTORE CALLVALUE DUP1 ISZERO PUSH3 0x34 JUMPI PUSH1 0x0 DUP1 REVERT JUMPDEST POP PUSH1 0x40 MLOAD PUSH3 0x12D9 CODESIZE SUB DUP1 PUSH3 0x12D9 DUP4 CODECOPY DUP2 ADD PUSH1 0x40 DUP2 SWAP1 MSTORE PUSH3 0x57 SWAP2 PUSH3 0x1CB JUMP JUMPDEST PUSH3 0x62 CALLER PUSH3 0x74 JUMP JUMPDEST PUSH3 0x6D DUP2 PUSH3 0xC4 JUMP JUMPDEST POP PUSH3 0x1FD JUMP JUMPDEST PUSH1 0x0 DUP1 SLOAD PUSH1 0x1 PUSH1 0x1 PUSH1 0xA0 SHL SUB DUP4 DUP2 AND PUSH1 0x1 PUSH1 0x1 PUSH1 0xA0 SHL SUB NOT DUP4 AND DUP2 OR DUP5 SSTORE PUSH1 0x40 MLOAD SWAP2 SWAP1 SWAP3 AND SWAP3 DUP4 SWAP2 PUSH32 0x8BE0079C531659141344CD1FD0A4F28419497F9722A3DAAFE3B4186F6B6457E0 SWAP2 SWAP1 LOG3 POP POP JUMP JUMPDEST PUSH3 0xCE PUSH3 0x147 JUMP JUMPDEST PUSH1 0x1 PUSH1 0x1 PUSH1 0xA0 SHL SUB DUP2 AND PUSH3 0x139 JUMPI PUSH1 0x40 MLOAD PUSH3 0x461BCD PUSH1 0xE5 SHL DUP2 MSTORE PUSH1 0x20 PUSH1 0x4 DUP3 ADD MSTORE PUSH1 0x26 PUSH1 0x24 DUP3 ADD MSTORE PUSH32 0x4F776E61626C653A206E6577206F776E657220697320746865207A65726F2061 PUSH1 0x44 DUP3 ADD MSTORE PUSH6 0x646472657373 PUSH1 0xD0 SHL PUSH1 0x64 DUP3 ADD MSTORE PUSH1 0x84 ADD JUMPDEST PUSH1 0x40 MLOAD DUP1 SWAP2 SUB SWAP1 REVERT JUMPDEST PUSH3 0x144 DUP2 PUSH3 0x74 JUMP JUMPDEST POP JUMP JUMPDEST PUSH1 0x0 SLOAD PUSH1 0x1 PUSH1 0x1 PUSH1 0xA0 SHL SUB AND CALLER EQ PUSH3 0x1A3 JUMPI PUSH1 0x40 MLOAD PUSH3 0x461BCD PUSH1 0xE5 SHL DUP2 MSTORE PUSH1 0x20 PUSH1 0x4 DUP3 ADD DUP2 SWAP1 MSTORE PUSH1 0x24 DUP3 ADD MSTORE PUSH32 0x4F776E61626C653A2063616C6C6572206973206E6F7420746865206F776E6572 PUSH1 0x44 DUP3 ADD MSTORE PUSH1 0x64 ADD PUSH3 0x130 JUMP JUMPDEST JUMP JUMPDEST PUSH1 0x0 DUP3 DUP3 LT ISZERO PUSH3 0x1C6 JUMPI PUSH4 0x4E487B71 PUSH1 0xE0 SHL PUSH1 0x0 MSTORE PUSH1 0x11 PUSH1 0x4 MSTORE PUSH1 0x24 PUSH1 0x0 REVERT JUMPDEST POP SUB SWAP1 JUMP JUMPDEST PUSH1 0x0 PUSH1 0x20 DUP3 DUP5 SUB SLT ISZERO PUSH3 0x1DE JUMPI PUSH1 0x0 DUP1 REVERT JUMPDEST DUP2 MLOAD PUSH1 0x1 PUSH1 0x1 PUSH1 0xA0 SHL SUB DUP2 AND DUP2 EQ PUSH3 0x1F6 JUMPI PUSH1 0x0 DUP1 REVERT JUMPDEST SWAP4 SWAP3 POP POP POP JUMP JUMPDEST PUSH2 0x10CC DUP1 PUSH3 0x20D PUSH1 0x0 CODECOPY PUSH1 0x0 RETURN INVALID PUSH1 0x80 PUSH1 0x40 MSTORE PUSH1 0x4 CALLDATASIZE LT PUSH2 0x156 JUMPI PUSH1 0x0 CALLDATALOAD PUSH1 0xE0 SHR DUP1 PUSH4 0x715018A6 GT PUSH2 0xBF JUMPI DUP1 PUSH4 0xAD7A672F GT PUSH2 0x79 JUMPI DUP1 PUSH4 0xCA4B208B GT PUSH2 0x56 JUMPI DUP1 PUSH4 0xCA4B208B EQ PUSH2 0x444 JUMPI DUP1 PUSH4 0xD0E30DB0 EQ PUSH2 0x46C JUMPI DUP1 PUSH4 0xF2FDE38B EQ PUSH2 0x474 JUMPI STOP JUMPDEST DUP1 PUSH4 0xAD7A672F EQ PUSH2 0x3EE JUMPI DUP1 PUSH4 0xC33AF250 EQ PUSH2 0x404 JUMPI DUP1 PUSH4 0xC4076876 EQ PUSH2 0x424 JUMPI STOP JUMPDEST DUP1 PUSH4 0x92772047 GT PUSH2 0xA7 JUMPI DUP1 PUSH4 0x92772047 EQ PUSH2 0x399 JUMPI DUP1 PUSH4 0xA0AF39FC EQ PUSH2 0x3B9 JUMPI DUP1 PUSH4 0xA6D23E10 EQ PUSH2 0x3CE JUMPI STOP JUMPDEST DUP1 PUSH4 0x715018A6 EQ PUSH2 0x352 JUMPI DUP1 PUSH4 0x8DA5CB5B EQ PUSH2 0x367 JUMPI STOP JUMPDEST DUP1 PUSH4 0x4B2A7B7D GT PUSH2 0x110 JUMPI DUP1 PUSH4 0x5E35359E GT PUSH2 0xF8 JUMPI DUP1 PUSH4 0x5E35359E EQ PUSH2 0x2F6 JUMPI DUP1 PUSH4 0x6457D0B2 EQ PUSH2 0x326 JUMPI DUP1 PUSH4 0x6B4943A7 EQ PUSH2 0x33C JUMPI STOP JUMPDEST DUP1 PUSH4 0x4B2A7B7D EQ PUSH2 0x2C9 JUMPI DUP1 PUSH4 0x55EB3E34 EQ PUSH2 0x2DF JUMPI STOP JUMPDEST DUP1 PUSH4 0x338B5DEA GT PUSH2 0x13E JUMPI DUP1 PUSH4 0x338B5DEA EQ PUSH2 0x274 JUMPI DUP1 PUSH4 0x3AECD0E3 EQ PUSH2 0x294 JUMPI DUP1 PUSH4 0x439766CE EQ PUSH2 0x2B4 JUMPI STOP JUMPDEST DUP1 PUSH4 0x12065FE0 EQ PUSH2 0x1F6 JUMPI DUP1 PUSH4 0x150B7A02 EQ PUSH2 0x218 JUMPI STOP JUMPDEST CALLDATASIZE PUSH2 0x1F4 JUMPI PUSH1 0x1 SLOAD PUSH1 0x1 PUSH1 0xA0 SHL SWAP1 DIV PUSH1 0xFF AND ISZERO PUSH2 0x1BA JUMPI PUSH1 0x40 MLOAD PUSH3 0x461BCD PUSH1 0xE5 SHL DUP2 MSTORE PUSH1 0x20 PUSH1 0x4 DUP3 ADD MSTORE PUSH1 0x1C PUSH1 0x24 DUP3 ADD MSTORE PUSH32 0x436F6E74726163742069732063757272656E746C792070617573656400000000 PUSH1 0x44 DUP3 ADD MSTORE PUSH1 0x64 ADD JUMPDEST PUSH1 0x40 MLOAD DUP1 SWAP2 SUB SWAP1 REVERT JUMPDEST PUSH1 0x40 DUP1 MLOAD CALLER DUP2 MSTORE CALLVALUE PUSH1 0x20 DUP3 ADD MSTORE PUSH32 0xF11E547D796CC64ACDF758E7CEE90439494FD886A19159454AA61E473FDBAFEF SWAP2 ADD PUSH1 0x40 MLOAD DUP1 SWAP2 SUB SWAP1 LOG1 STOP JUMPDEST STOP JUMPDEST CALLVALUE DUP1 ISZERO PUSH2 0x202 JUMPI PUSH1 0x0 DUP1 REVERT JUMPDEST POP SELFBALANCE JUMPDEST PUSH1 0x40 MLOAD SWAP1 DUP2 MSTORE PUSH1 0x20 ADD JUMPDEST PUSH1 0x40 MLOAD DUP1 SWAP2 SUB SWAP1 RETURN JUMPDEST CALLVALUE DUP1 ISZERO PUSH2 0x224 JUMPI PUSH1 0x0 DUP1 REVERT JUMPDEST POP PUSH2 0x243 PUSH2 0x233 CALLDATASIZE PUSH1 0x4 PUSH2 0xEEA JUMP JUMPDEST PUSH4 0xA85BD01 PUSH1 0xE1 SHL SWAP5 SWAP4 POP POP POP POP JUMP JUMPDEST PUSH1 0x40 MLOAD PUSH32 0xFFFFFFFF00000000000000000000000000000000000000000000000000000000 SWAP1 SWAP2 AND DUP2 MSTORE PUSH1 0x20 ADD PUSH2 0x20F JUMP JUMPDEST CALLVALUE DUP1 ISZERO PUSH2 0x280 JUMPI PUSH1 0x0 DUP1 REVERT JUMPDEST POP PUSH2 0x1F4 PUSH2 0x28F CALLDATASIZE PUSH1 0x4 PUSH2 0xFCA JUMP JUMPDEST PUSH2 0x494 JUMP JUMPDEST CALLVALUE DUP1 ISZERO PUSH2 0x2A0 JUMPI PUSH1 0x0 DUP1 REVERT JUMPDEST POP PUSH2 0x205 PUSH2 0x2AF CALLDATASIZE PUSH1 0x4 PUSH2 0xFF6 JUMP JUMPDEST PUSH2 0x56A JUMP JUMPDEST CALLVALUE DUP1 ISZERO PUSH2 0x2C0 JUMPI PUSH1 0x0 DUP1 REVERT JUMPDEST POP PUSH2 0x1F4 PUSH2 0x5DB JUMP JUMPDEST CALLVALUE DUP1 ISZERO PUSH2 0x2D5 JUMPI PUSH1 0x0 DUP1 REVERT JUMPDEST POP PUSH2 0x205 PUSH1 0x5 SLOAD DUP2 JUMP JUMPDEST CALLVALUE DUP1 ISZERO PUSH2 0x2EB JUMPI PUSH1 0x0 DUP1 REVERT JUMPDEST POP PUSH2 0x205 PUSH3 0x278D00 DUP2 JUMP JUMPDEST CALLVALUE DUP1 ISZERO PUSH2 0x302 JUMPI PUSH1 0x0 DUP1 REVERT JUMPDEST POP PUSH2 0x316 PUSH2 0x311 CALLDATASIZE PUSH1 0x4 PUSH2 0x101A JUMP JUMPDEST PUSH2 0x61F JUMP JUMPDEST PUSH1 0x40 MLOAD SWAP1 ISZERO ISZERO DUP2 MSTORE PUSH1 0x20 ADD PUSH2 0x20F JUMP JUMPDEST CALLVALUE DUP1 ISZERO PUSH2 0x332 JUMPI PUSH1 0x0 DUP1 REVERT JUMPDEST POP PUSH2 0x205 PUSH1 0x4 SLOAD DUP2 JUMP JUMPDEST CALLVALUE DUP1 ISZERO PUSH2 0x348 JUMPI PUSH1 0x0 DUP1 REVERT JUMPDEST POP PUSH2 0x205 PUSH1 0x2 SLOAD DUP2 JUMP JUMPDEST CALLVALUE DUP1 ISZERO PUSH2 0x35E JUMPI PUSH1 0x0 DUP1 REVERT JUMPDEST POP PUSH2 0x1F4 PUSH2 0x743 JUMP JUMPDEST CALLVALUE DUP1 ISZERO PUSH2 0x373 JUMPI PUSH1 0x0 DUP1 REVERT JUMPDEST POP PUSH1 0x0 SLOAD PUSH1 0x1 PUSH1 0x1 PUSH1 0xA0 SHL SUB AND JUMPDEST PUSH1 0x40 MLOAD PUSH1 0x1 PUSH1 0x1 PUSH1 0xA0 SHL SUB SWAP1 SWAP2 AND DUP2 MSTORE PUSH1 0x20 ADD PUSH2 0x20F JUMP JUMPDEST CALLVALUE DUP1 ISZERO PUSH2 0x3A5 JUMPI PUSH1 0x0 DUP1 REVERT JUMPDEST POP PUSH2 0x1F4 PUSH2 0x3B4 CALLDATASIZE PUSH1 0x4 PUSH2 0x101A JUMP JUMPDEST PUSH2 0x757 JUMP JUMPDEST CALLVALUE DUP1 ISZERO PUSH2 0x3C5 JUMPI PUSH1 0x0 DUP1 REVERT JUMPDEST POP PUSH2 0x205 PUSH1 0xC DUP2 JUMP JUMPDEST CALLVALUE DUP1 ISZERO PUSH2 0x3DA JUMPI PUSH1 0x0 DUP1 REVERT JUMPDEST POP PUSH1 0x1 SLOAD PUSH2 0x381 SWAP1 PUSH1 0x1 PUSH1 0x1 PUSH1 0xA0 SHL SUB AND DUP2 JUMP JUMPDEST CALLVALUE DUP1 ISZERO PUSH2 0x3FA JUMPI PUSH1 0x0 DUP1 REVERT JUMPDEST POP PUSH2 0x205 PUSH1 0x3 SLOAD DUP2 JUMP JUMPDEST CALLVALUE DUP1 ISZERO PUSH2 0x410 JUMPI PUSH1 0x0 DUP1 REVERT JUMPDEST POP PUSH2 0x316 PUSH2 0x41F CALLDATASIZE PUSH1 0x4 PUSH2 0xFCA JUMP JUMPDEST PUSH2 0x959 JUMP JUMPDEST CALLVALUE DUP1 ISZERO PUSH2 0x430 JUMPI PUSH1 0x0 DUP1 REVERT JUMPDEST POP PUSH2 0x1F4 PUSH2 0x43F CALLDATASIZE PUSH1 0x4 PUSH2 0xFCA JUMP JUMPDEST PUSH2 0xAB9 JUMP JUMPDEST CALLVALUE DUP1 ISZERO PUSH2 0x450 JUMPI PUSH1 0x0 DUP1 REVERT JUMPDEST POP PUSH2 0x381 PUSH20 0xE22ECBBA8FB9C0124EECB6AFE0BF6A487424989F DUP2 JUMP JUMPDEST PUSH2 0x1F4 PUSH2 0xC89 JUMP JUMPDEST CALLVALUE DUP1 ISZERO PUSH2 0x480 JUMPI PUSH1 0x0 DUP1 REVERT JUMPDEST POP PUSH2 0x1F4 PUSH2 0x48F CALLDATASIZE PUSH1 0x4 PUSH2 0xFF6 JUMP JUMPDEST PUSH2 0xD6D JUMP JUMPDEST PUSH1 0x1 SLOAD PUSH1 0x1 PUSH1 0xA0 SHL SWAP1 DIV PUSH1 0xFF AND ISZERO PUSH2 0x4EE JUMPI PUSH1 0x40 MLOAD PUSH3 0x461BCD PUSH1 0xE5 SHL DUP2 MSTORE PUSH1 0x20 PUSH1 0x4 DUP3 ADD MSTORE PUSH1 0x1C PUSH1 0x24 DUP3 ADD MSTORE PUSH32 0x436F6E74726163742069732063757272656E746C792070617573656400000000 PUSH1 0x44 DUP3 ADD MSTORE PUSH1 0x64 ADD PUSH2 0x1B1 JUMP JUMPDEST PUSH1 0x40 MLOAD PUSH4 0x23B872DD PUSH1 0xE0 SHL DUP2 MSTORE CALLER PUSH1 0x4 DUP3 ADD MSTORE ADDRESS PUSH1 0x24 DUP3 ADD MSTORE PUSH1 0x44 DUP2 ADD DUP3 SWAP1 MSTORE PUSH1 0x1 PUSH1 0x1 PUSH1 0xA0 SHL SUB DUP4 AND SWAP1 PUSH4 0x23B872DD SWAP1 PUSH1 0x64 ADD PUSH1 0x20 PUSH1 0x40 MLOAD DUP1 DUP4 SUB DUP2 PUSH1 0x0 DUP8 GAS CALL ISZERO DUP1 ISZERO PUSH2 0x541 JUMPI RETURNDATASIZE PUSH1 0x0 DUP1 RETURNDATACOPY RETURNDATASIZE PUSH1 0x0 REVERT JUMPDEST POP POP POP POP PUSH1 0x40 MLOAD RETURNDATASIZE PUSH1 0x1F NOT PUSH1 0x1F DUP3 ADD AND DUP3 ADD DUP1 PUSH1 0x40 MSTORE POP DUP2 ADD SWAP1 PUSH2 0x565 SWAP2 SWAP1 PUSH2 0x105B JUMP JUMPDEST POP POP POP JUMP JUMPDEST PUSH1 0x40 MLOAD PUSH4 0x70A08231 PUSH1 0xE0 SHL DUP2 MSTORE ADDRESS PUSH1 0x4 DUP3 ADD MSTORE PUSH1 0x0 SWAP1 PUSH1 0x1 PUSH1 0x1 PUSH1 0xA0 SHL SUB DUP4 AND SWAP1 PUSH4 0x70A08231 SWAP1 PUSH1 0x24 ADD PUSH1 0x20 PUSH1 0x40 MLOAD DUP1 DUP4 SUB DUP2 DUP7 GAS STATICCALL ISZERO DUP1 ISZERO PUSH2 0x5B1 JUMPI RETURNDATASIZE PUSH1 0x0 DUP1 RETURNDATACOPY RETURNDATASIZE PUSH1 0x0 REVERT JUMPDEST POP POP POP POP PUSH1 0x40 MLOAD RETURNDATASIZE PUSH1 0x1F NOT PUSH1 0x1F DUP3 ADD AND DUP3 ADD DUP1 PUSH1 0x40 MSTORE POP DUP2 ADD SWAP1 PUSH2 0x5D5 SWAP2 SWAP1 PUSH2 0x107D JUMP JUMPDEST SWAP3 SWAP2 POP POP JUMP JUMPDEST PUSH2 0x5E3 PUSH2 0xDFD JUMP JUMPDEST PUSH1 0x1 DUP1 SLOAD PUSH32 0xFFFFFFFFFFFFFFFFFFFFFF00FFFFFFFFFFFFFFFFFFFFFFFFFFFFFFFFFFFFFFFF DUP2 AND PUSH1 0x1 PUSH1 0xA0 SHL SWAP2 DUP3 SWAP1 DIV PUSH1 0xFF AND ISZERO SWAP1 SWAP2 MUL OR SWAP1 SSTORE JUMP JUMPDEST PUSH1 0x0 PUSH2 0x629 PUSH2 0xDFD JUMP JUMPDEST PUSH1 0x1 SLOAD PUSH1 0x1 PUSH1 0xA0 SHL SWAP1 DIV PUSH1 0xFF AND ISZERO PUSH2 0x683 JUMPI PUSH1 0x40 MLOAD PUSH3 0x461BCD PUSH1 0xE5 SHL DUP2 MSTORE PUSH1 0x20 PUSH1 0x4 DUP3 ADD MSTORE PUSH1 0x1C PUSH1 0x24 DUP3 ADD MSTORE PUSH32 0x436F6E74726163742069732063757272656E746C792070617573656400000000 PUSH1 0x44 DUP3 ADD MSTORE PUSH1 0x64 ADD PUSH2 0x1B1 JUMP JUMPDEST PUSH1 0x40 MLOAD PUSH4 0xA9059CBB PUSH1 0xE0 SHL DUP2 MSTORE PUSH1 0x1 PUSH1 0x1 PUSH1 0xA0 SHL SUB DUP5 DUP2 AND PUSH1 0x4 DUP4 ADD MSTORE PUSH1 0x24 DUP3 ADD DUP5 SWAP1 MSTORE DUP6 AND SWAP1 PUSH4 0xA9059CBB SWAP1 PUSH1 0x44 ADD PUSH1 0x20 PUSH1 0x40 MLOAD DUP1 DUP4 SUB DUP2 PUSH1 0x0 DUP8 GAS CALL ISZERO DUP1 ISZERO PUSH2 0x6D2 JUMPI RETURNDATASIZE PUSH1 0x0 DUP1 RETURNDATACOPY RETURNDATASIZE PUSH1 0x0 REVERT JUMPDEST POP POP POP POP PUSH1 0x40 MLOAD RETURNDATASIZE PUSH1 0x1F NOT PUSH1 0x1F DUP3 ADD AND DUP3 ADD DUP1 PUSH1 0x40 MSTORE POP DUP2 ADD SWAP1 PUSH2 0x6F6 SWAP2 SWAP1 PUSH2 0x105B JUMP JUMPDEST POP PUSH1 0x40 DUP1 MLOAD PUSH1 0x1 PUSH1 0x1 PUSH1 0xA0 SHL SUB DUP6 AND DUP2 MSTORE PUSH1 0x20 DUP2 ADD DUP5 SWAP1 MSTORE PUSH32 0x5A6B26BAFD3957BF06EA3B4915F51221953ED272573C779820E6E39DF3E646CF SWAP2 ADD PUSH1 0x40 MLOAD DUP1 SWAP2 SUB SWAP1 LOG1 POP PUSH1 0x1 SWAP4 SWAP3 POP POP POP JUMP JUMPDEST PUSH2 0x74B PUSH2 0xDFD JUMP JUMPDEST PUSH2 0x755 PUSH1 0x0 PUSH2 0xE57 JUMP JUMPDEST JUMP JUMPDEST PUSH1 0x1 SLOAD PUSH1 0x1 PUSH1 0x1 PUSH1 0xA0 SHL SUB AND CALLER EQ DUP1 PUSH2 0x77A JUMPI POP PUSH1 0x0 SLOAD PUSH1 0x1 PUSH1 0x1 PUSH1 0xA0 SHL SUB AND CALLER EQ JUMPDEST PUSH2 0x7B6 JUMPI PUSH1 0x40 MLOAD PUSH3 0x461BCD PUSH1 0xE5 SHL DUP2 MSTORE PUSH1 0x20 PUSH1 0x4 DUP3 ADD MSTORE PUSH1 0xD PUSH1 0x24 DUP3 ADD MSTORE PUSH13 0x2737BA1020B8383937BB32B21 PUSH1 0x9D SHL PUSH1 0x44 DUP3 ADD MSTORE PUSH1 0x64 ADD PUSH2 0x1B1 JUMP JUMPDEST PUSH1 0x40 MLOAD PUSH4 0x70A08231 PUSH1 0xE0 SHL DUP2 MSTORE CALLER PUSH1 0x4 DUP3 ADD MSTORE PUSH1 0x1 PUSH1 0x1 PUSH1 0xA0 SHL SUB DUP5 AND SWAP1 PUSH4 0x70A08231 SWAP1 PUSH1 0x24 ADD PUSH1 0x20 PUSH1 0x40 MLOAD DUP1 DUP4 SUB DUP2 DUP7 GAS STATICCALL ISZERO DUP1 ISZERO PUSH2 0x7FA JUMPI RETURNDATASIZE PUSH1 0x0 DUP1 RETURNDATACOPY RETURNDATASIZE PUSH1 0x0 REVERT JUMPDEST POP POP POP POP PUSH1 0x40 MLOAD RETURNDATASIZE PUSH1 0x1F NOT PUSH1 0x1F DUP3 ADD AND DUP3 ADD DUP1 PUSH1 0x40 MSTORE POP DUP2 ADD SWAP1 PUSH2 0x81E SWAP2 SWAP1 PUSH2 0x107D JUMP JUMPDEST DUP2 GT ISZERO DUP1 ISZERO PUSH2 0x82D JUMPI POP PUSH1 0x0 DUP2 GT JUMPDEST PUSH2 0x884 JUMPI PUSH1 0x40 MLOAD PUSH3 0x461BCD PUSH1 0xE5 SHL DUP2 MSTORE PUSH1 0x20 PUSH1 0x4 DUP3 ADD MSTORE PUSH1 0x22 PUSH1 0x24 DUP3 ADD MSTORE PUSH32 0x416D6F756E74206E6F742056616C6964206F72206E6F7420617661696C61626C PUSH1 0x44 DUP3 ADD MSTORE PUSH2 0x329 PUSH1 0xF5 SHL PUSH1 0x64 DUP3 ADD MSTORE PUSH1 0x84 ADD PUSH2 0x1B1 JUMP JUMPDEST PUSH1 0x1 PUSH1 0x1 PUSH1 0xA0 SHL SUB DUP3 AND PUSH2 0x8DA JUMPI PUSH1 0x40 MLOAD PUSH3 0x461BCD PUSH1 0xE5 SHL DUP2 MSTORE PUSH1 0x20 PUSH1 0x4 DUP3 ADD MSTORE PUSH1 0x13 PUSH1 0x24 DUP3 ADD MSTORE PUSH32 0x4E6F7420612076616C6964206164647265737300000000000000000000000000 PUSH1 0x44 DUP3 ADD MSTORE PUSH1 0x64 ADD PUSH2 0x1B1 JUMP JUMPDEST PUSH1 0x40 MLOAD PUSH4 0x23B872DD PUSH1 0xE0 SHL DUP2 MSTORE CALLER PUSH1 0x4 DUP3 ADD MSTORE PUSH1 0x1 PUSH1 0x1 PUSH1 0xA0 SHL SUB DUP4 DUP2 AND PUSH1 0x24 DUP4 ADD MSTORE PUSH1 0x44 DUP3 ADD DUP4 SWAP1 MSTORE DUP5 AND SWAP1 PUSH4 0x23B872DD SWAP1 PUSH1 0x64 ADD PUSH1 0x20 PUSH1 0x40 MLOAD DUP1 DUP4 SUB DUP2 PUSH1 0x0 DUP8 GAS CALL ISZERO DUP1 ISZERO PUSH2 0x92F JUMPI RETURNDATASIZE PUSH1 0x0 DUP1 RETURNDATACOPY RETURNDATASIZE PUSH1 0x0 REVERT JUMPDEST POP POP POP POP PUSH1 0x40 MLOAD RETURNDATASIZE PUSH1 0x1F NOT PUSH1 0x1F DUP3 ADD AND DUP3 ADD DUP1 PUSH1 0x40 MSTORE POP DUP2 ADD SWAP1 PUSH2 0x953 SWAP2 SWAP1 PUSH2 0x105B JUMP JUMPDEST POP POP POP POP JUMP JUMPDEST PUSH1 0x0 PUSH2 0x963 PUSH2 0xDFD JUMP JUMPDEST PUSH1 0x1 SLOAD PUSH1 0x1 PUSH1 0xA0 SHL SWAP1 DIV PUSH1 0xFF AND ISZERO PUSH2 0x9BD JUMPI PUSH1 0x40 MLOAD PUSH3 0x461BCD PUSH1 0xE5 SHL DUP2 MSTORE PUSH1 0x20 PUSH1 0x4 DUP3 ADD MSTORE PUSH1 0x1C PUSH1 0x24 DUP3 ADD MSTORE PUSH32 0x436F6E74726163742069732063757272656E746C792070617573656400000000 PUSH1 0x44 DUP3 ADD MSTORE PUSH1 0x64 ADD PUSH2 0x1B1 JUMP JUMPDEST PUSH1 0x4 SLOAD DUP3 LT PUSH2 0xA19 JUMPI PUSH1 0x40 MLOAD PUSH3 0x461BCD PUSH1 0xE5 SHL DUP2 MSTORE PUSH1 0x20 PUSH1 0x4 DUP3 ADD MSTORE PUSH1 0x22 PUSH1 0x24 DUP3 ADD MSTORE PUSH32 0x43616E2774207769746864726177206D6F7265207468616E20746865206C696D PUSH1 0x44 DUP3 ADD MSTORE PUSH2 0x1A5D PUSH1 0xF2 SHL PUSH1 0x64 DUP3 ADD MSTORE PUSH1 0x84 ADD PUSH2 0x1B1 JUMP JUMPDEST PUSH1 0x0 DUP4 PUSH1 0x1 PUSH1 0x1 PUSH1 0xA0 SHL SUB AND DUP4 PUSH1 0x40 MLOAD PUSH1 0x0 PUSH1 0x40 MLOAD DUP1 DUP4 SUB DUP2 DUP6 DUP8 GAS CALL SWAP3 POP POP POP RETURNDATASIZE DUP1 PUSH1 0x0 DUP2 EQ PUSH2 0xA66 JUMPI PUSH1 0x40 MLOAD SWAP2 POP PUSH1 0x1F NOT PUSH1 0x3F RETURNDATASIZE ADD AND DUP3 ADD PUSH1 0x40 MSTORE RETURNDATASIZE DUP3 MSTORE RETURNDATASIZE PUSH1 0x0 PUSH1 0x20 DUP5 ADD RETURNDATACOPY PUSH2 0xA6B JUMP JUMPDEST PUSH1 0x60 SWAP2 POP JUMPDEST POP POP PUSH1 0x40 DUP1 MLOAD PUSH1 0x1 PUSH1 0x1 PUSH1 0xA0 SHL SUB DUP8 AND DUP2 MSTORE PUSH1 0x20 DUP2 ADD DUP7 SWAP1 MSTORE SWAP2 SWAP3 POP PUSH32 0x5A6B26BAFD3957BF06EA3B4915F51221953ED272573C779820E6E39DF3E646CF SWAP2 ADD PUSH1 0x40 MLOAD DUP1 SWAP2 SUB SWAP1 LOG1 SWAP4 SWAP3 POP POP POP JUMP JUMPDEST PUSH1 0x1 SLOAD PUSH1 0x1 PUSH1 0x1 PUSH1 0xA0 SHL SUB AND CALLER EQ DUP1 PUSH2 0xADC JUMPI POP PUSH1 0x0 SLOAD PUSH1 0x1 PUSH1 0x1 PUSH1 0xA0 SHL SUB AND CALLER EQ JUMPDEST PUSH2 0xB18 JUMPI PUSH1 0x40 MLOAD PUSH3 0x461BCD PUSH1 0xE5 SHL DUP2 MSTORE PUSH1 0x20 PUSH1 0x4 DUP3 ADD MSTORE PUSH1 0xD PUSH1 0x24 DUP3 ADD MSTORE PUSH13 0x2737BA1020B8383937BB32B21 PUSH1 0x9D SHL PUSH1 0x44 DUP3 ADD MSTORE PUSH1 0x64 ADD PUSH2 0x1B1 JUMP JUMPDEST PUSH1 0x4 SLOAD DUP2 GT ISZERO PUSH2 0xB90 JUMPI PUSH1 0x40 MLOAD PUSH3 0x461BCD PUSH1 0xE5 SHL DUP2 MSTORE PUSH1 0x20 PUSH1 0x4 DUP3 ADD MSTORE PUSH1 0x2C PUSH1 0x24 DUP3 ADD MSTORE PUSH32 0x416D6F756E742073686F756C64206265206C657373207468616E207265656465 PUSH1 0x44 DUP3 ADD MSTORE PUSH32 0x6D61626C6520616D6F756E740000000000000000000000000000000000000000 PUSH1 0x64 DUP3 ADD MSTORE PUSH1 0x84 ADD PUSH2 0x1B1 JUMP JUMPDEST PUSH1 0x1 PUSH1 0x1 PUSH1 0xA0 SHL SUB DUP3 AND PUSH2 0xBE6 JUMPI PUSH1 0x40 MLOAD PUSH3 0x461BCD PUSH1 0xE5 SHL DUP2 MSTORE PUSH1 0x20 PUSH1 0x4 DUP3 ADD MSTORE PUSH1 0x13 PUSH1 0x24 DUP3 ADD MSTORE PUSH32 0x4E6F7420612076616C6964206164647265737300000000000000000000000000 PUSH1 0x44 DUP3 ADD MSTORE PUSH1 0x64 ADD PUSH2 0x1B1 JUMP JUMPDEST PUSH1 0x0 DUP3 PUSH1 0x1 PUSH1 0x1 PUSH1 0xA0 SHL SUB AND DUP3 PUSH1 0x40 MLOAD PUSH1 0x0 PUSH1 0x40 MLOAD DUP1 DUP4 SUB DUP2 DUP6 DUP8 GAS CALL SWAP3 POP POP POP RETURNDATASIZE DUP1 PUSH1 0x0 DUP2 EQ PUSH2 0xC33 JUMPI PUSH1 0x40 MLOAD SWAP2 POP PUSH1 0x1F NOT PUSH1 0x3F RETURNDATASIZE ADD AND DUP3 ADD PUSH1 0x40 MSTORE RETURNDATASIZE DUP3 MSTORE RETURNDATASIZE PUSH1 0x0 PUSH1 0x20 DUP5 ADD RETURNDATACOPY PUSH2 0xC38 JUMP JUMPDEST PUSH1 0x60 SWAP2 POP JUMPDEST POP POP SWAP1 POP DUP1 PUSH2 0x565 JUMPI PUSH1 0x40 MLOAD PUSH3 0x461BCD PUSH1 0xE5 SHL DUP2 MSTORE PUSH1 0x20 PUSH1 0x4 DUP3 ADD MSTORE PUSH1 0x15 PUSH1 0x24 DUP3 ADD MSTORE PUSH32 0x5061796D656E74204E6F7420436F6D706C657465640000000000000000000000 PUSH1 0x44 DUP3 ADD MSTORE PUSH1 0x64 ADD PUSH2 0x1B1 JUMP JUMPDEST PUSH1 0x1 SLOAD PUSH1 0x1 PUSH1 0xA0 SHL SWAP1 DIV PUSH1 0xFF AND ISZERO PUSH2 0xCE3 JUMPI PUSH1 0x40 MLOAD PUSH3 0x461BCD PUSH1 0xE5 SHL DUP2 MSTORE PUSH1 0x20 PUSH1 0x4 DUP3 ADD MSTORE PUSH1 0x1C PUSH1 0x24 DUP3 ADD MSTORE PUSH32 0x436F6E74726163742069732063757272656E746C792070617573656400000000 PUSH1 0x44 DUP3 ADD MSTORE PUSH1 0x64 ADD PUSH2 0x1B1 JUMP JUMPDEST PUSH1 0x0 CALLVALUE GT PUSH2 0xD33 JUMPI PUSH1 0x40 MLOAD PUSH3 0x461BCD PUSH1 0xE5 SHL DUP2 MSTORE PUSH1 0x20 PUSH1 0x4 DUP3 ADD MSTORE PUSH1 0x10 PUSH1 0x24 DUP3 ADD MSTORE PUSH32 0x56616C75652063616E2774206265203000000000000000000000000000000000 PUSH1 0x44 DUP3 ADD MSTORE PUSH1 0x64 ADD PUSH2 0x1B1 JUMP JUMPDEST PUSH1 0x40 DUP1 MLOAD CALLER DUP2 MSTORE CALLVALUE PUSH1 0x20 DUP3 ADD MSTORE PUSH32 0xF11E547D796CC64ACDF758E7CEE90439494FD886A19159454AA61E473FDBAFEF SWAP2 ADD PUSH1 0x40 MLOAD DUP1 SWAP2 SUB SWAP1 LOG1 JUMP JUMPDEST PUSH2 0xD75 PUSH2 0xDFD JUMP JUMPDEST PUSH1 0x1 PUSH1 0x1 PUSH1 0xA0 SHL SUB DUP2 AND PUSH2 0xDF1 JUMPI PUSH1 0x40 MLOAD PUSH3 0x461BCD PUSH1 0xE5 SHL DUP2 MSTORE PUSH1 0x20 PUSH1 0x4 DUP3 ADD MSTORE PUSH1 0x26 PUSH1 0x24 DUP3 ADD MSTORE PUSH32 0x4F776E61626C653A206E6577206F776E657220697320746865207A65726F2061 PUSH1 0x44 DUP3 ADD MSTORE PUSH32 0x6464726573730000000000000000000000000000000000000000000000000000 PUSH1 0x64 DUP3 ADD MSTORE PUSH1 0x84 ADD PUSH2 0x1B1 JUMP JUMPDEST PUSH2 0xDFA DUP2 PUSH2 0xE57 JUMP JUMPDEST POP JUMP JUMPDEST PUSH1 0x0 SLOAD PUSH1 0x1 PUSH1 0x1 PUSH1 0xA0 SHL SUB AND CALLER EQ PUSH2 0x755 JUMPI PUSH1 0x40 MLOAD PUSH3 0x461BCD PUSH1 0xE5 SHL DUP2 MSTORE PUSH1 0x20 PUSH1 0x4 DUP3 ADD DUP2 SWAP1 MSTORE PUSH1 0x24 DUP3 ADD MSTORE PUSH32 0x4F776E61626C653A2063616C6C6572206973206E6F7420746865206F776E6572 PUSH1 0x44 DUP3 ADD MSTORE PUSH1 0x64 ADD PUSH2 0x1B1 JUMP JUMPDEST PUSH1 0x0 DUP1 SLOAD PUSH1 0x1 PUSH1 0x1 PUSH1 0xA0 SHL SUB DUP4 DUP2 AND PUSH32 0xFFFFFFFFFFFFFFFFFFFFFFFF0000000000000000000000000000000000000000 DUP4 AND DUP2 OR DUP5 SSTORE PUSH1 0x40 MLOAD SWAP2 SWAP1 SWAP3 AND SWAP3 DUP4 SWAP2 PUSH32 0x8BE0079C531659141344CD1FD0A4F28419497F9722A3DAAFE3B4186F6B6457E0 SWAP2 SWAP1 LOG3 POP POP JUMP JUMPDEST PUSH1 0x1 PUSH1 0x1 PUSH1 0xA0 SHL SUB DUP2 AND DUP2 EQ PUSH2 0xDFA JUMPI PUSH1 0x0 DUP1 REVERT JUMPDEST PUSH4 0x4E487B71 PUSH1 0xE0 SHL PUSH1 0x0 MSTORE PUSH1 0x41 PUSH1 0x4 MSTORE PUSH1 0x24 PUSH1 0x0 REVERT JUMPDEST PUSH1 0x0 DUP1 PUSH1 0x0 DUP1 PUSH1 0x80 DUP6 DUP8 SUB SLT ISZERO PUSH2 0xF00 JUMPI PUSH1 0x0 DUP1 REVERT JUMPDEST DUP5 CALLDATALOAD PUSH2 0xF0B DUP2 PUSH2 0xEBF JUMP JUMPDEST SWAP4 POP PUSH1 0x20 DUP6 ADD CALLDATALOAD PUSH2 0xF1B DUP2 PUSH2 0xEBF JUMP JUMPDEST SWAP3 POP PUSH1 0x40 DUP6 ADD CALLDATALOAD SWAP2 POP PUSH1 0x60 DUP6 ADD CALLDATALOAD PUSH8 0xFFFFFFFFFFFFFFFF DUP1 DUP3 GT ISZERO PUSH2 0xF3F JUMPI PUSH1 0x0 DUP1 REVERT JUMPDEST DUP2 DUP8 ADD SWAP2 POP DUP8 PUSH1 0x1F DUP4 ADD SLT PUSH2 0xF53 JUMPI PUSH1 0x0 DUP1 REVERT JUMPDEST DUP2 CALLDATALOAD DUP2 DUP2 GT ISZERO PUSH2 0xF65 JUMPI PUSH2 0xF65 PUSH2 0xED4 JUMP JUMPDEST PUSH1 0x40 MLOAD PUSH1 0x1F DUP3 ADD PUSH1 0x1F NOT SWAP1 DUP2 AND PUSH1 0x3F ADD AND DUP2 ADD SWAP1 DUP4 DUP3 GT DUP2 DUP4 LT OR ISZERO PUSH2 0xF8D JUMPI PUSH2 0xF8D PUSH2 0xED4 JUMP JUMPDEST DUP2 PUSH1 0x40 MSTORE DUP3 DUP2 MSTORE DUP11 PUSH1 0x20 DUP5 DUP8 ADD ADD GT ISZERO PUSH2 0xFA6 JUMPI PUSH1 0x0 DUP1 REVERT JUMPDEST DUP3 PUSH1 0x20 DUP7 ADD PUSH1 0x20 DUP4 ADD CALLDATACOPY PUSH1 0x0 PUSH1 0x20 DUP5 DUP4 ADD ADD MSTORE DUP1 SWAP6 POP POP POP POP POP POP SWAP3 SWAP6 SWAP2 SWAP5 POP SWAP3 POP JUMP JUMPDEST PUSH1 0x0 DUP1 PUSH1 0x40 DUP4 DUP6 SUB SLT ISZERO PUSH2 0xFDD JUMPI PUSH1 0x0 DUP1 REVERT JUMPDEST DUP3 CALLDATALOAD PUSH2 0xFE8 DUP2 PUSH2 0xEBF JUMP JUMPDEST SWAP5 PUSH1 0x20 SWAP4 SWAP1 SWAP4 ADD CALLDATALOAD SWAP4 POP POP POP JUMP JUMPDEST PUSH1 0x0 PUSH1 0x20 DUP3 DUP5 SUB SLT ISZERO PUSH2 0x1008 JUMPI PUSH1 0x0 DUP1 REVERT JUMPDEST DUP2 CALLDATALOAD PUSH2 0x1013 DUP2 PUSH2 0xEBF JUMP JUMPDEST SWAP4 SWAP3 POP POP POP JUMP JUMPDEST PUSH1 0x0 DUP1 PUSH1 0x0 PUSH1 0x60 DUP5 DUP7 SUB SLT ISZERO PUSH2 0x102F JUMPI PUSH1 0x0 DUP1 REVERT JUMPDEST DUP4 CALLDATALOAD PUSH2 0x103A DUP2 PUSH2 0xEBF JUMP JUMPDEST SWAP3 POP PUSH1 0x20 DUP5 ADD CALLDATALOAD PUSH2 0x104A DUP2 PUSH2 0xEBF JUMP JUMPDEST SWAP3 SWAP6 SWAP3 SWAP5 POP POP POP PUSH1 0x40 SWAP2 SWAP1 SWAP2 ADD CALLDATALOAD SWAP1 JUMP JUMPDEST PUSH1 0x0 PUSH1 0x20 DUP3 DUP5 SUB SLT ISZERO PUSH2 0x106D JUMPI PUSH1 0x0 DUP1 REVERT JUMPDEST DUP2 MLOAD DUP1 ISZERO ISZERO DUP2 EQ PUSH2 0x1013 JUMPI PUSH1 0x0 DUP1 REVERT JUMPDEST PUSH1 0x0 PUSH1 0x20 DUP3 DUP5 SUB SLT ISZERO PUSH2 0x108F JUMPI PUSH1 0x0 DUP1 REVERT JUMPDEST POP MLOAD SWAP2 SWAP1 POP JUMP INVALID LOG2 PUSH5 0x6970667358 0x22 SLT KECCAK256 MSTORE SUB CALL 0x5F 0xBF 0xBF PUSH29 0x5BF9A031BAEE23EC4CFC04A4C68E03B3545EC30E22F93195B064736F6C PUSH4 0x4300080D STOP CALLER "
    },
    "gasEstimates": {
      "creation": {
        "codeDepositCost": "860000",
        "executionCost": "infinite",
        "totalCost": "infinite"
      },
      "external": {
        "": "164",
        "EMIamountPerMonth()": "2330",
        "blockedAmount()": "2373",
        "deposit()": "3680",
        "depositToken(address,uint256)": "infinite",
        "developer()": "260",
        "getBalance()": "219",
        "getTokenBalance(address)": "infinite",
        "interestFreePeriod()": "252",
        "interestRatePerMonth()": "251",
        "onERC721Received(address,address,uint256,bytes)": "infinite",
        "owner()": "2388",
        "pauseContract()": "26662",
        "pay(address,uint256)": "infinite",
        "payinToken(address,address,uint256)": "infinite",
        "payments()": "2426",
        "reedemableBalance()": "2351",
        "renounceOwnership()": "infinite",
        "totalBalance()": "2329",
        "transferOwnership(address)": "infinite",
        "withdrawEthTo(address,uint256)": "infinite",
        "withdrawTokens(address,address,uint256)": "infinite"
      }
    },
    "methodIdentifiers": {
      "EMIamountPerMonth()": "4b2a7b7d",
      "blockedAmount()": "6b4943a7",
      "deposit()": "d0e30db0",
      "depositToken(address,uint256)": "338b5dea",
      "developer()": "ca4b208b",
      "getBalance()": "12065fe0",
      "getTokenBalance(address)": "3aecd0e3",
      "interestFreePeriod()": "55eb3e34",
      "interestRatePerMonth()": "a0af39fc",
      "onERC721Received(address,address,uint256,bytes)": "150b7a02",
      "owner()": "8da5cb5b",
      "pauseContract()": "439766ce",
      "pay(address,uint256)": "c4076876",
      "payinToken(address,address,uint256)": "92772047",
      "payments()": "a6d23e10",
      "reedemableBalance()": "6457d0b2",
      "renounceOwnership()": "715018a6",
      "totalBalance()": "ad7a672f",
      "transferOwnership(address)": "f2fde38b",
      "withdrawEthTo(address,uint256)": "c33af250",
      "withdrawTokens(address,address,uint256)": "5e35359e"
    }
  },
  "storageLayout": {
    "storage": [
      {
        "astId": 1058,
        "contract": "profileWallet.sol:profileWallet",
        "label": "_owner",
        "offset": 0,
        "slot": "0",
        "type": "t_address"
      },
      {
        "astId": 684,
        "contract": "profileWallet.sol:profileWallet",
        "label": "payments",
        "offset": 0,
        "slot": "1",
        "type": "t_address"
      },
      {
        "astId": 702,
        "contract": "profileWallet.sol:profileWallet",
        "label": "paused",
        "offset": 20,
        "slot": "1",
        "type": "t_bool"
      },
      {
        "astId": 705,
        "contract": "profileWallet.sol:profileWallet",
        "label": "blockedAmount",
        "offset": 0,
        "slot": "2",
        "type": "t_uint256"
      },
      {
        "astId": 712,
        "contract": "profileWallet.sol:profileWallet",
        "label": "totalBalance",
        "offset": 0,
        "slot": "3",
        "type": "t_uint256"
      },
      {
        "astId": 717,
        "contract": "profileWallet.sol:profileWallet",
        "label": "reedemableBalance",
        "offset": 0,
        "slot": "4",
        "type": "t_uint256"
      },
      {
        "astId": 720,
        "contract": "profileWallet.sol:profileWallet",
        "label": "EMIamountPerMonth",
        "offset": 0,
        "slot": "5",
        "type": "t_uint256"
      }
    ],
    "types": {
      "t_address": {
        "encoding": "inplace",
        "label": "address",
        "numberOfBytes": "20"
      },
      "t_bool": {
        "encoding": "inplace",
        "label": "bool",
        "numberOfBytes": "1"
      },
      "t_uint256": {
        "encoding": "inplace",
        "label": "uint256",
        "numberOfBytes": "32"
      }
    }
  },
  "userdoc": {
    "kind": "user",
    "methods": {
      "constructor": {
        "notice": "add or deduct the amount to be deducted per month"
      }
    },
    "version": 1
  }
}