{
  "abi": [
    {
      "anonymous": false,
      "inputs": [
        {
          "indexed": true,
          "internalType": "address",
          "name": "previousOwner",
          "type": "address"
        },
        {
          "indexed": true,
          "internalType": "address",
          "name": "newOwner",
          "type": "address"
        }
      ],
      "name": "OwnershipTransferred",
      "type": "event"
    },
    {
      "anonymous": false,
      "inputs": [
        {
          "indexed": false,
          "internalType": "address",
          "name": "creator",
          "type": "address"
        },
        {
          "indexed": false,
          "internalType": "address",
          "name": "payer",
          "type": "address"
        },
        {
          "indexed": false,
          "internalType": "uint256",
          "name": "id",
          "type": "uint256"
        },
        {
          "indexed": false,
          "internalType": "uint256",
          "name": "amount",
          "type": "uint256"
        }
      ],
      "name": "RequestPaid",
      "type": "event"
    },
    {
      "anonymous": false,
      "inputs": [
        {
          "indexed": false,
          "internalType": "address",
          "name": "creator",
          "type": "address"
        },
        {
          "indexed": false,
          "internalType": "uint256",
          "name": "id",
          "type": "uint256"
        },
        {
          "indexed": false,
          "internalType": "uint256",
          "name": "amount",
          "type": "uint256"
        }
      ],
      "name": "RequestsCreated",
      "type": "event"
    },
    {
      "inputs": [],
      "name": "EPNS_COMM_ADDRESS",
      "outputs": [
        {
          "internalType": "address",
          "name": "",
          "type": "address"
        }
      ],
      "stateMutability": "view",
      "type": "function"
    },
    {
      "inputs": [],
      "name": "channelAddress",
      "outputs": [
        {
          "internalType": "address",
          "name": "",
          "type": "address"
        }
      ],
      "stateMutability": "view",
      "type": "function"
    },
    {
      "inputs": [
        {
          "internalType": "address",
          "name": "creator",
          "type": "address"
        },
        {
          "internalType": "uint256",
          "name": "_amount",
          "type": "uint256"
        },
        {
          "internalType": "string",
          "name": "detailsURI",
          "type": "string"
        }
      ],
      "name": "createRequest",
      "outputs": [
        {
          "internalType": "uint256",
          "name": "_id",
          "type": "uint256"
        }
      ],
      "stateMutability": "nonpayable",
      "type": "function"
    },
    {
      "inputs": [
        {
          "internalType": "address",
          "name": "_payer",
          "type": "address"
        },
        {
          "internalType": "uint256",
          "name": "_amount",
          "type": "uint256"
        },
        {
          "internalType": "string",
          "name": "detailsURI",
          "type": "string"
        }
      ],
      "name": "createRequestDirect",
      "outputs": [
        {
          "internalType": "uint256",
          "name": "_id",
          "type": "uint256"
        }
      ],
      "stateMutability": "nonpayable",
      "type": "function"
    },
    {
      "inputs": [],
      "name": "owner",
      "outputs": [
        {
          "internalType": "address",
          "name": "",
          "type": "address"
        }
      ],
      "stateMutability": "view",
      "type": "function"
    },
    {
      "inputs": [
        {
          "internalType": "uint32",
          "name": "requestId",
          "type": "uint32"
        }
      ],
      "name": "payRequest",
      "outputs": [],
      "stateMutability": "nonpayable",
      "type": "function"
    },
    {
      "inputs": [],
      "name": "renounceOwnership",
      "outputs": [],
      "stateMutability": "nonpayable",
      "type": "function"
    },
    {
      "inputs": [
        {
          "internalType": "uint256",
          "name": "",
          "type": "uint256"
        }
      ],
      "name": "requests",
      "outputs": [
        {
          "internalType": "address",
          "name": "requestCreator",
          "type": "address"
        },
        {
          "internalType": "uint256",
          "name": "amount",
          "type": "uint256"
        },
        {
          "internalType": "string",
          "name": "detailsURI",
          "type": "string"
        },
        {
          "internalType": "enum requestHandler.payState",
          "name": "_state",
          "type": "uint8"
        }
      ],
      "stateMutability": "view",
      "type": "function"
    },
    {
      "inputs": [
        {
          "internalType": "address",
          "name": "",
          "type": "address"
        },
        {
          "internalType": "uint256",
          "name": "",
          "type": "uint256"
        }
      ],
      "name": "requestsForUser",
      "outputs": [
        {
          "internalType": "uint256",
          "name": "",
          "type": "uint256"
        }
      ],
      "stateMutability": "view",
      "type": "function"
    },
    {
      "inputs": [
        {
          "internalType": "address",
          "name": "_reciever",
          "type": "address"
        },
        {
          "internalType": "address",
          "name": "creator",
          "type": "address"
        },
        {
          "internalType": "uint256",
          "name": "amount",
          "type": "uint256"
        }
      ],
      "name": "sendNotViaPush",
      "outputs": [],
      "stateMutability": "nonpayable",
      "type": "function"
    },
    {
      "inputs": [
        {
          "internalType": "uint32",
          "name": "requestId",
          "type": "uint32"
        },
        {
          "internalType": "address",
          "name": "reciever",
          "type": "address"
        }
      ],
      "name": "sendRequest",
      "outputs": [],
      "stateMutability": "nonpayable",
      "type": "function"
    },
    {
      "inputs": [],
      "name": "totalRequests",
      "outputs": [
        {
          "internalType": "uint32",
          "name": "",
          "type": "uint32"
        }
      ],
      "stateMutability": "view",
      "type": "function"
    },
    {
      "inputs": [
        {
          "internalType": "address",
          "name": "newOwner",
          "type": "address"
        }
      ],
      "name": "transferOwnership",
      "outputs": [],
      "stateMutability": "nonpayable",
      "type": "function"
    }
  ],
  "devdoc": {
    "kind": "dev",
    "methods": {
      "owner()": {
        "details": "Returns the address of the current owner."
      },
      "renounceOwnership()": {
        "details": "Leaves the contract without owner. It will not be possible to call `onlyOwner` functions anymore. Can only be called by the current owner. NOTE: Renouncing ownership will leave the contract without an owner, thereby removing any functionality that is only available to the owner."
      },
      "transferOwnership(address)": {
        "details": "Transfers ownership of the contract to a new account (`newOwner`). Can only be called by the current owner."
      }
    },
    "version": 1
  },
  "evm": {
    "assembly": "    /* \"paymentRequests.sol\":672:5892  contract requestHandler is Ownable {... */\n  mstore(0x40, 0x80)\n    /* \"paymentRequests.sol\":785:870  address public EPNS_COMM_ADDRESS =... */\n  0x01\n  dup1\n  sload\n  not(sub(shl(0xa0, 0x01), 0x01))\n  swap1\n  dup2\n  and\n    /* \"paymentRequests.sol\":828:870  0xb3971BCef2D791bc4027BbfedFb47319A4AAaaAa */\n  0xb3971bcef2d791bc4027bbfedfb47319a4aaaaaa\n    /* \"paymentRequests.sol\":785:870  address public EPNS_COMM_ADDRESS =... */\n  or\n  swap1\n  swap2\n  sstore\n    /* \"paymentRequests.sol\":876:950  address public channelAddress = 0x62C43323447899acb61C18181e34168903E033Bf */\n  0x02\n  dup1\n  sload\n  swap1\n  swap2\n  and\n    /* \"paymentRequests.sol\":908:950  0x62C43323447899acb61C18181e34168903E033Bf */\n  0x62c43323447899acb61c18181e34168903e033bf\n    /* \"paymentRequests.sol\":876:950  address public channelAddress = 0x62C43323447899acb61C18181e34168903E033Bf */\n  or\n  swap1\n  sstore\n    /* \"paymentRequests.sol\":672:5892  contract requestHandler is Ownable {... */\n  callvalue\n  dup1\n  iszero\n  tag_1\n  jumpi\n  0x00\n  dup1\n  revert\ntag_1:\n  pop\n    /* \"@openzeppelin/contracts/access/Ownable.sol\":936:968   */\n  tag_4\n    /* \"@openzeppelin/contracts/utils/Context.sol\":719:729   */\n  caller\n    /* \"@openzeppelin/contracts/access/Ownable.sol\":936:954   */\n  tag_7\n    /* \"@openzeppelin/contracts/access/Ownable.sol\":936:968   */\n  jump\t// in\ntag_4:\n    /* \"paymentRequests.sol\":672:5892  contract requestHandler is Ownable {... */\n  jump(tag_8)\n    /* \"@openzeppelin/contracts/access/Ownable.sol\":2433:2620   */\ntag_7:\n    /* \"@openzeppelin/contracts/access/Ownable.sol\":2506:2522   */\n  0x00\n    /* \"@openzeppelin/contracts/access/Ownable.sol\":2525:2531   */\n  dup1\n  sload\n  sub(shl(0xa0, 0x01), 0x01)\n    /* \"@openzeppelin/contracts/access/Ownable.sol\":2541:2558   */\n  dup4\n  dup2\n  and\n  not(sub(shl(0xa0, 0x01), 0x01))\n  dup4\n  and\n  dup2\n  or\n  dup5\n  sstore\n    /* \"@openzeppelin/contracts/access/Ownable.sol\":2573:2613   */\n  mload(0x40)\n    /* \"@openzeppelin/contracts/access/Ownable.sol\":2525:2531   */\n  swap2\n  swap1\n  swap3\n  and\n  swap3\n  dup4\n  swap2\n    /* \"@openzeppelin/contracts/access/Ownable.sol\":2573:2613   */\n  0x8be0079c531659141344cd1fd0a4f28419497f9722a3daafe3b4186f6b6457e0\n  swap2\n    /* \"@openzeppelin/contracts/access/Ownable.sol\":2506:2522   */\n  swap1\n    /* \"@openzeppelin/contracts/access/Ownable.sol\":2573:2613   */\n  log3\n    /* \"@openzeppelin/contracts/access/Ownable.sol\":2496:2620   */\n  pop\n    /* \"@openzeppelin/contracts/access/Ownable.sol\":2433:2620   */\n  pop\n  jump\t// out\n    /* \"paymentRequests.sol\":672:5892  contract requestHandler is Ownable {... */\ntag_8:\n  dataSize(sub_0)\n  dup1\n  dataOffset(sub_0)\n  0x00\n  codecopy\n  0x00\n  return\nstop\n\nsub_0: assembly {\n        /* \"paymentRequests.sol\":672:5892  contract requestHandler is Ownable {... */\n      mstore(0x40, 0x80)\n      callvalue\n      dup1\n      iszero\n      tag_1\n      jumpi\n      0x00\n      dup1\n      revert\n    tag_1:\n      pop\n      jumpi(tag_2, lt(calldatasize, 0x04))\n      shr(0xe0, calldataload(0x00))\n      dup1\n      0x8aea61dc\n      gt\n      tag_16\n      jumpi\n      dup1\n      0x8ec67841\n      gt\n      tag_17\n      jumpi\n      dup1\n      0x8ec67841\n      eq\n      tag_12\n      jumpi\n      dup1\n      0xba9a7a9e\n      eq\n      tag_13\n      jumpi\n      dup1\n      0xbcc8ae4e\n      eq\n      tag_14\n      jumpi\n      dup1\n      0xf2fde38b\n      eq\n      tag_15\n      jumpi\n      0x00\n      dup1\n      revert\n    tag_17:\n      dup1\n      0x8aea61dc\n      eq\n      tag_9\n      jumpi\n      dup1\n      0x8c21dd2e\n      eq\n      tag_10\n      jumpi\n      dup1\n      0x8da5cb5b\n      eq\n      tag_11\n      jumpi\n      0x00\n      dup1\n      revert\n    tag_16:\n      dup1\n      0x715018a6\n      gt\n      tag_18\n      jumpi\n      dup1\n      0x715018a6\n      eq\n      tag_6\n      jumpi\n      dup1\n      0x81d12c58\n      eq\n      tag_7\n      jumpi\n      dup1\n      0x8405549d\n      eq\n      tag_8\n      jumpi\n      0x00\n      dup1\n      revert\n    tag_18:\n      dup1\n      0x167d44ac\n      eq\n      tag_3\n      jumpi\n      dup1\n      0x3d1b214f\n      eq\n      tag_4\n      jumpi\n      dup1\n      0x48a3b4a4\n      eq\n      tag_5\n      jumpi\n    tag_2:\n      0x00\n      dup1\n      revert\n        /* \"paymentRequests.sol\":1385:1437  mapping(address => uint256[]) public requestsForUser */\n    tag_3:\n      tag_19\n      tag_20\n      calldatasize\n      0x04\n      tag_21\n      jump\t// in\n    tag_20:\n      tag_22\n      jump\t// in\n    tag_19:\n      mload(0x40)\n        /* \"#utility.yul\":620:645   */\n      swap1\n      dup2\n      mstore\n        /* \"#utility.yul\":608:610   */\n      0x20\n        /* \"#utility.yul\":593:611   */\n      add\n        /* \"paymentRequests.sol\":1385:1437  mapping(address => uint256[]) public requestsForUser */\n    tag_23:\n      mload(0x40)\n      dup1\n      swap2\n      sub\n      swap1\n      return\n        /* \"paymentRequests.sol\":3769:4283  function createRequestDirect(... */\n    tag_4:\n      tag_19\n      tag_26\n      calldatasize\n      0x04\n      tag_27\n      jump\t// in\n    tag_26:\n      tag_28\n      jump\t// in\n        /* \"paymentRequests.sol\":785:870  address public EPNS_COMM_ADDRESS =... */\n    tag_5:\n      sload(0x01)\n      tag_30\n      swap1\n      sub(shl(0xa0, 0x01), 0x01)\n      and\n      dup2\n      jump\n    tag_30:\n      mload(0x40)\n      sub(shl(0xa0, 0x01), 0x01)\n        /* \"#utility.yul\":2021:2076   */\n      swap1\n      swap2\n      and\n        /* \"#utility.yul\":2003:2077   */\n      dup2\n      mstore\n        /* \"#utility.yul\":1991:1993   */\n      0x20\n        /* \"#utility.yul\":1976:1994   */\n      add\n        /* \"paymentRequests.sol\":785:870  address public EPNS_COMM_ADDRESS =... */\n      tag_23\n        /* \"#utility.yul\":1857:2083   */\n      jump\n        /* \"@openzeppelin/contracts/access/Ownable.sol\":1831:1932   */\n    tag_6:\n      tag_34\n      tag_35\n      jump\t// in\n    tag_34:\n      stop\n        /* \"paymentRequests.sol\":1295:1345  mapping(uint256 => PaymentRequest) public requests */\n    tag_7:\n      tag_36\n      tag_37\n      calldatasize\n      0x04\n      tag_38\n      jump\t// in\n    tag_37:\n      tag_39\n      jump\t// in\n    tag_36:\n      mload(0x40)\n      tag_23\n      swap5\n      swap4\n      swap3\n      swap2\n      swap1\n      tag_41\n      jump\t// in\n        /* \"paymentRequests.sol\":876:950  address public channelAddress = 0x62C43323447899acb61C18181e34168903E033Bf */\n    tag_8:\n      sload(0x02)\n      tag_30\n      swap1\n      sub(shl(0xa0, 0x01), 0x01)\n      and\n      dup2\n      jump\n        /* \"paymentRequests.sol\":1351:1378  uint32 public totalRequests */\n    tag_9:\n      sload(0x04)\n      tag_45\n      swap1\n      0xffffffff\n      and\n      dup2\n      jump\n    tag_45:\n      mload(0x40)\n        /* \"#utility.yul\":3757:3767   */\n      0xffffffff\n        /* \"#utility.yul\":3745:3768   */\n      swap1\n      swap2\n      and\n        /* \"#utility.yul\":3727:3769   */\n      dup2\n      mstore\n        /* \"#utility.yul\":3715:3717   */\n      0x20\n        /* \"#utility.yul\":3700:3718   */\n      add\n        /* \"paymentRequests.sol\":1351:1378  uint32 public totalRequests */\n      tag_23\n        /* \"#utility.yul\":3583:3775   */\n      jump\n        /* \"paymentRequests.sol\":5434:5890  function payRequest(uint32 requestId) public {... */\n    tag_10:\n      tag_34\n      tag_50\n      calldatasize\n      0x04\n      tag_51\n      jump\t// in\n    tag_50:\n      tag_52\n      jump\t// in\n        /* \"@openzeppelin/contracts/access/Ownable.sol\":1201:1286   */\n    tag_11:\n        /* \"@openzeppelin/contracts/access/Ownable.sol\":1247:1254   */\n      0x00\n        /* \"@openzeppelin/contracts/access/Ownable.sol\":1273:1279   */\n      sload\n      sub(shl(0xa0, 0x01), 0x01)\n      and\n        /* \"@openzeppelin/contracts/access/Ownable.sol\":1201:1286   */\n      jump(tag_30)\n        /* \"paymentRequests.sol\":1444:3160  function sendNotViaPush(... */\n    tag_12:\n      tag_34\n      tag_57\n      calldatasize\n      0x04\n      tag_58\n      jump\t// in\n    tag_57:\n      tag_59\n      jump\t// in\n        /* \"paymentRequests.sol\":4342:4744  function createRequest(... */\n    tag_13:\n      tag_19\n      tag_61\n      calldatasize\n      0x04\n      tag_27\n      jump\t// in\n    tag_61:\n      tag_62\n      jump\t// in\n        /* \"paymentRequests.sol\":4831:5285  function sendRequest(uint32 requestId, address reciever) public {... */\n    tag_14:\n      tag_34\n      tag_65\n      calldatasize\n      0x04\n      tag_66\n      jump\t// in\n    tag_65:\n      tag_67\n      jump\t// in\n        /* \"@openzeppelin/contracts/access/Ownable.sol\":2081:2279   */\n    tag_15:\n      tag_34\n      tag_69\n      calldatasize\n      0x04\n      tag_70\n      jump\t// in\n    tag_69:\n      tag_71\n      jump\t// in\n        /* \"paymentRequests.sol\":1385:1437  mapping(address => uint256[]) public requestsForUser */\n    tag_22:\n      mstore(0x20, 0x05)\n      dup2\n      0x00\n      mstore\n      keccak256(0x00, 0x40)\n      dup2\n      dup2\n      sload\n      dup2\n      lt\n      tag_72\n      jumpi\n      0x00\n      dup1\n      revert\n    tag_72:\n      swap1\n      0x00\n      mstore\n      keccak256(0x00, 0x20)\n      add\n      0x00\n      swap2\n      pop\n      swap2\n      pop\n      pop\n      sload\n      dup2\n      jump\t// out\n        /* \"paymentRequests.sol\":3769:4283  function createRequestDirect(... */\n    tag_28:\n        /* \"paymentRequests.sol\":3947:3960  totalRequests */\n      sload(0x04)\n        /* \"paymentRequests.sol\":3993:4117  PaymentRequest(... */\n      0x40\n      dup1\n      mload\n      0x80\n      dup2\n      add\n      dup3\n      mstore\n        /* \"paymentRequests.sol\":4021:4031  msg.sender */\n      caller\n        /* \"paymentRequests.sol\":3993:4117  PaymentRequest(... */\n      dup2\n      mstore\n      0x20\n      dup1\n      dup3\n      add\n      dup7\n      dup2\n      mstore\n      dup3\n      dup5\n      add\n      dup7\n      dup2\n      mstore\n      0x00\n      0x60\n      dup6\n      add\n      dup2\n      swap1\n      mstore\n        /* \"paymentRequests.sol\":3947:3960  totalRequests */\n      0xffffffff\n      swap1\n      swap7\n      and\n        /* \"paymentRequests.sol\":3970:3990  requests[_requestId] */\n      dup1\n      dup8\n      mstore\n        /* \"paymentRequests.sol\":3970:3978  requests */\n      0x03\n        /* \"paymentRequests.sol\":3970:3990  requests[_requestId] */\n      dup5\n      mstore\n      swap5\n      dup7\n      keccak256\n        /* \"paymentRequests.sol\":3970:4117  requests[_requestId] = PaymentRequest(... */\n      dup5\n      mload\n      dup2\n      sload\n      not(0xffffffffffffffffffffffffffffffffffffffff)\n      and\n      sub(shl(0xa0, 0x01), 0x01)\n      swap1\n      swap2\n      and\n      or\n      dup2\n      sstore\n      swap2\n      mload\n      0x01\n      dup4\n      add\n      sstore\n      mload\n      dup1\n      mload\n        /* \"paymentRequests.sol\":3970:3990  requests[_requestId] */\n      swap2\n      swap3\n        /* \"paymentRequests.sol\":3970:4117  requests[_requestId] = PaymentRequest(... */\n      tag_78\n      swap3\n      0x02\n      dup6\n      add\n      swap3\n      swap1\n      swap2\n      add\n      swap1\n      tag_79\n      jump\t// in\n    tag_78:\n      pop\n      0x60\n      dup3\n      add\n      mload\n      0x03\n      dup3\n      add\n      dup1\n      sload\n      not(0xff)\n      and\n      0x01\n      dup4\n      0x02\n      dup2\n      gt\n      iszero\n      tag_81\n      jumpi\n      tag_81\n      tag_77\n      jump\t// in\n    tag_81:\n      mul\n      or\n      swap1\n      sstore\n      pop\n      swap1\n      pop\n      pop\n        /* \"paymentRequests.sol\":4128:4171  sendNotViaPush(_payer, msg.sender, _amount) */\n      tag_82\n        /* \"paymentRequests.sol\":4143:4149  _payer */\n      dup6\n        /* \"paymentRequests.sol\":4151:4161  msg.sender */\n      caller\n        /* \"paymentRequests.sol\":4163:4170  _amount */\n      dup7\n        /* \"paymentRequests.sol\":4128:4142  sendNotViaPush */\n      tag_59\n        /* \"paymentRequests.sol\":4128:4171  sendNotViaPush(_payer, msg.sender, _amount) */\n      jump\t// in\n    tag_82:\n      sub(shl(0xa0, 0x01), 0x01)\n        /* \"paymentRequests.sol\":4181:4204  requestsForUser[_payer] */\n      dup6\n      and\n      0x00\n      swap1\n      dup2\n      mstore\n        /* \"paymentRequests.sol\":4181:4196  requestsForUser */\n      0x05\n        /* \"paymentRequests.sol\":4181:4204  requestsForUser[_payer] */\n      0x20\n      swap1\n      dup2\n      mstore\n      0x40\n      dup3\n      keccak256\n        /* \"paymentRequests.sol\":4181:4221  requestsForUser[_payer].push(_requestId) */\n      dup1\n      sload\n      0x01\n      dup2\n      dup2\n      add\n      dup4\n      sstore\n      swap2\n      dup5\n      mstore\n      swap2\n      dup4\n      keccak256\n      swap1\n      swap2\n      add\n      dup4\n      swap1\n      sstore\n        /* \"paymentRequests.sol\":4231:4244  totalRequests */\n      0x04\n        /* \"paymentRequests.sol\":4231:4249  totalRequests += 1 */\n      dup1\n      sload\n        /* \"paymentRequests.sol\":4181:4221  requestsForUser[_payer].push(_requestId) */\n      swap2\n      swap3\n        /* \"paymentRequests.sol\":4231:4244  totalRequests */\n      swap1\n      swap2\n        /* \"paymentRequests.sol\":4231:4249  totalRequests += 1 */\n      tag_84\n      swap1\n        /* \"paymentRequests.sol\":4181:4221  requestsForUser[_payer].push(_requestId) */\n      dup5\n      swap1\n        /* \"paymentRequests.sol\":4231:4249  totalRequests += 1 */\n      0xffffffff\n      and\n      tag_85\n      jump\t// in\n    tag_84:\n      swap3\n      pop\n      0x0100\n      exp\n      dup2\n      sload\n      dup2\n      0xffffffff\n      mul\n      not\n      and\n      swap1\n      dup4\n      0xffffffff\n      and\n      mul\n      or\n      swap1\n      sstore\n      pop\n        /* \"paymentRequests.sol\":4266:4276  _requestId */\n      dup1\n        /* \"paymentRequests.sol\":4259:4276  return _requestId */\n      swap2\n      pop\n      pop\n        /* \"paymentRequests.sol\":3769:4283  function createRequestDirect(... */\n      swap4\n      swap3\n      pop\n      pop\n      pop\n      jump\t// out\n        /* \"@openzeppelin/contracts/access/Ownable.sol\":1831:1932   */\n    tag_35:\n        /* \"@openzeppelin/contracts/access/Ownable.sol\":1094:1107   */\n      tag_87\n        /* \"@openzeppelin/contracts/access/Ownable.sol\":1094:1105   */\n      tag_88\n        /* \"@openzeppelin/contracts/access/Ownable.sol\":1094:1107   */\n      jump\t// in\n    tag_87:\n        /* \"@openzeppelin/contracts/access/Ownable.sol\":1895:1925   */\n      tag_90\n        /* \"@openzeppelin/contracts/access/Ownable.sol\":1922:1923   */\n      0x00\n        /* \"@openzeppelin/contracts/access/Ownable.sol\":1895:1913   */\n      tag_91\n        /* \"@openzeppelin/contracts/access/Ownable.sol\":1895:1925   */\n      jump\t// in\n    tag_90:\n        /* \"@openzeppelin/contracts/access/Ownable.sol\":1831:1932   */\n      jump\t// out\n        /* \"paymentRequests.sol\":1295:1345  mapping(uint256 => PaymentRequest) public requests */\n    tag_39:\n      mstore(0x20, 0x03)\n      0x00\n      swap1\n      dup2\n      mstore\n      0x40\n      swap1\n      keccak256\n      dup1\n      sload\n      0x01\n      dup3\n      add\n      sload\n      0x02\n      dup4\n      add\n      dup1\n      sload\n      sub(shl(0xa0, 0x01), 0x01)\n      swap1\n      swap4\n      and\n      swap4\n      swap2\n      swap3\n      tag_92\n      swap1\n      tag_93\n      jump\t// in\n    tag_92:\n      dup1\n      0x1f\n      add\n      0x20\n      dup1\n      swap2\n      div\n      mul\n      0x20\n      add\n      mload(0x40)\n      swap1\n      dup2\n      add\n      0x40\n      mstore\n      dup1\n      swap3\n      swap2\n      swap1\n      dup2\n      dup2\n      mstore\n      0x20\n      add\n      dup3\n      dup1\n      sload\n      tag_94\n      swap1\n      tag_93\n      jump\t// in\n    tag_94:\n      dup1\n      iszero\n      tag_95\n      jumpi\n      dup1\n      0x1f\n      lt\n      tag_96\n      jumpi\n      0x0100\n      dup1\n      dup4\n      sload\n      div\n      mul\n      dup4\n      mstore\n      swap2\n      0x20\n      add\n      swap2\n      jump(tag_95)\n    tag_96:\n      dup3\n      add\n      swap2\n      swap1\n      0x00\n      mstore\n      keccak256(0x00, 0x20)\n      swap1\n    tag_97:\n      dup2\n      sload\n      dup2\n      mstore\n      swap1\n      0x01\n      add\n      swap1\n      0x20\n      add\n      dup1\n      dup4\n      gt\n      tag_97\n      jumpi\n      dup3\n      swap1\n      sub\n      0x1f\n      and\n      dup3\n      add\n      swap2\n    tag_95:\n      pop\n      pop\n      pop\n      0x03\n      swap1\n      swap4\n      add\n      sload\n      swap2\n      swap3\n      pop\n      pop\n      0xff\n      and\n      dup5\n      jump\t// out\n        /* \"paymentRequests.sol\":5434:5890  function payRequest(uint32 requestId) public {... */\n    tag_52:\n        /* \"paymentRequests.sol\":5510:5523  totalRequests */\n      sload(0x04)\n      0xffffffff\n      swap1\n      dup2\n      and\n        /* \"paymentRequests.sol\":5497:5523  requestId <= totalRequests */\n      swap1\n      dup3\n      and\n      gt\n      iszero\n        /* \"paymentRequests.sol\":5489:5550  require(requestId <= totalRequests, \"Use a Valid request ID\") */\n      tag_99\n      jumpi\n      mload(0x40)\n      shl(0xe5, 0x461bcd)\n      dup2\n      mstore\n        /* \"#utility.yul\":5876:5878   */\n      0x20\n        /* \"paymentRequests.sol\":5489:5550  require(requestId <= totalRequests, \"Use a Valid request ID\") */\n      0x04\n      dup3\n      add\n        /* \"#utility.yul\":5858:5879   */\n      mstore\n        /* \"#utility.yul\":5915:5917   */\n      0x16\n        /* \"#utility.yul\":5895:5913   */\n      0x24\n      dup3\n      add\n        /* \"#utility.yul\":5888:5918   */\n      mstore\n        /* \"#utility.yul\":5954:5978   */\n      0x55736520612056616c6964207265717565737420494400000000000000000000\n        /* \"#utility.yul\":5934:5952   */\n      0x44\n      dup3\n      add\n        /* \"#utility.yul\":5927:5979   */\n      mstore\n        /* \"#utility.yul\":5996:6014   */\n      0x64\n      add\n        /* \"paymentRequests.sol\":5489:5550  require(requestId <= totalRequests, \"Use a Valid request ID\") */\n    tag_100:\n      mload(0x40)\n      dup1\n      swap2\n      sub\n      swap1\n      revert\n    tag_99:\n        /* \"paymentRequests.sol\":5594:5613  requests[requestId] */\n      0xffffffff\n      dup2\n      and\n        /* \"paymentRequests.sol\":5560:5591  PaymentRequest storage _request */\n      0x00\n        /* \"paymentRequests.sol\":5594:5613  requests[requestId] */\n      swap1\n      dup2\n      mstore\n        /* \"paymentRequests.sol\":5594:5602  requests */\n      0x03\n        /* \"paymentRequests.sol\":5594:5613  requests[requestId] */\n      0x20\n      mstore\n      0x40\n      swap1\n      keccak256\n        /* \"paymentRequests.sol\":5650:5663  payState.paid */\n      0x02\n        /* \"paymentRequests.sol\":5631:5646  _request._state */\n      0x03\n      dup3\n      add\n      sload\n      0xff\n      and\n        /* \"paymentRequests.sol\":5631:5663  _request._state != payState.paid */\n      0x02\n      dup2\n      gt\n      iszero\n      tag_105\n      jumpi\n      tag_105\n      tag_77\n      jump\t// in\n    tag_105:\n      sub\n        /* \"paymentRequests.sol\":5623:5693  require(_request._state != payState.paid, \"Request Already completed\") */\n      tag_106\n      jumpi\n      mload(0x40)\n      shl(0xe5, 0x461bcd)\n      dup2\n      mstore\n        /* \"#utility.yul\":6227:6229   */\n      0x20\n        /* \"paymentRequests.sol\":5623:5693  require(_request._state != payState.paid, \"Request Already completed\") */\n      0x04\n      dup3\n      add\n        /* \"#utility.yul\":6209:6230   */\n      mstore\n        /* \"#utility.yul\":6266:6268   */\n      0x19\n        /* \"#utility.yul\":6246:6264   */\n      0x24\n      dup3\n      add\n        /* \"#utility.yul\":6239:6269   */\n      mstore\n        /* \"#utility.yul\":6305:6332   */\n      0x5265717565737420416c726561647920636f6d706c6574656400000000000000\n        /* \"#utility.yul\":6285:6303   */\n      0x44\n      dup3\n      add\n        /* \"#utility.yul\":6278:6333   */\n      mstore\n        /* \"#utility.yul\":6350:6368   */\n      0x64\n      add\n        /* \"paymentRequests.sol\":5623:5693  require(_request._state != payState.paid, \"Request Already completed\") */\n      tag_100\n        /* \"#utility.yul\":6025:6374   */\n      jump\n        /* \"paymentRequests.sol\":5623:5693  require(_request._state != payState.paid, \"Request Already completed\") */\n    tag_106:\n        /* \"paymentRequests.sol\":5703:5718  _request._state */\n      0x03\n      dup2\n      add\n        /* \"paymentRequests.sol\":5703:5734  _request._state = payState.paid */\n      dup1\n      sload\n      not(0xff)\n      and\n        /* \"paymentRequests.sol\":5721:5734  payState.paid */\n      0x02\n        /* \"paymentRequests.sol\":5703:5734  _request._state = payState.paid */\n      or\n      swap1\n      sstore\n        /* \"paymentRequests.sol\":5774:5797  _request.requestCreator */\n      dup1\n      sload\n        /* \"paymentRequests.sol\":5703:5734  _request._state = payState.paid */\n      0x01\n        /* \"paymentRequests.sol\":5858:5873  _request.amount */\n      dup3\n      add\n      sload\n        /* \"paymentRequests.sol\":5749:5883  RequestPaid(... */\n      0x40\n      dup1\n      mload\n      sub(shl(0xa0, 0x01), 0x01)\n        /* \"paymentRequests.sol\":5774:5797  _request.requestCreator */\n      swap1\n      swap4\n      and\n        /* \"#utility.yul\":6670:6704   */\n      dup4\n      mstore\n        /* \"paymentRequests.sol\":5811:5821  msg.sender */\n      caller\n        /* \"#utility.yul\":6735:6737   */\n      0x20\n        /* \"#utility.yul\":6720:6738   */\n      dup5\n      add\n        /* \"#utility.yul\":6713:6756   */\n      mstore\n        /* \"#utility.yul\":6804:6814   */\n      0xffffffff\n        /* \"#utility.yul\":6792:6815   */\n      dup6\n      and\n        /* \"#utility.yul\":6772:6790   */\n      swap1\n      dup4\n      add\n        /* \"#utility.yul\":6765:6816   */\n      mstore\n        /* \"#utility.yul\":6847:6849   */\n      0x60\n        /* \"#utility.yul\":6832:6850   */\n      dup3\n      add\n        /* \"#utility.yul\":6825:6859   */\n      mstore\n        /* \"paymentRequests.sol\":5749:5883  RequestPaid(... */\n      0xb65db014b723fadd3247432ed31608af65170037629d00dc6447edf9701d14fb\n      swap1\n        /* \"#utility.yul\":6596:6599   */\n      0x80\n        /* \"#utility.yul\":6581:6600   */\n      add\n        /* \"paymentRequests.sol\":5749:5883  RequestPaid(... */\n      mload(0x40)\n      dup1\n      swap2\n      sub\n      swap1\n      log1\n        /* \"paymentRequests.sol\":5479:5890  {... */\n      pop\n        /* \"paymentRequests.sol\":5434:5890  function payRequest(uint32 requestId) public {... */\n      pop\n      jump\t// out\n        /* \"paymentRequests.sol\":1444:3160  function sendNotViaPush(... */\n    tag_59:\n        /* \"paymentRequests.sol\":1664:1681  EPNS_COMM_ADDRESS */\n      sload(0x01)\n        /* \"paymentRequests.sol\":1713:1727  channelAddress */\n      sload(0x02)\n      sub(shl(0xa0, 0x01), 0x01)\n        /* \"paymentRequests.sol\":1664:1681  EPNS_COMM_ADDRESS */\n      swap2\n      dup3\n      and\n      swap2\n        /* \"paymentRequests.sol\":1645:1699  IPUSHCommInterface(EPNS_COMM_ADDRESS).sendNotification */\n      0xba3d69d7\n      swap2\n        /* \"paymentRequests.sol\":1713:1727  channelAddress */\n      and\n        /* \"paymentRequests.sol\":1757:1766  _reciever */\n      dup6\n        /* \"paymentRequests.sol\":2840:2864  addressToString(creator) */\n      tag_115\n        /* \"paymentRequests.sol\":2856:2863  creator */\n      dup7\n        /* \"paymentRequests.sol\":2840:2855  addressToString */\n      tag_116\n        /* \"paymentRequests.sol\":2840:2864  addressToString(creator) */\n      jump\t// in\n    tag_115:\n        /* \"paymentRequests.sol\":2948:2972  Strings.toString(amount) */\n      tag_117\n        /* \"paymentRequests.sol\":2965:2971  amount */\n      dup7\n        /* \"paymentRequests.sol\":2948:2964  Strings.toString */\n      tag_118\n        /* \"paymentRequests.sol\":2948:2972  Strings.toString(amount) */\n      jump\t// in\n    tag_117:\n        /* \"paymentRequests.sol\":2162:3111  abi.encodePacked(... */\n      add(0x20, mload(0x40))\n      tag_119\n      swap3\n      swap2\n      swap1\n      tag_120\n      jump\t// in\n    tag_119:\n      mload(0x40)\n      0x20\n      dup2\n      dup4\n      sub\n      sub\n      dup2\n      mstore\n      swap1\n      0x40\n      mstore\n        /* \"paymentRequests.sol\":1645:3153  IPUSHCommInterface(EPNS_COMM_ADDRESS).sendNotification(... */\n      mload(0x40)\n      dup5\n      0xffffffff\n      and\n      0xe0\n      shl\n      dup2\n      mstore\n      0x04\n      add\n      tag_121\n      swap4\n      swap3\n      swap2\n      swap1\n      tag_122\n      jump\t// in\n    tag_121:\n      0x00\n      mload(0x40)\n      dup1\n      dup4\n      sub\n      dup2\n      0x00\n      dup8\n      dup1\n      extcodesize\n      iszero\n      dup1\n      iszero\n      tag_123\n      jumpi\n      0x00\n      dup1\n      revert\n    tag_123:\n      pop\n      gas\n      call\n      iszero\n      dup1\n      iszero\n      tag_125\n      jumpi\n      returndatasize\n      0x00\n      dup1\n      returndatacopy\n      revert(0x00, returndatasize)\n    tag_125:\n      pop\n      pop\n      pop\n      pop\n        /* \"paymentRequests.sol\":1444:3160  function sendNotViaPush(... */\n      pop\n      pop\n      pop\n      jump\t// out\n        /* \"paymentRequests.sol\":4342:4744  function createRequest(... */\n    tag_62:\n        /* \"paymentRequests.sol\":4515:4528  totalRequests */\n      sload(0x04)\n        /* \"paymentRequests.sol\":4561:4682  PaymentRequest(... */\n      0x40\n      dup1\n      mload\n      0x80\n      dup2\n      add\n      dup3\n      mstore\n      sub(shl(0xa0, 0x01), 0x01)\n      dup7\n      dup2\n      and\n      dup3\n      mstore\n      0x20\n      dup1\n      dup4\n      add\n      dup8\n      dup2\n      mstore\n      dup4\n      dup6\n      add\n      dup8\n      dup2\n      mstore\n      0x00\n      0x60\n      dup7\n      add\n      dup2\n      swap1\n      mstore\n        /* \"paymentRequests.sol\":4515:4528  totalRequests */\n      0xffffffff\n      swap1\n      swap8\n      and\n        /* \"paymentRequests.sol\":4538:4558  requests[_requestId] */\n      dup1\n      dup9\n      mstore\n        /* \"paymentRequests.sol\":4538:4546  requests */\n      0x03\n        /* \"paymentRequests.sol\":4538:4558  requests[_requestId] */\n      dup5\n      mstore\n      swap6\n      dup8\n      keccak256\n        /* \"paymentRequests.sol\":4538:4682  requests[_requestId] = PaymentRequest(... */\n      dup6\n      mload\n      dup2\n      sload\n      not(0xffffffffffffffffffffffffffffffffffffffff)\n      and\n      swap6\n      and\n      swap5\n      swap1\n      swap5\n      or\n      dup5\n      sstore\n      swap1\n      mload\n      0x01\n      dup5\n      add\n      sstore\n      mload\n      dup1\n      mload\n      tag_129\n      swap3\n      0x02\n      dup6\n      add\n      swap3\n      add\n      swap1\n      tag_79\n      jump\t// in\n    tag_129:\n      pop\n      0x60\n      dup3\n      add\n      mload\n      0x03\n      dup3\n      add\n      dup1\n      sload\n      not(0xff)\n      and\n      0x01\n      dup4\n      0x02\n      dup2\n      gt\n      iszero\n      tag_131\n      jumpi\n      tag_131\n      tag_77\n      jump\t// in\n    tag_131:\n      mul\n      or\n      swap1\n      sstore\n      pop\n      pop\n        /* \"paymentRequests.sol\":4692:4705  totalRequests */\n      0x04\n        /* \"paymentRequests.sol\":4692:4710  totalRequests += 1 */\n      dup1\n      sload\n        /* \"paymentRequests.sol\":4709:4710  1 */\n      0x01\n      swap3\n      pop\n        /* \"paymentRequests.sol\":4692:4705  totalRequests */\n      0x00\n      swap1\n        /* \"paymentRequests.sol\":4692:4710  totalRequests += 1 */\n      tag_84\n      swap1\n        /* \"paymentRequests.sol\":4709:4710  1 */\n      dup5\n      swap1\n        /* \"paymentRequests.sol\":4692:4710  totalRequests += 1 */\n      0xffffffff\n      and\n      tag_85\n      jump\t// in\n        /* \"paymentRequests.sol\":4831:5285  function sendRequest(uint32 requestId, address reciever) public {... */\n    tag_67:\n        /* \"paymentRequests.sol\":4926:4939  totalRequests */\n      sload(0x04)\n      0xffffffff\n      swap1\n      dup2\n      and\n        /* \"paymentRequests.sol\":4913:4939  requestId <= totalRequests */\n      swap1\n      dup4\n      and\n      gt\n      iszero\n        /* \"paymentRequests.sol\":4905:4966  require(requestId <= totalRequests, \"Use a Valid request ID\") */\n      tag_134\n      jumpi\n      mload(0x40)\n      shl(0xe5, 0x461bcd)\n      dup2\n      mstore\n        /* \"#utility.yul\":5876:5878   */\n      0x20\n        /* \"paymentRequests.sol\":4905:4966  require(requestId <= totalRequests, \"Use a Valid request ID\") */\n      0x04\n      dup3\n      add\n        /* \"#utility.yul\":5858:5879   */\n      mstore\n        /* \"#utility.yul\":5915:5917   */\n      0x16\n        /* \"#utility.yul\":5895:5913   */\n      0x24\n      dup3\n      add\n        /* \"#utility.yul\":5888:5918   */\n      mstore\n        /* \"#utility.yul\":5954:5978   */\n      0x55736520612056616c6964207265717565737420494400000000000000000000\n        /* \"#utility.yul\":5934:5952   */\n      0x44\n      dup3\n      add\n        /* \"#utility.yul\":5927:5979   */\n      mstore\n        /* \"#utility.yul\":5996:6014   */\n      0x64\n      add\n        /* \"paymentRequests.sol\":4905:4966  require(requestId <= totalRequests, \"Use a Valid request ID\") */\n      tag_100\n        /* \"#utility.yul\":5674:6020   */\n      jump\n        /* \"paymentRequests.sol\":4905:4966  require(requestId <= totalRequests, \"Use a Valid request ID\") */\n    tag_134:\n        /* \"paymentRequests.sol\":5010:5029  requests[requestId] */\n      0xffffffff\n      dup3\n      and\n        /* \"paymentRequests.sol\":4976:5007  PaymentRequest storage _request */\n      0x00\n        /* \"paymentRequests.sol\":5010:5029  requests[requestId] */\n      swap1\n      dup2\n      mstore\n        /* \"paymentRequests.sol\":5010:5018  requests */\n      0x03\n        /* \"paymentRequests.sol\":5010:5029  requests[requestId] */\n      0x20\n      mstore\n      0x40\n      swap1\n      keccak256\n        /* \"paymentRequests.sol\":5066:5079  payState.paid */\n      0x02\n        /* \"paymentRequests.sol\":5047:5062  _request._state */\n      0x03\n      dup3\n      add\n      sload\n      0xff\n      and\n        /* \"paymentRequests.sol\":5047:5079  _request._state != payState.paid */\n      0x02\n      dup2\n      gt\n      iszero\n      tag_139\n      jumpi\n      tag_139\n      tag_77\n      jump\t// in\n    tag_139:\n      sub\n        /* \"paymentRequests.sol\":5039:5109  require(_request._state != payState.paid, \"Request Already completed\") */\n      tag_140\n      jumpi\n      mload(0x40)\n      shl(0xe5, 0x461bcd)\n      dup2\n      mstore\n        /* \"#utility.yul\":6227:6229   */\n      0x20\n        /* \"paymentRequests.sol\":5039:5109  require(_request._state != payState.paid, \"Request Already completed\") */\n      0x04\n      dup3\n      add\n        /* \"#utility.yul\":6209:6230   */\n      mstore\n        /* \"#utility.yul\":6266:6268   */\n      0x19\n        /* \"#utility.yul\":6246:6264   */\n      0x24\n      dup3\n      add\n        /* \"#utility.yul\":6239:6269   */\n      mstore\n        /* \"#utility.yul\":6305:6332   */\n      0x5265717565737420416c726561647920636f6d706c6574656400000000000000\n        /* \"#utility.yul\":6285:6303   */\n      0x44\n      dup3\n      add\n        /* \"#utility.yul\":6278:6333   */\n      mstore\n        /* \"#utility.yul\":6350:6368   */\n      0x64\n      add\n        /* \"paymentRequests.sol\":5039:5109  require(_request._state != payState.paid, \"Request Already completed\") */\n      tag_100\n        /* \"#utility.yul\":6025:6374   */\n      jump\n        /* \"paymentRequests.sol\":5039:5109  require(_request._state != payState.paid, \"Request Already completed\") */\n    tag_140:\n        /* \"paymentRequests.sol\":5145:5168  _request.requestCreator */\n      dup1\n      sload\n      0x01\n        /* \"paymentRequests.sol\":5170:5185  _request.amount */\n      dup3\n      add\n      sload\n        /* \"paymentRequests.sol\":5120:5186  sendNotViaPush(reciever, _request.requestCreator, _request.amount) */\n      tag_142\n      swap2\n        /* \"paymentRequests.sol\":5135:5143  reciever */\n      dup5\n      swap2\n      sub(shl(0xa0, 0x01), 0x01)\n        /* \"paymentRequests.sol\":5145:5168  _request.requestCreator */\n      swap1\n      swap2\n      and\n      swap1\n        /* \"paymentRequests.sol\":5120:5134  sendNotViaPush */\n      tag_59\n        /* \"paymentRequests.sol\":5120:5186  sendNotViaPush(reciever, _request.requestCreator, _request.amount) */\n      jump\t// in\n    tag_142:\n      sub(shl(0xa0, 0x01), 0x01)\n        /* \"paymentRequests.sol\":5196:5221  requestsForUser[reciever] */\n      dup3\n      and\n      0x00\n      swap1\n      dup2\n      mstore\n        /* \"paymentRequests.sol\":5196:5211  requestsForUser */\n      0x05\n        /* \"paymentRequests.sol\":5196:5221  requestsForUser[reciever] */\n      0x20\n      swap1\n      dup2\n      mstore\n      0x40\n      dup3\n      keccak256\n        /* \"paymentRequests.sol\":5196:5237  requestsForUser[reciever].push(requestId) */\n      dup1\n      sload\n      0x01\n      dup2\n      dup2\n      add\n      dup4\n      sstore\n      swap2\n      dup5\n      mstore\n      swap2\n      swap1\n      swap3\n      keccak256\n      0xffffffff\n      dup7\n      and\n      swap2\n      add\n      sstore\n        /* \"paymentRequests.sol\":5247:5262  _request._state */\n      0x03\n      dup3\n      add\n        /* \"paymentRequests.sol\":5247:5278  _request._state = payState.sent */\n      dup1\n      sload\n      not(0xff)\n      and\n        /* \"paymentRequests.sol\":5196:5237  requestsForUser[reciever].push(requestId) */\n      dup3\n      dup1\n        /* \"paymentRequests.sol\":5247:5278  _request._state = payState.sent */\n      mul\n      or\n      swap1\n      sstore\n      pop\n        /* \"paymentRequests.sol\":4895:5285  {... */\n      pop\n        /* \"paymentRequests.sol\":4831:5285  function sendRequest(uint32 requestId, address reciever) public {... */\n      pop\n      pop\n      jump\t// out\n        /* \"@openzeppelin/contracts/access/Ownable.sol\":2081:2279   */\n    tag_71:\n        /* \"@openzeppelin/contracts/access/Ownable.sol\":1094:1107   */\n      tag_147\n        /* \"@openzeppelin/contracts/access/Ownable.sol\":1094:1105   */\n      tag_88\n        /* \"@openzeppelin/contracts/access/Ownable.sol\":1094:1107   */\n      jump\t// in\n    tag_147:\n      sub(shl(0xa0, 0x01), 0x01)\n        /* \"@openzeppelin/contracts/access/Ownable.sol\":2169:2191   */\n      dup2\n      and\n        /* \"@openzeppelin/contracts/access/Ownable.sol\":2161:2234   */\n      tag_149\n      jumpi\n      mload(0x40)\n      shl(0xe5, 0x461bcd)\n      dup2\n      mstore\n        /* \"#utility.yul\":9293:9295   */\n      0x20\n        /* \"@openzeppelin/contracts/access/Ownable.sol\":2161:2234   */\n      0x04\n      dup3\n      add\n        /* \"#utility.yul\":9275:9296   */\n      mstore\n        /* \"#utility.yul\":9332:9334   */\n      0x26\n        /* \"#utility.yul\":9312:9330   */\n      0x24\n      dup3\n      add\n        /* \"#utility.yul\":9305:9335   */\n      mstore\n        /* \"#utility.yul\":9371:9405   */\n      0x4f776e61626c653a206e6577206f776e657220697320746865207a65726f2061\n        /* \"#utility.yul\":9351:9369   */\n      0x44\n      dup3\n      add\n        /* \"#utility.yul\":9344:9406   */\n      mstore\n        /* \"#utility.yul\":9442:9450   */\n      0x6464726573730000000000000000000000000000000000000000000000000000\n        /* \"#utility.yul\":9422:9440   */\n      0x64\n      dup3\n      add\n        /* \"#utility.yul\":9415:9451   */\n      mstore\n        /* \"#utility.yul\":9468:9487   */\n      0x84\n      add\n        /* \"@openzeppelin/contracts/access/Ownable.sol\":2161:2234   */\n      tag_100\n        /* \"#utility.yul\":9091:9493   */\n      jump\n        /* \"@openzeppelin/contracts/access/Ownable.sol\":2161:2234   */\n    tag_149:\n        /* \"@openzeppelin/contracts/access/Ownable.sol\":2244:2272   */\n      tag_152\n        /* \"@openzeppelin/contracts/access/Ownable.sol\":2263:2271   */\n      dup2\n        /* \"@openzeppelin/contracts/access/Ownable.sol\":2244:2262   */\n      tag_91\n        /* \"@openzeppelin/contracts/access/Ownable.sol\":2244:2272   */\n      jump\t// in\n    tag_152:\n        /* \"@openzeppelin/contracts/access/Ownable.sol\":2081:2279   */\n      pop\n      jump\t// out\n        /* \"@openzeppelin/contracts/access/Ownable.sol\":1359:1489   */\n    tag_88:\n        /* \"@openzeppelin/contracts/access/Ownable.sol\":1247:1254   */\n      0x00\n        /* \"@openzeppelin/contracts/access/Ownable.sol\":1273:1279   */\n      sload\n      sub(shl(0xa0, 0x01), 0x01)\n      and\n        /* \"@openzeppelin/contracts/utils/Context.sol\":719:729   */\n      caller\n        /* \"@openzeppelin/contracts/access/Ownable.sol\":1422:1445   */\n      eq\n        /* \"@openzeppelin/contracts/access/Ownable.sol\":1414:1482   */\n      tag_90\n      jumpi\n      mload(0x40)\n      shl(0xe5, 0x461bcd)\n      dup2\n      mstore\n        /* \"#utility.yul\":9700:9702   */\n      0x20\n        /* \"@openzeppelin/contracts/access/Ownable.sol\":1414:1482   */\n      0x04\n      dup3\n      add\n        /* \"#utility.yul\":9682:9703   */\n      dup2\n      swap1\n      mstore\n        /* \"#utility.yul\":9719:9737   */\n      0x24\n      dup3\n      add\n        /* \"#utility.yul\":9712:9742   */\n      mstore\n        /* \"#utility.yul\":9778:9812   */\n      0x4f776e61626c653a2063616c6c6572206973206e6f7420746865206f776e6572\n        /* \"#utility.yul\":9758:9776   */\n      0x44\n      dup3\n      add\n        /* \"#utility.yul\":9751:9813   */\n      mstore\n        /* \"#utility.yul\":9830:9848   */\n      0x64\n      add\n        /* \"@openzeppelin/contracts/access/Ownable.sol\":1414:1482   */\n      tag_100\n        /* \"#utility.yul\":9498:9854   */\n      jump\n        /* \"@openzeppelin/contracts/access/Ownable.sol\":2433:2620   */\n    tag_91:\n        /* \"@openzeppelin/contracts/access/Ownable.sol\":2506:2522   */\n      0x00\n        /* \"@openzeppelin/contracts/access/Ownable.sol\":2525:2531   */\n      dup1\n      sload\n      sub(shl(0xa0, 0x01), 0x01)\n        /* \"@openzeppelin/contracts/access/Ownable.sol\":2541:2558   */\n      dup4\n      dup2\n      and\n      not(0xffffffffffffffffffffffffffffffffffffffff)\n      dup4\n      and\n      dup2\n      or\n      dup5\n      sstore\n        /* \"@openzeppelin/contracts/access/Ownable.sol\":2573:2613   */\n      mload(0x40)\n        /* \"@openzeppelin/contracts/access/Ownable.sol\":2525:2531   */\n      swap2\n      swap1\n      swap3\n      and\n      swap3\n      dup4\n      swap2\n        /* \"@openzeppelin/contracts/access/Ownable.sol\":2573:2613   */\n      0x8be0079c531659141344cd1fd0a4f28419497f9722a3daafe3b4186f6b6457e0\n      swap2\n        /* \"@openzeppelin/contracts/access/Ownable.sol\":2506:2522   */\n      swap1\n        /* \"@openzeppelin/contracts/access/Ownable.sol\":2573:2613   */\n      log3\n        /* \"@openzeppelin/contracts/access/Ownable.sol\":2496:2620   */\n      pop\n        /* \"@openzeppelin/contracts/access/Ownable.sol\":2433:2620   */\n      pop\n      jump\t// out\n        /* \"paymentRequests.sol\":3166:3708  function addressToString(address _address)... */\n    tag_116:\n        /* \"paymentRequests.sol\":3347:3384  bytes memory HEX = \"0123456789abcdef\" */\n      0x40\n      dup1\n      mload\n      dup1\n      dup3\n      add\n      dup3\n      mstore\n      0x10\n      dup2\n      mstore\n      shl(0x81, 0x181899199a1a9b1b9c1cb0b131b232b3)\n      0x20\n      dup3\n      add\n      mstore\n        /* \"paymentRequests.sol\":3417:3430  new bytes(42) */\n      dup2\n      mload\n        /* \"paymentRequests.sol\":3427:3429  42 */\n      0x2a\n        /* \"paymentRequests.sol\":3417:3430  new bytes(42) */\n      dup1\n      dup3\n      mstore\n        /* \"paymentRequests.sol\":3256:3269  string memory */\n      0x60\n        /* \"paymentRequests.sol\":3417:3430  new bytes(42) */\n      dup3\n      dup2\n      add\n      swap1\n      swap5\n      mstore\n      sub(shl(0xa0, 0x01), 0x01)\n        /* \"paymentRequests.sol\":3310:3336  uint256(uint160(_address)) */\n      dup6\n      and\n      swap3\n        /* \"paymentRequests.sol\":3347:3384  bytes memory HEX = \"0123456789abcdef\" */\n      swap2\n      0x00\n      swap2\n        /* \"paymentRequests.sol\":3417:3430  new bytes(42) */\n      0x20\n      dup3\n      add\n      dup2\n      dup1\n      calldatasize\n      dup4\n      calldatacopy\n      add\n      swap1\n      pop\n      pop\n        /* \"paymentRequests.sol\":3394:3430  bytes memory _string = new bytes(42) */\n      swap1\n      pop\n      shl(0xfc, 0x03)\n        /* \"paymentRequests.sol\":3440:3447  _string */\n      dup2\n        /* \"paymentRequests.sol\":3448:3449  0 */\n      0x00\n        /* \"paymentRequests.sol\":3440:3450  _string[0] */\n      dup2\n      mload\n      dup2\n      lt\n      tag_167\n      jumpi\n      tag_167\n      tag_168\n      jump\t// in\n    tag_167:\n      0x20\n      add\n      add\n        /* \"paymentRequests.sol\":3440:3456  _string[0] = \"0\" */\n      swap1\n      not(sub(shl(0xf8, 0x01), 0x01))\n      and\n      swap1\n      dup2\n      0x00\n      byte\n      swap1\n      mstore8\n      pop\n      shl(0xfb, 0x0f)\n        /* \"paymentRequests.sol\":3466:3473  _string */\n      dup2\n        /* \"paymentRequests.sol\":3474:3475  1 */\n      0x01\n        /* \"paymentRequests.sol\":3466:3476  _string[1] */\n      dup2\n      mload\n      dup2\n      lt\n      tag_170\n      jumpi\n      tag_170\n      tag_168\n      jump\t// in\n    tag_170:\n      0x20\n      add\n      add\n        /* \"paymentRequests.sol\":3466:3482  _string[1] = \"x\" */\n      swap1\n      not(sub(shl(0xf8, 0x01), 0x01))\n      and\n      swap1\n      dup2\n      0x00\n      byte\n      swap1\n      mstore8\n      pop\n        /* \"paymentRequests.sol\":3497:3506  uint256 i */\n      0x00\n        /* \"paymentRequests.sol\":3492:3670  for (uint256 i = 0; i < 20; i++) {... */\n    tag_171:\n        /* \"paymentRequests.sol\":3516:3518  20 */\n      0x14\n        /* \"paymentRequests.sol\":3512:3513  i */\n      dup2\n        /* \"paymentRequests.sol\":3512:3518  i < 20 */\n      lt\n        /* \"paymentRequests.sol\":3492:3670  for (uint256 i = 0; i < 20; i++) {... */\n      iszero\n      tag_172\n      jumpi\n        /* \"paymentRequests.sol\":3560:3563  HEX */\n      dup3\n        /* \"paymentRequests.sol\":3588:3589  4 */\n      0x04\n        /* \"paymentRequests.sol\":3570:3576  _bytes */\n      dup6\n        /* \"paymentRequests.sol\":3577:3583  i + 12 */\n      tag_174\n        /* \"paymentRequests.sol\":3577:3578  i */\n      dup5\n        /* \"paymentRequests.sol\":3581:3583  12 */\n      0x0c\n        /* \"paymentRequests.sol\":3577:3583  i + 12 */\n      tag_175\n      jump\t// in\n    tag_174:\n        /* \"paymentRequests.sol\":3570:3584  _bytes[i + 12] */\n      0x20\n      dup2\n      lt\n      tag_177\n      jumpi\n      tag_177\n      tag_168\n      jump\t// in\n    tag_177:\n      byte\n      0xf8\n      shl\n      sub(shl(0xf8, 0x01), 0x01)\n        /* \"paymentRequests.sol\":3570:3589  _bytes[i + 12] >> 4 */\n      not\n      and\n      swap1\n      shr\n        /* \"paymentRequests.sol\":3564:3590  uint8(_bytes[i + 12] >> 4) */\n      0xf8\n      shr\n        /* \"paymentRequests.sol\":3560:3591  HEX[uint8(_bytes[i + 12] >> 4)] */\n      0xff\n      and\n      dup2\n      mload\n      dup2\n      lt\n      tag_179\n      jumpi\n      tag_179\n      tag_168\n      jump\t// in\n    tag_179:\n      add\n      0x20\n      add\n      mload\n      0xff00000000000000000000000000000000000000000000000000000000000000\n      and\n        /* \"paymentRequests.sol\":3539:3546  _string */\n      dup3\n        /* \"paymentRequests.sol\":3551:3556  i * 2 */\n      tag_180\n        /* \"paymentRequests.sol\":3551:3552  i */\n      dup4\n        /* \"paymentRequests.sol\":3555:3556  2 */\n      0x02\n        /* \"paymentRequests.sol\":3551:3556  i * 2 */\n      tag_181\n      jump\t// in\n    tag_180:\n        /* \"paymentRequests.sol\":3547:3556  2 + i * 2 */\n      tag_182\n      swap1\n        /* \"paymentRequests.sol\":3547:3548  2 */\n      0x02\n        /* \"paymentRequests.sol\":3547:3556  2 + i * 2 */\n      tag_175\n      jump\t// in\n    tag_182:\n        /* \"paymentRequests.sol\":3539:3557  _string[2 + i * 2] */\n      dup2\n      mload\n      dup2\n      lt\n      tag_184\n      jumpi\n      tag_184\n      tag_168\n      jump\t// in\n    tag_184:\n      0x20\n      add\n      add\n        /* \"paymentRequests.sol\":3539:3591  _string[2 + i * 2] = HEX[uint8(_bytes[i + 12] >> 4)] */\n      swap1\n      not(sub(shl(0xf8, 0x01), 0x01))\n      and\n      swap1\n      dup2\n      0x00\n      byte\n      swap1\n      mstore8\n      pop\n        /* \"paymentRequests.sol\":3626:3629  HEX */\n      dup3\n        /* \"paymentRequests.sol\":3636:3642  _bytes */\n      dup5\n        /* \"paymentRequests.sol\":3643:3649  i + 12 */\n      tag_185\n        /* \"paymentRequests.sol\":3643:3644  i */\n      dup4\n        /* \"paymentRequests.sol\":3647:3649  12 */\n      0x0c\n        /* \"paymentRequests.sol\":3643:3649  i + 12 */\n      tag_175\n      jump\t// in\n    tag_185:\n        /* \"paymentRequests.sol\":3636:3650  _bytes[i + 12] */\n      0x20\n      dup2\n      lt\n      tag_187\n      jumpi\n      tag_187\n      tag_168\n      jump\t// in\n    tag_187:\n        /* \"paymentRequests.sol\":3626:3659  HEX[uint8(_bytes[i + 12] & 0x0f)] */\n      dup3\n      mload\n        /* \"paymentRequests.sol\":3636:3650  _bytes[i + 12] */\n      swap2\n      swap1\n      byte\n        /* \"paymentRequests.sol\":3653:3657  0x0f */\n      0x0f\n        /* \"paymentRequests.sol\":3630:3658  uint8(_bytes[i + 12] & 0x0f) */\n      and\n      swap1\n        /* \"paymentRequests.sol\":3626:3659  HEX[uint8(_bytes[i + 12] & 0x0f)] */\n      dup2\n      lt\n      tag_189\n      jumpi\n      tag_189\n      tag_168\n      jump\t// in\n    tag_189:\n      add\n      0x20\n      add\n      mload\n      0xff00000000000000000000000000000000000000000000000000000000000000\n      and\n        /* \"paymentRequests.sol\":3605:3612  _string */\n      dup3\n        /* \"paymentRequests.sol\":3617:3622  i * 2 */\n      tag_190\n        /* \"paymentRequests.sol\":3617:3618  i */\n      dup4\n        /* \"paymentRequests.sol\":3621:3622  2 */\n      0x02\n        /* \"paymentRequests.sol\":3617:3622  i * 2 */\n      tag_181\n      jump\t// in\n    tag_190:\n        /* \"paymentRequests.sol\":3613:3622  3 + i * 2 */\n      tag_191\n      swap1\n        /* \"paymentRequests.sol\":3613:3614  3 */\n      0x03\n        /* \"paymentRequests.sol\":3613:3622  3 + i * 2 */\n      tag_175\n      jump\t// in\n    tag_191:\n        /* \"paymentRequests.sol\":3605:3623  _string[3 + i * 2] */\n      dup2\n      mload\n      dup2\n      lt\n      tag_193\n      jumpi\n      tag_193\n      tag_168\n      jump\t// in\n    tag_193:\n      0x20\n      add\n      add\n        /* \"paymentRequests.sol\":3605:3659  _string[3 + i * 2] = HEX[uint8(_bytes[i + 12] & 0x0f)] */\n      swap1\n      not(sub(shl(0xf8, 0x01), 0x01))\n      and\n      swap1\n      dup2\n      0x00\n      byte\n      swap1\n      mstore8\n      pop\n        /* \"paymentRequests.sol\":3520:3523  i++ */\n      dup1\n      tag_194\n      dup2\n      tag_195\n      jump\t// in\n    tag_194:\n      swap2\n      pop\n      pop\n        /* \"paymentRequests.sol\":3492:3670  for (uint256 i = 0; i < 20; i++) {... */\n      jump(tag_171)\n    tag_172:\n      pop\n        /* \"paymentRequests.sol\":3693:3700  _string */\n      swap5\n        /* \"paymentRequests.sol\":3166:3708  function addressToString(address _address)... */\n      swap4\n      pop\n      pop\n      pop\n      pop\n      jump\t// out\n        /* \"@openzeppelin/contracts/utils/Strings.sol\":415:1111   */\n    tag_118:\n        /* \"@openzeppelin/contracts/utils/Strings.sol\":471:484   */\n      0x60\n        /* \"@openzeppelin/contracts/utils/Strings.sol\":520:534   */\n      0x00\n        /* \"@openzeppelin/contracts/utils/Strings.sol\":537:554   */\n      tag_197\n        /* \"@openzeppelin/contracts/utils/Strings.sol\":548:553   */\n      dup4\n        /* \"@openzeppelin/contracts/utils/Strings.sol\":537:547   */\n      tag_198\n        /* \"@openzeppelin/contracts/utils/Strings.sol\":537:554   */\n      jump\t// in\n    tag_197:\n        /* \"@openzeppelin/contracts/utils/Strings.sol\":557:558   */\n      0x01\n        /* \"@openzeppelin/contracts/utils/Strings.sol\":537:558   */\n      add\n        /* \"@openzeppelin/contracts/utils/Strings.sol\":520:558   */\n      swap1\n      pop\n        /* \"@openzeppelin/contracts/utils/Strings.sol\":572:592   */\n      0x00\n        /* \"@openzeppelin/contracts/utils/Strings.sol\":606:612   */\n      dup2\n        /* \"@openzeppelin/contracts/utils/Strings.sol\":595:613   */\n      0xffffffffffffffff\n      dup2\n      gt\n      iszero\n      tag_200\n      jumpi\n      tag_200\n      tag_164\n      jump\t// in\n    tag_200:\n      mload(0x40)\n      swap1\n      dup1\n      dup3\n      mstore\n      dup1\n      0x1f\n      add\n      not(0x1f)\n      and\n      0x20\n      add\n      dup3\n      add\n      0x40\n      mstore\n      dup1\n      iszero\n      tag_201\n      jumpi\n      0x20\n      dup3\n      add\n      dup2\n      dup1\n      calldatasize\n      dup4\n      calldatacopy\n      add\n      swap1\n      pop\n    tag_201:\n      pop\n        /* \"@openzeppelin/contracts/utils/Strings.sol\":572:613   */\n      swap1\n      pop\n        /* \"@openzeppelin/contracts/utils/Strings.sol\":733:761   */\n      dup2\n      dup2\n      add\n        /* \"@openzeppelin/contracts/utils/Strings.sol\":749:751   */\n      0x20\n        /* \"@openzeppelin/contracts/utils/Strings.sol\":733:761   */\n      add\n        /* \"@openzeppelin/contracts/utils/Strings.sol\":788:1068   */\n    tag_202:\n      not(0x00)\n        /* \"@openzeppelin/contracts/utils/Strings.sol\":819:824   */\n      add\n      shl(0x81, 0x181899199a1a9b1b9c1cb0b131b232b3)\n        /* \"@openzeppelin/contracts/utils/Strings.sol\":953:955   */\n      0x0a\n        /* \"@openzeppelin/contracts/utils/Strings.sol\":942:956   */\n      dup7\n      mod\n        /* \"@openzeppelin/contracts/utils/Strings.sol\":937:967   */\n      byte\n        /* \"@openzeppelin/contracts/utils/Strings.sol\":819:824   */\n      dup2\n        /* \"@openzeppelin/contracts/utils/Strings.sol\":924:968   */\n      mstore8\n        /* \"@openzeppelin/contracts/utils/Strings.sol\":1012:1014   */\n      0x0a\n        /* \"@openzeppelin/contracts/utils/Strings.sol\":1003:1014   */\n      dup6\n      div\n      swap5\n      pop\n        /* \"@openzeppelin/contracts/utils/Strings.sol\":1032:1053   */\n      dup5\n        /* \"@openzeppelin/contracts/utils/Strings.sol\":788:1068   */\n      tag_202\n        /* \"@openzeppelin/contracts/utils/Strings.sol\":1032:1053   */\n      jumpi\n      pop\n        /* \"@openzeppelin/contracts/utils/Strings.sol\":1088:1094   */\n      swap4\n        /* \"@openzeppelin/contracts/utils/Strings.sol\":415:1111   */\n      swap3\n      pop\n      pop\n      pop\n      jump\t// out\n        /* \"@openzeppelin/contracts/utils/math/Math.sol\":9889:10779   */\n    tag_198:\n        /* \"@openzeppelin/contracts/utils/math/Math.sol\":9942:9949   */\n      0x00\n      dup1\n        /* \"@openzeppelin/contracts/utils/math/Math.sol\":10026:10032   */\n      0x184f03e93ff9f4daa797ed6e38ed64bf6a1f010000000000000000\n        /* \"@openzeppelin/contracts/utils/math/Math.sol\":10017:10032   */\n      dup4\n      lt\n        /* \"@openzeppelin/contracts/utils/math/Math.sol\":10013:10112   */\n      tag_210\n      jumpi\n        /* \"@openzeppelin/contracts/utils/math/Math.sol\":10061:10067   */\n      0x184f03e93ff9f4daa797ed6e38ed64bf6a1f010000000000000000\n        /* \"@openzeppelin/contracts/utils/math/Math.sol\":10052:10067   */\n      dup4\n      div\n      swap3\n      pop\n        /* \"@openzeppelin/contracts/utils/math/Math.sol\":10095:10097   */\n      0x40\n        /* \"@openzeppelin/contracts/utils/math/Math.sol\":10085:10097   */\n      add\n        /* \"@openzeppelin/contracts/utils/math/Math.sol\":10013:10112   */\n    tag_210:\n        /* \"@openzeppelin/contracts/utils/math/Math.sol\":10138:10144   */\n      0x04ee2d6d415b85acef8100000000\n        /* \"@openzeppelin/contracts/utils/math/Math.sol\":10129:10134   */\n      dup4\n        /* \"@openzeppelin/contracts/utils/math/Math.sol\":10129:10144   */\n      lt\n        /* \"@openzeppelin/contracts/utils/math/Math.sol\":10125:10224   */\n      tag_213\n      jumpi\n        /* \"@openzeppelin/contracts/utils/math/Math.sol\":10173:10179   */\n      0x04ee2d6d415b85acef8100000000\n        /* \"@openzeppelin/contracts/utils/math/Math.sol\":10164:10179   */\n      dup4\n      div\n      swap3\n      pop\n        /* \"@openzeppelin/contracts/utils/math/Math.sol\":10207:10209   */\n      0x20\n        /* \"@openzeppelin/contracts/utils/math/Math.sol\":10197:10209   */\n      add\n        /* \"@openzeppelin/contracts/utils/math/Math.sol\":10125:10224   */\n    tag_213:\n        /* \"@openzeppelin/contracts/utils/math/Math.sol\":10250:10256   */\n      0x2386f26fc10000\n        /* \"@openzeppelin/contracts/utils/math/Math.sol\":10241:10246   */\n      dup4\n        /* \"@openzeppelin/contracts/utils/math/Math.sol\":10241:10256   */\n      lt\n        /* \"@openzeppelin/contracts/utils/math/Math.sol\":10237:10336   */\n      tag_216\n      jumpi\n        /* \"@openzeppelin/contracts/utils/math/Math.sol\":10285:10291   */\n      0x2386f26fc10000\n        /* \"@openzeppelin/contracts/utils/math/Math.sol\":10276:10291   */\n      dup4\n      div\n      swap3\n      pop\n        /* \"@openzeppelin/contracts/utils/math/Math.sol\":10319:10321   */\n      0x10\n        /* \"@openzeppelin/contracts/utils/math/Math.sol\":10309:10321   */\n      add\n        /* \"@openzeppelin/contracts/utils/math/Math.sol\":10237:10336   */\n    tag_216:\n        /* \"@openzeppelin/contracts/utils/math/Math.sol\":10362:10367   */\n      0x05f5e100\n        /* \"@openzeppelin/contracts/utils/math/Math.sol\":10353:10358   */\n      dup4\n        /* \"@openzeppelin/contracts/utils/math/Math.sol\":10353:10367   */\n      lt\n        /* \"@openzeppelin/contracts/utils/math/Math.sol\":10349:10445   */\n      tag_219\n      jumpi\n        /* \"@openzeppelin/contracts/utils/math/Math.sol\":10396:10401   */\n      0x05f5e100\n        /* \"@openzeppelin/contracts/utils/math/Math.sol\":10387:10401   */\n      dup4\n      div\n      swap3\n      pop\n        /* \"@openzeppelin/contracts/utils/math/Math.sol\":10429:10430   */\n      0x08\n        /* \"@openzeppelin/contracts/utils/math/Math.sol\":10419:10430   */\n      add\n        /* \"@openzeppelin/contracts/utils/math/Math.sol\":10349:10445   */\n    tag_219:\n        /* \"@openzeppelin/contracts/utils/math/Math.sol\":10471:10476   */\n      0x2710\n        /* \"@openzeppelin/contracts/utils/math/Math.sol\":10462:10467   */\n      dup4\n        /* \"@openzeppelin/contracts/utils/math/Math.sol\":10462:10476   */\n      lt\n        /* \"@openzeppelin/contracts/utils/math/Math.sol\":10458:10554   */\n      tag_222\n      jumpi\n        /* \"@openzeppelin/contracts/utils/math/Math.sol\":10505:10510   */\n      0x2710\n        /* \"@openzeppelin/contracts/utils/math/Math.sol\":10496:10510   */\n      dup4\n      div\n      swap3\n      pop\n        /* \"@openzeppelin/contracts/utils/math/Math.sol\":10538:10539   */\n      0x04\n        /* \"@openzeppelin/contracts/utils/math/Math.sol\":10528:10539   */\n      add\n        /* \"@openzeppelin/contracts/utils/math/Math.sol\":10458:10554   */\n    tag_222:\n        /* \"@openzeppelin/contracts/utils/math/Math.sol\":10580:10585   */\n      0x64\n        /* \"@openzeppelin/contracts/utils/math/Math.sol\":10571:10576   */\n      dup4\n        /* \"@openzeppelin/contracts/utils/math/Math.sol\":10571:10585   */\n      lt\n        /* \"@openzeppelin/contracts/utils/math/Math.sol\":10567:10663   */\n      tag_225\n      jumpi\n        /* \"@openzeppelin/contracts/utils/math/Math.sol\":10614:10619   */\n      0x64\n        /* \"@openzeppelin/contracts/utils/math/Math.sol\":10605:10619   */\n      dup4\n      div\n      swap3\n      pop\n        /* \"@openzeppelin/contracts/utils/math/Math.sol\":10647:10648   */\n      0x02\n        /* \"@openzeppelin/contracts/utils/math/Math.sol\":10637:10648   */\n      add\n        /* \"@openzeppelin/contracts/utils/math/Math.sol\":10567:10663   */\n    tag_225:\n        /* \"@openzeppelin/contracts/utils/math/Math.sol\":10689:10694   */\n      0x0a\n        /* \"@openzeppelin/contracts/utils/math/Math.sol\":10680:10685   */\n      dup4\n        /* \"@openzeppelin/contracts/utils/math/Math.sol\":10680:10694   */\n      lt\n        /* \"@openzeppelin/contracts/utils/math/Math.sol\":10676:10740   */\n      tag_228\n      jumpi\n        /* \"@openzeppelin/contracts/utils/math/Math.sol\":10724:10725   */\n      0x01\n        /* \"@openzeppelin/contracts/utils/math/Math.sol\":10714:10725   */\n      add\n        /* \"@openzeppelin/contracts/utils/math/Math.sol\":10676:10740   */\n    tag_228:\n        /* \"@openzeppelin/contracts/utils/math/Math.sol\":10766:10772   */\n      swap3\n        /* \"@openzeppelin/contracts/utils/math/Math.sol\":9889:10779   */\n      swap2\n      pop\n      pop\n      jump\t// out\n    tag_79:\n      dup3\n      dup1\n      sload\n      tag_229\n      swap1\n      tag_93\n      jump\t// in\n    tag_229:\n      swap1\n      0x00\n      mstore\n      keccak256(0x00, 0x20)\n      swap1\n      0x1f\n      add\n      0x20\n      swap1\n      div\n      dup2\n      add\n      swap3\n      dup3\n      tag_231\n      jumpi\n      0x00\n      dup6\n      sstore\n      jump(tag_234)\n    tag_231:\n      dup3\n      0x1f\n      lt\n      tag_232\n      jumpi\n      dup1\n      mload\n      not(0xff)\n      and\n      dup4\n      dup1\n      add\n      or\n      dup6\n      sstore\n      jump(tag_234)\n    tag_232:\n      dup3\n      dup1\n      add\n      0x01\n      add\n      dup6\n      sstore\n      dup3\n      iszero\n      tag_234\n      jumpi\n      swap2\n      dup3\n      add\n    tag_233:\n      dup3\n      dup2\n      gt\n      iszero\n      tag_234\n      jumpi\n      dup3\n      mload\n      dup3\n      sstore\n      swap2\n      0x20\n      add\n      swap2\n      swap1\n      0x01\n      add\n      swap1\n      jump(tag_233)\n    tag_234:\n      pop\n      tag_235\n      swap3\n      swap2\n      pop\n      tag_236\n      jump\t// in\n    tag_235:\n      pop\n      swap1\n      jump\t// out\n    tag_236:\n    tag_237:\n      dup1\n      dup3\n      gt\n      iszero\n      tag_235\n      jumpi\n      0x00\n      dup2\n      sstore\n      0x01\n      add\n      jump(tag_237)\n        /* \"#utility.yul\":14:210   */\n    tag_239:\n        /* \"#utility.yul\":82:102   */\n      dup1\n      calldataload\n      sub(shl(0xa0, 0x01), 0x01)\n        /* \"#utility.yul\":131:185   */\n      dup2\n      and\n        /* \"#utility.yul\":121:186   */\n      dup2\n      eq\n        /* \"#utility.yul\":111:204   */\n      tag_246\n      jumpi\n        /* \"#utility.yul\":200:201   */\n      0x00\n        /* \"#utility.yul\":197:198   */\n      dup1\n        /* \"#utility.yul\":190:202   */\n      revert\n        /* \"#utility.yul\":111:204   */\n    tag_246:\n        /* \"#utility.yul\":14:210   */\n      swap2\n      swap1\n      pop\n      jump\t// out\n        /* \"#utility.yul\":215:469   */\n    tag_21:\n        /* \"#utility.yul\":283:289   */\n      0x00\n        /* \"#utility.yul\":291:297   */\n      dup1\n        /* \"#utility.yul\":344:346   */\n      0x40\n        /* \"#utility.yul\":332:341   */\n      dup4\n        /* \"#utility.yul\":323:330   */\n      dup6\n        /* \"#utility.yul\":319:342   */\n      sub\n        /* \"#utility.yul\":315:347   */\n      slt\n        /* \"#utility.yul\":312:364   */\n      iszero\n      tag_248\n      jumpi\n        /* \"#utility.yul\":360:361   */\n      0x00\n        /* \"#utility.yul\":357:358   */\n      dup1\n        /* \"#utility.yul\":350:362   */\n      revert\n        /* \"#utility.yul\":312:364   */\n    tag_248:\n        /* \"#utility.yul\":383:412   */\n      tag_249\n        /* \"#utility.yul\":402:411   */\n      dup4\n        /* \"#utility.yul\":383:412   */\n      tag_239\n      jump\t// in\n    tag_249:\n        /* \"#utility.yul\":373:412   */\n      swap5\n        /* \"#utility.yul\":459:461   */\n      0x20\n        /* \"#utility.yul\":444:462   */\n      swap4\n      swap1\n      swap4\n      add\n        /* \"#utility.yul\":431:463   */\n      calldataload\n      swap4\n      pop\n      pop\n      pop\n        /* \"#utility.yul\":215:469   */\n      jump\t// out\n        /* \"#utility.yul\":656:783   */\n    tag_164:\n        /* \"#utility.yul\":717:727   */\n      0x4e487b71\n        /* \"#utility.yul\":712:715   */\n      0xe0\n        /* \"#utility.yul\":708:728   */\n      shl\n        /* \"#utility.yul\":705:706   */\n      0x00\n        /* \"#utility.yul\":698:729   */\n      mstore\n        /* \"#utility.yul\":748:752   */\n      0x41\n        /* \"#utility.yul\":745:746   */\n      0x04\n        /* \"#utility.yul\":738:753   */\n      mstore\n        /* \"#utility.yul\":772:776   */\n      0x24\n        /* \"#utility.yul\":769:770   */\n      0x00\n        /* \"#utility.yul\":762:777   */\n      revert\n        /* \"#utility.yul\":788:1852   */\n    tag_27:\n        /* \"#utility.yul\":875:881   */\n      0x00\n        /* \"#utility.yul\":883:889   */\n      dup1\n        /* \"#utility.yul\":891:897   */\n      0x00\n        /* \"#utility.yul\":944:946   */\n      0x60\n        /* \"#utility.yul\":932:941   */\n      dup5\n        /* \"#utility.yul\":923:930   */\n      dup7\n        /* \"#utility.yul\":919:942   */\n      sub\n        /* \"#utility.yul\":915:947   */\n      slt\n        /* \"#utility.yul\":912:964   */\n      iszero\n      tag_253\n      jumpi\n        /* \"#utility.yul\":960:961   */\n      0x00\n        /* \"#utility.yul\":957:958   */\n      dup1\n        /* \"#utility.yul\":950:962   */\n      revert\n        /* \"#utility.yul\":912:964   */\n    tag_253:\n        /* \"#utility.yul\":983:1012   */\n      tag_254\n        /* \"#utility.yul\":1002:1011   */\n      dup5\n        /* \"#utility.yul\":983:1012   */\n      tag_239\n      jump\t// in\n    tag_254:\n        /* \"#utility.yul\":973:1012   */\n      swap3\n      pop\n        /* \"#utility.yul\":1059:1061   */\n      0x20\n        /* \"#utility.yul\":1048:1057   */\n      dup5\n        /* \"#utility.yul\":1044:1062   */\n      add\n        /* \"#utility.yul\":1031:1063   */\n      calldataload\n        /* \"#utility.yul\":1021:1063   */\n      swap2\n      pop\n        /* \"#utility.yul\":1114:1116   */\n      0x40\n        /* \"#utility.yul\":1103:1112   */\n      dup5\n        /* \"#utility.yul\":1099:1117   */\n      add\n        /* \"#utility.yul\":1086:1118   */\n      calldataload\n        /* \"#utility.yul\":1137:1155   */\n      0xffffffffffffffff\n        /* \"#utility.yul\":1178:1180   */\n      dup1\n        /* \"#utility.yul\":1170:1176   */\n      dup3\n        /* \"#utility.yul\":1167:1181   */\n      gt\n        /* \"#utility.yul\":1164:1198   */\n      iszero\n      tag_255\n      jumpi\n        /* \"#utility.yul\":1194:1195   */\n      0x00\n        /* \"#utility.yul\":1191:1192   */\n      dup1\n        /* \"#utility.yul\":1184:1196   */\n      revert\n        /* \"#utility.yul\":1164:1198   */\n    tag_255:\n        /* \"#utility.yul\":1232:1238   */\n      dup2\n        /* \"#utility.yul\":1221:1230   */\n      dup7\n        /* \"#utility.yul\":1217:1239   */\n      add\n        /* \"#utility.yul\":1207:1239   */\n      swap2\n      pop\n        /* \"#utility.yul\":1277:1284   */\n      dup7\n        /* \"#utility.yul\":1270:1274   */\n      0x1f\n        /* \"#utility.yul\":1266:1268   */\n      dup4\n        /* \"#utility.yul\":1262:1275   */\n      add\n        /* \"#utility.yul\":1258:1285   */\n      slt\n        /* \"#utility.yul\":1248:1303   */\n      tag_256\n      jumpi\n        /* \"#utility.yul\":1299:1300   */\n      0x00\n        /* \"#utility.yul\":1296:1297   */\n      dup1\n        /* \"#utility.yul\":1289:1301   */\n      revert\n        /* \"#utility.yul\":1248:1303   */\n    tag_256:\n        /* \"#utility.yul\":1335:1337   */\n      dup2\n        /* \"#utility.yul\":1322:1338   */\n      calldataload\n        /* \"#utility.yul\":1357:1359   */\n      dup2\n        /* \"#utility.yul\":1353:1355   */\n      dup2\n        /* \"#utility.yul\":1350:1360   */\n      gt\n        /* \"#utility.yul\":1347:1383   */\n      iszero\n      tag_258\n      jumpi\n        /* \"#utility.yul\":1363:1381   */\n      tag_258\n      tag_164\n      jump\t// in\n    tag_258:\n        /* \"#utility.yul\":1438:1440   */\n      0x40\n        /* \"#utility.yul\":1432:1441   */\n      mload\n        /* \"#utility.yul\":1406:1408   */\n      0x1f\n        /* \"#utility.yul\":1492:1505   */\n      dup3\n      add\n      not(0x1f)\n        /* \"#utility.yul\":1488:1510   */\n      swap1\n      dup2\n      and\n        /* \"#utility.yul\":1512:1514   */\n      0x3f\n        /* \"#utility.yul\":1484:1515   */\n      add\n        /* \"#utility.yul\":1480:1520   */\n      and\n        /* \"#utility.yul\":1468:1521   */\n      dup2\n      add\n      swap1\n        /* \"#utility.yul\":1536:1554   */\n      dup4\n      dup3\n      gt\n        /* \"#utility.yul\":1556:1578   */\n      dup2\n      dup4\n      lt\n        /* \"#utility.yul\":1533:1579   */\n      or\n        /* \"#utility.yul\":1530:1602   */\n      iszero\n      tag_260\n      jumpi\n        /* \"#utility.yul\":1582:1600   */\n      tag_260\n      tag_164\n      jump\t// in\n    tag_260:\n        /* \"#utility.yul\":1622:1632   */\n      dup2\n        /* \"#utility.yul\":1618:1620   */\n      0x40\n        /* \"#utility.yul\":1611:1633   */\n      mstore\n        /* \"#utility.yul\":1657:1659   */\n      dup3\n        /* \"#utility.yul\":1649:1655   */\n      dup2\n        /* \"#utility.yul\":1642:1660   */\n      mstore\n        /* \"#utility.yul\":1697:1704   */\n      dup10\n        /* \"#utility.yul\":1692:1694   */\n      0x20\n        /* \"#utility.yul\":1687:1689   */\n      dup5\n        /* \"#utility.yul\":1683:1685   */\n      dup8\n        /* \"#utility.yul\":1679:1690   */\n      add\n        /* \"#utility.yul\":1675:1695   */\n      add\n        /* \"#utility.yul\":1672:1705   */\n      gt\n        /* \"#utility.yul\":1669:1722   */\n      iszero\n      tag_261\n      jumpi\n        /* \"#utility.yul\":1718:1719   */\n      0x00\n        /* \"#utility.yul\":1715:1716   */\n      dup1\n        /* \"#utility.yul\":1708:1720   */\n      revert\n        /* \"#utility.yul\":1669:1722   */\n    tag_261:\n        /* \"#utility.yul\":1774:1776   */\n      dup3\n        /* \"#utility.yul\":1769:1771   */\n      0x20\n        /* \"#utility.yul\":1765:1767   */\n      dup7\n        /* \"#utility.yul\":1761:1772   */\n      add\n        /* \"#utility.yul\":1756:1758   */\n      0x20\n        /* \"#utility.yul\":1748:1754   */\n      dup4\n        /* \"#utility.yul\":1744:1759   */\n      add\n        /* \"#utility.yul\":1731:1777   */\n      calldatacopy\n        /* \"#utility.yul\":1819:1820   */\n      0x00\n        /* \"#utility.yul\":1814:1816   */\n      0x20\n        /* \"#utility.yul\":1809:1811   */\n      dup5\n        /* \"#utility.yul\":1801:1807   */\n      dup4\n        /* \"#utility.yul\":1797:1812   */\n      add\n        /* \"#utility.yul\":1793:1817   */\n      add\n        /* \"#utility.yul\":1786:1821   */\n      mstore\n        /* \"#utility.yul\":1840:1846   */\n      dup1\n        /* \"#utility.yul\":1830:1846   */\n      swap6\n      pop\n      pop\n      pop\n      pop\n      pop\n      pop\n        /* \"#utility.yul\":788:1852   */\n      swap3\n      pop\n      swap3\n      pop\n      swap3\n      jump\t// out\n        /* \"#utility.yul\":2088:2268   */\n    tag_38:\n        /* \"#utility.yul\":2147:2153   */\n      0x00\n        /* \"#utility.yul\":2200:2202   */\n      0x20\n        /* \"#utility.yul\":2188:2197   */\n      dup3\n        /* \"#utility.yul\":2179:2186   */\n      dup5\n        /* \"#utility.yul\":2175:2198   */\n      sub\n        /* \"#utility.yul\":2171:2203   */\n      slt\n        /* \"#utility.yul\":2168:2220   */\n      iszero\n      tag_264\n      jumpi\n        /* \"#utility.yul\":2216:2217   */\n      0x00\n        /* \"#utility.yul\":2213:2214   */\n      dup1\n        /* \"#utility.yul\":2206:2218   */\n      revert\n        /* \"#utility.yul\":2168:2220   */\n    tag_264:\n      pop\n        /* \"#utility.yul\":2239:2262   */\n      calldataload\n      swap2\n        /* \"#utility.yul\":2088:2268   */\n      swap1\n      pop\n      jump\t// out\n        /* \"#utility.yul\":2273:2531   */\n    tag_240:\n        /* \"#utility.yul\":2345:2346   */\n      0x00\n        /* \"#utility.yul\":2355:2468   */\n    tag_266:\n        /* \"#utility.yul\":2369:2375   */\n      dup4\n        /* \"#utility.yul\":2366:2367   */\n      dup2\n        /* \"#utility.yul\":2363:2376   */\n      lt\n        /* \"#utility.yul\":2355:2468   */\n      iszero\n      tag_268\n      jumpi\n        /* \"#utility.yul\":2445:2456   */\n      dup2\n      dup2\n      add\n        /* \"#utility.yul\":2439:2457   */\n      mload\n        /* \"#utility.yul\":2426:2437   */\n      dup4\n      dup3\n      add\n        /* \"#utility.yul\":2419:2458   */\n      mstore\n        /* \"#utility.yul\":2391:2393   */\n      0x20\n        /* \"#utility.yul\":2384:2394   */\n      add\n        /* \"#utility.yul\":2355:2468   */\n      jump(tag_266)\n    tag_268:\n        /* \"#utility.yul\":2486:2492   */\n      dup4\n        /* \"#utility.yul\":2483:2484   */\n      dup2\n        /* \"#utility.yul\":2480:2493   */\n      gt\n        /* \"#utility.yul\":2477:2525   */\n      iszero\n      tag_269\n      jumpi\n        /* \"#utility.yul\":2521:2522   */\n      0x00\n        /* \"#utility.yul\":2512:2518   */\n      dup5\n        /* \"#utility.yul\":2507:2510   */\n      dup5\n        /* \"#utility.yul\":2503:2519   */\n      add\n        /* \"#utility.yul\":2496:2523   */\n      mstore\n        /* \"#utility.yul\":2477:2525   */\n    tag_269:\n      pop\n        /* \"#utility.yul\":2273:2531   */\n      pop\n      pop\n      pop\n      jump\t// out\n        /* \"#utility.yul\":2536:2794   */\n    tag_241:\n        /* \"#utility.yul\":2578:2581   */\n      0x00\n        /* \"#utility.yul\":2616:2621   */\n      dup2\n        /* \"#utility.yul\":2610:2622   */\n      mload\n        /* \"#utility.yul\":2643:2649   */\n      dup1\n        /* \"#utility.yul\":2638:2641   */\n      dup5\n        /* \"#utility.yul\":2631:2650   */\n      mstore\n        /* \"#utility.yul\":2659:2722   */\n      tag_271\n        /* \"#utility.yul\":2715:2721   */\n      dup2\n        /* \"#utility.yul\":2708:2712   */\n      0x20\n        /* \"#utility.yul\":2703:2706   */\n      dup7\n        /* \"#utility.yul\":2699:2713   */\n      add\n        /* \"#utility.yul\":2692:2696   */\n      0x20\n        /* \"#utility.yul\":2685:2690   */\n      dup7\n        /* \"#utility.yul\":2681:2697   */\n      add\n        /* \"#utility.yul\":2659:2722   */\n      tag_240\n      jump\t// in\n    tag_271:\n        /* \"#utility.yul\":2776:2778   */\n      0x1f\n        /* \"#utility.yul\":2755:2770   */\n      add\n      not(0x1f)\n        /* \"#utility.yul\":2751:2780   */\n      and\n        /* \"#utility.yul\":2742:2781   */\n      swap3\n      swap1\n      swap3\n      add\n        /* \"#utility.yul\":2783:2787   */\n      0x20\n        /* \"#utility.yul\":2738:2788   */\n      add\n      swap3\n        /* \"#utility.yul\":2536:2794   */\n      swap2\n      pop\n      pop\n      jump\t// out\n        /* \"#utility.yul\":2799:2926   */\n    tag_77:\n        /* \"#utility.yul\":2860:2870   */\n      0x4e487b71\n        /* \"#utility.yul\":2855:2858   */\n      0xe0\n        /* \"#utility.yul\":2851:2871   */\n      shl\n        /* \"#utility.yul\":2848:2849   */\n      0x00\n        /* \"#utility.yul\":2841:2872   */\n      mstore\n        /* \"#utility.yul\":2891:2895   */\n      0x21\n        /* \"#utility.yul\":2888:2889   */\n      0x04\n        /* \"#utility.yul\":2881:2896   */\n      mstore\n        /* \"#utility.yul\":2915:2919   */\n      0x24\n        /* \"#utility.yul\":2912:2913   */\n      0x00\n        /* \"#utility.yul\":2905:2920   */\n      revert\n        /* \"#utility.yul\":2931:3578   */\n    tag_41:\n      sub(shl(0xa0, 0x01), 0x01)\n        /* \"#utility.yul\":3178:3184   */\n      dup6\n        /* \"#utility.yul\":3174:3229   */\n      and\n        /* \"#utility.yul\":3163:3172   */\n      dup2\n        /* \"#utility.yul\":3156:3230   */\n      mstore\n        /* \"#utility.yul\":3266:3272   */\n      dup4\n        /* \"#utility.yul\":3261:3263   */\n      0x20\n        /* \"#utility.yul\":3250:3259   */\n      dup3\n        /* \"#utility.yul\":3246:3264   */\n      add\n        /* \"#utility.yul\":3239:3273   */\n      mstore\n        /* \"#utility.yul\":3309:3312   */\n      0x80\n        /* \"#utility.yul\":3304:3306   */\n      0x40\n        /* \"#utility.yul\":3293:3302   */\n      dup3\n        /* \"#utility.yul\":3289:3307   */\n      add\n        /* \"#utility.yul\":3282:3313   */\n      mstore\n        /* \"#utility.yul\":3137:3141   */\n      0x00\n        /* \"#utility.yul\":3330:3376   */\n      tag_274\n        /* \"#utility.yul\":3371:3374   */\n      0x80\n        /* \"#utility.yul\":3360:3369   */\n      dup4\n        /* \"#utility.yul\":3356:3375   */\n      add\n        /* \"#utility.yul\":3348:3354   */\n      dup6\n        /* \"#utility.yul\":3330:3376   */\n      tag_241\n      jump\t// in\n    tag_274:\n        /* \"#utility.yul\":3322:3376   */\n      swap1\n      pop\n        /* \"#utility.yul\":3406:3407   */\n      0x03\n        /* \"#utility.yul\":3398:3404   */\n      dup4\n        /* \"#utility.yul\":3395:3408   */\n      lt\n        /* \"#utility.yul\":3385:3529   */\n      tag_275\n      jumpi\n        /* \"#utility.yul\":3451:3461   */\n      0x4e487b71\n        /* \"#utility.yul\":3446:3449   */\n      0xe0\n        /* \"#utility.yul\":3442:3462   */\n      shl\n        /* \"#utility.yul\":3439:3440   */\n      0x00\n        /* \"#utility.yul\":3432:3463   */\n      mstore\n        /* \"#utility.yul\":3486:3490   */\n      0x21\n        /* \"#utility.yul\":3483:3484   */\n      0x04\n        /* \"#utility.yul\":3476:3491   */\n      mstore\n        /* \"#utility.yul\":3514:3518   */\n      0x24\n        /* \"#utility.yul\":3511:3512   */\n      0x00\n        /* \"#utility.yul\":3504:3519   */\n      revert\n        /* \"#utility.yul\":3385:3529   */\n    tag_275:\n        /* \"#utility.yul\":3565:3571   */\n      dup3\n        /* \"#utility.yul\":3560:3562   */\n      0x60\n        /* \"#utility.yul\":3549:3558   */\n      dup4\n        /* \"#utility.yul\":3545:3563   */\n      add\n        /* \"#utility.yul\":3538:3572   */\n      mstore\n        /* \"#utility.yul\":2931:3578   */\n      swap6\n      swap5\n      pop\n      pop\n      pop\n      pop\n      pop\n      jump\t// out\n        /* \"#utility.yul\":3780:3943   */\n    tag_242:\n        /* \"#utility.yul\":3847:3867   */\n      dup1\n      calldataload\n        /* \"#utility.yul\":3907:3917   */\n      0xffffffff\n        /* \"#utility.yul\":3896:3918   */\n      dup2\n      and\n        /* \"#utility.yul\":3886:3919   */\n      dup2\n      eq\n        /* \"#utility.yul\":3876:3937   */\n      tag_246\n      jumpi\n        /* \"#utility.yul\":3933:3934   */\n      0x00\n        /* \"#utility.yul\":3930:3931   */\n      dup1\n        /* \"#utility.yul\":3923:3935   */\n      revert\n        /* \"#utility.yul\":3948:4132   */\n    tag_51:\n        /* \"#utility.yul\":4006:4012   */\n      0x00\n        /* \"#utility.yul\":4059:4061   */\n      0x20\n        /* \"#utility.yul\":4047:4056   */\n      dup3\n        /* \"#utility.yul\":4038:4045   */\n      dup5\n        /* \"#utility.yul\":4034:4057   */\n      sub\n        /* \"#utility.yul\":4030:4062   */\n      slt\n        /* \"#utility.yul\":4027:4079   */\n      iszero\n      tag_280\n      jumpi\n        /* \"#utility.yul\":4075:4076   */\n      0x00\n        /* \"#utility.yul\":4072:4073   */\n      dup1\n        /* \"#utility.yul\":4065:4077   */\n      revert\n        /* \"#utility.yul\":4027:4079   */\n    tag_280:\n        /* \"#utility.yul\":4098:4126   */\n      tag_281\n        /* \"#utility.yul\":4116:4125   */\n      dup3\n        /* \"#utility.yul\":4098:4126   */\n      tag_242\n      jump\t// in\n    tag_281:\n        /* \"#utility.yul\":4088:4126   */\n      swap4\n        /* \"#utility.yul\":3948:4132   */\n      swap3\n      pop\n      pop\n      pop\n      jump\t// out\n        /* \"#utility.yul\":4137:4465   */\n    tag_58:\n        /* \"#utility.yul\":4214:4220   */\n      0x00\n        /* \"#utility.yul\":4222:4228   */\n      dup1\n        /* \"#utility.yul\":4230:4236   */\n      0x00\n        /* \"#utility.yul\":4283:4285   */\n      0x60\n        /* \"#utility.yul\":4271:4280   */\n      dup5\n        /* \"#utility.yul\":4262:4269   */\n      dup7\n        /* \"#utility.yul\":4258:4281   */\n      sub\n        /* \"#utility.yul\":4254:4286   */\n      slt\n        /* \"#utility.yul\":4251:4303   */\n      iszero\n      tag_283\n      jumpi\n        /* \"#utility.yul\":4299:4300   */\n      0x00\n        /* \"#utility.yul\":4296:4297   */\n      dup1\n        /* \"#utility.yul\":4289:4301   */\n      revert\n        /* \"#utility.yul\":4251:4303   */\n    tag_283:\n        /* \"#utility.yul\":4322:4351   */\n      tag_284\n        /* \"#utility.yul\":4341:4350   */\n      dup5\n        /* \"#utility.yul\":4322:4351   */\n      tag_239\n      jump\t// in\n    tag_284:\n        /* \"#utility.yul\":4312:4351   */\n      swap3\n      pop\n        /* \"#utility.yul\":4370:4408   */\n      tag_285\n        /* \"#utility.yul\":4404:4406   */\n      0x20\n        /* \"#utility.yul\":4393:4402   */\n      dup6\n        /* \"#utility.yul\":4389:4407   */\n      add\n        /* \"#utility.yul\":4370:4408   */\n      tag_239\n      jump\t// in\n    tag_285:\n        /* \"#utility.yul\":4360:4408   */\n      swap2\n      pop\n        /* \"#utility.yul\":4455:4457   */\n      0x40\n        /* \"#utility.yul\":4444:4453   */\n      dup5\n        /* \"#utility.yul\":4440:4458   */\n      add\n        /* \"#utility.yul\":4427:4459   */\n      calldataload\n        /* \"#utility.yul\":4417:4459   */\n      swap1\n      pop\n        /* \"#utility.yul\":4137:4465   */\n      swap3\n      pop\n      swap3\n      pop\n      swap3\n      jump\t// out\n        /* \"#utility.yul\":4470:4728   */\n    tag_66:\n        /* \"#utility.yul\":4537:4543   */\n      0x00\n        /* \"#utility.yul\":4545:4551   */\n      dup1\n        /* \"#utility.yul\":4598:4600   */\n      0x40\n        /* \"#utility.yul\":4586:4595   */\n      dup4\n        /* \"#utility.yul\":4577:4584   */\n      dup6\n        /* \"#utility.yul\":4573:4596   */\n      sub\n        /* \"#utility.yul\":4569:4601   */\n      slt\n        /* \"#utility.yul\":4566:4618   */\n      iszero\n      tag_287\n      jumpi\n        /* \"#utility.yul\":4614:4615   */\n      0x00\n        /* \"#utility.yul\":4611:4612   */\n      dup1\n        /* \"#utility.yul\":4604:4616   */\n      revert\n        /* \"#utility.yul\":4566:4618   */\n    tag_287:\n        /* \"#utility.yul\":4637:4665   */\n      tag_288\n        /* \"#utility.yul\":4655:4664   */\n      dup4\n        /* \"#utility.yul\":4637:4665   */\n      tag_242\n      jump\t// in\n    tag_288:\n        /* \"#utility.yul\":4627:4665   */\n      swap2\n      pop\n        /* \"#utility.yul\":4684:4722   */\n      tag_289\n        /* \"#utility.yul\":4718:4720   */\n      0x20\n        /* \"#utility.yul\":4707:4716   */\n      dup5\n        /* \"#utility.yul\":4703:4721   */\n      add\n        /* \"#utility.yul\":4684:4722   */\n      tag_239\n      jump\t// in\n    tag_289:\n        /* \"#utility.yul\":4674:4722   */\n      swap1\n      pop\n        /* \"#utility.yul\":4470:4728   */\n      swap3\n      pop\n      swap3\n      swap1\n      pop\n      jump\t// out\n        /* \"#utility.yul\":4733:4919   */\n    tag_70:\n        /* \"#utility.yul\":4792:4798   */\n      0x00\n        /* \"#utility.yul\":4845:4847   */\n      0x20\n        /* \"#utility.yul\":4833:4842   */\n      dup3\n        /* \"#utility.yul\":4824:4831   */\n      dup5\n        /* \"#utility.yul\":4820:4843   */\n      sub\n        /* \"#utility.yul\":4816:4848   */\n      slt\n        /* \"#utility.yul\":4813:4865   */\n      iszero\n      tag_291\n      jumpi\n        /* \"#utility.yul\":4861:4862   */\n      0x00\n        /* \"#utility.yul\":4858:4859   */\n      dup1\n        /* \"#utility.yul\":4851:4863   */\n      revert\n        /* \"#utility.yul\":4813:4865   */\n    tag_291:\n        /* \"#utility.yul\":4884:4913   */\n      tag_281\n        /* \"#utility.yul\":4903:4912   */\n      dup3\n        /* \"#utility.yul\":4884:4913   */\n      tag_239\n      jump\t// in\n        /* \"#utility.yul\":4924:5051   */\n    tag_243:\n        /* \"#utility.yul\":4985:4995   */\n      0x4e487b71\n        /* \"#utility.yul\":4980:4983   */\n      0xe0\n        /* \"#utility.yul\":4976:4996   */\n      shl\n        /* \"#utility.yul\":4973:4974   */\n      0x00\n        /* \"#utility.yul\":4966:4997   */\n      mstore\n        /* \"#utility.yul\":5016:5020   */\n      0x11\n        /* \"#utility.yul\":5013:5014   */\n      0x04\n        /* \"#utility.yul\":5006:5021   */\n      mstore\n        /* \"#utility.yul\":5040:5044   */\n      0x24\n        /* \"#utility.yul\":5037:5038   */\n      0x00\n        /* \"#utility.yul\":5030:5045   */\n      revert\n        /* \"#utility.yul\":5056:5284   */\n    tag_85:\n        /* \"#utility.yul\":5095:5098   */\n      0x00\n        /* \"#utility.yul\":5123:5133   */\n      0xffffffff\n        /* \"#utility.yul\":5160:5162   */\n      dup1\n        /* \"#utility.yul\":5157:5158   */\n      dup4\n        /* \"#utility.yul\":5153:5163   */\n      and\n        /* \"#utility.yul\":5190:5192   */\n      dup2\n        /* \"#utility.yul\":5187:5188   */\n      dup6\n        /* \"#utility.yul\":5183:5193   */\n      and\n        /* \"#utility.yul\":5221:5224   */\n      dup1\n        /* \"#utility.yul\":5217:5219   */\n      dup4\n        /* \"#utility.yul\":5213:5225   */\n      sub\n        /* \"#utility.yul\":5208:5211   */\n      dup3\n        /* \"#utility.yul\":5205:5226   */\n      gt\n        /* \"#utility.yul\":5202:5249   */\n      iszero\n      tag_296\n      jumpi\n        /* \"#utility.yul\":5229:5247   */\n      tag_296\n      tag_243\n      jump\t// in\n    tag_296:\n        /* \"#utility.yul\":5265:5278   */\n      add\n      swap5\n        /* \"#utility.yul\":5056:5284   */\n      swap4\n      pop\n      pop\n      pop\n      pop\n      jump\t// out\n        /* \"#utility.yul\":5289:5669   */\n    tag_93:\n        /* \"#utility.yul\":5368:5369   */\n      0x01\n        /* \"#utility.yul\":5364:5376   */\n      dup2\n      dup2\n      shr\n      swap1\n        /* \"#utility.yul\":5411:5423   */\n      dup3\n      and\n      dup1\n        /* \"#utility.yul\":5432:5493   */\n      tag_298\n      jumpi\n        /* \"#utility.yul\":5486:5490   */\n      0x7f\n        /* \"#utility.yul\":5478:5484   */\n      dup3\n        /* \"#utility.yul\":5474:5491   */\n      and\n        /* \"#utility.yul\":5464:5491   */\n      swap2\n      pop\n        /* \"#utility.yul\":5432:5493   */\n    tag_298:\n        /* \"#utility.yul\":5539:5541   */\n      0x20\n        /* \"#utility.yul\":5531:5537   */\n      dup3\n        /* \"#utility.yul\":5528:5542   */\n      lt\n        /* \"#utility.yul\":5508:5526   */\n      dup2\n        /* \"#utility.yul\":5505:5543   */\n      sub\n        /* \"#utility.yul\":5502:5663   */\n      tag_299\n      jumpi\n        /* \"#utility.yul\":5585:5595   */\n      0x4e487b71\n        /* \"#utility.yul\":5580:5583   */\n      0xe0\n        /* \"#utility.yul\":5576:5596   */\n      shl\n        /* \"#utility.yul\":5573:5574   */\n      0x00\n        /* \"#utility.yul\":5566:5597   */\n      mstore\n        /* \"#utility.yul\":5620:5624   */\n      0x22\n        /* \"#utility.yul\":5617:5618   */\n      0x04\n        /* \"#utility.yul\":5610:5625   */\n      mstore\n        /* \"#utility.yul\":5648:5652   */\n      0x24\n        /* \"#utility.yul\":5645:5646   */\n      0x00\n        /* \"#utility.yul\":5638:5653   */\n      revert\n        /* \"#utility.yul\":5502:5663   */\n    tag_299:\n      pop\n        /* \"#utility.yul\":5289:5669   */\n      swap2\n      swap1\n      pop\n      jump\t// out\n        /* \"#utility.yul\":6870:8642   */\n    tag_120:\n      shl(0xfc, 0x03)\n        /* \"#utility.yul\":7983:7986   */\n      dup2\n        /* \"#utility.yul\":7976:7992   */\n      mstore\n        /* \"#utility.yul\":7958:7961   */\n      0x00\n      shl(0xf8, 0x2b)\n        /* \"#utility.yul\":8043:8045   */\n      dup1\n        /* \"#utility.yul\":8039:8040   */\n      0x01\n        /* \"#utility.yul\":8034:8037   */\n      dup5\n        /* \"#utility.yul\":8030:8041   */\n      add\n        /* \"#utility.yul\":8023:8046   */\n      mstore\n      shl(0xf8, 0x33)\n        /* \"#utility.yul\":8071:8072   */\n      0x02\n        /* \"#utility.yul\":8066:8069   */\n      dup5\n        /* \"#utility.yul\":8062:8073   */\n      add\n        /* \"#utility.yul\":8055:8079   */\n      mstore\n        /* \"#utility.yul\":8108:8110   */\n      dup1\n        /* \"#utility.yul\":8104:8105   */\n      0x03\n        /* \"#utility.yul\":8099:8102   */\n      dup5\n        /* \"#utility.yul\":8095:8106   */\n      add\n        /* \"#utility.yul\":8088:8111   */\n      mstore\n        /* \"#utility.yul\":8140:8163   */\n      0x5061796d656e74205265717565737420416c6572740000000000000000000000\n        /* \"#utility.yul\":8136:8137   */\n      0x04\n        /* \"#utility.yul\":8131:8134   */\n      dup5\n        /* \"#utility.yul\":8127:8138   */\n      add\n        /* \"#utility.yul\":8120:8164   */\n      mstore\n        /* \"#utility.yul\":8194:8196   */\n      dup1\n        /* \"#utility.yul\":8189:8191   */\n      0x19\n        /* \"#utility.yul\":8184:8187   */\n      dup5\n        /* \"#utility.yul\":8180:8192   */\n      add\n        /* \"#utility.yul\":8173:8197   */\n      mstore\n      pop\n        /* \"#utility.yul\":8226:8232   */\n      dup4\n        /* \"#utility.yul\":8220:8233   */\n      mload\n        /* \"#utility.yul\":8242:8304   */\n      tag_304\n        /* \"#utility.yul\":8297:8303   */\n      dup2\n        /* \"#utility.yul\":8292:8294   */\n      0x1a\n        /* \"#utility.yul\":8287:8290   */\n      dup6\n        /* \"#utility.yul\":8283:8295   */\n      add\n        /* \"#utility.yul\":8276:8280   */\n      0x20\n        /* \"#utility.yul\":8268:8274   */\n      dup9\n        /* \"#utility.yul\":8264:8281   */\n      add\n        /* \"#utility.yul\":8242:8304   */\n      tag_240\n      jump\t// in\n    tag_304:\n        /* \"#utility.yul\":8368:8379   */\n      0x5265717565737465640000000000000000000000000000000000000000000000\n        /* \"#utility.yul\":8363:8365   */\n      0x1a\n        /* \"#utility.yul\":8323:8339   */\n      swap2\n      dup5\n      add\n        /* \"#utility.yul\":8355:8366   */\n      swap2\n      dup3\n      add\n        /* \"#utility.yul\":8348:8380   */\n      mstore\n        /* \"#utility.yul\":8405:8418   */\n      dup4\n      mload\n        /* \"#utility.yul\":8427:8490   */\n      tag_305\n        /* \"#utility.yul\":8405:8418   */\n      dup2\n        /* \"#utility.yul\":8476:8478   */\n      0x23\n        /* \"#utility.yul\":8468:8479   */\n      dup5\n      add\n        /* \"#utility.yul\":8461:8465   */\n      0x20\n        /* \"#utility.yul\":8449:8466   */\n      dup9\n      add\n        /* \"#utility.yul\":8427:8490   */\n      tag_240\n      jump\t// in\n    tag_305:\n        /* \"#utility.yul\":8555:8565   */\n      0x666f726d20796f75000000000000000000000000000000000000000000000000\n        /* \"#utility.yul\":8550:8552   */\n      0x23\n        /* \"#utility.yul\":8509:8526   */\n      swap3\n      swap1\n      swap2\n      add\n        /* \"#utility.yul\":8542:8553   */\n      swap2\n      dup3\n      add\n        /* \"#utility.yul\":8535:8566   */\n      mstore\n        /* \"#utility.yul\":8595:8608   */\n      0x20504159204e4f57202121000000000000000000000000000000000000000000\n        /* \"#utility.yul\":8590:8592   */\n      0x2b\n        /* \"#utility.yul\":8582:8593   */\n      dup3\n      add\n        /* \"#utility.yul\":8575:8609   */\n      mstore\n        /* \"#utility.yul\":8633:8635   */\n      0x36\n        /* \"#utility.yul\":8625:8636   */\n      add\n      swap5\n        /* \"#utility.yul\":6870:8642   */\n      swap4\n      pop\n      pop\n      pop\n      pop\n      jump\t// out\n        /* \"#utility.yul\":8647:9086   */\n    tag_122:\n        /* \"#utility.yul\":8813:8817   */\n      0x00\n      sub(shl(0xa0, 0x01), 0x01)\n        /* \"#utility.yul\":8923:8925   */\n      dup1\n        /* \"#utility.yul\":8915:8921   */\n      dup7\n        /* \"#utility.yul\":8911:8926   */\n      and\n        /* \"#utility.yul\":8900:8909   */\n      dup4\n        /* \"#utility.yul\":8893:8927   */\n      mstore\n        /* \"#utility.yul\":8975:8977   */\n      dup1\n        /* \"#utility.yul\":8967:8973   */\n      dup6\n        /* \"#utility.yul\":8963:8978   */\n      and\n        /* \"#utility.yul\":8958:8960   */\n      0x20\n        /* \"#utility.yul\":8947:8956   */\n      dup5\n        /* \"#utility.yul\":8943:8961   */\n      add\n        /* \"#utility.yul\":8936:8979   */\n      mstore\n      pop\n        /* \"#utility.yul\":9015:9017   */\n      0x60\n        /* \"#utility.yul\":9010:9012   */\n      0x40\n        /* \"#utility.yul\":8999:9008   */\n      dup4\n        /* \"#utility.yul\":8995:9013   */\n      add\n        /* \"#utility.yul\":8988:9018   */\n      mstore\n        /* \"#utility.yul\":9035:9080   */\n      tag_307\n        /* \"#utility.yul\":9076:9078   */\n      0x60\n        /* \"#utility.yul\":9065:9074   */\n      dup4\n        /* \"#utility.yul\":9061:9079   */\n      add\n        /* \"#utility.yul\":9053:9059   */\n      dup5\n        /* \"#utility.yul\":9035:9080   */\n      tag_241\n      jump\t// in\n    tag_307:\n        /* \"#utility.yul\":9027:9080   */\n      swap6\n        /* \"#utility.yul\":8647:9086   */\n      swap5\n      pop\n      pop\n      pop\n      pop\n      pop\n      jump\t// out\n        /* \"#utility.yul\":9859:9986   */\n    tag_168:\n        /* \"#utility.yul\":9920:9930   */\n      0x4e487b71\n        /* \"#utility.yul\":9915:9918   */\n      0xe0\n        /* \"#utility.yul\":9911:9931   */\n      shl\n        /* \"#utility.yul\":9908:9909   */\n      0x00\n        /* \"#utility.yul\":9901:9932   */\n      mstore\n        /* \"#utility.yul\":9951:9955   */\n      0x32\n        /* \"#utility.yul\":9948:9949   */\n      0x04\n        /* \"#utility.yul\":9941:9956   */\n      mstore\n        /* \"#utility.yul\":9975:9979   */\n      0x24\n        /* \"#utility.yul\":9972:9973   */\n      0x00\n        /* \"#utility.yul\":9965:9980   */\n      revert\n        /* \"#utility.yul\":9991:10119   */\n    tag_175:\n        /* \"#utility.yul\":10031:10034   */\n      0x00\n        /* \"#utility.yul\":10062:10063   */\n      dup3\n        /* \"#utility.yul\":10058:10064   */\n      not\n        /* \"#utility.yul\":10055:10056   */\n      dup3\n        /* \"#utility.yul\":10052:10065   */\n      gt\n        /* \"#utility.yul\":10049:10088   */\n      iszero\n      tag_313\n      jumpi\n        /* \"#utility.yul\":10068:10086   */\n      tag_313\n      tag_243\n      jump\t// in\n    tag_313:\n      pop\n        /* \"#utility.yul\":10104:10113   */\n      add\n      swap1\n        /* \"#utility.yul\":9991:10119   */\n      jump\t// out\n        /* \"#utility.yul\":10124:10292   */\n    tag_181:\n        /* \"#utility.yul\":10164:10171   */\n      0x00\n        /* \"#utility.yul\":10230:10231   */\n      dup2\n        /* \"#utility.yul\":10226:10227   */\n      0x00\n        /* \"#utility.yul\":10222:10228   */\n      not\n        /* \"#utility.yul\":10218:10232   */\n      div\n        /* \"#utility.yul\":10215:10216   */\n      dup4\n        /* \"#utility.yul\":10212:10233   */\n      gt\n        /* \"#utility.yul\":10207:10208   */\n      dup3\n        /* \"#utility.yul\":10200:10209   */\n      iszero\n        /* \"#utility.yul\":10193:10210   */\n      iszero\n        /* \"#utility.yul\":10189:10234   */\n      and\n        /* \"#utility.yul\":10186:10257   */\n      iszero\n      tag_316\n      jumpi\n        /* \"#utility.yul\":10237:10255   */\n      tag_316\n      tag_243\n      jump\t// in\n    tag_316:\n      pop\n        /* \"#utility.yul\":10277:10286   */\n      mul\n      swap1\n        /* \"#utility.yul\":10124:10292   */\n      jump\t// out\n        /* \"#utility.yul\":10297:10432   */\n    tag_195:\n        /* \"#utility.yul\":10336:10339   */\n      0x00\n        /* \"#utility.yul\":10357:10374   */\n      0x01\n      dup3\n      add\n        /* \"#utility.yul\":10354:10397   */\n      tag_319\n      jumpi\n        /* \"#utility.yul\":10377:10395   */\n      tag_319\n      tag_243\n      jump\t// in\n    tag_319:\n      pop\n        /* \"#utility.yul\":10424:10425   */\n      0x01\n        /* \"#utility.yul\":10413:10426   */\n      add\n      swap1\n        /* \"#utility.yul\":10297:10432   */\n      jump\t// out\n\n    auxdata: 0xa264697066735822122032f5957dfa63be81951af82f00a2cd1d833f203aa26622f2c8970e5714bd242a64736f6c634300080d0033\n}\n",
    "bytecode": {
      "linkReferences": {},
      "object": "6080604052600180546001600160a01b031990811673b3971bcef2d791bc4027bbfedfb47319a4aaaaaa17909155600280549091167362c43323447899acb61c18181e34168903e033bf17905534801561005857600080fd5b5061006233610067565b6100b7565b600080546001600160a01b038381166001600160a01b0319831681178455604051919092169283917f8be0079c531659141344cd1fd0a4f28419497f9722a3daafe3b4186f6b6457e09190a35050565b6112bc806100c66000396000f3fe608060405234801561001057600080fd5b50600436106100df5760003560e01c80638aea61dc1161008c5780638ec67841116100665780638ec67841146101d1578063ba9a7a9e146101e4578063bcc8ae4e146101f7578063f2fde38b1461020a57600080fd5b80638aea61dc146101885780638c21dd2e146101ad5780638da5cb5b146101c057600080fd5b8063715018a6116100bd578063715018a61461014857806381d12c58146101525780638405549d1461017557600080fd5b8063167d44ac146100e45780633d1b214f1461010a57806348a3b4a41461011d575b600080fd5b6100f76100f2366004610dc9565b61021d565b6040519081526020015b60405180910390f35b6100f7610118366004610e09565b61024e565b600154610130906001600160a01b031681565b6040516001600160a01b039091168152602001610101565b610150610376565b005b610165610160366004610ed4565b61038a565b6040516101019493929190610f5f565b600254610130906001600160a01b031681565b6004546101989063ffffffff1681565b60405163ffffffff9091168152602001610101565b6101506101bb366004610fca565b610448565b6000546001600160a01b0316610130565b6101506101df366004610fec565b610594565b6100f76101f2366004610e09565b610635565b610150610205366004611028565b6106fb565b61015061021836600461105b565b61083c565b6005602052816000526040600020818154811061023957600080fd5b90600052602060002001600091509150505481565b60045460408051608081018252338152602080820186815282840186815260006060850181905263ffffffff909616808752600384529486208451815473ffffffffffffffffffffffffffffffffffffffff19166001600160a01b039091161781559151600183015551805191926102ce92600285019290910190610d14565b50606082015160038201805460ff191660018360028111156102f2576102f2610f49565b0217905550905050610305853386610594565b6001600160a01b03851660009081526005602090815260408220805460018181018355918452918320909101839055600480549192909161034d90849063ffffffff1661108c565b92506101000a81548163ffffffff021916908363ffffffff160217905550809150509392505050565b61037e6108cc565b6103886000610926565b565b6003602052600090815260409020805460018201546002830180546001600160a01b039093169391926103bc906110b4565b80601f01602080910402602001604051908101604052809291908181526020018280546103e8906110b4565b80156104355780601f1061040a57610100808354040283529160200191610435565b820191906000526020600020905b81548152906001019060200180831161041857829003601f168201915b5050506003909301549192505060ff1684565b60045463ffffffff90811690821611156104a95760405162461bcd60e51b815260206004820152601660248201527f55736520612056616c696420726571756573742049440000000000000000000060448201526064015b60405180910390fd5b63ffffffff811660009081526003602052604090206002600382015460ff1660028111156104d9576104d9610f49565b036105265760405162461bcd60e51b815260206004820152601960248201527f5265717565737420416c726561647920636f6d706c657465640000000000000060448201526064016104a0565b60038101805460ff1916600217905580546001820154604080516001600160a01b03909316835233602084015263ffffffff85169083015260608201527fb65db014b723fadd3247432ed31608af65170037629d00dc6447edf9701d14fb9060800160405180910390a15050565b6001546002546001600160a01b039182169163ba3d69d79116856105b786610983565b6105c086610b9e565b6040516020016105d19291906110ee565b6040516020818303038152906040526040518463ffffffff1660e01b81526004016105fe939291906111eb565b600060405180830381600087803b15801561061857600080fd5b505af115801561062c573d6000803e3d6000fd5b50505050505050565b600454604080516080810182526001600160a01b038681168252602080830187815283850187815260006060860181905263ffffffff909716808852600384529587208551815473ffffffffffffffffffffffffffffffffffffffff19169516949094178455905160018401555180516106b59260028501920190610d14565b50606082015160038201805460ff191660018360028111156106d9576106d9610f49565b021790555050600480546001925060009061034d90849063ffffffff1661108c565b60045463ffffffff90811690831611156107575760405162461bcd60e51b815260206004820152601660248201527f55736520612056616c696420726571756573742049440000000000000000000060448201526064016104a0565b63ffffffff821660009081526003602052604090206002600382015460ff16600281111561078757610787610f49565b036107d45760405162461bcd60e51b815260206004820152601960248201527f5265717565737420416c726561647920636f6d706c657465640000000000000060448201526064016104a0565b805460018201546107f29184916001600160a01b0390911690610594565b6001600160a01b038216600090815260056020908152604082208054600181810183559184529190922063ffffffff861691015560038201805460ff191682800217905550505050565b6108446108cc565b6001600160a01b0381166108c05760405162461bcd60e51b815260206004820152602660248201527f4f776e61626c653a206e6577206f776e657220697320746865207a65726f206160448201527f646472657373000000000000000000000000000000000000000000000000000060648201526084016104a0565b6108c981610926565b50565b6000546001600160a01b031633146103885760405162461bcd60e51b815260206004820181905260248201527f4f776e61626c653a2063616c6c6572206973206e6f7420746865206f776e657260448201526064016104a0565b600080546001600160a01b0383811673ffffffffffffffffffffffffffffffffffffffff19831681178455604051919092169283917f8be0079c531659141344cd1fd0a4f28419497f9722a3daafe3b4186f6b6457e09190a35050565b604080518082018252601081526f181899199a1a9b1b9c1cb0b131b232b360811b60208201528151602a80825260608281019094526001600160a01b0385169291600091602082018180368337019050509050600360fc1b816000815181106109ee576109ee611220565b60200101906001600160f81b031916908160001a905350600f60fb1b81600181518110610a1d57610a1d611220565b60200101906001600160f81b031916908160001a90535060005b6014811015610b955782600485610a4f84600c611236565b60208110610a5f57610a5f611220565b1a60f81b6001600160f81b031916901c60f81c60ff1681518110610a8557610a85611220565b01602001517fff000000000000000000000000000000000000000000000000000000000000001682610ab883600261124e565b610ac3906002611236565b81518110610ad357610ad3611220565b60200101906001600160f81b031916908160001a9053508284610af783600c611236565b60208110610b0757610b07611220565b825191901a600f16908110610b1e57610b1e611220565b01602001517fff000000000000000000000000000000000000000000000000000000000000001682610b5183600261124e565b610b5c906003611236565b81518110610b6c57610b6c611220565b60200101906001600160f81b031916908160001a90535080610b8d8161126d565b915050610a37565b50949350505050565b60606000610bab83610c31565b600101905060008167ffffffffffffffff811115610bcb57610bcb610df3565b6040519080825280601f01601f191660200182016040528015610bf5576020820181803683370190505b5090508181016020015b600019016f181899199a1a9b1b9c1cb0b131b232b360811b600a86061a8153600a8504945084610bff57509392505050565b6000807a184f03e93ff9f4daa797ed6e38ed64bf6a1f0100000000000000008310610c7a577a184f03e93ff9f4daa797ed6e38ed64bf6a1f010000000000000000830492506040015b6d04ee2d6d415b85acef81000000008310610ca6576d04ee2d6d415b85acef8100000000830492506020015b662386f26fc100008310610cc457662386f26fc10000830492506010015b6305f5e1008310610cdc576305f5e100830492506008015b6127108310610cf057612710830492506004015b60648310610d02576064830492506002015b600a8310610d0e576001015b92915050565b828054610d20906110b4565b90600052602060002090601f016020900481019282610d425760008555610d88565b82601f10610d5b57805160ff1916838001178555610d88565b82800160010185558215610d88579182015b82811115610d88578251825591602001919060010190610d6d565b50610d94929150610d98565b5090565b5b80821115610d945760008155600101610d99565b80356001600160a01b0381168114610dc457600080fd5b919050565b60008060408385031215610ddc57600080fd5b610de583610dad565b946020939093013593505050565b634e487b7160e01b600052604160045260246000fd5b600080600060608486031215610e1e57600080fd5b610e2784610dad565b925060208401359150604084013567ffffffffffffffff80821115610e4b57600080fd5b818601915086601f830112610e5f57600080fd5b813581811115610e7157610e71610df3565b604051601f8201601f19908116603f01168101908382118183101715610e9957610e99610df3565b81604052828152896020848701011115610eb257600080fd5b8260208601602083013760006020848301015280955050505050509250925092565b600060208284031215610ee657600080fd5b5035919050565b60005b83811015610f08578181015183820152602001610ef0565b83811115610f17576000848401525b50505050565b60008151808452610f35816020860160208601610eed565b601f01601f19169290920160200192915050565b634e487b7160e01b600052602160045260246000fd5b6001600160a01b0385168152836020820152608060408201526000610f876080830185610f1d565b905060038310610fa757634e487b7160e01b600052602160045260246000fd5b82606083015295945050505050565b803563ffffffff81168114610dc457600080fd5b600060208284031215610fdc57600080fd5b610fe582610fb6565b9392505050565b60008060006060848603121561100157600080fd5b61100a84610dad565b925061101860208501610dad565b9150604084013590509250925092565b6000806040838503121561103b57600080fd5b61104483610fb6565b915061105260208401610dad565b90509250929050565b60006020828403121561106d57600080fd5b610fe582610dad565b634e487b7160e01b600052601160045260246000fd5b600063ffffffff8083168185168083038211156110ab576110ab611076565b01949350505050565b600181811c908216806110c857607f821691505b6020821081036110e857634e487b7160e01b600052602260045260246000fd5b50919050565b600360fc1b81526000602b60f81b806001840152603360f81b60028401528060038401527f5061796d656e74205265717565737420416c6572740000000000000000000000600484015280601984015250835161115281601a850160208801610eed565b7f5265717565737465640000000000000000000000000000000000000000000000601a91840191820152835161118f816023840160208801610eed565b7f666f726d20796f75000000000000000000000000000000000000000000000000602392909101918201527f20504159204e4f57202121000000000000000000000000000000000000000000602b820152603601949350505050565b60006001600160a01b038086168352808516602084015250606060408301526112176060830184610f1d565b95945050505050565b634e487b7160e01b600052603260045260246000fd5b6000821982111561124957611249611076565b500190565b600081600019048311821515161561126857611268611076565b500290565b60006001820161127f5761127f611076565b506001019056fea264697066735822122032f5957dfa63be81951af82f00a2cd1d833f203aa26622f2c8970e5714bd242a64736f6c634300080d0033",
      "opcodes": "PUSH1 0x80 PUSH1 0x40 MSTORE PUSH1 0x1 DUP1 SLOAD PUSH1 0x1 PUSH1 0x1 PUSH1 0xA0 SHL SUB NOT SWAP1 DUP2 AND PUSH20 0xB3971BCEF2D791BC4027BBFEDFB47319A4AAAAAA OR SWAP1 SWAP2 SSTORE PUSH1 0x2 DUP1 SLOAD SWAP1 SWAP2 AND PUSH20 0x62C43323447899ACB61C18181E34168903E033BF OR SWAP1 SSTORE CALLVALUE DUP1 ISZERO PUSH2 0x58 JUMPI PUSH1 0x0 DUP1 REVERT JUMPDEST POP PUSH2 0x62 CALLER PUSH2 0x67 JUMP JUMPDEST PUSH2 0xB7 JUMP JUMPDEST PUSH1 0x0 DUP1 SLOAD PUSH1 0x1 PUSH1 0x1 PUSH1 0xA0 SHL SUB DUP4 DUP2 AND PUSH1 0x1 PUSH1 0x1 PUSH1 0xA0 SHL SUB NOT DUP4 AND DUP2 OR DUP5 SSTORE PUSH1 0x40 MLOAD SWAP2 SWAP1 SWAP3 AND SWAP3 DUP4 SWAP2 PUSH32 0x8BE0079C531659141344CD1FD0A4F28419497F9722A3DAAFE3B4186F6B6457E0 SWAP2 SWAP1 LOG3 POP POP JUMP JUMPDEST PUSH2 0x12BC DUP1 PUSH2 0xC6 PUSH1 0x0 CODECOPY PUSH1 0x0 RETURN INVALID PUSH1 0x80 PUSH1 0x40 MSTORE CALLVALUE DUP1 ISZERO PUSH2 0x10 JUMPI PUSH1 0x0 DUP1 REVERT JUMPDEST POP PUSH1 0x4 CALLDATASIZE LT PUSH2 0xDF JUMPI PUSH1 0x0 CALLDATALOAD PUSH1 0xE0 SHR DUP1 PUSH4 0x8AEA61DC GT PUSH2 0x8C JUMPI DUP1 PUSH4 0x8EC67841 GT PUSH2 0x66 JUMPI DUP1 PUSH4 0x8EC67841 EQ PUSH2 0x1D1 JUMPI DUP1 PUSH4 0xBA9A7A9E EQ PUSH2 0x1E4 JUMPI DUP1 PUSH4 0xBCC8AE4E EQ PUSH2 0x1F7 JUMPI DUP1 PUSH4 0xF2FDE38B EQ PUSH2 0x20A JUMPI PUSH1 0x0 DUP1 REVERT JUMPDEST DUP1 PUSH4 0x8AEA61DC EQ PUSH2 0x188 JUMPI DUP1 PUSH4 0x8C21DD2E EQ PUSH2 0x1AD JUMPI DUP1 PUSH4 0x8DA5CB5B EQ PUSH2 0x1C0 JUMPI PUSH1 0x0 DUP1 REVERT JUMPDEST DUP1 PUSH4 0x715018A6 GT PUSH2 0xBD JUMPI DUP1 PUSH4 0x715018A6 EQ PUSH2 0x148 JUMPI DUP1 PUSH4 0x81D12C58 EQ PUSH2 0x152 JUMPI DUP1 PUSH4 0x8405549D EQ PUSH2 0x175 JUMPI PUSH1 0x0 DUP1 REVERT JUMPDEST DUP1 PUSH4 0x167D44AC EQ PUSH2 0xE4 JUMPI DUP1 PUSH4 0x3D1B214F EQ PUSH2 0x10A JUMPI DUP1 PUSH4 0x48A3B4A4 EQ PUSH2 0x11D JUMPI JUMPDEST PUSH1 0x0 DUP1 REVERT JUMPDEST PUSH2 0xF7 PUSH2 0xF2 CALLDATASIZE PUSH1 0x4 PUSH2 0xDC9 JUMP JUMPDEST PUSH2 0x21D JUMP JUMPDEST PUSH1 0x40 MLOAD SWAP1 DUP2 MSTORE PUSH1 0x20 ADD JUMPDEST PUSH1 0x40 MLOAD DUP1 SWAP2 SUB SWAP1 RETURN JUMPDEST PUSH2 0xF7 PUSH2 0x118 CALLDATASIZE PUSH1 0x4 PUSH2 0xE09 JUMP JUMPDEST PUSH2 0x24E JUMP JUMPDEST PUSH1 0x1 SLOAD PUSH2 0x130 SWAP1 PUSH1 0x1 PUSH1 0x1 PUSH1 0xA0 SHL SUB AND DUP2 JUMP JUMPDEST PUSH1 0x40 MLOAD PUSH1 0x1 PUSH1 0x1 PUSH1 0xA0 SHL SUB SWAP1 SWAP2 AND DUP2 MSTORE PUSH1 0x20 ADD PUSH2 0x101 JUMP JUMPDEST PUSH2 0x150 PUSH2 0x376 JUMP JUMPDEST STOP JUMPDEST PUSH2 0x165 PUSH2 0x160 CALLDATASIZE PUSH1 0x4 PUSH2 0xED4 JUMP JUMPDEST PUSH2 0x38A JUMP JUMPDEST PUSH1 0x40 MLOAD PUSH2 0x101 SWAP5 SWAP4 SWAP3 SWAP2 SWAP1 PUSH2 0xF5F JUMP JUMPDEST PUSH1 0x2 SLOAD PUSH2 0x130 SWAP1 PUSH1 0x1 PUSH1 0x1 PUSH1 0xA0 SHL SUB AND DUP2 JUMP JUMPDEST PUSH1 0x4 SLOAD PUSH2 0x198 SWAP1 PUSH4 0xFFFFFFFF AND DUP2 JUMP JUMPDEST PUSH1 0x40 MLOAD PUSH4 0xFFFFFFFF SWAP1 SWAP2 AND DUP2 MSTORE PUSH1 0x20 ADD PUSH2 0x101 JUMP JUMPDEST PUSH2 0x150 PUSH2 0x1BB CALLDATASIZE PUSH1 0x4 PUSH2 0xFCA JUMP JUMPDEST PUSH2 0x448 JUMP JUMPDEST PUSH1 0x0 SLOAD PUSH1 0x1 PUSH1 0x1 PUSH1 0xA0 SHL SUB AND PUSH2 0x130 JUMP JUMPDEST PUSH2 0x150 PUSH2 0x1DF CALLDATASIZE PUSH1 0x4 PUSH2 0xFEC JUMP JUMPDEST PUSH2 0x594 JUMP JUMPDEST PUSH2 0xF7 PUSH2 0x1F2 CALLDATASIZE PUSH1 0x4 PUSH2 0xE09 JUMP JUMPDEST PUSH2 0x635 JUMP JUMPDEST PUSH2 0x150 PUSH2 0x205 CALLDATASIZE PUSH1 0x4 PUSH2 0x1028 JUMP JUMPDEST PUSH2 0x6FB JUMP JUMPDEST PUSH2 0x150 PUSH2 0x218 CALLDATASIZE PUSH1 0x4 PUSH2 0x105B JUMP JUMPDEST PUSH2 0x83C JUMP JUMPDEST PUSH1 0x5 PUSH1 0x20 MSTORE DUP2 PUSH1 0x0 MSTORE PUSH1 0x40 PUSH1 0x0 KECCAK256 DUP2 DUP2 SLOAD DUP2 LT PUSH2 0x239 JUMPI PUSH1 0x0 DUP1 REVERT JUMPDEST SWAP1 PUSH1 0x0 MSTORE PUSH1 0x20 PUSH1 0x0 KECCAK256 ADD PUSH1 0x0 SWAP2 POP SWAP2 POP POP SLOAD DUP2 JUMP JUMPDEST PUSH1 0x4 SLOAD PUSH1 0x40 DUP1 MLOAD PUSH1 0x80 DUP2 ADD DUP3 MSTORE CALLER DUP2 MSTORE PUSH1 0x20 DUP1 DUP3 ADD DUP7 DUP2 MSTORE DUP3 DUP5 ADD DUP7 DUP2 MSTORE PUSH1 0x0 PUSH1 0x60 DUP6 ADD DUP2 SWAP1 MSTORE PUSH4 0xFFFFFFFF SWAP1 SWAP7 AND DUP1 DUP8 MSTORE PUSH1 0x3 DUP5 MSTORE SWAP5 DUP7 KECCAK256 DUP5 MLOAD DUP2 SLOAD PUSH20 0xFFFFFFFFFFFFFFFFFFFFFFFFFFFFFFFFFFFFFFFF NOT AND PUSH1 0x1 PUSH1 0x1 PUSH1 0xA0 SHL SUB SWAP1 SWAP2 AND OR DUP2 SSTORE SWAP2 MLOAD PUSH1 0x1 DUP4 ADD SSTORE MLOAD DUP1 MLOAD SWAP2 SWAP3 PUSH2 0x2CE SWAP3 PUSH1 0x2 DUP6 ADD SWAP3 SWAP1 SWAP2 ADD SWAP1 PUSH2 0xD14 JUMP JUMPDEST POP PUSH1 0x60 DUP3 ADD MLOAD PUSH1 0x3 DUP3 ADD DUP1 SLOAD PUSH1 0xFF NOT AND PUSH1 0x1 DUP4 PUSH1 0x2 DUP2 GT ISZERO PUSH2 0x2F2 JUMPI PUSH2 0x2F2 PUSH2 0xF49 JUMP JUMPDEST MUL OR SWAP1 SSTORE POP SWAP1 POP POP PUSH2 0x305 DUP6 CALLER DUP7 PUSH2 0x594 JUMP JUMPDEST PUSH1 0x1 PUSH1 0x1 PUSH1 0xA0 SHL SUB DUP6 AND PUSH1 0x0 SWAP1 DUP2 MSTORE PUSH1 0x5 PUSH1 0x20 SWAP1 DUP2 MSTORE PUSH1 0x40 DUP3 KECCAK256 DUP1 SLOAD PUSH1 0x1 DUP2 DUP2 ADD DUP4 SSTORE SWAP2 DUP5 MSTORE SWAP2 DUP4 KECCAK256 SWAP1 SWAP2 ADD DUP4 SWAP1 SSTORE PUSH1 0x4 DUP1 SLOAD SWAP2 SWAP3 SWAP1 SWAP2 PUSH2 0x34D SWAP1 DUP5 SWAP1 PUSH4 0xFFFFFFFF AND PUSH2 0x108C JUMP JUMPDEST SWAP3 POP PUSH2 0x100 EXP DUP2 SLOAD DUP2 PUSH4 0xFFFFFFFF MUL NOT AND SWAP1 DUP4 PUSH4 0xFFFFFFFF AND MUL OR SWAP1 SSTORE POP DUP1 SWAP2 POP POP SWAP4 SWAP3 POP POP POP JUMP JUMPDEST PUSH2 0x37E PUSH2 0x8CC JUMP JUMPDEST PUSH2 0x388 PUSH1 0x0 PUSH2 0x926 JUMP JUMPDEST JUMP JUMPDEST PUSH1 0x3 PUSH1 0x20 MSTORE PUSH1 0x0 SWAP1 DUP2 MSTORE PUSH1 0x40 SWAP1 KECCAK256 DUP1 SLOAD PUSH1 0x1 DUP3 ADD SLOAD PUSH1 0x2 DUP4 ADD DUP1 SLOAD PUSH1 0x1 PUSH1 0x1 PUSH1 0xA0 SHL SUB SWAP1 SWAP4 AND SWAP4 SWAP2 SWAP3 PUSH2 0x3BC SWAP1 PUSH2 0x10B4 JUMP JUMPDEST DUP1 PUSH1 0x1F ADD PUSH1 0x20 DUP1 SWAP2 DIV MUL PUSH1 0x20 ADD PUSH1 0x40 MLOAD SWAP1 DUP2 ADD PUSH1 0x40 MSTORE DUP1 SWAP3 SWAP2 SWAP1 DUP2 DUP2 MSTORE PUSH1 0x20 ADD DUP3 DUP1 SLOAD PUSH2 0x3E8 SWAP1 PUSH2 0x10B4 JUMP JUMPDEST DUP1 ISZERO PUSH2 0x435 JUMPI DUP1 PUSH1 0x1F LT PUSH2 0x40A JUMPI PUSH2 0x100 DUP1 DUP4 SLOAD DIV MUL DUP4 MSTORE SWAP2 PUSH1 0x20 ADD SWAP2 PUSH2 0x435 JUMP JUMPDEST DUP3 ADD SWAP2 SWAP1 PUSH1 0x0 MSTORE PUSH1 0x20 PUSH1 0x0 KECCAK256 SWAP1 JUMPDEST DUP2 SLOAD DUP2 MSTORE SWAP1 PUSH1 0x1 ADD SWAP1 PUSH1 0x20 ADD DUP1 DUP4 GT PUSH2 0x418 JUMPI DUP3 SWAP1 SUB PUSH1 0x1F AND DUP3 ADD SWAP2 JUMPDEST POP POP POP PUSH1 0x3 SWAP1 SWAP4 ADD SLOAD SWAP2 SWAP3 POP POP PUSH1 0xFF AND DUP5 JUMP JUMPDEST PUSH1 0x4 SLOAD PUSH4 0xFFFFFFFF SWAP1 DUP2 AND SWAP1 DUP3 AND GT ISZERO PUSH2 0x4A9 JUMPI PUSH1 0x40 MLOAD PUSH3 0x461BCD PUSH1 0xE5 SHL DUP2 MSTORE PUSH1 0x20 PUSH1 0x4 DUP3 ADD MSTORE PUSH1 0x16 PUSH1 0x24 DUP3 ADD MSTORE PUSH32 0x55736520612056616C6964207265717565737420494400000000000000000000 PUSH1 0x44 DUP3 ADD MSTORE PUSH1 0x64 ADD JUMPDEST PUSH1 0x40 MLOAD DUP1 SWAP2 SUB SWAP1 REVERT JUMPDEST PUSH4 0xFFFFFFFF DUP2 AND PUSH1 0x0 SWAP1 DUP2 MSTORE PUSH1 0x3 PUSH1 0x20 MSTORE PUSH1 0x40 SWAP1 KECCAK256 PUSH1 0x2 PUSH1 0x3 DUP3 ADD SLOAD PUSH1 0xFF AND PUSH1 0x2 DUP2 GT ISZERO PUSH2 0x4D9 JUMPI PUSH2 0x4D9 PUSH2 0xF49 JUMP JUMPDEST SUB PUSH2 0x526 JUMPI PUSH1 0x40 MLOAD PUSH3 0x461BCD PUSH1 0xE5 SHL DUP2 MSTORE PUSH1 0x20 PUSH1 0x4 DUP3 ADD MSTORE PUSH1 0x19 PUSH1 0x24 DUP3 ADD MSTORE PUSH32 0x5265717565737420416C726561647920636F6D706C6574656400000000000000 PUSH1 0x44 DUP3 ADD MSTORE PUSH1 0x64 ADD PUSH2 0x4A0 JUMP JUMPDEST PUSH1 0x3 DUP2 ADD DUP1 SLOAD PUSH1 0xFF NOT AND PUSH1 0x2 OR SWAP1 SSTORE DUP1 SLOAD PUSH1 0x1 DUP3 ADD SLOAD PUSH1 0x40 DUP1 MLOAD PUSH1 0x1 PUSH1 0x1 PUSH1 0xA0 SHL SUB SWAP1 SWAP4 AND DUP4 MSTORE CALLER PUSH1 0x20 DUP5 ADD MSTORE PUSH4 0xFFFFFFFF DUP6 AND SWAP1 DUP4 ADD MSTORE PUSH1 0x60 DUP3 ADD MSTORE PUSH32 0xB65DB014B723FADD3247432ED31608AF65170037629D00DC6447EDF9701D14FB SWAP1 PUSH1 0x80 ADD PUSH1 0x40 MLOAD DUP1 SWAP2 SUB SWAP1 LOG1 POP POP JUMP JUMPDEST PUSH1 0x1 SLOAD PUSH1 0x2 SLOAD PUSH1 0x1 PUSH1 0x1 PUSH1 0xA0 SHL SUB SWAP2 DUP3 AND SWAP2 PUSH4 0xBA3D69D7 SWAP2 AND DUP6 PUSH2 0x5B7 DUP7 PUSH2 0x983 JUMP JUMPDEST PUSH2 0x5C0 DUP7 PUSH2 0xB9E JUMP JUMPDEST PUSH1 0x40 MLOAD PUSH1 0x20 ADD PUSH2 0x5D1 SWAP3 SWAP2 SWAP1 PUSH2 0x10EE JUMP JUMPDEST PUSH1 0x40 MLOAD PUSH1 0x20 DUP2 DUP4 SUB SUB DUP2 MSTORE SWAP1 PUSH1 0x40 MSTORE PUSH1 0x40 MLOAD DUP5 PUSH4 0xFFFFFFFF AND PUSH1 0xE0 SHL DUP2 MSTORE PUSH1 0x4 ADD PUSH2 0x5FE SWAP4 SWAP3 SWAP2 SWAP1 PUSH2 0x11EB JUMP JUMPDEST PUSH1 0x0 PUSH1 0x40 MLOAD DUP1 DUP4 SUB DUP2 PUSH1 0x0 DUP8 DUP1 EXTCODESIZE ISZERO DUP1 ISZERO PUSH2 0x618 JUMPI PUSH1 0x0 DUP1 REVERT JUMPDEST POP GAS CALL ISZERO DUP1 ISZERO PUSH2 0x62C JUMPI RETURNDATASIZE PUSH1 0x0 DUP1 RETURNDATACOPY RETURNDATASIZE PUSH1 0x0 REVERT JUMPDEST POP POP POP POP POP POP POP JUMP JUMPDEST PUSH1 0x4 SLOAD PUSH1 0x40 DUP1 MLOAD PUSH1 0x80 DUP2 ADD DUP3 MSTORE PUSH1 0x1 PUSH1 0x1 PUSH1 0xA0 SHL SUB DUP7 DUP2 AND DUP3 MSTORE PUSH1 0x20 DUP1 DUP4 ADD DUP8 DUP2 MSTORE DUP4 DUP6 ADD DUP8 DUP2 MSTORE PUSH1 0x0 PUSH1 0x60 DUP7 ADD DUP2 SWAP1 MSTORE PUSH4 0xFFFFFFFF SWAP1 SWAP8 AND DUP1 DUP9 MSTORE PUSH1 0x3 DUP5 MSTORE SWAP6 DUP8 KECCAK256 DUP6 MLOAD DUP2 SLOAD PUSH20 0xFFFFFFFFFFFFFFFFFFFFFFFFFFFFFFFFFFFFFFFF NOT AND SWAP6 AND SWAP5 SWAP1 SWAP5 OR DUP5 SSTORE SWAP1 MLOAD PUSH1 0x1 DUP5 ADD SSTORE MLOAD DUP1 MLOAD PUSH2 0x6B5 SWAP3 PUSH1 0x2 DUP6 ADD SWAP3 ADD SWAP1 PUSH2 0xD14 JUMP JUMPDEST POP PUSH1 0x60 DUP3 ADD MLOAD PUSH1 0x3 DUP3 ADD DUP1 SLOAD PUSH1 0xFF NOT AND PUSH1 0x1 DUP4 PUSH1 0x2 DUP2 GT ISZERO PUSH2 0x6D9 JUMPI PUSH2 0x6D9 PUSH2 0xF49 JUMP JUMPDEST MUL OR SWAP1 SSTORE POP POP PUSH1 0x4 DUP1 SLOAD PUSH1 0x1 SWAP3 POP PUSH1 0x0 SWAP1 PUSH2 0x34D SWAP1 DUP5 SWAP1 PUSH4 0xFFFFFFFF AND PUSH2 0x108C JUMP JUMPDEST PUSH1 0x4 SLOAD PUSH4 0xFFFFFFFF SWAP1 DUP2 AND SWAP1 DUP4 AND GT ISZERO PUSH2 0x757 JUMPI PUSH1 0x40 MLOAD PUSH3 0x461BCD PUSH1 0xE5 SHL DUP2 MSTORE PUSH1 0x20 PUSH1 0x4 DUP3 ADD MSTORE PUSH1 0x16 PUSH1 0x24 DUP3 ADD MSTORE PUSH32 0x55736520612056616C6964207265717565737420494400000000000000000000 PUSH1 0x44 DUP3 ADD MSTORE PUSH1 0x64 ADD PUSH2 0x4A0 JUMP JUMPDEST PUSH4 0xFFFFFFFF DUP3 AND PUSH1 0x0 SWAP1 DUP2 MSTORE PUSH1 0x3 PUSH1 0x20 MSTORE PUSH1 0x40 SWAP1 KECCAK256 PUSH1 0x2 PUSH1 0x3 DUP3 ADD SLOAD PUSH1 0xFF AND PUSH1 0x2 DUP2 GT ISZERO PUSH2 0x787 JUMPI PUSH2 0x787 PUSH2 0xF49 JUMP JUMPDEST SUB PUSH2 0x7D4 JUMPI PUSH1 0x40 MLOAD PUSH3 0x461BCD PUSH1 0xE5 SHL DUP2 MSTORE PUSH1 0x20 PUSH1 0x4 DUP3 ADD MSTORE PUSH1 0x19 PUSH1 0x24 DUP3 ADD MSTORE PUSH32 0x5265717565737420416C726561647920636F6D706C6574656400000000000000 PUSH1 0x44 DUP3 ADD MSTORE PUSH1 0x64 ADD PUSH2 0x4A0 JUMP JUMPDEST DUP1 SLOAD PUSH1 0x1 DUP3 ADD SLOAD PUSH2 0x7F2 SWAP2 DUP5 SWAP2 PUSH1 0x1 PUSH1 0x1 PUSH1 0xA0 SHL SUB SWAP1 SWAP2 AND SWAP1 PUSH2 0x594 JUMP JUMPDEST PUSH1 0x1 PUSH1 0x1 PUSH1 0xA0 SHL SUB DUP3 AND PUSH1 0x0 SWAP1 DUP2 MSTORE PUSH1 0x5 PUSH1 0x20 SWAP1 DUP2 MSTORE PUSH1 0x40 DUP3 KECCAK256 DUP1 SLOAD PUSH1 0x1 DUP2 DUP2 ADD DUP4 SSTORE SWAP2 DUP5 MSTORE SWAP2 SWAP1 SWAP3 KECCAK256 PUSH4 0xFFFFFFFF DUP7 AND SWAP2 ADD SSTORE PUSH1 0x3 DUP3 ADD DUP1 SLOAD PUSH1 0xFF NOT AND DUP3 DUP1 MUL OR SWAP1 SSTORE POP POP POP POP JUMP JUMPDEST PUSH2 0x844 PUSH2 0x8CC JUMP JUMPDEST PUSH1 0x1 PUSH1 0x1 PUSH1 0xA0 SHL SUB DUP2 AND PUSH2 0x8C0 JUMPI PUSH1 0x40 MLOAD PUSH3 0x461BCD PUSH1 0xE5 SHL DUP2 MSTORE PUSH1 0x20 PUSH1 0x4 DUP3 ADD MSTORE PUSH1 0x26 PUSH1 0x24 DUP3 ADD MSTORE PUSH32 0x4F776E61626C653A206E6577206F776E657220697320746865207A65726F2061 PUSH1 0x44 DUP3 ADD MSTORE PUSH32 0x6464726573730000000000000000000000000000000000000000000000000000 PUSH1 0x64 DUP3 ADD MSTORE PUSH1 0x84 ADD PUSH2 0x4A0 JUMP JUMPDEST PUSH2 0x8C9 DUP2 PUSH2 0x926 JUMP JUMPDEST POP JUMP JUMPDEST PUSH1 0x0 SLOAD PUSH1 0x1 PUSH1 0x1 PUSH1 0xA0 SHL SUB AND CALLER EQ PUSH2 0x388 JUMPI PUSH1 0x40 MLOAD PUSH3 0x461BCD PUSH1 0xE5 SHL DUP2 MSTORE PUSH1 0x20 PUSH1 0x4 DUP3 ADD DUP2 SWAP1 MSTORE PUSH1 0x24 DUP3 ADD MSTORE PUSH32 0x4F776E61626C653A2063616C6C6572206973206E6F7420746865206F776E6572 PUSH1 0x44 DUP3 ADD MSTORE PUSH1 0x64 ADD PUSH2 0x4A0 JUMP JUMPDEST PUSH1 0x0 DUP1 SLOAD PUSH1 0x1 PUSH1 0x1 PUSH1 0xA0 SHL SUB DUP4 DUP2 AND PUSH20 0xFFFFFFFFFFFFFFFFFFFFFFFFFFFFFFFFFFFFFFFF NOT DUP4 AND DUP2 OR DUP5 SSTORE PUSH1 0x40 MLOAD SWAP2 SWAP1 SWAP3 AND SWAP3 DUP4 SWAP2 PUSH32 0x8BE0079C531659141344CD1FD0A4F28419497F9722A3DAAFE3B4186F6B6457E0 SWAP2 SWAP1 LOG3 POP POP JUMP JUMPDEST PUSH1 0x40 DUP1 MLOAD DUP1 DUP3 ADD DUP3 MSTORE PUSH1 0x10 DUP2 MSTORE PUSH16 0x181899199A1A9B1B9C1CB0B131B232B3 PUSH1 0x81 SHL PUSH1 0x20 DUP3 ADD MSTORE DUP2 MLOAD PUSH1 0x2A DUP1 DUP3 MSTORE PUSH1 0x60 DUP3 DUP2 ADD SWAP1 SWAP5 MSTORE PUSH1 0x1 PUSH1 0x1 PUSH1 0xA0 SHL SUB DUP6 AND SWAP3 SWAP2 PUSH1 0x0 SWAP2 PUSH1 0x20 DUP3 ADD DUP2 DUP1 CALLDATASIZE DUP4 CALLDATACOPY ADD SWAP1 POP POP SWAP1 POP PUSH1 0x3 PUSH1 0xFC SHL DUP2 PUSH1 0x0 DUP2 MLOAD DUP2 LT PUSH2 0x9EE JUMPI PUSH2 0x9EE PUSH2 0x1220 JUMP JUMPDEST PUSH1 0x20 ADD ADD SWAP1 PUSH1 0x1 PUSH1 0x1 PUSH1 0xF8 SHL SUB NOT AND SWAP1 DUP2 PUSH1 0x0 BYTE SWAP1 MSTORE8 POP PUSH1 0xF PUSH1 0xFB SHL DUP2 PUSH1 0x1 DUP2 MLOAD DUP2 LT PUSH2 0xA1D JUMPI PUSH2 0xA1D PUSH2 0x1220 JUMP JUMPDEST PUSH1 0x20 ADD ADD SWAP1 PUSH1 0x1 PUSH1 0x1 PUSH1 0xF8 SHL SUB NOT AND SWAP1 DUP2 PUSH1 0x0 BYTE SWAP1 MSTORE8 POP PUSH1 0x0 JUMPDEST PUSH1 0x14 DUP2 LT ISZERO PUSH2 0xB95 JUMPI DUP3 PUSH1 0x4 DUP6 PUSH2 0xA4F DUP5 PUSH1 0xC PUSH2 0x1236 JUMP JUMPDEST PUSH1 0x20 DUP2 LT PUSH2 0xA5F JUMPI PUSH2 0xA5F PUSH2 0x1220 JUMP JUMPDEST BYTE PUSH1 0xF8 SHL PUSH1 0x1 PUSH1 0x1 PUSH1 0xF8 SHL SUB NOT AND SWAP1 SHR PUSH1 0xF8 SHR PUSH1 0xFF AND DUP2 MLOAD DUP2 LT PUSH2 0xA85 JUMPI PUSH2 0xA85 PUSH2 0x1220 JUMP JUMPDEST ADD PUSH1 0x20 ADD MLOAD PUSH32 0xFF00000000000000000000000000000000000000000000000000000000000000 AND DUP3 PUSH2 0xAB8 DUP4 PUSH1 0x2 PUSH2 0x124E JUMP JUMPDEST PUSH2 0xAC3 SWAP1 PUSH1 0x2 PUSH2 0x1236 JUMP JUMPDEST DUP2 MLOAD DUP2 LT PUSH2 0xAD3 JUMPI PUSH2 0xAD3 PUSH2 0x1220 JUMP JUMPDEST PUSH1 0x20 ADD ADD SWAP1 PUSH1 0x1 PUSH1 0x1 PUSH1 0xF8 SHL SUB NOT AND SWAP1 DUP2 PUSH1 0x0 BYTE SWAP1 MSTORE8 POP DUP3 DUP5 PUSH2 0xAF7 DUP4 PUSH1 0xC PUSH2 0x1236 JUMP JUMPDEST PUSH1 0x20 DUP2 LT PUSH2 0xB07 JUMPI PUSH2 0xB07 PUSH2 0x1220 JUMP JUMPDEST DUP3 MLOAD SWAP2 SWAP1 BYTE PUSH1 0xF AND SWAP1 DUP2 LT PUSH2 0xB1E JUMPI PUSH2 0xB1E PUSH2 0x1220 JUMP JUMPDEST ADD PUSH1 0x20 ADD MLOAD PUSH32 0xFF00000000000000000000000000000000000000000000000000000000000000 AND DUP3 PUSH2 0xB51 DUP4 PUSH1 0x2 PUSH2 0x124E JUMP JUMPDEST PUSH2 0xB5C SWAP1 PUSH1 0x3 PUSH2 0x1236 JUMP JUMPDEST DUP2 MLOAD DUP2 LT PUSH2 0xB6C JUMPI PUSH2 0xB6C PUSH2 0x1220 JUMP JUMPDEST PUSH1 0x20 ADD ADD SWAP1 PUSH1 0x1 PUSH1 0x1 PUSH1 0xF8 SHL SUB NOT AND SWAP1 DUP2 PUSH1 0x0 BYTE SWAP1 MSTORE8 POP DUP1 PUSH2 0xB8D DUP2 PUSH2 0x126D JUMP JUMPDEST SWAP2 POP POP PUSH2 0xA37 JUMP JUMPDEST POP SWAP5 SWAP4 POP POP POP POP JUMP JUMPDEST PUSH1 0x60 PUSH1 0x0 PUSH2 0xBAB DUP4 PUSH2 0xC31 JUMP JUMPDEST PUSH1 0x1 ADD SWAP1 POP PUSH1 0x0 DUP2 PUSH8 0xFFFFFFFFFFFFFFFF DUP2 GT ISZERO PUSH2 0xBCB JUMPI PUSH2 0xBCB PUSH2 0xDF3 JUMP JUMPDEST PUSH1 0x40 MLOAD SWAP1 DUP1 DUP3 MSTORE DUP1 PUSH1 0x1F ADD PUSH1 0x1F NOT AND PUSH1 0x20 ADD DUP3 ADD PUSH1 0x40 MSTORE DUP1 ISZERO PUSH2 0xBF5 JUMPI PUSH1 0x20 DUP3 ADD DUP2 DUP1 CALLDATASIZE DUP4 CALLDATACOPY ADD SWAP1 POP JUMPDEST POP SWAP1 POP DUP2 DUP2 ADD PUSH1 0x20 ADD JUMPDEST PUSH1 0x0 NOT ADD PUSH16 0x181899199A1A9B1B9C1CB0B131B232B3 PUSH1 0x81 SHL PUSH1 0xA DUP7 MOD BYTE DUP2 MSTORE8 PUSH1 0xA DUP6 DIV SWAP5 POP DUP5 PUSH2 0xBFF JUMPI POP SWAP4 SWAP3 POP POP POP JUMP JUMPDEST PUSH1 0x0 DUP1 PUSH27 0x184F03E93FF9F4DAA797ED6E38ED64BF6A1F010000000000000000 DUP4 LT PUSH2 0xC7A JUMPI PUSH27 0x184F03E93FF9F4DAA797ED6E38ED64BF6A1F010000000000000000 DUP4 DIV SWAP3 POP PUSH1 0x40 ADD JUMPDEST PUSH14 0x4EE2D6D415B85ACEF8100000000 DUP4 LT PUSH2 0xCA6 JUMPI PUSH14 0x4EE2D6D415B85ACEF8100000000 DUP4 DIV SWAP3 POP PUSH1 0x20 ADD JUMPDEST PUSH7 0x2386F26FC10000 DUP4 LT PUSH2 0xCC4 JUMPI PUSH7 0x2386F26FC10000 DUP4 DIV SWAP3 POP PUSH1 0x10 ADD JUMPDEST PUSH4 0x5F5E100 DUP4 LT PUSH2 0xCDC JUMPI PUSH4 0x5F5E100 DUP4 DIV SWAP3 POP PUSH1 0x8 ADD JUMPDEST PUSH2 0x2710 DUP4 LT PUSH2 0xCF0 JUMPI PUSH2 0x2710 DUP4 DIV SWAP3 POP PUSH1 0x4 ADD JUMPDEST PUSH1 0x64 DUP4 LT PUSH2 0xD02 JUMPI PUSH1 0x64 DUP4 DIV SWAP3 POP PUSH1 0x2 ADD JUMPDEST PUSH1 0xA DUP4 LT PUSH2 0xD0E JUMPI PUSH1 0x1 ADD JUMPDEST SWAP3 SWAP2 POP POP JUMP JUMPDEST DUP3 DUP1 SLOAD PUSH2 0xD20 SWAP1 PUSH2 0x10B4 JUMP JUMPDEST SWAP1 PUSH1 0x0 MSTORE PUSH1 0x20 PUSH1 0x0 KECCAK256 SWAP1 PUSH1 0x1F ADD PUSH1 0x20 SWAP1 DIV DUP2 ADD SWAP3 DUP3 PUSH2 0xD42 JUMPI PUSH1 0x0 DUP6 SSTORE PUSH2 0xD88 JUMP JUMPDEST DUP3 PUSH1 0x1F LT PUSH2 0xD5B JUMPI DUP1 MLOAD PUSH1 0xFF NOT AND DUP4 DUP1 ADD OR DUP6 SSTORE PUSH2 0xD88 JUMP JUMPDEST DUP3 DUP1 ADD PUSH1 0x1 ADD DUP6 SSTORE DUP3 ISZERO PUSH2 0xD88 JUMPI SWAP2 DUP3 ADD JUMPDEST DUP3 DUP2 GT ISZERO PUSH2 0xD88 JUMPI DUP3 MLOAD DUP3 SSTORE SWAP2 PUSH1 0x20 ADD SWAP2 SWAP1 PUSH1 0x1 ADD SWAP1 PUSH2 0xD6D JUMP JUMPDEST POP PUSH2 0xD94 SWAP3 SWAP2 POP PUSH2 0xD98 JUMP JUMPDEST POP SWAP1 JUMP JUMPDEST JUMPDEST DUP1 DUP3 GT ISZERO PUSH2 0xD94 JUMPI PUSH1 0x0 DUP2 SSTORE PUSH1 0x1 ADD PUSH2 0xD99 JUMP JUMPDEST DUP1 CALLDATALOAD PUSH1 0x1 PUSH1 0x1 PUSH1 0xA0 SHL SUB DUP2 AND DUP2 EQ PUSH2 0xDC4 JUMPI PUSH1 0x0 DUP1 REVERT JUMPDEST SWAP2 SWAP1 POP JUMP JUMPDEST PUSH1 0x0 DUP1 PUSH1 0x40 DUP4 DUP6 SUB SLT ISZERO PUSH2 0xDDC JUMPI PUSH1 0x0 DUP1 REVERT JUMPDEST PUSH2 0xDE5 DUP4 PUSH2 0xDAD JUMP JUMPDEST SWAP5 PUSH1 0x20 SWAP4 SWAP1 SWAP4 ADD CALLDATALOAD SWAP4 POP POP POP JUMP JUMPDEST PUSH4 0x4E487B71 PUSH1 0xE0 SHL PUSH1 0x0 MSTORE PUSH1 0x41 PUSH1 0x4 MSTORE PUSH1 0x24 PUSH1 0x0 REVERT JUMPDEST PUSH1 0x0 DUP1 PUSH1 0x0 PUSH1 0x60 DUP5 DUP7 SUB SLT ISZERO PUSH2 0xE1E JUMPI PUSH1 0x0 DUP1 REVERT JUMPDEST PUSH2 0xE27 DUP5 PUSH2 0xDAD JUMP JUMPDEST SWAP3 POP PUSH1 0x20 DUP5 ADD CALLDATALOAD SWAP2 POP PUSH1 0x40 DUP5 ADD CALLDATALOAD PUSH8 0xFFFFFFFFFFFFFFFF DUP1 DUP3 GT ISZERO PUSH2 0xE4B JUMPI PUSH1 0x0 DUP1 REVERT JUMPDEST DUP2 DUP7 ADD SWAP2 POP DUP7 PUSH1 0x1F DUP4 ADD SLT PUSH2 0xE5F JUMPI PUSH1 0x0 DUP1 REVERT JUMPDEST DUP2 CALLDATALOAD DUP2 DUP2 GT ISZERO PUSH2 0xE71 JUMPI PUSH2 0xE71 PUSH2 0xDF3 JUMP JUMPDEST PUSH1 0x40 MLOAD PUSH1 0x1F DUP3 ADD PUSH1 0x1F NOT SWAP1 DUP2 AND PUSH1 0x3F ADD AND DUP2 ADD SWAP1 DUP4 DUP3 GT DUP2 DUP4 LT OR ISZERO PUSH2 0xE99 JUMPI PUSH2 0xE99 PUSH2 0xDF3 JUMP JUMPDEST DUP2 PUSH1 0x40 MSTORE DUP3 DUP2 MSTORE DUP10 PUSH1 0x20 DUP5 DUP8 ADD ADD GT ISZERO PUSH2 0xEB2 JUMPI PUSH1 0x0 DUP1 REVERT JUMPDEST DUP3 PUSH1 0x20 DUP7 ADD PUSH1 0x20 DUP4 ADD CALLDATACOPY PUSH1 0x0 PUSH1 0x20 DUP5 DUP4 ADD ADD MSTORE DUP1 SWAP6 POP POP POP POP POP POP SWAP3 POP SWAP3 POP SWAP3 JUMP JUMPDEST PUSH1 0x0 PUSH1 0x20 DUP3 DUP5 SUB SLT ISZERO PUSH2 0xEE6 JUMPI PUSH1 0x0 DUP1 REVERT JUMPDEST POP CALLDATALOAD SWAP2 SWAP1 POP JUMP JUMPDEST PUSH1 0x0 JUMPDEST DUP4 DUP2 LT ISZERO PUSH2 0xF08 JUMPI DUP2 DUP2 ADD MLOAD DUP4 DUP3 ADD MSTORE PUSH1 0x20 ADD PUSH2 0xEF0 JUMP JUMPDEST DUP4 DUP2 GT ISZERO PUSH2 0xF17 JUMPI PUSH1 0x0 DUP5 DUP5 ADD MSTORE JUMPDEST POP POP POP POP JUMP JUMPDEST PUSH1 0x0 DUP2 MLOAD DUP1 DUP5 MSTORE PUSH2 0xF35 DUP2 PUSH1 0x20 DUP7 ADD PUSH1 0x20 DUP7 ADD PUSH2 0xEED JUMP JUMPDEST PUSH1 0x1F ADD PUSH1 0x1F NOT AND SWAP3 SWAP1 SWAP3 ADD PUSH1 0x20 ADD SWAP3 SWAP2 POP POP JUMP JUMPDEST PUSH4 0x4E487B71 PUSH1 0xE0 SHL PUSH1 0x0 MSTORE PUSH1 0x21 PUSH1 0x4 MSTORE PUSH1 0x24 PUSH1 0x0 REVERT JUMPDEST PUSH1 0x1 PUSH1 0x1 PUSH1 0xA0 SHL SUB DUP6 AND DUP2 MSTORE DUP4 PUSH1 0x20 DUP3 ADD MSTORE PUSH1 0x80 PUSH1 0x40 DUP3 ADD MSTORE PUSH1 0x0 PUSH2 0xF87 PUSH1 0x80 DUP4 ADD DUP6 PUSH2 0xF1D JUMP JUMPDEST SWAP1 POP PUSH1 0x3 DUP4 LT PUSH2 0xFA7 JUMPI PUSH4 0x4E487B71 PUSH1 0xE0 SHL PUSH1 0x0 MSTORE PUSH1 0x21 PUSH1 0x4 MSTORE PUSH1 0x24 PUSH1 0x0 REVERT JUMPDEST DUP3 PUSH1 0x60 DUP4 ADD MSTORE SWAP6 SWAP5 POP POP POP POP POP JUMP JUMPDEST DUP1 CALLDATALOAD PUSH4 0xFFFFFFFF DUP2 AND DUP2 EQ PUSH2 0xDC4 JUMPI PUSH1 0x0 DUP1 REVERT JUMPDEST PUSH1 0x0 PUSH1 0x20 DUP3 DUP5 SUB SLT ISZERO PUSH2 0xFDC JUMPI PUSH1 0x0 DUP1 REVERT JUMPDEST PUSH2 0xFE5 DUP3 PUSH2 0xFB6 JUMP JUMPDEST SWAP4 SWAP3 POP POP POP JUMP JUMPDEST PUSH1 0x0 DUP1 PUSH1 0x0 PUSH1 0x60 DUP5 DUP7 SUB SLT ISZERO PUSH2 0x1001 JUMPI PUSH1 0x0 DUP1 REVERT JUMPDEST PUSH2 0x100A DUP5 PUSH2 0xDAD JUMP JUMPDEST SWAP3 POP PUSH2 0x1018 PUSH1 0x20 DUP6 ADD PUSH2 0xDAD JUMP JUMPDEST SWAP2 POP PUSH1 0x40 DUP5 ADD CALLDATALOAD SWAP1 POP SWAP3 POP SWAP3 POP SWAP3 JUMP JUMPDEST PUSH1 0x0 DUP1 PUSH1 0x40 DUP4 DUP6 SUB SLT ISZERO PUSH2 0x103B JUMPI PUSH1 0x0 DUP1 REVERT JUMPDEST PUSH2 0x1044 DUP4 PUSH2 0xFB6 JUMP JUMPDEST SWAP2 POP PUSH2 0x1052 PUSH1 0x20 DUP5 ADD PUSH2 0xDAD JUMP JUMPDEST SWAP1 POP SWAP3 POP SWAP3 SWAP1 POP JUMP JUMPDEST PUSH1 0x0 PUSH1 0x20 DUP3 DUP5 SUB SLT ISZERO PUSH2 0x106D JUMPI PUSH1 0x0 DUP1 REVERT JUMPDEST PUSH2 0xFE5 DUP3 PUSH2 0xDAD JUMP JUMPDEST PUSH4 0x4E487B71 PUSH1 0xE0 SHL PUSH1 0x0 MSTORE PUSH1 0x11 PUSH1 0x4 MSTORE PUSH1 0x24 PUSH1 0x0 REVERT JUMPDEST PUSH1 0x0 PUSH4 0xFFFFFFFF DUP1 DUP4 AND DUP2 DUP6 AND DUP1 DUP4 SUB DUP3 GT ISZERO PUSH2 0x10AB JUMPI PUSH2 0x10AB PUSH2 0x1076 JUMP JUMPDEST ADD SWAP5 SWAP4 POP POP POP POP JUMP JUMPDEST PUSH1 0x1 DUP2 DUP2 SHR SWAP1 DUP3 AND DUP1 PUSH2 0x10C8 JUMPI PUSH1 0x7F DUP3 AND SWAP2 POP JUMPDEST PUSH1 0x20 DUP3 LT DUP2 SUB PUSH2 0x10E8 JUMPI PUSH4 0x4E487B71 PUSH1 0xE0 SHL PUSH1 0x0 MSTORE PUSH1 0x22 PUSH1 0x4 MSTORE PUSH1 0x24 PUSH1 0x0 REVERT JUMPDEST POP SWAP2 SWAP1 POP JUMP JUMPDEST PUSH1 0x3 PUSH1 0xFC SHL DUP2 MSTORE PUSH1 0x0 PUSH1 0x2B PUSH1 0xF8 SHL DUP1 PUSH1 0x1 DUP5 ADD MSTORE PUSH1 0x33 PUSH1 0xF8 SHL PUSH1 0x2 DUP5 ADD MSTORE DUP1 PUSH1 0x3 DUP5 ADD MSTORE PUSH32 0x5061796D656E74205265717565737420416C6572740000000000000000000000 PUSH1 0x4 DUP5 ADD MSTORE DUP1 PUSH1 0x19 DUP5 ADD MSTORE POP DUP4 MLOAD PUSH2 0x1152 DUP2 PUSH1 0x1A DUP6 ADD PUSH1 0x20 DUP9 ADD PUSH2 0xEED JUMP JUMPDEST PUSH32 0x5265717565737465640000000000000000000000000000000000000000000000 PUSH1 0x1A SWAP2 DUP5 ADD SWAP2 DUP3 ADD MSTORE DUP4 MLOAD PUSH2 0x118F DUP2 PUSH1 0x23 DUP5 ADD PUSH1 0x20 DUP9 ADD PUSH2 0xEED JUMP JUMPDEST PUSH32 0x666F726D20796F75000000000000000000000000000000000000000000000000 PUSH1 0x23 SWAP3 SWAP1 SWAP2 ADD SWAP2 DUP3 ADD MSTORE PUSH32 0x20504159204E4F57202121000000000000000000000000000000000000000000 PUSH1 0x2B DUP3 ADD MSTORE PUSH1 0x36 ADD SWAP5 SWAP4 POP POP POP POP JUMP JUMPDEST PUSH1 0x0 PUSH1 0x1 PUSH1 0x1 PUSH1 0xA0 SHL SUB DUP1 DUP7 AND DUP4 MSTORE DUP1 DUP6 AND PUSH1 0x20 DUP5 ADD MSTORE POP PUSH1 0x60 PUSH1 0x40 DUP4 ADD MSTORE PUSH2 0x1217 PUSH1 0x60 DUP4 ADD DUP5 PUSH2 0xF1D JUMP JUMPDEST SWAP6 SWAP5 POP POP POP POP POP JUMP JUMPDEST PUSH4 0x4E487B71 PUSH1 0xE0 SHL PUSH1 0x0 MSTORE PUSH1 0x32 PUSH1 0x4 MSTORE PUSH1 0x24 PUSH1 0x0 REVERT JUMPDEST PUSH1 0x0 DUP3 NOT DUP3 GT ISZERO PUSH2 0x1249 JUMPI PUSH2 0x1249 PUSH2 0x1076 JUMP JUMPDEST POP ADD SWAP1 JUMP JUMPDEST PUSH1 0x0 DUP2 PUSH1 0x0 NOT DIV DUP4 GT DUP3 ISZERO ISZERO AND ISZERO PUSH2 0x1268 JUMPI PUSH2 0x1268 PUSH2 0x1076 JUMP JUMPDEST POP MUL SWAP1 JUMP JUMPDEST PUSH1 0x0 PUSH1 0x1 DUP3 ADD PUSH2 0x127F JUMPI PUSH2 0x127F PUSH2 0x1076 JUMP JUMPDEST POP PUSH1 0x1 ADD SWAP1 JUMP INVALID LOG2 PUSH5 0x6970667358 0x22 SLT KECCAK256 ORIGIN CREATE2 SWAP6 PUSH30 0xFA63BE81951AF82F00A2CD1D833F203AA26622F2C8970E5714BD242A6473 PUSH16 0x6C634300080D00330000000000000000 "
    },
    "gasEstimates": {
      "creation": {
        "codeDepositCost": "959200",
        "executionCost": "75304",
        "totalCost": "1034504"
      },
      "external": {
        "EPNS_COMM_ADDRESS()": "2405",
        "channelAddress()": "2404",
        "createRequest(address,uint256,string)": "infinite",
        "createRequestDirect(address,uint256,string)": "infinite",
        "owner()": "2398",
        "payRequest(uint32)": "35069",
        "renounceOwnership()": "infinite",
        "requests(uint256)": "infinite",
        "requestsForUser(address,uint256)": "4757",
        "sendNotViaPush(address,address,uint256)": "infinite",
        "sendRequest(uint32,address)": "infinite",
        "totalRequests()": "2336",
        "transferOwnership(address)": "28409"
      },
      "internal": {
        "addressToString(address)": "infinite"
      }
    },
    "methodIdentifiers": {
      "EPNS_COMM_ADDRESS()": "48a3b4a4",
      "channelAddress()": "8405549d",
      "createRequest(address,uint256,string)": "ba9a7a9e",
      "createRequestDirect(address,uint256,string)": "3d1b214f",
      "owner()": "8da5cb5b",
      "payRequest(uint32)": "8c21dd2e",
      "renounceOwnership()": "715018a6",
      "requests(uint256)": "81d12c58",
      "requestsForUser(address,uint256)": "167d44ac",
      "sendNotViaPush(address,address,uint256)": "8ec67841",
      "sendRequest(uint32,address)": "bcc8ae4e",
      "totalRequests()": "8aea61dc",
      "transferOwnership(address)": "f2fde38b"
    }
  },
  "storageLayout": {
    "storage": [
      {
        "astId": 1058,
        "contract": "paymentRequests.sol:requestHandler",
        "label": "_owner",
        "offset": 0,
        "slot": "0",
        "type": "t_address"
      },
      {
        "astId": 151,
        "contract": "paymentRequests.sol:requestHandler",
        "label": "EPNS_COMM_ADDRESS",
        "offset": 0,
        "slot": "1",
        "type": "t_address"
      },
      {
        "astId": 154,
        "contract": "paymentRequests.sol:requestHandler",
        "label": "channelAddress",
        "offset": 0,
        "slot": "2",
        "type": "t_address"
      },
      {
        "astId": 187,
        "contract": "paymentRequests.sol:requestHandler",
        "label": "requests",
        "offset": 0,
        "slot": "3",
        "type": "t_mapping(t_uint256,t_struct(PaymentRequest)164_storage)"
      },
      {
        "astId": 189,
        "contract": "paymentRequests.sol:requestHandler",
        "label": "totalRequests",
        "offset": 0,
        "slot": "4",
        "type": "t_uint32"
      },
      {
        "astId": 194,
        "contract": "paymentRequests.sol:requestHandler",
        "label": "requestsForUser",
        "offset": 0,
        "slot": "5",
        "type": "t_mapping(t_address,t_array(t_uint256)dyn_storage)"
      }
    ],
    "types": {
      "t_address": {
        "encoding": "inplace",
        "label": "address",
        "numberOfBytes": "20"
      },
      "t_array(t_uint256)dyn_storage": {
        "base": "t_uint256",
        "encoding": "dynamic_array",
        "label": "uint256[]",
        "numberOfBytes": "32"
      },
      "t_enum(payState)148": {
        "encoding": "inplace",
        "label": "enum requestHandler.payState",
        "numberOfBytes": "1"
      },
      "t_mapping(t_address,t_array(t_uint256)dyn_storage)": {
        "encoding": "mapping",
        "key": "t_address",
        "label": "mapping(address => uint256[])",
        "numberOfBytes": "32",
        "value": "t_array(t_uint256)dyn_storage"
      },
      "t_mapping(t_uint256,t_struct(PaymentRequest)164_storage)": {
        "encoding": "mapping",
        "key": "t_uint256",
        "label": "mapping(uint256 => struct requestHandler.PaymentRequest)",
        "numberOfBytes": "32",
        "value": "t_struct(PaymentRequest)164_storage"
      },
      "t_string_storage": {
        "encoding": "bytes",
        "label": "string",
        "numberOfBytes": "32"
      },
      "t_struct(PaymentRequest)164_storage": {
        "encoding": "inplace",
        "label": "struct requestHandler.PaymentRequest",
        "members": [
          {
            "astId": 156,
            "contract": "paymentRequests.sol:requestHandler",
            "label": "requestCreator",
            "offset": 0,
            "slot": "0",
            "type": "t_address"
          },
          {
            "astId": 158,
            "contract": "paymentRequests.sol:requestHandler",
            "label": "amount",
            "offset": 0,
            "slot": "1",
            "type": "t_uint256"
          },
          {
            "astId": 160,
            "contract": "paymentRequests.sol:requestHandler",
            "label": "detailsURI",
            "offset": 0,
            "slot": "2",
            "type": "t_string_storage"
          },
          {
            "astId": 163,
            "contract": "paymentRequests.sol:requestHandler",
            "label": "_state",
            "offset": 0,
            "slot": "3",
            "type": "t_enum(payState)148"
          }
        ],
        "numberOfBytes": "128"
      },
      "t_uint256": {
        "encoding": "inplace",
        "label": "uint256",
        "numberOfBytes": "32"
      },
      "t_uint32": {
        "encoding": "inplace",
        "label": "uint32",
        "numberOfBytes": "4"
      }
    }
  },
  "userdoc": {
    "kind": "user",
    "methods": {
      "payRequest(uint32)": {
        "notice": "call when we want to complete the request"
      },
      "sendRequest(uint32,address)": {
        "notice": "Send Request if users enters an alias to the receiver -- CASE 2-1 Solved"
      }
    },
    "version": 1
  }
}