{
  "abi": [
    {
      "anonymous": false,
      "inputs": [
        {
          "indexed": true,
          "internalType": "address",
          "name": "previousOwner",
          "type": "address"
        },
        {
          "indexed": true,
          "internalType": "address",
          "name": "newOwner",
          "type": "address"
        }
      ],
      "name": "OwnershipTransferred",
      "type": "event"
    },
    {
      "inputs": [
        {
          "internalType": "address",
          "name": "managerAddress",
          "type": "address"
        },
        {
          "internalType": "string",
          "name": "_token",
          "type": "string"
        }
      ],
      "name": "addAuthToken",
      "outputs": [],
      "stateMutability": "nonpayable",
      "type": "function"
    },
    {
      "inputs": [
        {
          "internalType": "address",
          "name": "SCWAddress",
          "type": "address"
        },
        {
          "internalType": "string",
          "name": "_swiftAlias",
          "type": "string"
        },
        {
          "internalType": "string",
          "name": "merchantName",
          "type": "string"
        },
        {
          "internalType": "string",
          "name": "_qrCode",
          "type": "string"
        },
        {
          "internalType": "string",
          "name": "_token",
          "type": "string"
        }
      ],
      "name": "createUser",
      "outputs": [],
      "stateMutability": "nonpayable",
      "type": "function"
    },
    {
      "inputs": [
        {
          "internalType": "address",
          "name": "user",
          "type": "address"
        }
      ],
      "name": "fetchUser",
      "outputs": [
        {
          "components": [
            {
              "internalType": "address",
              "name": "managerAddress",
              "type": "address"
            },
            {
              "internalType": "address",
              "name": "SCW",
              "type": "address"
            },
            {
              "internalType": "string",
              "name": "swiftId",
              "type": "string"
            },
            {
              "internalType": "string",
              "name": "MerchantName",
              "type": "string"
            },
            {
              "internalType": "string",
              "name": "qrCodeCId",
              "type": "string"
            },
            {
              "internalType": "string",
              "name": "authToken",
              "type": "string"
            }
          ],
          "internalType": "struct SDKManager.Manager",
          "name": "",
          "type": "tuple"
        }
      ],
      "stateMutability": "view",
      "type": "function"
    },
    {
      "inputs": [
        {
          "internalType": "string",
          "name": "_swiftAlias",
          "type": "string"
        }
      ],
      "name": "fetchUserByAlias",
      "outputs": [
        {
          "components": [
            {
              "internalType": "address",
              "name": "managerAddress",
              "type": "address"
            },
            {
              "internalType": "address",
              "name": "SCW",
              "type": "address"
            },
            {
              "internalType": "string",
              "name": "swiftId",
              "type": "string"
            },
            {
              "internalType": "string",
              "name": "MerchantName",
              "type": "string"
            },
            {
              "internalType": "string",
              "name": "qrCodeCId",
              "type": "string"
            },
            {
              "internalType": "string",
              "name": "authToken",
              "type": "string"
            }
          ],
          "internalType": "struct SDKManager.Manager",
          "name": "",
          "type": "tuple"
        }
      ],
      "stateMutability": "view",
      "type": "function"
    },
    {
      "inputs": [
        {
          "internalType": "address",
          "name": "",
          "type": "address"
        }
      ],
      "name": "managers",
      "outputs": [
        {
          "internalType": "address",
          "name": "managerAddress",
          "type": "address"
        },
        {
          "internalType": "address",
          "name": "SCW",
          "type": "address"
        },
        {
          "internalType": "string",
          "name": "swiftId",
          "type": "string"
        },
        {
          "internalType": "string",
          "name": "MerchantName",
          "type": "string"
        },
        {
          "internalType": "string",
          "name": "qrCodeCId",
          "type": "string"
        },
        {
          "internalType": "string",
          "name": "authToken",
          "type": "string"
        }
      ],
      "stateMutability": "view",
      "type": "function"
    },
    {
      "inputs": [],
      "name": "owner",
      "outputs": [
        {
          "internalType": "address",
          "name": "",
          "type": "address"
        }
      ],
      "stateMutability": "view",
      "type": "function"
    },
    {
      "inputs": [],
      "name": "renounceOwnership",
      "outputs": [],
      "stateMutability": "nonpayable",
      "type": "function"
    },
    {
      "inputs": [
        {
          "internalType": "string",
          "name": "",
          "type": "string"
        }
      ],
      "name": "swiftIds",
      "outputs": [
        {
          "internalType": "address",
          "name": "managerAddress",
          "type": "address"
        },
        {
          "internalType": "address",
          "name": "SCW",
          "type": "address"
        },
        {
          "internalType": "string",
          "name": "swiftId",
          "type": "string"
        },
        {
          "internalType": "string",
          "name": "MerchantName",
          "type": "string"
        },
        {
          "internalType": "string",
          "name": "qrCodeCId",
          "type": "string"
        },
        {
          "internalType": "string",
          "name": "authToken",
          "type": "string"
        }
      ],
      "stateMutability": "view",
      "type": "function"
    },
    {
      "inputs": [
        {
          "internalType": "address",
          "name": "newOwner",
          "type": "address"
        }
      ],
      "name": "transferOwnership",
      "outputs": [],
      "stateMutability": "nonpayable",
      "type": "function"
    }
  ],
  "devdoc": {
    "kind": "dev",
    "methods": {
      "owner()": {
        "details": "Returns the address of the current owner."
      },
      "renounceOwnership()": {
        "details": "Leaves the contract without owner. It will not be possible to call `onlyOwner` functions anymore. Can only be called by the current owner. NOTE: Renouncing ownership will leave the contract without an owner, thereby removing any functionality that is only available to the owner."
      },
      "transferOwnership(address)": {
        "details": "Transfers ownership of the contract to a new account (`newOwner`). Can only be called by the current owner."
      }
    },
    "version": 1
  },
  "evm": {
    "assembly": "    /* \"SDKManager.sol\":248:1688  contract SDKManager is Ownable {... */\n  mstore(0x40, 0x80)\n  callvalue\n  dup1\n  iszero\n  tag_1\n  jumpi\n  0x00\n  dup1\n  revert\ntag_1:\n  pop\n    /* \"@openzeppelin/contracts/access/Ownable.sol\":936:968   */\n  tag_4\n    /* \"@openzeppelin/contracts/utils/Context.sol\":719:729   */\n  caller\n    /* \"@openzeppelin/contracts/access/Ownable.sol\":936:954   */\n  tag_7\n    /* \"@openzeppelin/contracts/access/Ownable.sol\":936:968   */\n  jump\t// in\ntag_4:\n    /* \"SDKManager.sol\":248:1688  contract SDKManager is Ownable {... */\n  jump(tag_8)\n    /* \"@openzeppelin/contracts/access/Ownable.sol\":2433:2620   */\ntag_7:\n    /* \"@openzeppelin/contracts/access/Ownable.sol\":2506:2522   */\n  0x00\n    /* \"@openzeppelin/contracts/access/Ownable.sol\":2525:2531   */\n  dup1\n  sload\n  sub(shl(0xa0, 0x01), 0x01)\n    /* \"@openzeppelin/contracts/access/Ownable.sol\":2541:2558   */\n  dup4\n  dup2\n  and\n  not(sub(shl(0xa0, 0x01), 0x01))\n  dup4\n  and\n  dup2\n  or\n  dup5\n  sstore\n    /* \"@openzeppelin/contracts/access/Ownable.sol\":2573:2613   */\n  mload(0x40)\n    /* \"@openzeppelin/contracts/access/Ownable.sol\":2525:2531   */\n  swap2\n  swap1\n  swap3\n  and\n  swap3\n  dup4\n  swap2\n    /* \"@openzeppelin/contracts/access/Ownable.sol\":2573:2613   */\n  0x8be0079c531659141344cd1fd0a4f28419497f9722a3daafe3b4186f6b6457e0\n  swap2\n    /* \"@openzeppelin/contracts/access/Ownable.sol\":2506:2522   */\n  swap1\n    /* \"@openzeppelin/contracts/access/Ownable.sol\":2573:2613   */\n  log3\n    /* \"@openzeppelin/contracts/access/Ownable.sol\":2496:2620   */\n  pop\n    /* \"@openzeppelin/contracts/access/Ownable.sol\":2433:2620   */\n  pop\n  jump\t// out\n    /* \"SDKManager.sol\":248:1688  contract SDKManager is Ownable {... */\ntag_8:\n  dataSize(sub_0)\n  dup1\n  dataOffset(sub_0)\n  0x00\n  codecopy\n  0x00\n  return\nstop\n\nsub_0: assembly {\n        /* \"SDKManager.sol\":248:1688  contract SDKManager is Ownable {... */\n      mstore(0x40, 0x80)\n      callvalue\n      dup1\n      iszero\n      tag_1\n      jumpi\n      0x00\n      dup1\n      revert\n    tag_1:\n      pop\n      jumpi(tag_2, lt(calldatasize, 0x04))\n      shr(0xe0, calldataload(0x00))\n      dup1\n      0x8da5cb5b\n      gt\n      tag_12\n      jumpi\n      dup1\n      0xbf186acc\n      gt\n      tag_13\n      jumpi\n      dup1\n      0xbf186acc\n      eq\n      tag_9\n      jumpi\n      dup1\n      0xf2fde38b\n      eq\n      tag_10\n      jumpi\n      dup1\n      0xfdff9b4d\n      eq\n      tag_11\n      jumpi\n      0x00\n      dup1\n      revert\n    tag_13:\n      dup1\n      0x8da5cb5b\n      eq\n      tag_7\n      jumpi\n      dup1\n      0xbe6f0ea2\n      eq\n      tag_8\n      jumpi\n      0x00\n      dup1\n      revert\n    tag_12:\n      dup1\n      0x43214fcb\n      eq\n      tag_3\n      jumpi\n      dup1\n      0x5498a29d\n      eq\n      tag_4\n      jumpi\n      dup1\n      0x638f6cc8\n      eq\n      tag_5\n      jumpi\n      dup1\n      0x715018a6\n      eq\n      tag_6\n      jumpi\n    tag_2:\n      0x00\n      dup1\n      revert\n        /* \"SDKManager.sol\":659:1217  function createUser(... */\n    tag_3:\n      tag_14\n      tag_15\n      calldatasize\n      0x04\n      tag_16\n      jump\t// in\n    tag_15:\n      tag_17\n      jump\t// in\n    tag_14:\n      stop\n        /* \"SDKManager.sol\":1523:1686  function fetchUserByAlias(string memory _swiftAlias)... */\n    tag_4:\n      tag_18\n      tag_19\n      calldatasize\n      0x04\n      tag_20\n      jump\t// in\n    tag_19:\n      tag_21\n      jump\t// in\n    tag_18:\n      mload(0x40)\n      tag_22\n      swap2\n      swap1\n      tag_23\n      jump\t// in\n    tag_22:\n      mload(0x40)\n      dup1\n      swap2\n      sub\n      swap1\n      return\n        /* \"SDKManager.sol\":557:599  mapping(string => Manager) public swiftIds */\n    tag_5:\n      tag_24\n      tag_25\n      calldatasize\n      0x04\n      tag_20\n      jump\t// in\n    tag_25:\n      tag_26\n      jump\t// in\n    tag_24:\n      mload(0x40)\n      tag_22\n      swap7\n      swap6\n      swap5\n      swap4\n      swap3\n      swap2\n      swap1\n      tag_28\n      jump\t// in\n        /* \"@openzeppelin/contracts/access/Ownable.sol\":1831:1932   */\n    tag_6:\n      tag_14\n      tag_30\n      jump\t// in\n        /* \"@openzeppelin/contracts/access/Ownable.sol\":1201:1286   */\n    tag_7:\n        /* \"@openzeppelin/contracts/access/Ownable.sol\":1247:1254   */\n      0x00\n        /* \"@openzeppelin/contracts/access/Ownable.sol\":1273:1279   */\n      sload\n        /* \"@openzeppelin/contracts/access/Ownable.sol\":1201:1286   */\n      mload(0x40)\n      sub(shl(0xa0, 0x01), 0x01)\n        /* \"@openzeppelin/contracts/access/Ownable.sol\":1273:1279   */\n      swap1\n      swap2\n      and\n        /* \"#utility.yul\":5158:5232   */\n      dup2\n      mstore\n        /* \"#utility.yul\":5146:5148   */\n      0x20\n        /* \"#utility.yul\":5131:5149   */\n      add\n        /* \"@openzeppelin/contracts/access/Ownable.sol\":1201:1286   */\n      tag_22\n        /* \"#utility.yul\":5012:5238   */\n      jump\n        /* \"SDKManager.sol\":1409:1517  function fetchUser(address user) public view returns (Manager memory) {... */\n    tag_8:\n      tag_18\n      tag_36\n      calldatasize\n      0x04\n      tag_37\n      jump\t// in\n    tag_36:\n      tag_38\n      jump\t// in\n        /* \"SDKManager.sol\":1223:1403  function addAuthToken(address managerAddress, string memory _token) public {... */\n    tag_9:\n      tag_14\n      tag_41\n      calldatasize\n      0x04\n      tag_42\n      jump\t// in\n    tag_41:\n      tag_43\n      jump\t// in\n        /* \"@openzeppelin/contracts/access/Ownable.sol\":2081:2279   */\n    tag_10:\n      tag_14\n      tag_45\n      calldatasize\n      0x04\n      tag_37\n      jump\t// in\n    tag_45:\n      tag_46\n      jump\t// in\n        /* \"SDKManager.sol\":471:514  mapping(address => Manager) public managers */\n    tag_11:\n      tag_24\n      tag_48\n      calldatasize\n      0x04\n      tag_37\n      jump\t// in\n    tag_48:\n      tag_49\n      jump\t// in\n        /* \"SDKManager.sol\":659:1217  function createUser(... */\n    tag_17:\n      sub(shl(0xa0, 0x01), 0x01)\n        /* \"SDKManager.sol\":870:894  SCWAddress != address(0) */\n      dup6\n      and\n        /* \"SDKManager.sol\":862:933  require(SCWAddress != address(0), \"Smart Contract Wallet is not Valid\") */\n      tag_52\n      jumpi\n      mload(0x40)\n      shl(0xe5, 0x461bcd)\n      dup2\n      mstore\n        /* \"#utility.yul\":6037:6039   */\n      0x20\n        /* \"SDKManager.sol\":862:933  require(SCWAddress != address(0), \"Smart Contract Wallet is not Valid\") */\n      0x04\n      dup3\n      add\n        /* \"#utility.yul\":6019:6040   */\n      mstore\n        /* \"#utility.yul\":6076:6078   */\n      0x22\n        /* \"#utility.yul\":6056:6074   */\n      0x24\n      dup3\n      add\n        /* \"#utility.yul\":6049:6079   */\n      mstore\n        /* \"#utility.yul\":6115:6149   */\n      0x536d61727420436f6e74726163742057616c6c6574206973206e6f742056616c\n        /* \"#utility.yul\":6095:6113   */\n      0x44\n      dup3\n      add\n        /* \"#utility.yul\":6088:6150   */\n      mstore\n      shl(0xf2, 0x1a59)\n        /* \"#utility.yul\":6166:6184   */\n      0x64\n      dup3\n      add\n        /* \"#utility.yul\":6159:6191   */\n      mstore\n        /* \"#utility.yul\":6208:6227   */\n      0x84\n      add\n        /* \"SDKManager.sol\":862:933  require(SCWAddress != address(0), \"Smart Contract Wallet is not Valid\") */\n    tag_53:\n      mload(0x40)\n      dup1\n      swap2\n      sub\n      swap1\n      revert\n    tag_52:\n        /* \"SDKManager.sol\":969:1126  Manager(... */\n      0x40\n      dup1\n      mload\n      0xc0\n      dup2\n      add\n      dup3\n      mstore\n        /* \"SDKManager.sol\":990:1000  msg.sender */\n      caller\n        /* \"SDKManager.sol\":969:1126  Manager(... */\n      dup1\n      dup3\n      mstore\n      sub(shl(0xa0, 0x01), 0x01)\n      dup9\n      dup2\n      and\n      0x20\n      dup1\n      dup6\n      add\n      swap2\n      dup3\n      mstore\n      dup5\n      dup7\n      add\n      dup11\n      dup2\n      mstore\n      0x60\n      dup7\n      add\n      dup11\n      swap1\n      mstore\n      0x80\n      dup7\n      add\n      dup10\n      swap1\n      mstore\n      0xa0\n      dup7\n      add\n      dup9\n      swap1\n      mstore\n        /* \"SDKManager.sol\":943:966  Manager memory _manager */\n      0x00\n        /* \"SDKManager.sol\":1137:1157  managers[msg.sender] */\n      swap5\n      dup6\n      mstore\n        /* \"SDKManager.sol\":1137:1145  managers */\n      0x01\n        /* \"SDKManager.sol\":1137:1157  managers[msg.sender] */\n      dup1\n      dup4\n      mstore\n      swap7\n      swap1\n      swap5\n      keccak256\n        /* \"SDKManager.sol\":1137:1168  managers[msg.sender] = _manager */\n      dup6\n      mload\n      dup2\n      sload\n      swap1\n      dup6\n      and\n      not(0xffffffffffffffffffffffffffffffffffffffff)\n      swap2\n      dup3\n      and\n      or\n      dup3\n      sstore\n      swap3\n      mload\n      swap7\n      dup2\n      add\n      dup1\n      sload\n      swap8\n      swap1\n      swap5\n      and\n      swap7\n      swap1\n      swap3\n      and\n      swap6\n      swap1\n      swap6\n      or\n      swap1\n      swap2\n      sstore\n      swap1\n      mload\n      dup1\n      mload\n        /* \"SDKManager.sol\":969:1126  Manager(... */\n      swap3\n      swap4\n      dup5\n      swap4\n        /* \"SDKManager.sol\":1137:1168  managers[msg.sender] = _manager */\n      tag_55\n      swap3\n      0x02\n      dup6\n      add\n      swap3\n      add\n      swap1\n      tag_56\n      jump\t// in\n    tag_55:\n      pop\n      0x60\n      dup3\n      add\n      mload\n      dup1\n      mload\n      tag_57\n      swap2\n      0x03\n      dup5\n      add\n      swap2\n      0x20\n      swap1\n      swap2\n      add\n      swap1\n      tag_56\n      jump\t// in\n    tag_57:\n      pop\n      0x80\n      dup3\n      add\n      mload\n      dup1\n      mload\n      tag_58\n      swap2\n      0x04\n      dup5\n      add\n      swap2\n      0x20\n      swap1\n      swap2\n      add\n      swap1\n      tag_56\n      jump\t// in\n    tag_58:\n      pop\n      0xa0\n      dup3\n      add\n      mload\n      dup1\n      mload\n      tag_59\n      swap2\n      0x05\n      dup5\n      add\n      swap2\n      0x20\n      swap1\n      swap2\n      add\n      swap1\n      tag_56\n      jump\t// in\n    tag_59:\n      pop\n      swap1\n      pop\n      pop\n        /* \"SDKManager.sol\":1202:1210  _manager */\n      dup1\n        /* \"SDKManager.sol\":1178:1186  swiftIds */\n      0x02\n        /* \"SDKManager.sol\":1187:1198  _swiftAlias */\n      dup7\n        /* \"SDKManager.sol\":1178:1199  swiftIds[_swiftAlias] */\n      mload(0x40)\n      tag_60\n      swap2\n      swap1\n      tag_61\n      jump\t// in\n    tag_60:\n      swap1\n      dup2\n      mstore\n      0x40\n      dup1\n      mload\n      swap2\n      dup3\n      swap1\n      sub\n      0x20\n      swap1\n      dup2\n      add\n      swap1\n      swap3\n      keccak256\n        /* \"SDKManager.sol\":1178:1210  swiftIds[_swiftAlias] = _manager */\n      dup4\n      mload\n      dup2\n      sload\n      sub(shl(0xa0, 0x01), 0x01)\n      swap2\n      dup3\n      and\n      not(0xffffffffffffffffffffffffffffffffffffffff)\n      swap2\n      dup3\n      and\n      or\n      dup4\n      sstore\n      dup6\n      dup6\n      add\n      mload\n      0x01\n      dup5\n      add\n      dup1\n      sload\n      swap2\n      swap1\n      swap4\n      and\n      swap2\n      and\n      or\n      swap1\n      sstore\n      swap1\n      dup4\n      add\n      mload\n      dup1\n      mload\n        /* \"SDKManager.sol\":1178:1199  swiftIds[_swiftAlias] */\n      swap2\n      swap3\n        /* \"SDKManager.sol\":1178:1210  swiftIds[_swiftAlias] = _manager */\n      tag_62\n      swap3\n      0x02\n      dup6\n      add\n      swap3\n      swap1\n      swap2\n      add\n      swap1\n      tag_56\n      jump\t// in\n    tag_62:\n      pop\n      0x60\n      dup3\n      add\n      mload\n      dup1\n      mload\n      tag_63\n      swap2\n      0x03\n      dup5\n      add\n      swap2\n      0x20\n      swap1\n      swap2\n      add\n      swap1\n      tag_56\n      jump\t// in\n    tag_63:\n      pop\n      0x80\n      dup3\n      add\n      mload\n      dup1\n      mload\n      tag_64\n      swap2\n      0x04\n      dup5\n      add\n      swap2\n      0x20\n      swap1\n      swap2\n      add\n      swap1\n      tag_56\n      jump\t// in\n    tag_64:\n      pop\n      0xa0\n      dup3\n      add\n      mload\n      dup1\n      mload\n      tag_65\n      swap2\n      0x05\n      dup5\n      add\n      swap2\n      0x20\n      swap1\n      swap2\n      add\n      swap1\n      tag_56\n      jump\t// in\n    tag_65:\n      pop\n      pop\n      pop\n      pop\n      pop\n      pop\n      pop\n      pop\n      pop\n        /* \"SDKManager.sol\":659:1217  function createUser(... */\n      jump\t// out\n        /* \"SDKManager.sol\":1523:1686  function fetchUserByAlias(string memory _swiftAlias)... */\n    tag_21:\n        /* \"SDKManager.sol\":1621:1635  Manager memory */\n      tag_66\n      mload(0x40)\n      dup1\n      0xc0\n      add\n      0x40\n      mstore\n      dup1\n      and(sub(shl(0xa0, 0x01), 0x01), 0x00)\n      dup2\n      mstore\n      0x20\n      add\n      and(sub(shl(0xa0, 0x01), 0x01), 0x00)\n      dup2\n      mstore\n      0x20\n      add\n      0x60\n      dup2\n      mstore\n      0x20\n      add\n      0x60\n      dup2\n      mstore\n      0x20\n      add\n      0x60\n      dup2\n      mstore\n      0x20\n      add\n      0x60\n      dup2\n      mstore\n      pop\n      swap1\n      jump\n    tag_66:\n        /* \"SDKManager.sol\":1658:1666  swiftIds */\n      0x02\n        /* \"SDKManager.sol\":1667:1678  _swiftAlias */\n      dup3\n        /* \"SDKManager.sol\":1658:1679  swiftIds[_swiftAlias] */\n      mload(0x40)\n      tag_69\n      swap2\n      swap1\n      tag_61\n      jump\t// in\n    tag_69:\n      swap1\n      dup2\n      mstore\n      0x40\n      dup1\n      mload\n      swap2\n      dup3\n      swap1\n      sub\n      0x20\n      swap1\n      dup2\n      add\n      dup4\n      keccak256\n        /* \"SDKManager.sol\":1651:1679  return swiftIds[_swiftAlias] */\n      0xc0\n      dup5\n      add\n      dup4\n      mstore\n      dup1\n      sload\n      sub(shl(0xa0, 0x01), 0x01)\n      swap1\n      dup2\n      and\n      dup6\n      mstore\n      0x01\n      dup3\n      add\n      sload\n      and\n      swap2\n      dup5\n      add\n      swap2\n      swap1\n      swap2\n      mstore\n      0x02\n      dup2\n      add\n      dup1\n      sload\n        /* \"SDKManager.sol\":1658:1679  swiftIds[_swiftAlias] */\n      swap2\n      swap3\n        /* \"SDKManager.sol\":1651:1679  return swiftIds[_swiftAlias] */\n      dup5\n      add\n      swap2\n      tag_70\n      swap1\n      tag_71\n      jump\t// in\n    tag_70:\n      dup1\n      0x1f\n      add\n      0x20\n      dup1\n      swap2\n      div\n      mul\n      0x20\n      add\n      mload(0x40)\n      swap1\n      dup2\n      add\n      0x40\n      mstore\n      dup1\n      swap3\n      swap2\n      swap1\n      dup2\n      dup2\n      mstore\n      0x20\n      add\n      dup3\n      dup1\n      sload\n      tag_72\n      swap1\n      tag_71\n      jump\t// in\n    tag_72:\n      dup1\n      iszero\n      tag_73\n      jumpi\n      dup1\n      0x1f\n      lt\n      tag_74\n      jumpi\n      0x0100\n      dup1\n      dup4\n      sload\n      div\n      mul\n      dup4\n      mstore\n      swap2\n      0x20\n      add\n      swap2\n      jump(tag_73)\n    tag_74:\n      dup3\n      add\n      swap2\n      swap1\n      0x00\n      mstore\n      keccak256(0x00, 0x20)\n      swap1\n    tag_75:\n      dup2\n      sload\n      dup2\n      mstore\n      swap1\n      0x01\n      add\n      swap1\n      0x20\n      add\n      dup1\n      dup4\n      gt\n      tag_75\n      jumpi\n      dup3\n      swap1\n      sub\n      0x1f\n      and\n      dup3\n      add\n      swap2\n    tag_73:\n      pop\n      pop\n      pop\n      pop\n      pop\n      dup2\n      mstore\n      0x20\n      add\n      0x03\n      dup3\n      add\n      dup1\n      sload\n      tag_76\n      swap1\n      tag_71\n      jump\t// in\n    tag_76:\n      dup1\n      0x1f\n      add\n      0x20\n      dup1\n      swap2\n      div\n      mul\n      0x20\n      add\n      mload(0x40)\n      swap1\n      dup2\n      add\n      0x40\n      mstore\n      dup1\n      swap3\n      swap2\n      swap1\n      dup2\n      dup2\n      mstore\n      0x20\n      add\n      dup3\n      dup1\n      sload\n      tag_77\n      swap1\n      tag_71\n      jump\t// in\n    tag_77:\n      dup1\n      iszero\n      tag_78\n      jumpi\n      dup1\n      0x1f\n      lt\n      tag_79\n      jumpi\n      0x0100\n      dup1\n      dup4\n      sload\n      div\n      mul\n      dup4\n      mstore\n      swap2\n      0x20\n      add\n      swap2\n      jump(tag_78)\n    tag_79:\n      dup3\n      add\n      swap2\n      swap1\n      0x00\n      mstore\n      keccak256(0x00, 0x20)\n      swap1\n    tag_80:\n      dup2\n      sload\n      dup2\n      mstore\n      swap1\n      0x01\n      add\n      swap1\n      0x20\n      add\n      dup1\n      dup4\n      gt\n      tag_80\n      jumpi\n      dup3\n      swap1\n      sub\n      0x1f\n      and\n      dup3\n      add\n      swap2\n    tag_78:\n      pop\n      pop\n      pop\n      pop\n      pop\n      dup2\n      mstore\n      0x20\n      add\n      0x04\n      dup3\n      add\n      dup1\n      sload\n      tag_81\n      swap1\n      tag_71\n      jump\t// in\n    tag_81:\n      dup1\n      0x1f\n      add\n      0x20\n      dup1\n      swap2\n      div\n      mul\n      0x20\n      add\n      mload(0x40)\n      swap1\n      dup2\n      add\n      0x40\n      mstore\n      dup1\n      swap3\n      swap2\n      swap1\n      dup2\n      dup2\n      mstore\n      0x20\n      add\n      dup3\n      dup1\n      sload\n      tag_82\n      swap1\n      tag_71\n      jump\t// in\n    tag_82:\n      dup1\n      iszero\n      tag_83\n      jumpi\n      dup1\n      0x1f\n      lt\n      tag_84\n      jumpi\n      0x0100\n      dup1\n      dup4\n      sload\n      div\n      mul\n      dup4\n      mstore\n      swap2\n      0x20\n      add\n      swap2\n      jump(tag_83)\n    tag_84:\n      dup3\n      add\n      swap2\n      swap1\n      0x00\n      mstore\n      keccak256(0x00, 0x20)\n      swap1\n    tag_85:\n      dup2\n      sload\n      dup2\n      mstore\n      swap1\n      0x01\n      add\n      swap1\n      0x20\n      add\n      dup1\n      dup4\n      gt\n      tag_85\n      jumpi\n      dup3\n      swap1\n      sub\n      0x1f\n      and\n      dup3\n      add\n      swap2\n    tag_83:\n      pop\n      pop\n      pop\n      pop\n      pop\n      dup2\n      mstore\n      0x20\n      add\n      0x05\n      dup3\n      add\n      dup1\n      sload\n      tag_86\n      swap1\n      tag_71\n      jump\t// in\n    tag_86:\n      dup1\n      0x1f\n      add\n      0x20\n      dup1\n      swap2\n      div\n      mul\n      0x20\n      add\n      mload(0x40)\n      swap1\n      dup2\n      add\n      0x40\n      mstore\n      dup1\n      swap3\n      swap2\n      swap1\n      dup2\n      dup2\n      mstore\n      0x20\n      add\n      dup3\n      dup1\n      sload\n      tag_87\n      swap1\n      tag_71\n      jump\t// in\n    tag_87:\n      dup1\n      iszero\n      tag_88\n      jumpi\n      dup1\n      0x1f\n      lt\n      tag_89\n      jumpi\n      0x0100\n      dup1\n      dup4\n      sload\n      div\n      mul\n      dup4\n      mstore\n      swap2\n      0x20\n      add\n      swap2\n      jump(tag_88)\n    tag_89:\n      dup3\n      add\n      swap2\n      swap1\n      0x00\n      mstore\n      keccak256(0x00, 0x20)\n      swap1\n    tag_90:\n      dup2\n      sload\n      dup2\n      mstore\n      swap1\n      0x01\n      add\n      swap1\n      0x20\n      add\n      dup1\n      dup4\n      gt\n      tag_90\n      jumpi\n      dup3\n      swap1\n      sub\n      0x1f\n      and\n      dup3\n      add\n      swap2\n    tag_88:\n      pop\n      pop\n      pop\n      pop\n      pop\n      dup2\n      mstore\n      pop\n      pop\n      swap1\n      pop\n        /* \"SDKManager.sol\":1523:1686  function fetchUserByAlias(string memory _swiftAlias)... */\n      swap2\n      swap1\n      pop\n      jump\t// out\n        /* \"SDKManager.sol\":557:599  mapping(string => Manager) public swiftIds */\n    tag_26:\n      dup1\n      mload\n      0x20\n      dup2\n      dup4\n      add\n      dup2\n      add\n      dup1\n      mload\n      0x02\n      dup1\n      dup4\n      mstore\n      swap4\n      dup4\n      add\n      swap3\n      swap1\n      swap5\n      add\n      swap2\n      swap1\n      swap2\n      keccak256\n      swap3\n      swap1\n      mstore\n      dup2\n      sload\n      0x01\n      dup4\n      add\n      sload\n      swap2\n      dup4\n      add\n      dup1\n      sload\n      sub(shl(0xa0, 0x01), 0x01)\n      swap3\n      dup4\n      and\n      swap5\n      swap3\n      swap1\n      swap4\n      and\n      swap3\n      tag_91\n      swap1\n      tag_71\n      jump\t// in\n    tag_91:\n      dup1\n      0x1f\n      add\n      0x20\n      dup1\n      swap2\n      div\n      mul\n      0x20\n      add\n      mload(0x40)\n      swap1\n      dup2\n      add\n      0x40\n      mstore\n      dup1\n      swap3\n      swap2\n      swap1\n      dup2\n      dup2\n      mstore\n      0x20\n      add\n      dup3\n      dup1\n      sload\n      tag_92\n      swap1\n      tag_71\n      jump\t// in\n    tag_92:\n      dup1\n      iszero\n      tag_93\n      jumpi\n      dup1\n      0x1f\n      lt\n      tag_94\n      jumpi\n      0x0100\n      dup1\n      dup4\n      sload\n      div\n      mul\n      dup4\n      mstore\n      swap2\n      0x20\n      add\n      swap2\n      jump(tag_93)\n    tag_94:\n      dup3\n      add\n      swap2\n      swap1\n      0x00\n      mstore\n      keccak256(0x00, 0x20)\n      swap1\n    tag_95:\n      dup2\n      sload\n      dup2\n      mstore\n      swap1\n      0x01\n      add\n      swap1\n      0x20\n      add\n      dup1\n      dup4\n      gt\n      tag_95\n      jumpi\n      dup3\n      swap1\n      sub\n      0x1f\n      and\n      dup3\n      add\n      swap2\n    tag_93:\n      pop\n      pop\n      pop\n      pop\n      pop\n      swap1\n      dup1\n      0x03\n      add\n      dup1\n      sload\n      tag_96\n      swap1\n      tag_71\n      jump\t// in\n    tag_96:\n      dup1\n      0x1f\n      add\n      0x20\n      dup1\n      swap2\n      div\n      mul\n      0x20\n      add\n      mload(0x40)\n      swap1\n      dup2\n      add\n      0x40\n      mstore\n      dup1\n      swap3\n      swap2\n      swap1\n      dup2\n      dup2\n      mstore\n      0x20\n      add\n      dup3\n      dup1\n      sload\n      tag_97\n      swap1\n      tag_71\n      jump\t// in\n    tag_97:\n      dup1\n      iszero\n      tag_98\n      jumpi\n      dup1\n      0x1f\n      lt\n      tag_99\n      jumpi\n      0x0100\n      dup1\n      dup4\n      sload\n      div\n      mul\n      dup4\n      mstore\n      swap2\n      0x20\n      add\n      swap2\n      jump(tag_98)\n    tag_99:\n      dup3\n      add\n      swap2\n      swap1\n      0x00\n      mstore\n      keccak256(0x00, 0x20)\n      swap1\n    tag_100:\n      dup2\n      sload\n      dup2\n      mstore\n      swap1\n      0x01\n      add\n      swap1\n      0x20\n      add\n      dup1\n      dup4\n      gt\n      tag_100\n      jumpi\n      dup3\n      swap1\n      sub\n      0x1f\n      and\n      dup3\n      add\n      swap2\n    tag_98:\n      pop\n      pop\n      pop\n      pop\n      pop\n      swap1\n      dup1\n      0x04\n      add\n      dup1\n      sload\n      tag_101\n      swap1\n      tag_71\n      jump\t// in\n    tag_101:\n      dup1\n      0x1f\n      add\n      0x20\n      dup1\n      swap2\n      div\n      mul\n      0x20\n      add\n      mload(0x40)\n      swap1\n      dup2\n      add\n      0x40\n      mstore\n      dup1\n      swap3\n      swap2\n      swap1\n      dup2\n      dup2\n      mstore\n      0x20\n      add\n      dup3\n      dup1\n      sload\n      tag_102\n      swap1\n      tag_71\n      jump\t// in\n    tag_102:\n      dup1\n      iszero\n      tag_103\n      jumpi\n      dup1\n      0x1f\n      lt\n      tag_104\n      jumpi\n      0x0100\n      dup1\n      dup4\n      sload\n      div\n      mul\n      dup4\n      mstore\n      swap2\n      0x20\n      add\n      swap2\n      jump(tag_103)\n    tag_104:\n      dup3\n      add\n      swap2\n      swap1\n      0x00\n      mstore\n      keccak256(0x00, 0x20)\n      swap1\n    tag_105:\n      dup2\n      sload\n      dup2\n      mstore\n      swap1\n      0x01\n      add\n      swap1\n      0x20\n      add\n      dup1\n      dup4\n      gt\n      tag_105\n      jumpi\n      dup3\n      swap1\n      sub\n      0x1f\n      and\n      dup3\n      add\n      swap2\n    tag_103:\n      pop\n      pop\n      pop\n      pop\n      pop\n      swap1\n      dup1\n      0x05\n      add\n      dup1\n      sload\n      tag_106\n      swap1\n      tag_71\n      jump\t// in\n    tag_106:\n      dup1\n      0x1f\n      add\n      0x20\n      dup1\n      swap2\n      div\n      mul\n      0x20\n      add\n      mload(0x40)\n      swap1\n      dup2\n      add\n      0x40\n      mstore\n      dup1\n      swap3\n      swap2\n      swap1\n      dup2\n      dup2\n      mstore\n      0x20\n      add\n      dup3\n      dup1\n      sload\n      tag_107\n      swap1\n      tag_71\n      jump\t// in\n    tag_107:\n      dup1\n      iszero\n      tag_108\n      jumpi\n      dup1\n      0x1f\n      lt\n      tag_109\n      jumpi\n      0x0100\n      dup1\n      dup4\n      sload\n      div\n      mul\n      dup4\n      mstore\n      swap2\n      0x20\n      add\n      swap2\n      jump(tag_108)\n    tag_109:\n      dup3\n      add\n      swap2\n      swap1\n      0x00\n      mstore\n      keccak256(0x00, 0x20)\n      swap1\n    tag_110:\n      dup2\n      sload\n      dup2\n      mstore\n      swap1\n      0x01\n      add\n      swap1\n      0x20\n      add\n      dup1\n      dup4\n      gt\n      tag_110\n      jumpi\n      dup3\n      swap1\n      sub\n      0x1f\n      and\n      dup3\n      add\n      swap2\n    tag_108:\n      pop\n      pop\n      pop\n      pop\n      pop\n      swap1\n      pop\n      dup7\n      jump\t// out\n        /* \"@openzeppelin/contracts/access/Ownable.sol\":1831:1932   */\n    tag_30:\n        /* \"@openzeppelin/contracts/access/Ownable.sol\":1094:1107   */\n      tag_112\n        /* \"@openzeppelin/contracts/access/Ownable.sol\":1094:1105   */\n      tag_113\n        /* \"@openzeppelin/contracts/access/Ownable.sol\":1094:1107   */\n      jump\t// in\n    tag_112:\n        /* \"@openzeppelin/contracts/access/Ownable.sol\":1895:1925   */\n      tag_115\n        /* \"@openzeppelin/contracts/access/Ownable.sol\":1922:1923   */\n      0x00\n        /* \"@openzeppelin/contracts/access/Ownable.sol\":1895:1913   */\n      tag_116\n        /* \"@openzeppelin/contracts/access/Ownable.sol\":1895:1925   */\n      jump\t// in\n    tag_115:\n        /* \"@openzeppelin/contracts/access/Ownable.sol\":1831:1932   */\n      jump\t// out\n        /* \"SDKManager.sol\":1409:1517  function fetchUser(address user) public view returns (Manager memory) {... */\n    tag_38:\n        /* \"SDKManager.sol\":1463:1477  Manager memory */\n      tag_118\n      mload(0x40)\n      dup1\n      0xc0\n      add\n      0x40\n      mstore\n      dup1\n      and(sub(shl(0xa0, 0x01), 0x01), 0x00)\n      dup2\n      mstore\n      0x20\n      add\n      and(sub(shl(0xa0, 0x01), 0x01), 0x00)\n      dup2\n      mstore\n      0x20\n      add\n      0x60\n      dup2\n      mstore\n      0x20\n      add\n      0x60\n      dup2\n      mstore\n      0x20\n      add\n      0x60\n      dup2\n      mstore\n      0x20\n      add\n      0x60\n      dup2\n      mstore\n      pop\n      swap1\n      jump\n    tag_118:\n      sub(shl(0xa0, 0x01), 0x01)\n        /* \"SDKManager.sol\":1496:1510  managers[user] */\n      dup1\n      dup4\n      and\n      0x00\n      swap1\n      dup2\n      mstore\n        /* \"SDKManager.sol\":1496:1504  managers */\n      0x01\n        /* \"SDKManager.sol\":1496:1510  managers[user] */\n      0x20\n      dup2\n      dup2\n      mstore\n      0x40\n      swap3\n      dup4\n      swap1\n      keccak256\n        /* \"SDKManager.sol\":1489:1510  return managers[user] */\n      dup4\n      mload\n      0xc0\n      dup2\n      add\n      dup6\n      mstore\n      dup2\n      sload\n      dup7\n      and\n      dup2\n      mstore\n      swap3\n      dup2\n      add\n      sload\n      swap1\n      swap5\n      and\n      swap1\n      dup3\n      add\n      mstore\n      0x02\n      dup4\n      add\n      dup1\n      sload\n      swap2\n      swap4\n        /* \"SDKManager.sol\":1496:1510  managers[user] */\n      swap3\n        /* \"SDKManager.sol\":1489:1510  return managers[user] */\n      dup5\n      add\n      swap2\n      tag_70\n      swap1\n      tag_71\n      jump\t// in\n        /* \"SDKManager.sol\":1223:1403  function addAuthToken(address managerAddress, string memory _token) public {... */\n    tag_43:\n      sub(shl(0xa0, 0x01), 0x01)\n        /* \"SDKManager.sol\":1335:1359  managers[managerAddress] */\n      dup3\n      and\n        /* \"SDKManager.sol\":1308:1332  Manager storage _manager */\n      0x00\n        /* \"SDKManager.sol\":1335:1359  managers[managerAddress] */\n      swap1\n      dup2\n      mstore\n        /* \"SDKManager.sol\":1335:1343  managers */\n      0x01\n        /* \"SDKManager.sol\":1335:1359  managers[managerAddress] */\n      0x20\n      swap1\n      dup2\n      mstore\n      0x40\n      swap1\n      swap2\n      keccak256\n        /* \"SDKManager.sol\":1369:1396  _manager.authToken = _token */\n      dup3\n      mload\n        /* \"SDKManager.sol\":1335:1359  managers[managerAddress] */\n      swap1\n      swap2\n        /* \"SDKManager.sol\":1369:1396  _manager.authToken = _token */\n      tag_141\n      swap2\n        /* \"SDKManager.sol\":1369:1387  _manager.authToken */\n      0x05\n      dup5\n      add\n      swap2\n        /* \"SDKManager.sol\":1369:1396  _manager.authToken = _token */\n      dup6\n      add\n      swap1\n      tag_56\n      jump\t// in\n    tag_141:\n      pop\n        /* \"SDKManager.sol\":1298:1403  {... */\n      pop\n        /* \"SDKManager.sol\":1223:1403  function addAuthToken(address managerAddress, string memory _token) public {... */\n      pop\n      pop\n      jump\t// out\n        /* \"@openzeppelin/contracts/access/Ownable.sol\":2081:2279   */\n    tag_46:\n        /* \"@openzeppelin/contracts/access/Ownable.sol\":1094:1107   */\n      tag_143\n        /* \"@openzeppelin/contracts/access/Ownable.sol\":1094:1105   */\n      tag_113\n        /* \"@openzeppelin/contracts/access/Ownable.sol\":1094:1107   */\n      jump\t// in\n    tag_143:\n      sub(shl(0xa0, 0x01), 0x01)\n        /* \"@openzeppelin/contracts/access/Ownable.sol\":2169:2191   */\n      dup2\n      and\n        /* \"@openzeppelin/contracts/access/Ownable.sol\":2161:2234   */\n      tag_145\n      jumpi\n      mload(0x40)\n      shl(0xe5, 0x461bcd)\n      dup2\n      mstore\n        /* \"#utility.yul\":7106:7108   */\n      0x20\n        /* \"@openzeppelin/contracts/access/Ownable.sol\":2161:2234   */\n      0x04\n      dup3\n      add\n        /* \"#utility.yul\":7088:7109   */\n      mstore\n        /* \"#utility.yul\":7145:7147   */\n      0x26\n        /* \"#utility.yul\":7125:7143   */\n      0x24\n      dup3\n      add\n        /* \"#utility.yul\":7118:7148   */\n      mstore\n        /* \"#utility.yul\":7184:7218   */\n      0x4f776e61626c653a206e6577206f776e657220697320746865207a65726f2061\n        /* \"#utility.yul\":7164:7182   */\n      0x44\n      dup3\n      add\n        /* \"#utility.yul\":7157:7219   */\n      mstore\n        /* \"#utility.yul\":7255:7263   */\n      0x6464726573730000000000000000000000000000000000000000000000000000\n        /* \"#utility.yul\":7235:7253   */\n      0x64\n      dup3\n      add\n        /* \"#utility.yul\":7228:7264   */\n      mstore\n        /* \"#utility.yul\":7281:7300   */\n      0x84\n      add\n        /* \"@openzeppelin/contracts/access/Ownable.sol\":2161:2234   */\n      tag_53\n        /* \"#utility.yul\":6904:7306   */\n      jump\n        /* \"@openzeppelin/contracts/access/Ownable.sol\":2161:2234   */\n    tag_145:\n        /* \"@openzeppelin/contracts/access/Ownable.sol\":2244:2272   */\n      tag_148\n        /* \"@openzeppelin/contracts/access/Ownable.sol\":2263:2271   */\n      dup2\n        /* \"@openzeppelin/contracts/access/Ownable.sol\":2244:2262   */\n      tag_116\n        /* \"@openzeppelin/contracts/access/Ownable.sol\":2244:2272   */\n      jump\t// in\n    tag_148:\n        /* \"@openzeppelin/contracts/access/Ownable.sol\":2081:2279   */\n      pop\n      jump\t// out\n        /* \"SDKManager.sol\":471:514  mapping(address => Manager) public managers */\n    tag_49:\n      0x01\n      0x20\n      dup2\n      swap1\n      mstore\n      0x00\n      swap2\n      dup3\n      mstore\n      0x40\n      swap1\n      swap2\n      keccak256\n      dup1\n      sload\n      swap2\n      dup2\n      add\n      sload\n      0x02\n      dup3\n      add\n      dup1\n      sload\n      sub(shl(0xa0, 0x01), 0x01)\n      swap5\n      dup6\n      and\n      swap5\n      swap1\n      swap3\n      and\n      swap3\n      swap2\n      tag_91\n      swap1\n      tag_71\n      jump\t// in\n        /* \"@openzeppelin/contracts/access/Ownable.sol\":1359:1489   */\n    tag_113:\n        /* \"@openzeppelin/contracts/access/Ownable.sol\":1247:1254   */\n      0x00\n        /* \"@openzeppelin/contracts/access/Ownable.sol\":1273:1279   */\n      sload\n      sub(shl(0xa0, 0x01), 0x01)\n      and\n        /* \"@openzeppelin/contracts/utils/Context.sol\":719:729   */\n      caller\n        /* \"@openzeppelin/contracts/access/Ownable.sol\":1422:1445   */\n      eq\n        /* \"@openzeppelin/contracts/access/Ownable.sol\":1414:1482   */\n      tag_115\n      jumpi\n      mload(0x40)\n      shl(0xe5, 0x461bcd)\n      dup2\n      mstore\n        /* \"#utility.yul\":7513:7515   */\n      0x20\n        /* \"@openzeppelin/contracts/access/Ownable.sol\":1414:1482   */\n      0x04\n      dup3\n      add\n        /* \"#utility.yul\":7495:7516   */\n      dup2\n      swap1\n      mstore\n        /* \"#utility.yul\":7532:7550   */\n      0x24\n      dup3\n      add\n        /* \"#utility.yul\":7525:7555   */\n      mstore\n        /* \"#utility.yul\":7591:7625   */\n      0x4f776e61626c653a2063616c6c6572206973206e6f7420746865206f776e6572\n        /* \"#utility.yul\":7571:7589   */\n      0x44\n      dup3\n      add\n        /* \"#utility.yul\":7564:7626   */\n      mstore\n        /* \"#utility.yul\":7643:7661   */\n      0x64\n      add\n        /* \"@openzeppelin/contracts/access/Ownable.sol\":1414:1482   */\n      tag_53\n        /* \"#utility.yul\":7311:7667   */\n      jump\n        /* \"@openzeppelin/contracts/access/Ownable.sol\":2433:2620   */\n    tag_116:\n        /* \"@openzeppelin/contracts/access/Ownable.sol\":2506:2522   */\n      0x00\n        /* \"@openzeppelin/contracts/access/Ownable.sol\":2525:2531   */\n      dup1\n      sload\n      sub(shl(0xa0, 0x01), 0x01)\n        /* \"@openzeppelin/contracts/access/Ownable.sol\":2541:2558   */\n      dup4\n      dup2\n      and\n      not(0xffffffffffffffffffffffffffffffffffffffff)\n      dup4\n      and\n      dup2\n      or\n      dup5\n      sstore\n        /* \"@openzeppelin/contracts/access/Ownable.sol\":2573:2613   */\n      mload(0x40)\n        /* \"@openzeppelin/contracts/access/Ownable.sol\":2525:2531   */\n      swap2\n      swap1\n      swap3\n      and\n      swap3\n      dup4\n      swap2\n        /* \"@openzeppelin/contracts/access/Ownable.sol\":2573:2613   */\n      0x8be0079c531659141344cd1fd0a4f28419497f9722a3daafe3b4186f6b6457e0\n      swap2\n        /* \"@openzeppelin/contracts/access/Ownable.sol\":2506:2522   */\n      swap1\n        /* \"@openzeppelin/contracts/access/Ownable.sol\":2573:2613   */\n      log3\n        /* \"@openzeppelin/contracts/access/Ownable.sol\":2496:2620   */\n      pop\n        /* \"@openzeppelin/contracts/access/Ownable.sol\":2433:2620   */\n      pop\n      jump\t// out\n    tag_56:\n      dup3\n      dup1\n      sload\n      tag_178\n      swap1\n      tag_71\n      jump\t// in\n    tag_178:\n      swap1\n      0x00\n      mstore\n      keccak256(0x00, 0x20)\n      swap1\n      0x1f\n      add\n      0x20\n      swap1\n      div\n      dup2\n      add\n      swap3\n      dup3\n      tag_180\n      jumpi\n      0x00\n      dup6\n      sstore\n      jump(tag_183)\n    tag_180:\n      dup3\n      0x1f\n      lt\n      tag_181\n      jumpi\n      dup1\n      mload\n      not(0xff)\n      and\n      dup4\n      dup1\n      add\n      or\n      dup6\n      sstore\n      jump(tag_183)\n    tag_181:\n      dup3\n      dup1\n      add\n      0x01\n      add\n      dup6\n      sstore\n      dup3\n      iszero\n      tag_183\n      jumpi\n      swap2\n      dup3\n      add\n    tag_182:\n      dup3\n      dup2\n      gt\n      iszero\n      tag_183\n      jumpi\n      dup3\n      mload\n      dup3\n      sstore\n      swap2\n      0x20\n      add\n      swap2\n      swap1\n      0x01\n      add\n      swap1\n      jump(tag_182)\n    tag_183:\n      pop\n      tag_184\n      swap3\n      swap2\n      pop\n      tag_185\n      jump\t// in\n    tag_184:\n      pop\n      swap1\n      jump\t// out\n    tag_185:\n    tag_186:\n      dup1\n      dup3\n      gt\n      iszero\n      tag_184\n      jumpi\n      0x00\n      dup2\n      sstore\n      0x01\n      add\n      jump(tag_186)\n        /* \"#utility.yul\":14:210   */\n    tag_188:\n        /* \"#utility.yul\":82:102   */\n      dup1\n      calldataload\n      sub(shl(0xa0, 0x01), 0x01)\n        /* \"#utility.yul\":131:185   */\n      dup2\n      and\n        /* \"#utility.yul\":121:186   */\n      dup2\n      eq\n        /* \"#utility.yul\":111:204   */\n      tag_195\n      jumpi\n        /* \"#utility.yul\":200:201   */\n      0x00\n        /* \"#utility.yul\":197:198   */\n      dup1\n        /* \"#utility.yul\":190:202   */\n      revert\n        /* \"#utility.yul\":111:204   */\n    tag_195:\n        /* \"#utility.yul\":14:210   */\n      swap2\n      swap1\n      pop\n      jump\t// out\n        /* \"#utility.yul\":215:342   */\n    tag_189:\n        /* \"#utility.yul\":276:286   */\n      0x4e487b71\n        /* \"#utility.yul\":271:274   */\n      0xe0\n        /* \"#utility.yul\":267:287   */\n      shl\n        /* \"#utility.yul\":264:265   */\n      0x00\n        /* \"#utility.yul\":257:288   */\n      mstore\n        /* \"#utility.yul\":307:311   */\n      0x41\n        /* \"#utility.yul\":304:305   */\n      0x04\n        /* \"#utility.yul\":297:312   */\n      mstore\n        /* \"#utility.yul\":331:335   */\n      0x24\n        /* \"#utility.yul\":328:329   */\n      0x00\n        /* \"#utility.yul\":321:336   */\n      revert\n        /* \"#utility.yul\":347:1066   */\n    tag_190:\n        /* \"#utility.yul\":390:395   */\n      0x00\n        /* \"#utility.yul\":443:446   */\n      dup3\n        /* \"#utility.yul\":436:440   */\n      0x1f\n        /* \"#utility.yul\":428:434   */\n      dup4\n        /* \"#utility.yul\":424:441   */\n      add\n        /* \"#utility.yul\":420:447   */\n      slt\n        /* \"#utility.yul\":410:465   */\n      tag_198\n      jumpi\n        /* \"#utility.yul\":461:462   */\n      0x00\n        /* \"#utility.yul\":458:459   */\n      dup1\n        /* \"#utility.yul\":451:463   */\n      revert\n        /* \"#utility.yul\":410:465   */\n    tag_198:\n        /* \"#utility.yul\":497:503   */\n      dup2\n        /* \"#utility.yul\":484:504   */\n      calldataload\n        /* \"#utility.yul\":523:541   */\n      0xffffffffffffffff\n        /* \"#utility.yul\":560:562   */\n      dup1\n        /* \"#utility.yul\":556:558   */\n      dup3\n        /* \"#utility.yul\":553:563   */\n      gt\n        /* \"#utility.yul\":550:586   */\n      iszero\n      tag_200\n      jumpi\n        /* \"#utility.yul\":566:584   */\n      tag_200\n      tag_189\n      jump\t// in\n    tag_200:\n        /* \"#utility.yul\":641:643   */\n      0x40\n        /* \"#utility.yul\":635:644   */\n      mload\n        /* \"#utility.yul\":609:611   */\n      0x1f\n        /* \"#utility.yul\":695:708   */\n      dup4\n      add\n      not(0x1f)\n        /* \"#utility.yul\":691:713   */\n      swap1\n      dup2\n      and\n        /* \"#utility.yul\":715:717   */\n      0x3f\n        /* \"#utility.yul\":687:718   */\n      add\n        /* \"#utility.yul\":683:723   */\n      and\n        /* \"#utility.yul\":671:724   */\n      dup2\n      add\n      swap1\n        /* \"#utility.yul\":739:757   */\n      dup3\n      dup3\n      gt\n        /* \"#utility.yul\":759:781   */\n      dup2\n      dup4\n      lt\n        /* \"#utility.yul\":736:782   */\n      or\n        /* \"#utility.yul\":733:805   */\n      iszero\n      tag_202\n      jumpi\n        /* \"#utility.yul\":785:803   */\n      tag_202\n      tag_189\n      jump\t// in\n    tag_202:\n        /* \"#utility.yul\":825:835   */\n      dup2\n        /* \"#utility.yul\":821:823   */\n      0x40\n        /* \"#utility.yul\":814:836   */\n      mstore\n        /* \"#utility.yul\":860:862   */\n      dup4\n        /* \"#utility.yul\":852:858   */\n      dup2\n        /* \"#utility.yul\":845:863   */\n      mstore\n        /* \"#utility.yul\":906:909   */\n      dup7\n        /* \"#utility.yul\":899:903   */\n      0x20\n        /* \"#utility.yul\":894:896   */\n      dup6\n        /* \"#utility.yul\":886:892   */\n      dup9\n        /* \"#utility.yul\":882:897   */\n      add\n        /* \"#utility.yul\":878:904   */\n      add\n        /* \"#utility.yul\":875:910   */\n      gt\n        /* \"#utility.yul\":872:927   */\n      iszero\n      tag_203\n      jumpi\n        /* \"#utility.yul\":923:924   */\n      0x00\n        /* \"#utility.yul\":920:921   */\n      dup1\n        /* \"#utility.yul\":913:925   */\n      revert\n        /* \"#utility.yul\":872:927   */\n    tag_203:\n        /* \"#utility.yul\":987:989   */\n      dup4\n        /* \"#utility.yul\":980:984   */\n      0x20\n        /* \"#utility.yul\":972:978   */\n      dup8\n        /* \"#utility.yul\":968:985   */\n      add\n        /* \"#utility.yul\":961:965   */\n      0x20\n        /* \"#utility.yul\":953:959   */\n      dup4\n        /* \"#utility.yul\":949:966   */\n      add\n        /* \"#utility.yul\":936:990   */\n      calldatacopy\n        /* \"#utility.yul\":1034:1035   */\n      0x00\n        /* \"#utility.yul\":1027:1031   */\n      0x20\n        /* \"#utility.yul\":1022:1024   */\n      dup6\n        /* \"#utility.yul\":1014:1020   */\n      dup4\n        /* \"#utility.yul\":1010:1025   */\n      add\n        /* \"#utility.yul\":1006:1032   */\n      add\n        /* \"#utility.yul\":999:1036   */\n      mstore\n        /* \"#utility.yul\":1054:1060   */\n      dup1\n        /* \"#utility.yul\":1045:1060   */\n      swap5\n      pop\n      pop\n      pop\n      pop\n      pop\n        /* \"#utility.yul\":347:1066   */\n      swap3\n      swap2\n      pop\n      pop\n      jump\t// out\n        /* \"#utility.yul\":1071:2090   */\n    tag_16:\n        /* \"#utility.yul\":1206:1212   */\n      0x00\n        /* \"#utility.yul\":1214:1220   */\n      dup1\n        /* \"#utility.yul\":1222:1228   */\n      0x00\n        /* \"#utility.yul\":1230:1236   */\n      dup1\n        /* \"#utility.yul\":1238:1244   */\n      0x00\n        /* \"#utility.yul\":1291:1294   */\n      0xa0\n        /* \"#utility.yul\":1279:1288   */\n      dup7\n        /* \"#utility.yul\":1270:1277   */\n      dup9\n        /* \"#utility.yul\":1266:1289   */\n      sub\n        /* \"#utility.yul\":1262:1295   */\n      slt\n        /* \"#utility.yul\":1259:1312   */\n      iszero\n      tag_205\n      jumpi\n        /* \"#utility.yul\":1308:1309   */\n      0x00\n        /* \"#utility.yul\":1305:1306   */\n      dup1\n        /* \"#utility.yul\":1298:1310   */\n      revert\n        /* \"#utility.yul\":1259:1312   */\n    tag_205:\n        /* \"#utility.yul\":1331:1360   */\n      tag_206\n        /* \"#utility.yul\":1350:1359   */\n      dup7\n        /* \"#utility.yul\":1331:1360   */\n      tag_188\n      jump\t// in\n    tag_206:\n        /* \"#utility.yul\":1321:1360   */\n      swap5\n      pop\n        /* \"#utility.yul\":1411:1413   */\n      0x20\n        /* \"#utility.yul\":1400:1409   */\n      dup7\n        /* \"#utility.yul\":1396:1414   */\n      add\n        /* \"#utility.yul\":1383:1415   */\n      calldataload\n        /* \"#utility.yul\":1434:1452   */\n      0xffffffffffffffff\n        /* \"#utility.yul\":1475:1477   */\n      dup1\n        /* \"#utility.yul\":1467:1473   */\n      dup3\n        /* \"#utility.yul\":1464:1478   */\n      gt\n        /* \"#utility.yul\":1461:1495   */\n      iszero\n      tag_207\n      jumpi\n        /* \"#utility.yul\":1491:1492   */\n      0x00\n        /* \"#utility.yul\":1488:1489   */\n      dup1\n        /* \"#utility.yul\":1481:1493   */\n      revert\n        /* \"#utility.yul\":1461:1495   */\n    tag_207:\n        /* \"#utility.yul\":1514:1564   */\n      tag_208\n        /* \"#utility.yul\":1556:1563   */\n      dup10\n        /* \"#utility.yul\":1547:1553   */\n      dup4\n        /* \"#utility.yul\":1536:1545   */\n      dup11\n        /* \"#utility.yul\":1532:1554   */\n      add\n        /* \"#utility.yul\":1514:1564   */\n      tag_190\n      jump\t// in\n    tag_208:\n        /* \"#utility.yul\":1504:1564   */\n      swap6\n      pop\n        /* \"#utility.yul\":1617:1619   */\n      0x40\n        /* \"#utility.yul\":1606:1615   */\n      dup9\n        /* \"#utility.yul\":1602:1620   */\n      add\n        /* \"#utility.yul\":1589:1621   */\n      calldataload\n        /* \"#utility.yul\":1573:1621   */\n      swap2\n      pop\n        /* \"#utility.yul\":1646:1648   */\n      dup1\n        /* \"#utility.yul\":1636:1644   */\n      dup3\n        /* \"#utility.yul\":1633:1649   */\n      gt\n        /* \"#utility.yul\":1630:1666   */\n      iszero\n      tag_209\n      jumpi\n        /* \"#utility.yul\":1662:1663   */\n      0x00\n        /* \"#utility.yul\":1659:1660   */\n      dup1\n        /* \"#utility.yul\":1652:1664   */\n      revert\n        /* \"#utility.yul\":1630:1666   */\n    tag_209:\n        /* \"#utility.yul\":1685:1737   */\n      tag_210\n        /* \"#utility.yul\":1729:1736   */\n      dup10\n        /* \"#utility.yul\":1718:1726   */\n      dup4\n        /* \"#utility.yul\":1707:1716   */\n      dup11\n        /* \"#utility.yul\":1703:1727   */\n      add\n        /* \"#utility.yul\":1685:1737   */\n      tag_190\n      jump\t// in\n    tag_210:\n        /* \"#utility.yul\":1675:1737   */\n      swap5\n      pop\n        /* \"#utility.yul\":1790:1792   */\n      0x60\n        /* \"#utility.yul\":1779:1788   */\n      dup9\n        /* \"#utility.yul\":1775:1793   */\n      add\n        /* \"#utility.yul\":1762:1794   */\n      calldataload\n        /* \"#utility.yul\":1746:1794   */\n      swap2\n      pop\n        /* \"#utility.yul\":1819:1821   */\n      dup1\n        /* \"#utility.yul\":1809:1817   */\n      dup3\n        /* \"#utility.yul\":1806:1822   */\n      gt\n        /* \"#utility.yul\":1803:1839   */\n      iszero\n      tag_211\n      jumpi\n        /* \"#utility.yul\":1835:1836   */\n      0x00\n        /* \"#utility.yul\":1832:1833   */\n      dup1\n        /* \"#utility.yul\":1825:1837   */\n      revert\n        /* \"#utility.yul\":1803:1839   */\n    tag_211:\n        /* \"#utility.yul\":1858:1910   */\n      tag_212\n        /* \"#utility.yul\":1902:1909   */\n      dup10\n        /* \"#utility.yul\":1891:1899   */\n      dup4\n        /* \"#utility.yul\":1880:1889   */\n      dup11\n        /* \"#utility.yul\":1876:1900   */\n      add\n        /* \"#utility.yul\":1858:1910   */\n      tag_190\n      jump\t// in\n    tag_212:\n        /* \"#utility.yul\":1848:1910   */\n      swap4\n      pop\n        /* \"#utility.yul\":1963:1966   */\n      0x80\n        /* \"#utility.yul\":1952:1961   */\n      dup9\n        /* \"#utility.yul\":1948:1967   */\n      add\n        /* \"#utility.yul\":1935:1968   */\n      calldataload\n        /* \"#utility.yul\":1919:1968   */\n      swap2\n      pop\n        /* \"#utility.yul\":1993:1995   */\n      dup1\n        /* \"#utility.yul\":1983:1991   */\n      dup3\n        /* \"#utility.yul\":1980:1996   */\n      gt\n        /* \"#utility.yul\":1977:2013   */\n      iszero\n      tag_213\n      jumpi\n        /* \"#utility.yul\":2009:2010   */\n      0x00\n        /* \"#utility.yul\":2006:2007   */\n      dup1\n        /* \"#utility.yul\":1999:2011   */\n      revert\n        /* \"#utility.yul\":1977:2013   */\n    tag_213:\n      pop\n        /* \"#utility.yul\":2032:2084   */\n      tag_214\n        /* \"#utility.yul\":2076:2083   */\n      dup9\n        /* \"#utility.yul\":2065:2073   */\n      dup3\n        /* \"#utility.yul\":2054:2063   */\n      dup10\n        /* \"#utility.yul\":2050:2074   */\n      add\n        /* \"#utility.yul\":2032:2084   */\n      tag_190\n      jump\t// in\n    tag_214:\n        /* \"#utility.yul\":2022:2084   */\n      swap2\n      pop\n      pop\n        /* \"#utility.yul\":1071:2090   */\n      swap3\n      swap6\n      pop\n      swap3\n      swap6\n      swap1\n      swap4\n      pop\n      jump\t// out\n        /* \"#utility.yul\":2095:2417   */\n    tag_20:\n        /* \"#utility.yul\":2164:2170   */\n      0x00\n        /* \"#utility.yul\":2217:2219   */\n      0x20\n        /* \"#utility.yul\":2205:2214   */\n      dup3\n        /* \"#utility.yul\":2196:2203   */\n      dup5\n        /* \"#utility.yul\":2192:2215   */\n      sub\n        /* \"#utility.yul\":2188:2220   */\n      slt\n        /* \"#utility.yul\":2185:2237   */\n      iszero\n      tag_216\n      jumpi\n        /* \"#utility.yul\":2233:2234   */\n      0x00\n        /* \"#utility.yul\":2230:2231   */\n      dup1\n        /* \"#utility.yul\":2223:2235   */\n      revert\n        /* \"#utility.yul\":2185:2237   */\n    tag_216:\n        /* \"#utility.yul\":2273:2282   */\n      dup2\n        /* \"#utility.yul\":2260:2283   */\n      calldataload\n        /* \"#utility.yul\":2306:2324   */\n      0xffffffffffffffff\n        /* \"#utility.yul\":2298:2304   */\n      dup2\n        /* \"#utility.yul\":2295:2325   */\n      gt\n        /* \"#utility.yul\":2292:2342   */\n      iszero\n      tag_217\n      jumpi\n        /* \"#utility.yul\":2338:2339   */\n      0x00\n        /* \"#utility.yul\":2335:2336   */\n      dup1\n        /* \"#utility.yul\":2328:2340   */\n      revert\n        /* \"#utility.yul\":2292:2342   */\n    tag_217:\n        /* \"#utility.yul\":2361:2411   */\n      tag_218\n        /* \"#utility.yul\":2403:2410   */\n      dup5\n        /* \"#utility.yul\":2394:2400   */\n      dup3\n        /* \"#utility.yul\":2383:2392   */\n      dup6\n        /* \"#utility.yul\":2379:2401   */\n      add\n        /* \"#utility.yul\":2361:2411   */\n      tag_190\n      jump\t// in\n    tag_218:\n        /* \"#utility.yul\":2351:2411   */\n      swap5\n        /* \"#utility.yul\":2095:2417   */\n      swap4\n      pop\n      pop\n      pop\n      pop\n      jump\t// out\n        /* \"#utility.yul\":2422:2680   */\n    tag_191:\n        /* \"#utility.yul\":2494:2495   */\n      0x00\n        /* \"#utility.yul\":2504:2617   */\n    tag_220:\n        /* \"#utility.yul\":2518:2524   */\n      dup4\n        /* \"#utility.yul\":2515:2516   */\n      dup2\n        /* \"#utility.yul\":2512:2525   */\n      lt\n        /* \"#utility.yul\":2504:2617   */\n      iszero\n      tag_222\n      jumpi\n        /* \"#utility.yul\":2594:2605   */\n      dup2\n      dup2\n      add\n        /* \"#utility.yul\":2588:2606   */\n      mload\n        /* \"#utility.yul\":2575:2586   */\n      dup4\n      dup3\n      add\n        /* \"#utility.yul\":2568:2607   */\n      mstore\n        /* \"#utility.yul\":2540:2542   */\n      0x20\n        /* \"#utility.yul\":2533:2543   */\n      add\n        /* \"#utility.yul\":2504:2617   */\n      jump(tag_220)\n    tag_222:\n        /* \"#utility.yul\":2635:2641   */\n      dup4\n        /* \"#utility.yul\":2632:2633   */\n      dup2\n        /* \"#utility.yul\":2629:2642   */\n      gt\n        /* \"#utility.yul\":2626:2674   */\n      iszero\n      tag_141\n      jumpi\n      pop\n      pop\n        /* \"#utility.yul\":2670:2671   */\n      0x00\n        /* \"#utility.yul\":2652:2668   */\n      swap2\n      add\n        /* \"#utility.yul\":2645:2672   */\n      mstore\n        /* \"#utility.yul\":2422:2680   */\n      jump\t// out\n        /* \"#utility.yul\":2685:2943   */\n    tag_192:\n        /* \"#utility.yul\":2727:2730   */\n      0x00\n        /* \"#utility.yul\":2765:2770   */\n      dup2\n        /* \"#utility.yul\":2759:2771   */\n      mload\n        /* \"#utility.yul\":2792:2798   */\n      dup1\n        /* \"#utility.yul\":2787:2790   */\n      dup5\n        /* \"#utility.yul\":2780:2799   */\n      mstore\n        /* \"#utility.yul\":2808:2871   */\n      tag_225\n        /* \"#utility.yul\":2864:2870   */\n      dup2\n        /* \"#utility.yul\":2857:2861   */\n      0x20\n        /* \"#utility.yul\":2852:2855   */\n      dup7\n        /* \"#utility.yul\":2848:2862   */\n      add\n        /* \"#utility.yul\":2841:2845   */\n      0x20\n        /* \"#utility.yul\":2834:2839   */\n      dup7\n        /* \"#utility.yul\":2830:2846   */\n      add\n        /* \"#utility.yul\":2808:2871   */\n      tag_191\n      jump\t// in\n    tag_225:\n        /* \"#utility.yul\":2925:2927   */\n      0x1f\n        /* \"#utility.yul\":2904:2919   */\n      add\n      not(0x1f)\n        /* \"#utility.yul\":2900:2929   */\n      and\n        /* \"#utility.yul\":2891:2930   */\n      swap3\n      swap1\n      swap3\n      add\n        /* \"#utility.yul\":2932:2936   */\n      0x20\n        /* \"#utility.yul\":2887:2937   */\n      add\n      swap3\n        /* \"#utility.yul\":2685:2943   */\n      swap2\n      pop\n      pop\n      jump\t// out\n        /* \"#utility.yul\":2948:4068   */\n    tag_23:\n        /* \"#utility.yul\":3123:3125   */\n      0x20\n        /* \"#utility.yul\":3112:3121   */\n      dup2\n        /* \"#utility.yul\":3105:3126   */\n      mstore\n        /* \"#utility.yul\":3086:3090   */\n      0x00\n      sub(shl(0xa0, 0x01), 0x01)\n        /* \"#utility.yul\":3242:3244   */\n      dup1\n        /* \"#utility.yul\":3233:3239   */\n      dup5\n        /* \"#utility.yul\":3227:3240   */\n      mload\n        /* \"#utility.yul\":3223:3245   */\n      and\n        /* \"#utility.yul\":3218:3220   */\n      0x20\n        /* \"#utility.yul\":3207:3216   */\n      dup5\n        /* \"#utility.yul\":3203:3221   */\n      add\n        /* \"#utility.yul\":3196:3246   */\n      mstore\n        /* \"#utility.yul\":3310:3312   */\n      dup1\n        /* \"#utility.yul\":3304:3306   */\n      0x20\n        /* \"#utility.yul\":3296:3302   */\n      dup6\n        /* \"#utility.yul\":3292:3307   */\n      add\n        /* \"#utility.yul\":3286:3308   */\n      mload\n        /* \"#utility.yul\":3282:3313   */\n      and\n        /* \"#utility.yul\":3277:3279   */\n      0x40\n        /* \"#utility.yul\":3266:3275   */\n      dup5\n        /* \"#utility.yul\":3262:3280   */\n      add\n        /* \"#utility.yul\":3255:3314   */\n      mstore\n      pop\n        /* \"#utility.yul\":3361:3363   */\n      0x40\n        /* \"#utility.yul\":3353:3359   */\n      dup4\n        /* \"#utility.yul\":3349:3364   */\n      add\n        /* \"#utility.yul\":3343:3365   */\n      mload\n        /* \"#utility.yul\":3401:3405   */\n      0xc0\n        /* \"#utility.yul\":3396:3398   */\n      0x60\n        /* \"#utility.yul\":3385:3394   */\n      dup5\n        /* \"#utility.yul\":3381:3399   */\n      add\n        /* \"#utility.yul\":3374:3406   */\n      mstore\n        /* \"#utility.yul\":3429:3481   */\n      tag_227\n        /* \"#utility.yul\":3476:3479   */\n      0xe0\n        /* \"#utility.yul\":3465:3474   */\n      dup5\n        /* \"#utility.yul\":3461:3480   */\n      add\n        /* \"#utility.yul\":3447:3459   */\n      dup3\n        /* \"#utility.yul\":3429:3481   */\n      tag_192\n      jump\t// in\n    tag_227:\n        /* \"#utility.yul\":3415:3481   */\n      swap1\n      pop\n        /* \"#utility.yul\":3530:3532   */\n      0x60\n        /* \"#utility.yul\":3522:3528   */\n      dup5\n        /* \"#utility.yul\":3518:3533   */\n      add\n        /* \"#utility.yul\":3512:3534   */\n      mload\n        /* \"#utility.yul\":3557:3559   */\n      0x1f\n        /* \"#utility.yul\":3553:3560   */\n      not\n        /* \"#utility.yul\":3625:3627   */\n      dup1\n        /* \"#utility.yul\":3613:3622   */\n      dup6\n        /* \"#utility.yul\":3605:3611   */\n      dup5\n        /* \"#utility.yul\":3601:3623   */\n      sub\n        /* \"#utility.yul\":3597:3628   */\n      add\n        /* \"#utility.yul\":3591:3594   */\n      0x80\n        /* \"#utility.yul\":3580:3589   */\n      dup7\n        /* \"#utility.yul\":3576:3595   */\n      add\n        /* \"#utility.yul\":3569:3629   */\n      mstore\n        /* \"#utility.yul\":3652:3693   */\n      tag_228\n        /* \"#utility.yul\":3686:3692   */\n      dup4\n        /* \"#utility.yul\":3670:3684   */\n      dup4\n        /* \"#utility.yul\":3652:3693   */\n      tag_192\n      jump\t// in\n    tag_228:\n        /* \"#utility.yul\":3638:3693   */\n      swap3\n      pop\n        /* \"#utility.yul\":3742:3745   */\n      0x80\n        /* \"#utility.yul\":3734:3740   */\n      dup7\n        /* \"#utility.yul\":3730:3746   */\n      add\n        /* \"#utility.yul\":3724:3747   */\n      mload\n        /* \"#utility.yul\":3702:3747   */\n      swap2\n      pop\n        /* \"#utility.yul\":3812:3814   */\n      dup1\n        /* \"#utility.yul\":3800:3809   */\n      dup6\n        /* \"#utility.yul\":3792:3798   */\n      dup5\n        /* \"#utility.yul\":3788:3810   */\n      sub\n        /* \"#utility.yul\":3784:3815   */\n      add\n        /* \"#utility.yul\":3778:3781   */\n      0xa0\n        /* \"#utility.yul\":3767:3776   */\n      dup7\n        /* \"#utility.yul\":3763:3782   */\n      add\n        /* \"#utility.yul\":3756:3816   */\n      mstore\n        /* \"#utility.yul\":3839:3880   */\n      tag_229\n        /* \"#utility.yul\":3873:3879   */\n      dup4\n        /* \"#utility.yul\":3857:3871   */\n      dup4\n        /* \"#utility.yul\":3839:3880   */\n      tag_192\n      jump\t// in\n    tag_229:\n        /* \"#utility.yul\":3825:3880   */\n      swap3\n      pop\n        /* \"#utility.yul\":3929:3932   */\n      0xa0\n        /* \"#utility.yul\":3921:3927   */\n      dup7\n        /* \"#utility.yul\":3917:3933   */\n      add\n        /* \"#utility.yul\":3911:3934   */\n      mload\n        /* \"#utility.yul\":3889:3934   */\n      swap2\n      pop\n        /* \"#utility.yul\":4000:4002   */\n      dup1\n        /* \"#utility.yul\":3988:3997   */\n      dup6\n        /* \"#utility.yul\":3980:3986   */\n      dup5\n        /* \"#utility.yul\":3976:3998   */\n      sub\n        /* \"#utility.yul\":3972:4003   */\n      add\n        /* \"#utility.yul\":3965:3969   */\n      0xc0\n        /* \"#utility.yul\":3954:3963   */\n      dup7\n        /* \"#utility.yul\":3950:3970   */\n      add\n        /* \"#utility.yul\":3943:4004   */\n      mstore\n      pop\n        /* \"#utility.yul\":4021:4062   */\n      tag_230\n        /* \"#utility.yul\":4055:4061   */\n      dup3\n        /* \"#utility.yul\":4039:4053   */\n      dup3\n        /* \"#utility.yul\":4021:4062   */\n      tag_192\n      jump\t// in\n    tag_230:\n        /* \"#utility.yul\":4013:4062   */\n      swap6\n        /* \"#utility.yul\":2948:4068   */\n      swap5\n      pop\n      pop\n      pop\n      pop\n      pop\n      jump\t// out\n        /* \"#utility.yul\":4073:5007   */\n    tag_28:\n        /* \"#utility.yul\":4385:4389   */\n      0x00\n      sub(shl(0xa0, 0x01), 0x01)\n        /* \"#utility.yul\":4495:4497   */\n      dup1\n        /* \"#utility.yul\":4487:4493   */\n      dup10\n        /* \"#utility.yul\":4483:4498   */\n      and\n        /* \"#utility.yul\":4472:4481   */\n      dup4\n        /* \"#utility.yul\":4465:4499   */\n      mstore\n        /* \"#utility.yul\":4547:4549   */\n      dup1\n        /* \"#utility.yul\":4539:4545   */\n      dup9\n        /* \"#utility.yul\":4535:4550   */\n      and\n        /* \"#utility.yul\":4530:4532   */\n      0x20\n        /* \"#utility.yul\":4519:4528   */\n      dup5\n        /* \"#utility.yul\":4515:4533   */\n      add\n        /* \"#utility.yul\":4508:4551   */\n      mstore\n      pop\n        /* \"#utility.yul\":4587:4590   */\n      0xc0\n        /* \"#utility.yul\":4582:4584   */\n      0x40\n        /* \"#utility.yul\":4571:4580   */\n      dup4\n        /* \"#utility.yul\":4567:4585   */\n      add\n        /* \"#utility.yul\":4560:4591   */\n      mstore\n        /* \"#utility.yul\":4614:4660   */\n      tag_232\n        /* \"#utility.yul\":4655:4658   */\n      0xc0\n        /* \"#utility.yul\":4644:4653   */\n      dup4\n        /* \"#utility.yul\":4640:4659   */\n      add\n        /* \"#utility.yul\":4632:4638   */\n      dup8\n        /* \"#utility.yul\":4614:4660   */\n      tag_192\n      jump\t// in\n    tag_232:\n        /* \"#utility.yul\":4708:4717   */\n      dup3\n        /* \"#utility.yul\":4700:4706   */\n      dup2\n        /* \"#utility.yul\":4696:4718   */\n      sub\n        /* \"#utility.yul\":4691:4693   */\n      0x60\n        /* \"#utility.yul\":4680:4689   */\n      dup5\n        /* \"#utility.yul\":4676:4694   */\n      add\n        /* \"#utility.yul\":4669:4719   */\n      mstore\n        /* \"#utility.yul\":4742:4775   */\n      tag_233\n        /* \"#utility.yul\":4768:4774   */\n      dup2\n        /* \"#utility.yul\":4760:4766   */\n      dup8\n        /* \"#utility.yul\":4742:4775   */\n      tag_192\n      jump\t// in\n    tag_233:\n        /* \"#utility.yul\":4728:4775   */\n      swap1\n      pop\n        /* \"#utility.yul\":4824:4833   */\n      dup3\n        /* \"#utility.yul\":4816:4822   */\n      dup2\n        /* \"#utility.yul\":4812:4834   */\n      sub\n        /* \"#utility.yul\":4806:4809   */\n      0x80\n        /* \"#utility.yul\":4795:4804   */\n      dup5\n        /* \"#utility.yul\":4791:4810   */\n      add\n        /* \"#utility.yul\":4784:4835   */\n      mstore\n        /* \"#utility.yul\":4858:4891   */\n      tag_234\n        /* \"#utility.yul\":4884:4890   */\n      dup2\n        /* \"#utility.yul\":4876:4882   */\n      dup7\n        /* \"#utility.yul\":4858:4891   */\n      tag_192\n      jump\t// in\n    tag_234:\n        /* \"#utility.yul\":4844:4891   */\n      swap1\n      pop\n        /* \"#utility.yul\":4940:4949   */\n      dup3\n        /* \"#utility.yul\":4932:4938   */\n      dup2\n        /* \"#utility.yul\":4928:4950   */\n      sub\n        /* \"#utility.yul\":4922:4925   */\n      0xa0\n        /* \"#utility.yul\":4911:4920   */\n      dup5\n        /* \"#utility.yul\":4907:4926   */\n      add\n        /* \"#utility.yul\":4900:4951   */\n      mstore\n        /* \"#utility.yul\":4968:5001   */\n      tag_235\n        /* \"#utility.yul\":4994:5000   */\n      dup2\n        /* \"#utility.yul\":4986:4992   */\n      dup6\n        /* \"#utility.yul\":4968:5001   */\n      tag_192\n      jump\t// in\n    tag_235:\n        /* \"#utility.yul\":4960:5001   */\n      swap10\n        /* \"#utility.yul\":4073:5007   */\n      swap9\n      pop\n      pop\n      pop\n      pop\n      pop\n      pop\n      pop\n      pop\n      pop\n      jump\t// out\n        /* \"#utility.yul\":5243:5429   */\n    tag_37:\n        /* \"#utility.yul\":5302:5308   */\n      0x00\n        /* \"#utility.yul\":5355:5357   */\n      0x20\n        /* \"#utility.yul\":5343:5352   */\n      dup3\n        /* \"#utility.yul\":5334:5341   */\n      dup5\n        /* \"#utility.yul\":5330:5353   */\n      sub\n        /* \"#utility.yul\":5326:5358   */\n      slt\n        /* \"#utility.yul\":5323:5375   */\n      iszero\n      tag_238\n      jumpi\n        /* \"#utility.yul\":5371:5372   */\n      0x00\n        /* \"#utility.yul\":5368:5369   */\n      dup1\n        /* \"#utility.yul\":5361:5373   */\n      revert\n        /* \"#utility.yul\":5323:5375   */\n    tag_238:\n        /* \"#utility.yul\":5394:5423   */\n      tag_239\n        /* \"#utility.yul\":5413:5422   */\n      dup3\n        /* \"#utility.yul\":5394:5423   */\n      tag_188\n      jump\t// in\n    tag_239:\n        /* \"#utility.yul\":5384:5423   */\n      swap4\n        /* \"#utility.yul\":5243:5429   */\n      swap3\n      pop\n      pop\n      pop\n      jump\t// out\n        /* \"#utility.yul\":5434:5830   */\n    tag_42:\n        /* \"#utility.yul\":5512:5518   */\n      0x00\n        /* \"#utility.yul\":5520:5526   */\n      dup1\n        /* \"#utility.yul\":5573:5575   */\n      0x40\n        /* \"#utility.yul\":5561:5570   */\n      dup4\n        /* \"#utility.yul\":5552:5559   */\n      dup6\n        /* \"#utility.yul\":5548:5571   */\n      sub\n        /* \"#utility.yul\":5544:5576   */\n      slt\n        /* \"#utility.yul\":5541:5593   */\n      iszero\n      tag_241\n      jumpi\n        /* \"#utility.yul\":5589:5590   */\n      0x00\n        /* \"#utility.yul\":5586:5587   */\n      dup1\n        /* \"#utility.yul\":5579:5591   */\n      revert\n        /* \"#utility.yul\":5541:5593   */\n    tag_241:\n        /* \"#utility.yul\":5612:5641   */\n      tag_242\n        /* \"#utility.yul\":5631:5640   */\n      dup4\n        /* \"#utility.yul\":5612:5641   */\n      tag_188\n      jump\t// in\n    tag_242:\n        /* \"#utility.yul\":5602:5641   */\n      swap2\n      pop\n        /* \"#utility.yul\":5692:5694   */\n      0x20\n        /* \"#utility.yul\":5681:5690   */\n      dup4\n        /* \"#utility.yul\":5677:5695   */\n      add\n        /* \"#utility.yul\":5664:5696   */\n      calldataload\n        /* \"#utility.yul\":5719:5737   */\n      0xffffffffffffffff\n        /* \"#utility.yul\":5711:5717   */\n      dup2\n        /* \"#utility.yul\":5708:5738   */\n      gt\n        /* \"#utility.yul\":5705:5755   */\n      iszero\n      tag_243\n      jumpi\n        /* \"#utility.yul\":5751:5752   */\n      0x00\n        /* \"#utility.yul\":5748:5749   */\n      dup1\n        /* \"#utility.yul\":5741:5753   */\n      revert\n        /* \"#utility.yul\":5705:5755   */\n    tag_243:\n        /* \"#utility.yul\":5774:5824   */\n      tag_244\n        /* \"#utility.yul\":5816:5823   */\n      dup6\n        /* \"#utility.yul\":5807:5813   */\n      dup3\n        /* \"#utility.yul\":5796:5805   */\n      dup7\n        /* \"#utility.yul\":5792:5814   */\n      add\n        /* \"#utility.yul\":5774:5824   */\n      tag_190\n      jump\t// in\n    tag_244:\n        /* \"#utility.yul\":5764:5824   */\n      swap2\n      pop\n      pop\n        /* \"#utility.yul\":5434:5830   */\n      swap3\n      pop\n      swap3\n      swap1\n      pop\n      jump\t// out\n        /* \"#utility.yul\":6238:6514   */\n    tag_61:\n        /* \"#utility.yul\":6369:6372   */\n      0x00\n        /* \"#utility.yul\":6407:6413   */\n      dup3\n        /* \"#utility.yul\":6401:6414   */\n      mload\n        /* \"#utility.yul\":6423:6476   */\n      tag_247\n        /* \"#utility.yul\":6469:6475   */\n      dup2\n        /* \"#utility.yul\":6464:6467   */\n      dup5\n        /* \"#utility.yul\":6457:6461   */\n      0x20\n        /* \"#utility.yul\":6449:6455   */\n      dup8\n        /* \"#utility.yul\":6445:6462   */\n      add\n        /* \"#utility.yul\":6423:6476   */\n      tag_191\n      jump\t// in\n    tag_247:\n        /* \"#utility.yul\":6492:6508   */\n      swap2\n      swap1\n      swap2\n      add\n      swap3\n        /* \"#utility.yul\":6238:6514   */\n      swap2\n      pop\n      pop\n      jump\t// out\n        /* \"#utility.yul\":6519:6899   */\n    tag_71:\n        /* \"#utility.yul\":6598:6599   */\n      0x01\n        /* \"#utility.yul\":6594:6606   */\n      dup2\n      dup2\n      shr\n      swap1\n        /* \"#utility.yul\":6641:6653   */\n      dup3\n      and\n      dup1\n        /* \"#utility.yul\":6662:6723   */\n      tag_249\n      jumpi\n        /* \"#utility.yul\":6716:6720   */\n      0x7f\n        /* \"#utility.yul\":6708:6714   */\n      dup3\n        /* \"#utility.yul\":6704:6721   */\n      and\n        /* \"#utility.yul\":6694:6721   */\n      swap2\n      pop\n        /* \"#utility.yul\":6662:6723   */\n    tag_249:\n        /* \"#utility.yul\":6769:6771   */\n      0x20\n        /* \"#utility.yul\":6761:6767   */\n      dup3\n        /* \"#utility.yul\":6758:6772   */\n      lt\n        /* \"#utility.yul\":6738:6756   */\n      dup2\n        /* \"#utility.yul\":6735:6773   */\n      sub\n        /* \"#utility.yul\":6732:6893   */\n      tag_250\n      jumpi\n        /* \"#utility.yul\":6815:6825   */\n      0x4e487b71\n        /* \"#utility.yul\":6810:6813   */\n      0xe0\n        /* \"#utility.yul\":6806:6826   */\n      shl\n        /* \"#utility.yul\":6803:6804   */\n      0x00\n        /* \"#utility.yul\":6796:6827   */\n      mstore\n        /* \"#utility.yul\":6850:6854   */\n      0x22\n        /* \"#utility.yul\":6847:6848   */\n      0x04\n        /* \"#utility.yul\":6840:6855   */\n      mstore\n        /* \"#utility.yul\":6878:6882   */\n      0x24\n        /* \"#utility.yul\":6875:6876   */\n      0x00\n        /* \"#utility.yul\":6868:6883   */\n      revert\n        /* \"#utility.yul\":6732:6893   */\n    tag_250:\n      pop\n        /* \"#utility.yul\":6519:6899   */\n      swap2\n      swap1\n      pop\n      jump\t// out\n\n    auxdata: 0xa2646970667358221220dcaa1174c4271b357db0c0d98b18cc805291320c0526072e6532ebbb9bb082c364736f6c634300080d0033\n}\n",
    "bytecode": {
      "linkReferences": {},
      "object": "608060405234801561001057600080fd5b5061001a3361001f565b61006f565b600080546001600160a01b038381166001600160a01b0319831681178455604051919092169283917f8be0079c531659141344cd1fd0a4f28419497f9722a3daafe3b4186f6b6457e09190a35050565b6110188061007e6000396000f3fe608060405234801561001057600080fd5b50600436106100a35760003560e01c80638da5cb5b11610076578063bf186acc1161005b578063bf186acc14610141578063f2fde38b14610154578063fdff9b4d1461016757600080fd5b80638da5cb5b14610113578063be6f0ea21461012e57600080fd5b806343214fcb146100a85780635498a29d146100bd578063638f6cc8146100e6578063715018a61461010b575b600080fd5b6100bb6100b6366004610cb7565b61017a565b005b6100d06100cb366004610d75565b6103ae565b6040516100dd9190610e0a565b60405180910390f35b6100f96100f4366004610d75565b610690565b6040516100dd96959493929190610ea9565b6100bb610901565b6000546040516001600160a01b0390911681526020016100dd565b6100d061013c366004610f1c565b610915565b6100bb61014f366004610f3e565b6109ab565b6100bb610162366004610f1c565b6109e1565b6100f9610175366004610f1c565b610a71565b6001600160a01b0385166101e05760405162461bcd60e51b815260206004820152602260248201527f536d61727420436f6e74726163742057616c6c6574206973206e6f742056616c6044820152611a5960f21b60648201526084015b60405180910390fd5b6040805160c081018252338082526001600160a01b0388811660208085019182528486018a8152606086018a90526080860189905260a0860188905260009485526001808352969094208551815490851673ffffffffffffffffffffffffffffffffffffffff1991821617825592519681018054979094169690921695909517909155905180519293849361027b9260028501920190610b5f565b5060608201518051610297916003840191602090910190610b5f565b50608082015180516102b3916004840191602090910190610b5f565b5060a082015180516102cf916005840191602090910190610b5f565b50905050806002866040516102e49190610f8c565b90815260408051918290036020908101909220835181546001600160a01b0391821673ffffffffffffffffffffffffffffffffffffffff1991821617835585850151600184018054919093169116179055908301518051919261034f92600285019290910190610b5f565b506060820151805161036b916003840191602090910190610b5f565b5060808201518051610387916004840191602090910190610b5f565b5060a082015180516103a3916005840191602090910190610b5f565b505050505050505050565b6103f96040518060c0016040528060006001600160a01b0316815260200160006001600160a01b03168152602001606081526020016060815260200160608152602001606081525090565b6002826040516104099190610f8c565b90815260408051918290036020908101832060c08401835280546001600160a01b03908116855260018201541691840191909152600281018054919284019161045190610fa8565b80601f016020809104026020016040519081016040528092919081815260200182805461047d90610fa8565b80156104ca5780601f1061049f576101008083540402835291602001916104ca565b820191906000526020600020905b8154815290600101906020018083116104ad57829003601f168201915b505050505081526020016003820180546104e390610fa8565b80601f016020809104026020016040519081016040528092919081815260200182805461050f90610fa8565b801561055c5780601f106105315761010080835404028352916020019161055c565b820191906000526020600020905b81548152906001019060200180831161053f57829003601f168201915b5050505050815260200160048201805461057590610fa8565b80601f01602080910402602001604051908101604052809291908181526020018280546105a190610fa8565b80156105ee5780601f106105c3576101008083540402835291602001916105ee565b820191906000526020600020905b8154815290600101906020018083116105d157829003601f168201915b5050505050815260200160058201805461060790610fa8565b80601f016020809104026020016040519081016040528092919081815260200182805461063390610fa8565b80156106805780601f1061065557610100808354040283529160200191610680565b820191906000526020600020905b81548152906001019060200180831161066357829003601f168201915b5050505050815250509050919050565b8051602081830181018051600280835293830192909401919091209290528154600183015491830180546001600160a01b039283169492909316926106d490610fa8565b80601f016020809104026020016040519081016040528092919081815260200182805461070090610fa8565b801561074d5780601f106107225761010080835404028352916020019161074d565b820191906000526020600020905b81548152906001019060200180831161073057829003601f168201915b50505050509080600301805461076290610fa8565b80601f016020809104026020016040519081016040528092919081815260200182805461078e90610fa8565b80156107db5780601f106107b0576101008083540402835291602001916107db565b820191906000526020600020905b8154815290600101906020018083116107be57829003601f168201915b5050505050908060040180546107f090610fa8565b80601f016020809104026020016040519081016040528092919081815260200182805461081c90610fa8565b80156108695780601f1061083e57610100808354040283529160200191610869565b820191906000526020600020905b81548152906001019060200180831161084c57829003601f168201915b50505050509080600501805461087e90610fa8565b80601f01602080910402602001604051908101604052809291908181526020018280546108aa90610fa8565b80156108f75780601f106108cc576101008083540402835291602001916108f7565b820191906000526020600020905b8154815290600101906020018083116108da57829003601f168201915b5050505050905086565b610909610aa8565b6109136000610b02565b565b6109606040518060c0016040528060006001600160a01b0316815260200160006001600160a01b03168152602001606081526020016060815260200160608152602001606081525090565b6001600160a01b03808316600090815260016020818152604092839020835160c081018552815486168152928101549094169082015260028301805491939284019161045190610fa8565b6001600160a01b0382166000908152600160209081526040909120825190916109db916005840191850190610b5f565b50505050565b6109e9610aa8565b6001600160a01b038116610a655760405162461bcd60e51b815260206004820152602660248201527f4f776e61626c653a206e6577206f776e657220697320746865207a65726f206160448201527f646472657373000000000000000000000000000000000000000000000000000060648201526084016101d7565b610a6e81610b02565b50565b60016020819052600091825260409091208054918101546002820180546001600160a01b039485169490921692916106d490610fa8565b6000546001600160a01b031633146109135760405162461bcd60e51b815260206004820181905260248201527f4f776e61626c653a2063616c6c6572206973206e6f7420746865206f776e657260448201526064016101d7565b600080546001600160a01b0383811673ffffffffffffffffffffffffffffffffffffffff19831681178455604051919092169283917f8be0079c531659141344cd1fd0a4f28419497f9722a3daafe3b4186f6b6457e09190a35050565b828054610b6b90610fa8565b90600052602060002090601f016020900481019282610b8d5760008555610bd3565b82601f10610ba657805160ff1916838001178555610bd3565b82800160010185558215610bd3579182015b82811115610bd3578251825591602001919060010190610bb8565b50610bdf929150610be3565b5090565b5b80821115610bdf5760008155600101610be4565b80356001600160a01b0381168114610c0f57600080fd5b919050565b634e487b7160e01b600052604160045260246000fd5b600082601f830112610c3b57600080fd5b813567ffffffffffffffff80821115610c5657610c56610c14565b604051601f8301601f19908116603f01168101908282118183101715610c7e57610c7e610c14565b81604052838152866020858801011115610c9757600080fd5b836020870160208301376000602085830101528094505050505092915050565b600080600080600060a08688031215610ccf57600080fd5b610cd886610bf8565b9450602086013567ffffffffffffffff80821115610cf557600080fd5b610d0189838a01610c2a565b95506040880135915080821115610d1757600080fd5b610d2389838a01610c2a565b94506060880135915080821115610d3957600080fd5b610d4589838a01610c2a565b93506080880135915080821115610d5b57600080fd5b50610d6888828901610c2a565b9150509295509295909350565b600060208284031215610d8757600080fd5b813567ffffffffffffffff811115610d9e57600080fd5b610daa84828501610c2a565b949350505050565b60005b83811015610dcd578181015183820152602001610db5565b838111156109db5750506000910152565b60008151808452610df6816020860160208601610db2565b601f01601f19169290920160200192915050565b6020815260006001600160a01b0380845116602084015280602085015116604084015250604083015160c06060840152610e4760e0840182610dde565b90506060840151601f1980858403016080860152610e658383610dde565b925060808601519150808584030160a0860152610e828383610dde565b925060a08601519150808584030160c086015250610ea08282610dde565b95945050505050565b60006001600160a01b03808916835280881660208401525060c06040830152610ed560c0830187610dde565b8281036060840152610ee78187610dde565b90508281036080840152610efb8186610dde565b905082810360a0840152610f0f8185610dde565b9998505050505050505050565b600060208284031215610f2e57600080fd5b610f3782610bf8565b9392505050565b60008060408385031215610f5157600080fd5b610f5a83610bf8565b9150602083013567ffffffffffffffff811115610f7657600080fd5b610f8285828601610c2a565b9150509250929050565b60008251610f9e818460208701610db2565b9190910192915050565b600181811c90821680610fbc57607f821691505b602082108103610fdc57634e487b7160e01b600052602260045260246000fd5b5091905056fea2646970667358221220dcaa1174c4271b357db0c0d98b18cc805291320c0526072e6532ebbb9bb082c364736f6c634300080d0033",
      "opcodes": "PUSH1 0x80 PUSH1 0x40 MSTORE CALLVALUE DUP1 ISZERO PUSH2 0x10 JUMPI PUSH1 0x0 DUP1 REVERT JUMPDEST POP PUSH2 0x1A CALLER PUSH2 0x1F JUMP JUMPDEST PUSH2 0x6F JUMP JUMPDEST PUSH1 0x0 DUP1 SLOAD PUSH1 0x1 PUSH1 0x1 PUSH1 0xA0 SHL SUB DUP4 DUP2 AND PUSH1 0x1 PUSH1 0x1 PUSH1 0xA0 SHL SUB NOT DUP4 AND DUP2 OR DUP5 SSTORE PUSH1 0x40 MLOAD SWAP2 SWAP1 SWAP3 AND SWAP3 DUP4 SWAP2 PUSH32 0x8BE0079C531659141344CD1FD0A4F28419497F9722A3DAAFE3B4186F6B6457E0 SWAP2 SWAP1 LOG3 POP POP JUMP JUMPDEST PUSH2 0x1018 DUP1 PUSH2 0x7E PUSH1 0x0 CODECOPY PUSH1 0x0 RETURN INVALID PUSH1 0x80 PUSH1 0x40 MSTORE CALLVALUE DUP1 ISZERO PUSH2 0x10 JUMPI PUSH1 0x0 DUP1 REVERT JUMPDEST POP PUSH1 0x4 CALLDATASIZE LT PUSH2 0xA3 JUMPI PUSH1 0x0 CALLDATALOAD PUSH1 0xE0 SHR DUP1 PUSH4 0x8DA5CB5B GT PUSH2 0x76 JUMPI DUP1 PUSH4 0xBF186ACC GT PUSH2 0x5B JUMPI DUP1 PUSH4 0xBF186ACC EQ PUSH2 0x141 JUMPI DUP1 PUSH4 0xF2FDE38B EQ PUSH2 0x154 JUMPI DUP1 PUSH4 0xFDFF9B4D EQ PUSH2 0x167 JUMPI PUSH1 0x0 DUP1 REVERT JUMPDEST DUP1 PUSH4 0x8DA5CB5B EQ PUSH2 0x113 JUMPI DUP1 PUSH4 0xBE6F0EA2 EQ PUSH2 0x12E JUMPI PUSH1 0x0 DUP1 REVERT JUMPDEST DUP1 PUSH4 0x43214FCB EQ PUSH2 0xA8 JUMPI DUP1 PUSH4 0x5498A29D EQ PUSH2 0xBD JUMPI DUP1 PUSH4 0x638F6CC8 EQ PUSH2 0xE6 JUMPI DUP1 PUSH4 0x715018A6 EQ PUSH2 0x10B JUMPI JUMPDEST PUSH1 0x0 DUP1 REVERT JUMPDEST PUSH2 0xBB PUSH2 0xB6 CALLDATASIZE PUSH1 0x4 PUSH2 0xCB7 JUMP JUMPDEST PUSH2 0x17A JUMP JUMPDEST STOP JUMPDEST PUSH2 0xD0 PUSH2 0xCB CALLDATASIZE PUSH1 0x4 PUSH2 0xD75 JUMP JUMPDEST PUSH2 0x3AE JUMP JUMPDEST PUSH1 0x40 MLOAD PUSH2 0xDD SWAP2 SWAP1 PUSH2 0xE0A JUMP JUMPDEST PUSH1 0x40 MLOAD DUP1 SWAP2 SUB SWAP1 RETURN JUMPDEST PUSH2 0xF9 PUSH2 0xF4 CALLDATASIZE PUSH1 0x4 PUSH2 0xD75 JUMP JUMPDEST PUSH2 0x690 JUMP JUMPDEST PUSH1 0x40 MLOAD PUSH2 0xDD SWAP7 SWAP6 SWAP5 SWAP4 SWAP3 SWAP2 SWAP1 PUSH2 0xEA9 JUMP JUMPDEST PUSH2 0xBB PUSH2 0x901 JUMP JUMPDEST PUSH1 0x0 SLOAD PUSH1 0x40 MLOAD PUSH1 0x1 PUSH1 0x1 PUSH1 0xA0 SHL SUB SWAP1 SWAP2 AND DUP2 MSTORE PUSH1 0x20 ADD PUSH2 0xDD JUMP JUMPDEST PUSH2 0xD0 PUSH2 0x13C CALLDATASIZE PUSH1 0x4 PUSH2 0xF1C JUMP JUMPDEST PUSH2 0x915 JUMP JUMPDEST PUSH2 0xBB PUSH2 0x14F CALLDATASIZE PUSH1 0x4 PUSH2 0xF3E JUMP JUMPDEST PUSH2 0x9AB JUMP JUMPDEST PUSH2 0xBB PUSH2 0x162 CALLDATASIZE PUSH1 0x4 PUSH2 0xF1C JUMP JUMPDEST PUSH2 0x9E1 JUMP JUMPDEST PUSH2 0xF9 PUSH2 0x175 CALLDATASIZE PUSH1 0x4 PUSH2 0xF1C JUMP JUMPDEST PUSH2 0xA71 JUMP JUMPDEST PUSH1 0x1 PUSH1 0x1 PUSH1 0xA0 SHL SUB DUP6 AND PUSH2 0x1E0 JUMPI PUSH1 0x40 MLOAD PUSH3 0x461BCD PUSH1 0xE5 SHL DUP2 MSTORE PUSH1 0x20 PUSH1 0x4 DUP3 ADD MSTORE PUSH1 0x22 PUSH1 0x24 DUP3 ADD MSTORE PUSH32 0x536D61727420436F6E74726163742057616C6C6574206973206E6F742056616C PUSH1 0x44 DUP3 ADD MSTORE PUSH2 0x1A59 PUSH1 0xF2 SHL PUSH1 0x64 DUP3 ADD MSTORE PUSH1 0x84 ADD JUMPDEST PUSH1 0x40 MLOAD DUP1 SWAP2 SUB SWAP1 REVERT JUMPDEST PUSH1 0x40 DUP1 MLOAD PUSH1 0xC0 DUP2 ADD DUP3 MSTORE CALLER DUP1 DUP3 MSTORE PUSH1 0x1 PUSH1 0x1 PUSH1 0xA0 SHL SUB DUP9 DUP2 AND PUSH1 0x20 DUP1 DUP6 ADD SWAP2 DUP3 MSTORE DUP5 DUP7 ADD DUP11 DUP2 MSTORE PUSH1 0x60 DUP7 ADD DUP11 SWAP1 MSTORE PUSH1 0x80 DUP7 ADD DUP10 SWAP1 MSTORE PUSH1 0xA0 DUP7 ADD DUP9 SWAP1 MSTORE PUSH1 0x0 SWAP5 DUP6 MSTORE PUSH1 0x1 DUP1 DUP4 MSTORE SWAP7 SWAP1 SWAP5 KECCAK256 DUP6 MLOAD DUP2 SLOAD SWAP1 DUP6 AND PUSH20 0xFFFFFFFFFFFFFFFFFFFFFFFFFFFFFFFFFFFFFFFF NOT SWAP2 DUP3 AND OR DUP3 SSTORE SWAP3 MLOAD SWAP7 DUP2 ADD DUP1 SLOAD SWAP8 SWAP1 SWAP5 AND SWAP7 SWAP1 SWAP3 AND SWAP6 SWAP1 SWAP6 OR SWAP1 SWAP2 SSTORE SWAP1 MLOAD DUP1 MLOAD SWAP3 SWAP4 DUP5 SWAP4 PUSH2 0x27B SWAP3 PUSH1 0x2 DUP6 ADD SWAP3 ADD SWAP1 PUSH2 0xB5F JUMP JUMPDEST POP PUSH1 0x60 DUP3 ADD MLOAD DUP1 MLOAD PUSH2 0x297 SWAP2 PUSH1 0x3 DUP5 ADD SWAP2 PUSH1 0x20 SWAP1 SWAP2 ADD SWAP1 PUSH2 0xB5F JUMP JUMPDEST POP PUSH1 0x80 DUP3 ADD MLOAD DUP1 MLOAD PUSH2 0x2B3 SWAP2 PUSH1 0x4 DUP5 ADD SWAP2 PUSH1 0x20 SWAP1 SWAP2 ADD SWAP1 PUSH2 0xB5F JUMP JUMPDEST POP PUSH1 0xA0 DUP3 ADD MLOAD DUP1 MLOAD PUSH2 0x2CF SWAP2 PUSH1 0x5 DUP5 ADD SWAP2 PUSH1 0x20 SWAP1 SWAP2 ADD SWAP1 PUSH2 0xB5F JUMP JUMPDEST POP SWAP1 POP POP DUP1 PUSH1 0x2 DUP7 PUSH1 0x40 MLOAD PUSH2 0x2E4 SWAP2 SWAP1 PUSH2 0xF8C JUMP JUMPDEST SWAP1 DUP2 MSTORE PUSH1 0x40 DUP1 MLOAD SWAP2 DUP3 SWAP1 SUB PUSH1 0x20 SWAP1 DUP2 ADD SWAP1 SWAP3 KECCAK256 DUP4 MLOAD DUP2 SLOAD PUSH1 0x1 PUSH1 0x1 PUSH1 0xA0 SHL SUB SWAP2 DUP3 AND PUSH20 0xFFFFFFFFFFFFFFFFFFFFFFFFFFFFFFFFFFFFFFFF NOT SWAP2 DUP3 AND OR DUP4 SSTORE DUP6 DUP6 ADD MLOAD PUSH1 0x1 DUP5 ADD DUP1 SLOAD SWAP2 SWAP1 SWAP4 AND SWAP2 AND OR SWAP1 SSTORE SWAP1 DUP4 ADD MLOAD DUP1 MLOAD SWAP2 SWAP3 PUSH2 0x34F SWAP3 PUSH1 0x2 DUP6 ADD SWAP3 SWAP1 SWAP2 ADD SWAP1 PUSH2 0xB5F JUMP JUMPDEST POP PUSH1 0x60 DUP3 ADD MLOAD DUP1 MLOAD PUSH2 0x36B SWAP2 PUSH1 0x3 DUP5 ADD SWAP2 PUSH1 0x20 SWAP1 SWAP2 ADD SWAP1 PUSH2 0xB5F JUMP JUMPDEST POP PUSH1 0x80 DUP3 ADD MLOAD DUP1 MLOAD PUSH2 0x387 SWAP2 PUSH1 0x4 DUP5 ADD SWAP2 PUSH1 0x20 SWAP1 SWAP2 ADD SWAP1 PUSH2 0xB5F JUMP JUMPDEST POP PUSH1 0xA0 DUP3 ADD MLOAD DUP1 MLOAD PUSH2 0x3A3 SWAP2 PUSH1 0x5 DUP5 ADD SWAP2 PUSH1 0x20 SWAP1 SWAP2 ADD SWAP1 PUSH2 0xB5F JUMP JUMPDEST POP POP POP POP POP POP POP POP POP JUMP JUMPDEST PUSH2 0x3F9 PUSH1 0x40 MLOAD DUP1 PUSH1 0xC0 ADD PUSH1 0x40 MSTORE DUP1 PUSH1 0x0 PUSH1 0x1 PUSH1 0x1 PUSH1 0xA0 SHL SUB AND DUP2 MSTORE PUSH1 0x20 ADD PUSH1 0x0 PUSH1 0x1 PUSH1 0x1 PUSH1 0xA0 SHL SUB AND DUP2 MSTORE PUSH1 0x20 ADD PUSH1 0x60 DUP2 MSTORE PUSH1 0x20 ADD PUSH1 0x60 DUP2 MSTORE PUSH1 0x20 ADD PUSH1 0x60 DUP2 MSTORE PUSH1 0x20 ADD PUSH1 0x60 DUP2 MSTORE POP SWAP1 JUMP JUMPDEST PUSH1 0x2 DUP3 PUSH1 0x40 MLOAD PUSH2 0x409 SWAP2 SWAP1 PUSH2 0xF8C JUMP JUMPDEST SWAP1 DUP2 MSTORE PUSH1 0x40 DUP1 MLOAD SWAP2 DUP3 SWAP1 SUB PUSH1 0x20 SWAP1 DUP2 ADD DUP4 KECCAK256 PUSH1 0xC0 DUP5 ADD DUP4 MSTORE DUP1 SLOAD PUSH1 0x1 PUSH1 0x1 PUSH1 0xA0 SHL SUB SWAP1 DUP2 AND DUP6 MSTORE PUSH1 0x1 DUP3 ADD SLOAD AND SWAP2 DUP5 ADD SWAP2 SWAP1 SWAP2 MSTORE PUSH1 0x2 DUP2 ADD DUP1 SLOAD SWAP2 SWAP3 DUP5 ADD SWAP2 PUSH2 0x451 SWAP1 PUSH2 0xFA8 JUMP JUMPDEST DUP1 PUSH1 0x1F ADD PUSH1 0x20 DUP1 SWAP2 DIV MUL PUSH1 0x20 ADD PUSH1 0x40 MLOAD SWAP1 DUP2 ADD PUSH1 0x40 MSTORE DUP1 SWAP3 SWAP2 SWAP1 DUP2 DUP2 MSTORE PUSH1 0x20 ADD DUP3 DUP1 SLOAD PUSH2 0x47D SWAP1 PUSH2 0xFA8 JUMP JUMPDEST DUP1 ISZERO PUSH2 0x4CA JUMPI DUP1 PUSH1 0x1F LT PUSH2 0x49F JUMPI PUSH2 0x100 DUP1 DUP4 SLOAD DIV MUL DUP4 MSTORE SWAP2 PUSH1 0x20 ADD SWAP2 PUSH2 0x4CA JUMP JUMPDEST DUP3 ADD SWAP2 SWAP1 PUSH1 0x0 MSTORE PUSH1 0x20 PUSH1 0x0 KECCAK256 SWAP1 JUMPDEST DUP2 SLOAD DUP2 MSTORE SWAP1 PUSH1 0x1 ADD SWAP1 PUSH1 0x20 ADD DUP1 DUP4 GT PUSH2 0x4AD JUMPI DUP3 SWAP1 SUB PUSH1 0x1F AND DUP3 ADD SWAP2 JUMPDEST POP POP POP POP POP DUP2 MSTORE PUSH1 0x20 ADD PUSH1 0x3 DUP3 ADD DUP1 SLOAD PUSH2 0x4E3 SWAP1 PUSH2 0xFA8 JUMP JUMPDEST DUP1 PUSH1 0x1F ADD PUSH1 0x20 DUP1 SWAP2 DIV MUL PUSH1 0x20 ADD PUSH1 0x40 MLOAD SWAP1 DUP2 ADD PUSH1 0x40 MSTORE DUP1 SWAP3 SWAP2 SWAP1 DUP2 DUP2 MSTORE PUSH1 0x20 ADD DUP3 DUP1 SLOAD PUSH2 0x50F SWAP1 PUSH2 0xFA8 JUMP JUMPDEST DUP1 ISZERO PUSH2 0x55C JUMPI DUP1 PUSH1 0x1F LT PUSH2 0x531 JUMPI PUSH2 0x100 DUP1 DUP4 SLOAD DIV MUL DUP4 MSTORE SWAP2 PUSH1 0x20 ADD SWAP2 PUSH2 0x55C JUMP JUMPDEST DUP3 ADD SWAP2 SWAP1 PUSH1 0x0 MSTORE PUSH1 0x20 PUSH1 0x0 KECCAK256 SWAP1 JUMPDEST DUP2 SLOAD DUP2 MSTORE SWAP1 PUSH1 0x1 ADD SWAP1 PUSH1 0x20 ADD DUP1 DUP4 GT PUSH2 0x53F JUMPI DUP3 SWAP1 SUB PUSH1 0x1F AND DUP3 ADD SWAP2 JUMPDEST POP POP POP POP POP DUP2 MSTORE PUSH1 0x20 ADD PUSH1 0x4 DUP3 ADD DUP1 SLOAD PUSH2 0x575 SWAP1 PUSH2 0xFA8 JUMP JUMPDEST DUP1 PUSH1 0x1F ADD PUSH1 0x20 DUP1 SWAP2 DIV MUL PUSH1 0x20 ADD PUSH1 0x40 MLOAD SWAP1 DUP2 ADD PUSH1 0x40 MSTORE DUP1 SWAP3 SWAP2 SWAP1 DUP2 DUP2 MSTORE PUSH1 0x20 ADD DUP3 DUP1 SLOAD PUSH2 0x5A1 SWAP1 PUSH2 0xFA8 JUMP JUMPDEST DUP1 ISZERO PUSH2 0x5EE JUMPI DUP1 PUSH1 0x1F LT PUSH2 0x5C3 JUMPI PUSH2 0x100 DUP1 DUP4 SLOAD DIV MUL DUP4 MSTORE SWAP2 PUSH1 0x20 ADD SWAP2 PUSH2 0x5EE JUMP JUMPDEST DUP3 ADD SWAP2 SWAP1 PUSH1 0x0 MSTORE PUSH1 0x20 PUSH1 0x0 KECCAK256 SWAP1 JUMPDEST DUP2 SLOAD DUP2 MSTORE SWAP1 PUSH1 0x1 ADD SWAP1 PUSH1 0x20 ADD DUP1 DUP4 GT PUSH2 0x5D1 JUMPI DUP3 SWAP1 SUB PUSH1 0x1F AND DUP3 ADD SWAP2 JUMPDEST POP POP POP POP POP DUP2 MSTORE PUSH1 0x20 ADD PUSH1 0x5 DUP3 ADD DUP1 SLOAD PUSH2 0x607 SWAP1 PUSH2 0xFA8 JUMP JUMPDEST DUP1 PUSH1 0x1F ADD PUSH1 0x20 DUP1 SWAP2 DIV MUL PUSH1 0x20 ADD PUSH1 0x40 MLOAD SWAP1 DUP2 ADD PUSH1 0x40 MSTORE DUP1 SWAP3 SWAP2 SWAP1 DUP2 DUP2 MSTORE PUSH1 0x20 ADD DUP3 DUP1 SLOAD PUSH2 0x633 SWAP1 PUSH2 0xFA8 JUMP JUMPDEST DUP1 ISZERO PUSH2 0x680 JUMPI DUP1 PUSH1 0x1F LT PUSH2 0x655 JUMPI PUSH2 0x100 DUP1 DUP4 SLOAD DIV MUL DUP4 MSTORE SWAP2 PUSH1 0x20 ADD SWAP2 PUSH2 0x680 JUMP JUMPDEST DUP3 ADD SWAP2 SWAP1 PUSH1 0x0 MSTORE PUSH1 0x20 PUSH1 0x0 KECCAK256 SWAP1 JUMPDEST DUP2 SLOAD DUP2 MSTORE SWAP1 PUSH1 0x1 ADD SWAP1 PUSH1 0x20 ADD DUP1 DUP4 GT PUSH2 0x663 JUMPI DUP3 SWAP1 SUB PUSH1 0x1F AND DUP3 ADD SWAP2 JUMPDEST POP POP POP POP POP DUP2 MSTORE POP POP SWAP1 POP SWAP2 SWAP1 POP JUMP JUMPDEST DUP1 MLOAD PUSH1 0x20 DUP2 DUP4 ADD DUP2 ADD DUP1 MLOAD PUSH1 0x2 DUP1 DUP4 MSTORE SWAP4 DUP4 ADD SWAP3 SWAP1 SWAP5 ADD SWAP2 SWAP1 SWAP2 KECCAK256 SWAP3 SWAP1 MSTORE DUP2 SLOAD PUSH1 0x1 DUP4 ADD SLOAD SWAP2 DUP4 ADD DUP1 SLOAD PUSH1 0x1 PUSH1 0x1 PUSH1 0xA0 SHL SUB SWAP3 DUP4 AND SWAP5 SWAP3 SWAP1 SWAP4 AND SWAP3 PUSH2 0x6D4 SWAP1 PUSH2 0xFA8 JUMP JUMPDEST DUP1 PUSH1 0x1F ADD PUSH1 0x20 DUP1 SWAP2 DIV MUL PUSH1 0x20 ADD PUSH1 0x40 MLOAD SWAP1 DUP2 ADD PUSH1 0x40 MSTORE DUP1 SWAP3 SWAP2 SWAP1 DUP2 DUP2 MSTORE PUSH1 0x20 ADD DUP3 DUP1 SLOAD PUSH2 0x700 SWAP1 PUSH2 0xFA8 JUMP JUMPDEST DUP1 ISZERO PUSH2 0x74D JUMPI DUP1 PUSH1 0x1F LT PUSH2 0x722 JUMPI PUSH2 0x100 DUP1 DUP4 SLOAD DIV MUL DUP4 MSTORE SWAP2 PUSH1 0x20 ADD SWAP2 PUSH2 0x74D JUMP JUMPDEST DUP3 ADD SWAP2 SWAP1 PUSH1 0x0 MSTORE PUSH1 0x20 PUSH1 0x0 KECCAK256 SWAP1 JUMPDEST DUP2 SLOAD DUP2 MSTORE SWAP1 PUSH1 0x1 ADD SWAP1 PUSH1 0x20 ADD DUP1 DUP4 GT PUSH2 0x730 JUMPI DUP3 SWAP1 SUB PUSH1 0x1F AND DUP3 ADD SWAP2 JUMPDEST POP POP POP POP POP SWAP1 DUP1 PUSH1 0x3 ADD DUP1 SLOAD PUSH2 0x762 SWAP1 PUSH2 0xFA8 JUMP JUMPDEST DUP1 PUSH1 0x1F ADD PUSH1 0x20 DUP1 SWAP2 DIV MUL PUSH1 0x20 ADD PUSH1 0x40 MLOAD SWAP1 DUP2 ADD PUSH1 0x40 MSTORE DUP1 SWAP3 SWAP2 SWAP1 DUP2 DUP2 MSTORE PUSH1 0x20 ADD DUP3 DUP1 SLOAD PUSH2 0x78E SWAP1 PUSH2 0xFA8 JUMP JUMPDEST DUP1 ISZERO PUSH2 0x7DB JUMPI DUP1 PUSH1 0x1F LT PUSH2 0x7B0 JUMPI PUSH2 0x100 DUP1 DUP4 SLOAD DIV MUL DUP4 MSTORE SWAP2 PUSH1 0x20 ADD SWAP2 PUSH2 0x7DB JUMP JUMPDEST DUP3 ADD SWAP2 SWAP1 PUSH1 0x0 MSTORE PUSH1 0x20 PUSH1 0x0 KECCAK256 SWAP1 JUMPDEST DUP2 SLOAD DUP2 MSTORE SWAP1 PUSH1 0x1 ADD SWAP1 PUSH1 0x20 ADD DUP1 DUP4 GT PUSH2 0x7BE JUMPI DUP3 SWAP1 SUB PUSH1 0x1F AND DUP3 ADD SWAP2 JUMPDEST POP POP POP POP POP SWAP1 DUP1 PUSH1 0x4 ADD DUP1 SLOAD PUSH2 0x7F0 SWAP1 PUSH2 0xFA8 JUMP JUMPDEST DUP1 PUSH1 0x1F ADD PUSH1 0x20 DUP1 SWAP2 DIV MUL PUSH1 0x20 ADD PUSH1 0x40 MLOAD SWAP1 DUP2 ADD PUSH1 0x40 MSTORE DUP1 SWAP3 SWAP2 SWAP1 DUP2 DUP2 MSTORE PUSH1 0x20 ADD DUP3 DUP1 SLOAD PUSH2 0x81C SWAP1 PUSH2 0xFA8 JUMP JUMPDEST DUP1 ISZERO PUSH2 0x869 JUMPI DUP1 PUSH1 0x1F LT PUSH2 0x83E JUMPI PUSH2 0x100 DUP1 DUP4 SLOAD DIV MUL DUP4 MSTORE SWAP2 PUSH1 0x20 ADD SWAP2 PUSH2 0x869 JUMP JUMPDEST DUP3 ADD SWAP2 SWAP1 PUSH1 0x0 MSTORE PUSH1 0x20 PUSH1 0x0 KECCAK256 SWAP1 JUMPDEST DUP2 SLOAD DUP2 MSTORE SWAP1 PUSH1 0x1 ADD SWAP1 PUSH1 0x20 ADD DUP1 DUP4 GT PUSH2 0x84C JUMPI DUP3 SWAP1 SUB PUSH1 0x1F AND DUP3 ADD SWAP2 JUMPDEST POP POP POP POP POP SWAP1 DUP1 PUSH1 0x5 ADD DUP1 SLOAD PUSH2 0x87E SWAP1 PUSH2 0xFA8 JUMP JUMPDEST DUP1 PUSH1 0x1F ADD PUSH1 0x20 DUP1 SWAP2 DIV MUL PUSH1 0x20 ADD PUSH1 0x40 MLOAD SWAP1 DUP2 ADD PUSH1 0x40 MSTORE DUP1 SWAP3 SWAP2 SWAP1 DUP2 DUP2 MSTORE PUSH1 0x20 ADD DUP3 DUP1 SLOAD PUSH2 0x8AA SWAP1 PUSH2 0xFA8 JUMP JUMPDEST DUP1 ISZERO PUSH2 0x8F7 JUMPI DUP1 PUSH1 0x1F LT PUSH2 0x8CC JUMPI PUSH2 0x100 DUP1 DUP4 SLOAD DIV MUL DUP4 MSTORE SWAP2 PUSH1 0x20 ADD SWAP2 PUSH2 0x8F7 JUMP JUMPDEST DUP3 ADD SWAP2 SWAP1 PUSH1 0x0 MSTORE PUSH1 0x20 PUSH1 0x0 KECCAK256 SWAP1 JUMPDEST DUP2 SLOAD DUP2 MSTORE SWAP1 PUSH1 0x1 ADD SWAP1 PUSH1 0x20 ADD DUP1 DUP4 GT PUSH2 0x8DA JUMPI DUP3 SWAP1 SUB PUSH1 0x1F AND DUP3 ADD SWAP2 JUMPDEST POP POP POP POP POP SWAP1 POP DUP7 JUMP JUMPDEST PUSH2 0x909 PUSH2 0xAA8 JUMP JUMPDEST PUSH2 0x913 PUSH1 0x0 PUSH2 0xB02 JUMP JUMPDEST JUMP JUMPDEST PUSH2 0x960 PUSH1 0x40 MLOAD DUP1 PUSH1 0xC0 ADD PUSH1 0x40 MSTORE DUP1 PUSH1 0x0 PUSH1 0x1 PUSH1 0x1 PUSH1 0xA0 SHL SUB AND DUP2 MSTORE PUSH1 0x20 ADD PUSH1 0x0 PUSH1 0x1 PUSH1 0x1 PUSH1 0xA0 SHL SUB AND DUP2 MSTORE PUSH1 0x20 ADD PUSH1 0x60 DUP2 MSTORE PUSH1 0x20 ADD PUSH1 0x60 DUP2 MSTORE PUSH1 0x20 ADD PUSH1 0x60 DUP2 MSTORE PUSH1 0x20 ADD PUSH1 0x60 DUP2 MSTORE POP SWAP1 JUMP JUMPDEST PUSH1 0x1 PUSH1 0x1 PUSH1 0xA0 SHL SUB DUP1 DUP4 AND PUSH1 0x0 SWAP1 DUP2 MSTORE PUSH1 0x1 PUSH1 0x20 DUP2 DUP2 MSTORE PUSH1 0x40 SWAP3 DUP4 SWAP1 KECCAK256 DUP4 MLOAD PUSH1 0xC0 DUP2 ADD DUP6 MSTORE DUP2 SLOAD DUP7 AND DUP2 MSTORE SWAP3 DUP2 ADD SLOAD SWAP1 SWAP5 AND SWAP1 DUP3 ADD MSTORE PUSH1 0x2 DUP4 ADD DUP1 SLOAD SWAP2 SWAP4 SWAP3 DUP5 ADD SWAP2 PUSH2 0x451 SWAP1 PUSH2 0xFA8 JUMP JUMPDEST PUSH1 0x1 PUSH1 0x1 PUSH1 0xA0 SHL SUB DUP3 AND PUSH1 0x0 SWAP1 DUP2 MSTORE PUSH1 0x1 PUSH1 0x20 SWAP1 DUP2 MSTORE PUSH1 0x40 SWAP1 SWAP2 KECCAK256 DUP3 MLOAD SWAP1 SWAP2 PUSH2 0x9DB SWAP2 PUSH1 0x5 DUP5 ADD SWAP2 DUP6 ADD SWAP1 PUSH2 0xB5F JUMP JUMPDEST POP POP POP POP JUMP JUMPDEST PUSH2 0x9E9 PUSH2 0xAA8 JUMP JUMPDEST PUSH1 0x1 PUSH1 0x1 PUSH1 0xA0 SHL SUB DUP2 AND PUSH2 0xA65 JUMPI PUSH1 0x40 MLOAD PUSH3 0x461BCD PUSH1 0xE5 SHL DUP2 MSTORE PUSH1 0x20 PUSH1 0x4 DUP3 ADD MSTORE PUSH1 0x26 PUSH1 0x24 DUP3 ADD MSTORE PUSH32 0x4F776E61626C653A206E6577206F776E657220697320746865207A65726F2061 PUSH1 0x44 DUP3 ADD MSTORE PUSH32 0x6464726573730000000000000000000000000000000000000000000000000000 PUSH1 0x64 DUP3 ADD MSTORE PUSH1 0x84 ADD PUSH2 0x1D7 JUMP JUMPDEST PUSH2 0xA6E DUP2 PUSH2 0xB02 JUMP JUMPDEST POP JUMP JUMPDEST PUSH1 0x1 PUSH1 0x20 DUP2 SWAP1 MSTORE PUSH1 0x0 SWAP2 DUP3 MSTORE PUSH1 0x40 SWAP1 SWAP2 KECCAK256 DUP1 SLOAD SWAP2 DUP2 ADD SLOAD PUSH1 0x2 DUP3 ADD DUP1 SLOAD PUSH1 0x1 PUSH1 0x1 PUSH1 0xA0 SHL SUB SWAP5 DUP6 AND SWAP5 SWAP1 SWAP3 AND SWAP3 SWAP2 PUSH2 0x6D4 SWAP1 PUSH2 0xFA8 JUMP JUMPDEST PUSH1 0x0 SLOAD PUSH1 0x1 PUSH1 0x1 PUSH1 0xA0 SHL SUB AND CALLER EQ PUSH2 0x913 JUMPI PUSH1 0x40 MLOAD PUSH3 0x461BCD PUSH1 0xE5 SHL DUP2 MSTORE PUSH1 0x20 PUSH1 0x4 DUP3 ADD DUP2 SWAP1 MSTORE PUSH1 0x24 DUP3 ADD MSTORE PUSH32 0x4F776E61626C653A2063616C6C6572206973206E6F7420746865206F776E6572 PUSH1 0x44 DUP3 ADD MSTORE PUSH1 0x64 ADD PUSH2 0x1D7 JUMP JUMPDEST PUSH1 0x0 DUP1 SLOAD PUSH1 0x1 PUSH1 0x1 PUSH1 0xA0 SHL SUB DUP4 DUP2 AND PUSH20 0xFFFFFFFFFFFFFFFFFFFFFFFFFFFFFFFFFFFFFFFF NOT DUP4 AND DUP2 OR DUP5 SSTORE PUSH1 0x40 MLOAD SWAP2 SWAP1 SWAP3 AND SWAP3 DUP4 SWAP2 PUSH32 0x8BE0079C531659141344CD1FD0A4F28419497F9722A3DAAFE3B4186F6B6457E0 SWAP2 SWAP1 LOG3 POP POP JUMP JUMPDEST DUP3 DUP1 SLOAD PUSH2 0xB6B SWAP1 PUSH2 0xFA8 JUMP JUMPDEST SWAP1 PUSH1 0x0 MSTORE PUSH1 0x20 PUSH1 0x0 KECCAK256 SWAP1 PUSH1 0x1F ADD PUSH1 0x20 SWAP1 DIV DUP2 ADD SWAP3 DUP3 PUSH2 0xB8D JUMPI PUSH1 0x0 DUP6 SSTORE PUSH2 0xBD3 JUMP JUMPDEST DUP3 PUSH1 0x1F LT PUSH2 0xBA6 JUMPI DUP1 MLOAD PUSH1 0xFF NOT AND DUP4 DUP1 ADD OR DUP6 SSTORE PUSH2 0xBD3 JUMP JUMPDEST DUP3 DUP1 ADD PUSH1 0x1 ADD DUP6 SSTORE DUP3 ISZERO PUSH2 0xBD3 JUMPI SWAP2 DUP3 ADD JUMPDEST DUP3 DUP2 GT ISZERO PUSH2 0xBD3 JUMPI DUP3 MLOAD DUP3 SSTORE SWAP2 PUSH1 0x20 ADD SWAP2 SWAP1 PUSH1 0x1 ADD SWAP1 PUSH2 0xBB8 JUMP JUMPDEST POP PUSH2 0xBDF SWAP3 SWAP2 POP PUSH2 0xBE3 JUMP JUMPDEST POP SWAP1 JUMP JUMPDEST JUMPDEST DUP1 DUP3 GT ISZERO PUSH2 0xBDF JUMPI PUSH1 0x0 DUP2 SSTORE PUSH1 0x1 ADD PUSH2 0xBE4 JUMP JUMPDEST DUP1 CALLDATALOAD PUSH1 0x1 PUSH1 0x1 PUSH1 0xA0 SHL SUB DUP2 AND DUP2 EQ PUSH2 0xC0F JUMPI PUSH1 0x0 DUP1 REVERT JUMPDEST SWAP2 SWAP1 POP JUMP JUMPDEST PUSH4 0x4E487B71 PUSH1 0xE0 SHL PUSH1 0x0 MSTORE PUSH1 0x41 PUSH1 0x4 MSTORE PUSH1 0x24 PUSH1 0x0 REVERT JUMPDEST PUSH1 0x0 DUP3 PUSH1 0x1F DUP4 ADD SLT PUSH2 0xC3B JUMPI PUSH1 0x0 DUP1 REVERT JUMPDEST DUP2 CALLDATALOAD PUSH8 0xFFFFFFFFFFFFFFFF DUP1 DUP3 GT ISZERO PUSH2 0xC56 JUMPI PUSH2 0xC56 PUSH2 0xC14 JUMP JUMPDEST PUSH1 0x40 MLOAD PUSH1 0x1F DUP4 ADD PUSH1 0x1F NOT SWAP1 DUP2 AND PUSH1 0x3F ADD AND DUP2 ADD SWAP1 DUP3 DUP3 GT DUP2 DUP4 LT OR ISZERO PUSH2 0xC7E JUMPI PUSH2 0xC7E PUSH2 0xC14 JUMP JUMPDEST DUP2 PUSH1 0x40 MSTORE DUP4 DUP2 MSTORE DUP7 PUSH1 0x20 DUP6 DUP9 ADD ADD GT ISZERO PUSH2 0xC97 JUMPI PUSH1 0x0 DUP1 REVERT JUMPDEST DUP4 PUSH1 0x20 DUP8 ADD PUSH1 0x20 DUP4 ADD CALLDATACOPY PUSH1 0x0 PUSH1 0x20 DUP6 DUP4 ADD ADD MSTORE DUP1 SWAP5 POP POP POP POP POP SWAP3 SWAP2 POP POP JUMP JUMPDEST PUSH1 0x0 DUP1 PUSH1 0x0 DUP1 PUSH1 0x0 PUSH1 0xA0 DUP7 DUP9 SUB SLT ISZERO PUSH2 0xCCF JUMPI PUSH1 0x0 DUP1 REVERT JUMPDEST PUSH2 0xCD8 DUP7 PUSH2 0xBF8 JUMP JUMPDEST SWAP5 POP PUSH1 0x20 DUP7 ADD CALLDATALOAD PUSH8 0xFFFFFFFFFFFFFFFF DUP1 DUP3 GT ISZERO PUSH2 0xCF5 JUMPI PUSH1 0x0 DUP1 REVERT JUMPDEST PUSH2 0xD01 DUP10 DUP4 DUP11 ADD PUSH2 0xC2A JUMP JUMPDEST SWAP6 POP PUSH1 0x40 DUP9 ADD CALLDATALOAD SWAP2 POP DUP1 DUP3 GT ISZERO PUSH2 0xD17 JUMPI PUSH1 0x0 DUP1 REVERT JUMPDEST PUSH2 0xD23 DUP10 DUP4 DUP11 ADD PUSH2 0xC2A JUMP JUMPDEST SWAP5 POP PUSH1 0x60 DUP9 ADD CALLDATALOAD SWAP2 POP DUP1 DUP3 GT ISZERO PUSH2 0xD39 JUMPI PUSH1 0x0 DUP1 REVERT JUMPDEST PUSH2 0xD45 DUP10 DUP4 DUP11 ADD PUSH2 0xC2A JUMP JUMPDEST SWAP4 POP PUSH1 0x80 DUP9 ADD CALLDATALOAD SWAP2 POP DUP1 DUP3 GT ISZERO PUSH2 0xD5B JUMPI PUSH1 0x0 DUP1 REVERT JUMPDEST POP PUSH2 0xD68 DUP9 DUP3 DUP10 ADD PUSH2 0xC2A JUMP JUMPDEST SWAP2 POP POP SWAP3 SWAP6 POP SWAP3 SWAP6 SWAP1 SWAP4 POP JUMP JUMPDEST PUSH1 0x0 PUSH1 0x20 DUP3 DUP5 SUB SLT ISZERO PUSH2 0xD87 JUMPI PUSH1 0x0 DUP1 REVERT JUMPDEST DUP2 CALLDATALOAD PUSH8 0xFFFFFFFFFFFFFFFF DUP2 GT ISZERO PUSH2 0xD9E JUMPI PUSH1 0x0 DUP1 REVERT JUMPDEST PUSH2 0xDAA DUP5 DUP3 DUP6 ADD PUSH2 0xC2A JUMP JUMPDEST SWAP5 SWAP4 POP POP POP POP JUMP JUMPDEST PUSH1 0x0 JUMPDEST DUP4 DUP2 LT ISZERO PUSH2 0xDCD JUMPI DUP2 DUP2 ADD MLOAD DUP4 DUP3 ADD MSTORE PUSH1 0x20 ADD PUSH2 0xDB5 JUMP JUMPDEST DUP4 DUP2 GT ISZERO PUSH2 0x9DB JUMPI POP POP PUSH1 0x0 SWAP2 ADD MSTORE JUMP JUMPDEST PUSH1 0x0 DUP2 MLOAD DUP1 DUP5 MSTORE PUSH2 0xDF6 DUP2 PUSH1 0x20 DUP7 ADD PUSH1 0x20 DUP7 ADD PUSH2 0xDB2 JUMP JUMPDEST PUSH1 0x1F ADD PUSH1 0x1F NOT AND SWAP3 SWAP1 SWAP3 ADD PUSH1 0x20 ADD SWAP3 SWAP2 POP POP JUMP JUMPDEST PUSH1 0x20 DUP2 MSTORE PUSH1 0x0 PUSH1 0x1 PUSH1 0x1 PUSH1 0xA0 SHL SUB DUP1 DUP5 MLOAD AND PUSH1 0x20 DUP5 ADD MSTORE DUP1 PUSH1 0x20 DUP6 ADD MLOAD AND PUSH1 0x40 DUP5 ADD MSTORE POP PUSH1 0x40 DUP4 ADD MLOAD PUSH1 0xC0 PUSH1 0x60 DUP5 ADD MSTORE PUSH2 0xE47 PUSH1 0xE0 DUP5 ADD DUP3 PUSH2 0xDDE JUMP JUMPDEST SWAP1 POP PUSH1 0x60 DUP5 ADD MLOAD PUSH1 0x1F NOT DUP1 DUP6 DUP5 SUB ADD PUSH1 0x80 DUP7 ADD MSTORE PUSH2 0xE65 DUP4 DUP4 PUSH2 0xDDE JUMP JUMPDEST SWAP3 POP PUSH1 0x80 DUP7 ADD MLOAD SWAP2 POP DUP1 DUP6 DUP5 SUB ADD PUSH1 0xA0 DUP7 ADD MSTORE PUSH2 0xE82 DUP4 DUP4 PUSH2 0xDDE JUMP JUMPDEST SWAP3 POP PUSH1 0xA0 DUP7 ADD MLOAD SWAP2 POP DUP1 DUP6 DUP5 SUB ADD PUSH1 0xC0 DUP7 ADD MSTORE POP PUSH2 0xEA0 DUP3 DUP3 PUSH2 0xDDE JUMP JUMPDEST SWAP6 SWAP5 POP POP POP POP POP JUMP JUMPDEST PUSH1 0x0 PUSH1 0x1 PUSH1 0x1 PUSH1 0xA0 SHL SUB DUP1 DUP10 AND DUP4 MSTORE DUP1 DUP9 AND PUSH1 0x20 DUP5 ADD MSTORE POP PUSH1 0xC0 PUSH1 0x40 DUP4 ADD MSTORE PUSH2 0xED5 PUSH1 0xC0 DUP4 ADD DUP8 PUSH2 0xDDE JUMP JUMPDEST DUP3 DUP2 SUB PUSH1 0x60 DUP5 ADD MSTORE PUSH2 0xEE7 DUP2 DUP8 PUSH2 0xDDE JUMP JUMPDEST SWAP1 POP DUP3 DUP2 SUB PUSH1 0x80 DUP5 ADD MSTORE PUSH2 0xEFB DUP2 DUP7 PUSH2 0xDDE JUMP JUMPDEST SWAP1 POP DUP3 DUP2 SUB PUSH1 0xA0 DUP5 ADD MSTORE PUSH2 0xF0F DUP2 DUP6 PUSH2 0xDDE JUMP JUMPDEST SWAP10 SWAP9 POP POP POP POP POP POP POP POP POP JUMP JUMPDEST PUSH1 0x0 PUSH1 0x20 DUP3 DUP5 SUB SLT ISZERO PUSH2 0xF2E JUMPI PUSH1 0x0 DUP1 REVERT JUMPDEST PUSH2 0xF37 DUP3 PUSH2 0xBF8 JUMP JUMPDEST SWAP4 SWAP3 POP POP POP JUMP JUMPDEST PUSH1 0x0 DUP1 PUSH1 0x40 DUP4 DUP6 SUB SLT ISZERO PUSH2 0xF51 JUMPI PUSH1 0x0 DUP1 REVERT JUMPDEST PUSH2 0xF5A DUP4 PUSH2 0xBF8 JUMP JUMPDEST SWAP2 POP PUSH1 0x20 DUP4 ADD CALLDATALOAD PUSH8 0xFFFFFFFFFFFFFFFF DUP2 GT ISZERO PUSH2 0xF76 JUMPI PUSH1 0x0 DUP1 REVERT JUMPDEST PUSH2 0xF82 DUP6 DUP3 DUP7 ADD PUSH2 0xC2A JUMP JUMPDEST SWAP2 POP POP SWAP3 POP SWAP3 SWAP1 POP JUMP JUMPDEST PUSH1 0x0 DUP3 MLOAD PUSH2 0xF9E DUP2 DUP5 PUSH1 0x20 DUP8 ADD PUSH2 0xDB2 JUMP JUMPDEST SWAP2 SWAP1 SWAP2 ADD SWAP3 SWAP2 POP POP JUMP JUMPDEST PUSH1 0x1 DUP2 DUP2 SHR SWAP1 DUP3 AND DUP1 PUSH2 0xFBC JUMPI PUSH1 0x7F DUP3 AND SWAP2 POP JUMPDEST PUSH1 0x20 DUP3 LT DUP2 SUB PUSH2 0xFDC JUMPI PUSH4 0x4E487B71 PUSH1 0xE0 SHL PUSH1 0x0 MSTORE PUSH1 0x22 PUSH1 0x4 MSTORE PUSH1 0x24 PUSH1 0x0 REVERT JUMPDEST POP SWAP2 SWAP1 POP JUMP INVALID LOG2 PUSH5 0x6970667358 0x22 SLT KECCAK256 0xDC 0xAA GT PUSH21 0xC4271B357DB0C0D98B18CC805291320C0526072E65 ORIGIN 0xEB 0xBB SWAP12 0xB0 DUP3 0xC3 PUSH5 0x736F6C6343 STOP ADDMOD 0xD STOP CALLER "
    },
    "gasEstimates": {
      "creation": {
        "codeDepositCost": "824000",
        "executionCost": "26698",
        "totalCost": "850698"
      },
      "external": {
        "addAuthToken(address,string)": "infinite",
        "createUser(address,string,string,string,string)": "infinite",
        "fetchUser(address)": "infinite",
        "fetchUserByAlias(string)": "infinite",
        "managers(address)": "infinite",
        "owner()": "2324",
        "renounceOwnership()": "infinite",
        "swiftIds(string)": "infinite",
        "transferOwnership(address)": "28365"
      }
    },
    "methodIdentifiers": {
      "addAuthToken(address,string)": "bf186acc",
      "createUser(address,string,string,string,string)": "43214fcb",
      "fetchUser(address)": "be6f0ea2",
      "fetchUserByAlias(string)": "5498a29d",
      "managers(address)": "fdff9b4d",
      "owner()": "8da5cb5b",
      "renounceOwnership()": "715018a6",
      "swiftIds(string)": "638f6cc8",
      "transferOwnership(address)": "f2fde38b"
    }
  },
  "storageLayout": {
    "storage": [
      {
        "astId": 1058,
        "contract": "SDKManager.sol:SDKManager",
        "label": "_owner",
        "offset": 0,
        "slot": "0",
        "type": "t_address"
      },
      {
        "astId": 22,
        "contract": "SDKManager.sol:SDKManager",
        "label": "managers",
        "offset": 0,
        "slot": "1",
        "type": "t_mapping(t_address,t_struct(Manager)17_storage)"
      },
      {
        "astId": 28,
        "contract": "SDKManager.sol:SDKManager",
        "label": "swiftIds",
        "offset": 0,
        "slot": "2",
        "type": "t_mapping(t_string_memory_ptr,t_struct(Manager)17_storage)"
      }
    ],
    "types": {
      "t_address": {
        "encoding": "inplace",
        "label": "address",
        "numberOfBytes": "20"
      },
      "t_mapping(t_address,t_struct(Manager)17_storage)": {
        "encoding": "mapping",
        "key": "t_address",
        "label": "mapping(address => struct SDKManager.Manager)",
        "numberOfBytes": "32",
        "value": "t_struct(Manager)17_storage"
      },
      "t_mapping(t_string_memory_ptr,t_struct(Manager)17_storage)": {
        "encoding": "mapping",
        "key": "t_string_memory_ptr",
        "label": "mapping(string => struct SDKManager.Manager)",
        "numberOfBytes": "32",
        "value": "t_struct(Manager)17_storage"
      },
      "t_string_memory_ptr": {
        "encoding": "bytes",
        "label": "string",
        "numberOfBytes": "32"
      },
      "t_string_storage": {
        "encoding": "bytes",
        "label": "string",
        "numberOfBytes": "32"
      },
      "t_struct(Manager)17_storage": {
        "encoding": "inplace",
        "label": "struct SDKManager.Manager",
        "members": [
          {
            "astId": 6,
            "contract": "SDKManager.sol:SDKManager",
            "label": "managerAddress",
            "offset": 0,
            "slot": "0",
            "type": "t_address"
          },
          {
            "astId": 8,
            "contract": "SDKManager.sol:SDKManager",
            "label": "SCW",
            "offset": 0,
            "slot": "1",
            "type": "t_address"
          },
          {
            "astId": 10,
            "contract": "SDKManager.sol:SDKManager",
            "label": "swiftId",
            "offset": 0,
            "slot": "2",
            "type": "t_string_storage"
          },
          {
            "astId": 12,
            "contract": "SDKManager.sol:SDKManager",
            "label": "MerchantName",
            "offset": 0,
            "slot": "3",
            "type": "t_string_storage"
          },
          {
            "astId": 14,
            "contract": "SDKManager.sol:SDKManager",
            "label": "qrCodeCId",
            "offset": 0,
            "slot": "4",
            "type": "t_string_storage"
          },
          {
            "astId": 16,
            "contract": "SDKManager.sol:SDKManager",
            "label": "authToken",
            "offset": 0,
            "slot": "5",
            "type": "t_string_storage"
          }
        ],
        "numberOfBytes": "192"
      }
    }
  },
  "userdoc": {
    "kind": "user",
    "methods": {
      "createUser(address,string,string,string,string)": {
        "notice": "issue an SwiftAlias and add user to the data"
      },
      "swiftIds(string)": {
        "notice": "mapping swiftId --> Manager"
      }
    },
    "version": 1
  }
}