{
  "abi": [
    {
      "anonymous": false,
      "inputs": [
        {
          "indexed": true,
          "internalType": "address",
          "name": "previousOwner",
          "type": "address"
        },
        {
          "indexed": true,
          "internalType": "address",
          "name": "newOwner",
          "type": "address"
        }
      ],
      "name": "OwnershipTransferred",
      "type": "event"
    },
    {
      "anonymous": false,
      "inputs": [
        {
          "indexed": false,
          "internalType": "address",
          "name": "_userAddres",
          "type": "address"
        },
        {
          "indexed": false,
          "internalType": "string",
          "name": "_swiftId",
          "type": "string"
        },
        {
          "indexed": false,
          "internalType": "string",
          "name": "_name",
          "type": "string"
        }
      ],
      "name": "UserCreated",
      "type": "event"
    },
    {
      "inputs": [
        {
          "internalType": "address",
          "name": "SCWAddress",
          "type": "address"
        },
        {
          "internalType": "string",
          "name": "_swiftAlias",
          "type": "string"
        },
        {
          "internalType": "string",
          "name": "_ens",
          "type": "string"
        },
        {
          "internalType": "string",
          "name": "_lens",
          "type": "string"
        },
        {
          "internalType": "string",
          "name": "_name",
          "type": "string"
        },
        {
          "internalType": "string",
          "name": "_qrCode",
          "type": "string"
        }
      ],
      "name": "createUser",
      "outputs": [],
      "stateMutability": "nonpayable",
      "type": "function"
    },
    {
      "inputs": [
        {
          "internalType": "address",
          "name": "user",
          "type": "address"
        }
      ],
      "name": "fetchUser",
      "outputs": [
        {
          "components": [
            {
              "internalType": "address",
              "name": "userAddress",
              "type": "address"
            },
            {
              "internalType": "address",
              "name": "SCW",
              "type": "address"
            },
            {
              "internalType": "string",
              "name": "swiftId",
              "type": "string"
            },
            {
              "internalType": "string",
              "name": "ens",
              "type": "string"
            },
            {
              "internalType": "string",
              "name": "lens",
              "type": "string"
            },
            {
              "internalType": "string",
              "name": "name",
              "type": "string"
            },
            {
              "internalType": "string",
              "name": "qrCodeCId",
              "type": "string"
            }
          ],
          "internalType": "struct profileManager.User",
          "name": "",
          "type": "tuple"
        }
      ],
      "stateMutability": "view",
      "type": "function"
    },
    {
      "inputs": [
        {
          "internalType": "string",
          "name": "_swiftAlias",
          "type": "string"
        }
      ],
      "name": "fetchUserByAlias",
      "outputs": [
        {
          "components": [
            {
              "internalType": "address",
              "name": "userAddress",
              "type": "address"
            },
            {
              "internalType": "address",
              "name": "SCW",
              "type": "address"
            },
            {
              "internalType": "string",
              "name": "swiftId",
              "type": "string"
            },
            {
              "internalType": "string",
              "name": "ens",
              "type": "string"
            },
            {
              "internalType": "string",
              "name": "lens",
              "type": "string"
            },
            {
              "internalType": "string",
              "name": "name",
              "type": "string"
            },
            {
              "internalType": "string",
              "name": "qrCodeCId",
              "type": "string"
            }
          ],
          "internalType": "struct profileManager.User",
          "name": "",
          "type": "tuple"
        }
      ],
      "stateMutability": "view",
      "type": "function"
    },
    {
      "inputs": [],
      "name": "owner",
      "outputs": [
        {
          "internalType": "address",
          "name": "",
          "type": "address"
        }
      ],
      "stateMutability": "view",
      "type": "function"
    },
    {
      "inputs": [],
      "name": "renounceOwnership",
      "outputs": [],
      "stateMutability": "nonpayable",
      "type": "function"
    },
    {
      "inputs": [
        {
          "internalType": "string",
          "name": "",
          "type": "string"
        }
      ],
      "name": "swiftIds",
      "outputs": [
        {
          "internalType": "address",
          "name": "userAddress",
          "type": "address"
        },
        {
          "internalType": "address",
          "name": "SCW",
          "type": "address"
        },
        {
          "internalType": "string",
          "name": "swiftId",
          "type": "string"
        },
        {
          "internalType": "string",
          "name": "ens",
          "type": "string"
        },
        {
          "internalType": "string",
          "name": "lens",
          "type": "string"
        },
        {
          "internalType": "string",
          "name": "name",
          "type": "string"
        },
        {
          "internalType": "string",
          "name": "qrCodeCId",
          "type": "string"
        }
      ],
      "stateMutability": "view",
      "type": "function"
    },
    {
      "inputs": [
        {
          "internalType": "address",
          "name": "newOwner",
          "type": "address"
        }
      ],
      "name": "transferOwnership",
      "outputs": [],
      "stateMutability": "nonpayable",
      "type": "function"
    },
    {
      "inputs": [
        {
          "internalType": "string",
          "name": "_newAlias",
          "type": "string"
        }
      ],
      "name": "updateSwiftAlias",
      "outputs": [],
      "stateMutability": "nonpayable",
      "type": "function"
    },
    {
      "inputs": [
        {
          "internalType": "address",
          "name": "",
          "type": "address"
        }
      ],
      "name": "userProfiles",
      "outputs": [
        {
          "internalType": "address",
          "name": "userAddress",
          "type": "address"
        },
        {
          "internalType": "address",
          "name": "SCW",
          "type": "address"
        },
        {
          "internalType": "string",
          "name": "swiftId",
          "type": "string"
        },
        {
          "internalType": "string",
          "name": "ens",
          "type": "string"
        },
        {
          "internalType": "string",
          "name": "lens",
          "type": "string"
        },
        {
          "internalType": "string",
          "name": "name",
          "type": "string"
        },
        {
          "internalType": "string",
          "name": "qrCodeCId",
          "type": "string"
        }
      ],
      "stateMutability": "view",
      "type": "function"
    }
  ],
  "devdoc": {
    "kind": "dev",
    "methods": {
      "owner()": {
        "details": "Returns the address of the current owner."
      },
      "renounceOwnership()": {
        "details": "Leaves the contract without owner. It will not be possible to call `onlyOwner` functions anymore. Can only be called by the current owner. NOTE: Renouncing ownership will leave the contract without an owner, thereby removing any functionality that is only available to the owner."
      },
      "transferOwnership(address)": {
        "details": "Transfers ownership of the contract to a new account (`newOwner`). Can only be called by the current owner."
      }
    },
    "version": 1
  },
  "evm": {
    "assembly": "    /* \"profileManager.sol\":375:2086  contract profileManager is Ownable {... */\n  mstore(0x40, 0x80)\n  callvalue\n  dup1\n  iszero\n  tag_1\n  jumpi\n  0x00\n  dup1\n  revert\ntag_1:\n  pop\n    /* \"@openzeppelin/contracts/access/Ownable.sol\":936:968   */\n  tag_4\n    /* \"@openzeppelin/contracts/utils/Context.sol\":719:729   */\n  caller\n    /* \"@openzeppelin/contracts/access/Ownable.sol\":936:954   */\n  tag_7\n    /* \"@openzeppelin/contracts/access/Ownable.sol\":936:968   */\n  jump\t// in\ntag_4:\n    /* \"profileManager.sol\":375:2086  contract profileManager is Ownable {... */\n  jump(tag_8)\n    /* \"@openzeppelin/contracts/access/Ownable.sol\":2433:2620   */\ntag_7:\n    /* \"@openzeppelin/contracts/access/Ownable.sol\":2506:2522   */\n  0x00\n    /* \"@openzeppelin/contracts/access/Ownable.sol\":2525:2531   */\n  dup1\n  sload\n  sub(shl(0xa0, 0x01), 0x01)\n    /* \"@openzeppelin/contracts/access/Ownable.sol\":2541:2558   */\n  dup4\n  dup2\n  and\n  not(sub(shl(0xa0, 0x01), 0x01))\n  dup4\n  and\n  dup2\n  or\n  dup5\n  sstore\n    /* \"@openzeppelin/contracts/access/Ownable.sol\":2573:2613   */\n  mload(0x40)\n    /* \"@openzeppelin/contracts/access/Ownable.sol\":2525:2531   */\n  swap2\n  swap1\n  swap3\n  and\n  swap3\n  dup4\n  swap2\n    /* \"@openzeppelin/contracts/access/Ownable.sol\":2573:2613   */\n  0x8be0079c531659141344cd1fd0a4f28419497f9722a3daafe3b4186f6b6457e0\n  swap2\n    /* \"@openzeppelin/contracts/access/Ownable.sol\":2506:2522   */\n  swap1\n    /* \"@openzeppelin/contracts/access/Ownable.sol\":2573:2613   */\n  log3\n    /* \"@openzeppelin/contracts/access/Ownable.sol\":2496:2620   */\n  pop\n    /* \"@openzeppelin/contracts/access/Ownable.sol\":2433:2620   */\n  pop\n  jump\t// out\n    /* \"profileManager.sol\":375:2086  contract profileManager is Ownable {... */\ntag_8:\n  dataSize(sub_0)\n  dup1\n  dataOffset(sub_0)\n  0x00\n  codecopy\n  0x00\n  return\nstop\n\nsub_0: assembly {\n        /* \"profileManager.sol\":375:2086  contract profileManager is Ownable {... */\n      mstore(0x40, 0x80)\n      callvalue\n      dup1\n      iszero\n      tag_1\n      jumpi\n      0x00\n      dup1\n      revert\n    tag_1:\n      pop\n      jumpi(tag_2, lt(calldatasize, 0x04))\n      shr(0xe0, calldataload(0x00))\n      dup1\n      0x715018a6\n      gt\n      tag_12\n      jumpi\n      dup1\n      0xa377d18f\n      gt\n      tag_13\n      jumpi\n      dup1\n      0xa377d18f\n      eq\n      tag_9\n      jumpi\n      dup1\n      0xbe6f0ea2\n      eq\n      tag_10\n      jumpi\n      dup1\n      0xf2fde38b\n      eq\n      tag_11\n      jumpi\n      0x00\n      dup1\n      revert\n    tag_13:\n      dup1\n      0x715018a6\n      eq\n      tag_7\n      jumpi\n      dup1\n      0x8da5cb5b\n      eq\n      tag_8\n      jumpi\n      0x00\n      dup1\n      revert\n    tag_12:\n      dup1\n      0x215c58bd\n      eq\n      tag_3\n      jumpi\n      dup1\n      0x332d56d7\n      eq\n      tag_4\n      jumpi\n      dup1\n      0x5498a29d\n      eq\n      tag_5\n      jumpi\n      dup1\n      0x638f6cc8\n      eq\n      tag_6\n      jumpi\n    tag_2:\n      0x00\n      dup1\n      revert\n        /* \"profileManager.sol\":1648:1803  function updateSwiftAlias(string memory _newAlias) public {... */\n    tag_3:\n      tag_14\n      tag_15\n      calldatasize\n      0x04\n      tag_16\n      jump\t// in\n    tag_15:\n      tag_17\n      jump\t// in\n    tag_14:\n      stop\n        /* \"profileManager.sol\":756:800  mapping(address => User) public userProfiles */\n    tag_4:\n      tag_18\n      tag_19\n      calldatasize\n      0x04\n      tag_20\n      jump\t// in\n    tag_19:\n      tag_21\n      jump\t// in\n    tag_18:\n      mload(0x40)\n      tag_22\n      swap8\n      swap7\n      swap6\n      swap5\n      swap4\n      swap3\n      swap2\n      swap1\n      tag_23\n      jump\t// in\n    tag_22:\n      mload(0x40)\n      dup1\n      swap2\n      sub\n      swap1\n      return\n        /* \"profileManager.sol\":1924:2084  function fetchUserByAlias(string memory _swiftAlias)... */\n    tag_5:\n      tag_24\n      tag_25\n      calldatasize\n      0x04\n      tag_16\n      jump\t// in\n    tag_25:\n      tag_26\n      jump\t// in\n    tag_24:\n      mload(0x40)\n      tag_22\n      swap2\n      swap1\n      tag_28\n      jump\t// in\n        /* \"profileManager.sol\":840:879  mapping(string => User) public swiftIds */\n    tag_6:\n      tag_18\n      tag_30\n      calldatasize\n      0x04\n      tag_16\n      jump\t// in\n    tag_30:\n      tag_31\n      jump\t// in\n        /* \"@openzeppelin/contracts/access/Ownable.sol\":1831:1932   */\n    tag_7:\n      tag_14\n      tag_34\n      jump\t// in\n        /* \"@openzeppelin/contracts/access/Ownable.sol\":1201:1286   */\n    tag_8:\n        /* \"@openzeppelin/contracts/access/Ownable.sol\":1247:1254   */\n      0x00\n        /* \"@openzeppelin/contracts/access/Ownable.sol\":1273:1279   */\n      sload\n        /* \"@openzeppelin/contracts/access/Ownable.sol\":1201:1286   */\n      mload(0x40)\n      sub(shl(0xa0, 0x01), 0x01)\n        /* \"@openzeppelin/contracts/access/Ownable.sol\":1273:1279   */\n      swap1\n      swap2\n      and\n        /* \"#utility.yul\":4831:4905   */\n      dup2\n      mstore\n        /* \"#utility.yul\":4819:4821   */\n      0x20\n        /* \"#utility.yul\":4804:4822   */\n      add\n        /* \"@openzeppelin/contracts/access/Ownable.sol\":1201:1286   */\n      tag_22\n        /* \"#utility.yul\":4685:4911   */\n      jump\n        /* \"profileManager.sol\":1006:1642  function createUser(... */\n    tag_9:\n      tag_14\n      tag_40\n      calldatasize\n      0x04\n      tag_41\n      jump\t// in\n    tag_40:\n      tag_42\n      jump\t// in\n        /* \"profileManager.sol\":1809:1918  function fetchUser(address user) public view returns (User memory) {... */\n    tag_10:\n      tag_24\n      tag_44\n      calldatasize\n      0x04\n      tag_20\n      jump\t// in\n    tag_44:\n      tag_45\n      jump\t// in\n        /* \"@openzeppelin/contracts/access/Ownable.sol\":2081:2279   */\n    tag_11:\n      tag_14\n      tag_48\n      calldatasize\n      0x04\n      tag_20\n      jump\t// in\n    tag_48:\n      tag_49\n      jump\t// in\n        /* \"profileManager.sol\":1648:1803  function updateSwiftAlias(string memory _newAlias) public {... */\n    tag_17:\n        /* \"profileManager.sol\":1750:1760  msg.sender */\n      caller\n        /* \"profileManager.sol\":1716:1734  User storage _user */\n      0x00\n        /* \"profileManager.sol\":1737:1761  userProfiles[msg.sender] */\n      swap1\n      dup2\n      mstore\n        /* \"profileManager.sol\":1737:1749  userProfiles */\n      0x01\n        /* \"profileManager.sol\":1737:1761  userProfiles[msg.sender] */\n      0x20\n      swap1\n      dup2\n      mstore\n      0x40\n      swap1\n      swap2\n      keccak256\n        /* \"profileManager.sol\":1771:1796  _user.swiftId = _newAlias */\n      dup3\n      mload\n        /* \"profileManager.sol\":1737:1761  userProfiles[msg.sender] */\n      swap1\n      swap2\n        /* \"profileManager.sol\":1771:1796  _user.swiftId = _newAlias */\n      tag_51\n      swap2\n        /* \"profileManager.sol\":1771:1784  _user.swiftId */\n      0x02\n      dup5\n      add\n      swap2\n        /* \"profileManager.sol\":1771:1796  _user.swiftId = _newAlias */\n      dup6\n      add\n      swap1\n      tag_52\n      jump\t// in\n    tag_51:\n      pop\n        /* \"profileManager.sol\":1706:1803  {... */\n      pop\n        /* \"profileManager.sol\":1648:1803  function updateSwiftAlias(string memory _newAlias) public {... */\n      pop\n      jump\t// out\n        /* \"profileManager.sol\":756:800  mapping(address => User) public userProfiles */\n    tag_21:\n      0x01\n      0x20\n      dup2\n      swap1\n      mstore\n      0x00\n      swap2\n      dup3\n      mstore\n      0x40\n      swap1\n      swap2\n      keccak256\n      dup1\n      sload\n      swap2\n      dup2\n      add\n      sload\n      0x02\n      dup3\n      add\n      dup1\n      sload\n      sub(shl(0xa0, 0x01), 0x01)\n      swap5\n      dup6\n      and\n      swap5\n      swap1\n      swap3\n      and\n      swap3\n      swap2\n      tag_53\n      swap1\n      tag_54\n      jump\t// in\n    tag_53:\n      dup1\n      0x1f\n      add\n      0x20\n      dup1\n      swap2\n      div\n      mul\n      0x20\n      add\n      mload(0x40)\n      swap1\n      dup2\n      add\n      0x40\n      mstore\n      dup1\n      swap3\n      swap2\n      swap1\n      dup2\n      dup2\n      mstore\n      0x20\n      add\n      dup3\n      dup1\n      sload\n      tag_55\n      swap1\n      tag_54\n      jump\t// in\n    tag_55:\n      dup1\n      iszero\n      tag_56\n      jumpi\n      dup1\n      0x1f\n      lt\n      tag_57\n      jumpi\n      0x0100\n      dup1\n      dup4\n      sload\n      div\n      mul\n      dup4\n      mstore\n      swap2\n      0x20\n      add\n      swap2\n      jump(tag_56)\n    tag_57:\n      dup3\n      add\n      swap2\n      swap1\n      0x00\n      mstore\n      keccak256(0x00, 0x20)\n      swap1\n    tag_58:\n      dup2\n      sload\n      dup2\n      mstore\n      swap1\n      0x01\n      add\n      swap1\n      0x20\n      add\n      dup1\n      dup4\n      gt\n      tag_58\n      jumpi\n      dup3\n      swap1\n      sub\n      0x1f\n      and\n      dup3\n      add\n      swap2\n    tag_56:\n      pop\n      pop\n      pop\n      pop\n      pop\n      swap1\n      dup1\n      0x03\n      add\n      dup1\n      sload\n      tag_59\n      swap1\n      tag_54\n      jump\t// in\n    tag_59:\n      dup1\n      0x1f\n      add\n      0x20\n      dup1\n      swap2\n      div\n      mul\n      0x20\n      add\n      mload(0x40)\n      swap1\n      dup2\n      add\n      0x40\n      mstore\n      dup1\n      swap3\n      swap2\n      swap1\n      dup2\n      dup2\n      mstore\n      0x20\n      add\n      dup3\n      dup1\n      sload\n      tag_60\n      swap1\n      tag_54\n      jump\t// in\n    tag_60:\n      dup1\n      iszero\n      tag_61\n      jumpi\n      dup1\n      0x1f\n      lt\n      tag_62\n      jumpi\n      0x0100\n      dup1\n      dup4\n      sload\n      div\n      mul\n      dup4\n      mstore\n      swap2\n      0x20\n      add\n      swap2\n      jump(tag_61)\n    tag_62:\n      dup3\n      add\n      swap2\n      swap1\n      0x00\n      mstore\n      keccak256(0x00, 0x20)\n      swap1\n    tag_63:\n      dup2\n      sload\n      dup2\n      mstore\n      swap1\n      0x01\n      add\n      swap1\n      0x20\n      add\n      dup1\n      dup4\n      gt\n      tag_63\n      jumpi\n      dup3\n      swap1\n      sub\n      0x1f\n      and\n      dup3\n      add\n      swap2\n    tag_61:\n      pop\n      pop\n      pop\n      pop\n      pop\n      swap1\n      dup1\n      0x04\n      add\n      dup1\n      sload\n      tag_64\n      swap1\n      tag_54\n      jump\t// in\n    tag_64:\n      dup1\n      0x1f\n      add\n      0x20\n      dup1\n      swap2\n      div\n      mul\n      0x20\n      add\n      mload(0x40)\n      swap1\n      dup2\n      add\n      0x40\n      mstore\n      dup1\n      swap3\n      swap2\n      swap1\n      dup2\n      dup2\n      mstore\n      0x20\n      add\n      dup3\n      dup1\n      sload\n      tag_65\n      swap1\n      tag_54\n      jump\t// in\n    tag_65:\n      dup1\n      iszero\n      tag_66\n      jumpi\n      dup1\n      0x1f\n      lt\n      tag_67\n      jumpi\n      0x0100\n      dup1\n      dup4\n      sload\n      div\n      mul\n      dup4\n      mstore\n      swap2\n      0x20\n      add\n      swap2\n      jump(tag_66)\n    tag_67:\n      dup3\n      add\n      swap2\n      swap1\n      0x00\n      mstore\n      keccak256(0x00, 0x20)\n      swap1\n    tag_68:\n      dup2\n      sload\n      dup2\n      mstore\n      swap1\n      0x01\n      add\n      swap1\n      0x20\n      add\n      dup1\n      dup4\n      gt\n      tag_68\n      jumpi\n      dup3\n      swap1\n      sub\n      0x1f\n      and\n      dup3\n      add\n      swap2\n    tag_66:\n      pop\n      pop\n      pop\n      pop\n      pop\n      swap1\n      dup1\n      0x05\n      add\n      dup1\n      sload\n      tag_69\n      swap1\n      tag_54\n      jump\t// in\n    tag_69:\n      dup1\n      0x1f\n      add\n      0x20\n      dup1\n      swap2\n      div\n      mul\n      0x20\n      add\n      mload(0x40)\n      swap1\n      dup2\n      add\n      0x40\n      mstore\n      dup1\n      swap3\n      swap2\n      swap1\n      dup2\n      dup2\n      mstore\n      0x20\n      add\n      dup3\n      dup1\n      sload\n      tag_70\n      swap1\n      tag_54\n      jump\t// in\n    tag_70:\n      dup1\n      iszero\n      tag_71\n      jumpi\n      dup1\n      0x1f\n      lt\n      tag_72\n      jumpi\n      0x0100\n      dup1\n      dup4\n      sload\n      div\n      mul\n      dup4\n      mstore\n      swap2\n      0x20\n      add\n      swap2\n      jump(tag_71)\n    tag_72:\n      dup3\n      add\n      swap2\n      swap1\n      0x00\n      mstore\n      keccak256(0x00, 0x20)\n      swap1\n    tag_73:\n      dup2\n      sload\n      dup2\n      mstore\n      swap1\n      0x01\n      add\n      swap1\n      0x20\n      add\n      dup1\n      dup4\n      gt\n      tag_73\n      jumpi\n      dup3\n      swap1\n      sub\n      0x1f\n      and\n      dup3\n      add\n      swap2\n    tag_71:\n      pop\n      pop\n      pop\n      pop\n      pop\n      swap1\n      dup1\n      0x06\n      add\n      dup1\n      sload\n      tag_74\n      swap1\n      tag_54\n      jump\t// in\n    tag_74:\n      dup1\n      0x1f\n      add\n      0x20\n      dup1\n      swap2\n      div\n      mul\n      0x20\n      add\n      mload(0x40)\n      swap1\n      dup2\n      add\n      0x40\n      mstore\n      dup1\n      swap3\n      swap2\n      swap1\n      dup2\n      dup2\n      mstore\n      0x20\n      add\n      dup3\n      dup1\n      sload\n      tag_75\n      swap1\n      tag_54\n      jump\t// in\n    tag_75:\n      dup1\n      iszero\n      tag_76\n      jumpi\n      dup1\n      0x1f\n      lt\n      tag_77\n      jumpi\n      0x0100\n      dup1\n      dup4\n      sload\n      div\n      mul\n      dup4\n      mstore\n      swap2\n      0x20\n      add\n      swap2\n      jump(tag_76)\n    tag_77:\n      dup3\n      add\n      swap2\n      swap1\n      0x00\n      mstore\n      keccak256(0x00, 0x20)\n      swap1\n    tag_78:\n      dup2\n      sload\n      dup2\n      mstore\n      swap1\n      0x01\n      add\n      swap1\n      0x20\n      add\n      dup1\n      dup4\n      gt\n      tag_78\n      jumpi\n      dup3\n      swap1\n      sub\n      0x1f\n      and\n      dup3\n      add\n      swap2\n    tag_76:\n      pop\n      pop\n      pop\n      pop\n      pop\n      swap1\n      pop\n      dup8\n      jump\t// out\n        /* \"profileManager.sol\":1924:2084  function fetchUserByAlias(string memory _swiftAlias)... */\n    tag_26:\n        /* \"profileManager.sol\":2022:2033  User memory */\n      tag_79\n      mload(0x40)\n      dup1\n      0xe0\n      add\n      0x40\n      mstore\n      dup1\n      and(sub(shl(0xa0, 0x01), 0x01), 0x00)\n      dup2\n      mstore\n      0x20\n      add\n      and(sub(shl(0xa0, 0x01), 0x01), 0x00)\n      dup2\n      mstore\n      0x20\n      add\n      0x60\n      dup2\n      mstore\n      0x20\n      add\n      0x60\n      dup2\n      mstore\n      0x20\n      add\n      0x60\n      dup2\n      mstore\n      0x20\n      add\n      0x60\n      dup2\n      mstore\n      0x20\n      add\n      0x60\n      dup2\n      mstore\n      pop\n      swap1\n      jump\n    tag_79:\n        /* \"profileManager.sol\":2056:2064  swiftIds */\n      0x02\n        /* \"profileManager.sol\":2065:2076  _swiftAlias */\n      dup3\n        /* \"profileManager.sol\":2056:2077  swiftIds[_swiftAlias] */\n      mload(0x40)\n      tag_82\n      swap2\n      swap1\n      tag_83\n      jump\t// in\n    tag_82:\n      swap1\n      dup2\n      mstore\n      0x40\n      dup1\n      mload\n      swap2\n      dup3\n      swap1\n      sub\n      0x20\n      swap1\n      dup2\n      add\n      dup4\n      keccak256\n        /* \"profileManager.sol\":2049:2077  return swiftIds[_swiftAlias] */\n      0xe0\n      dup5\n      add\n      dup4\n      mstore\n      dup1\n      sload\n      sub(shl(0xa0, 0x01), 0x01)\n      swap1\n      dup2\n      and\n      dup6\n      mstore\n      0x01\n      dup3\n      add\n      sload\n      and\n      swap2\n      dup5\n      add\n      swap2\n      swap1\n      swap2\n      mstore\n      0x02\n      dup2\n      add\n      dup1\n      sload\n        /* \"profileManager.sol\":2056:2077  swiftIds[_swiftAlias] */\n      swap2\n      swap3\n        /* \"profileManager.sol\":2049:2077  return swiftIds[_swiftAlias] */\n      dup5\n      add\n      swap2\n      tag_84\n      swap1\n      tag_54\n      jump\t// in\n    tag_84:\n      dup1\n      0x1f\n      add\n      0x20\n      dup1\n      swap2\n      div\n      mul\n      0x20\n      add\n      mload(0x40)\n      swap1\n      dup2\n      add\n      0x40\n      mstore\n      dup1\n      swap3\n      swap2\n      swap1\n      dup2\n      dup2\n      mstore\n      0x20\n      add\n      dup3\n      dup1\n      sload\n      tag_85\n      swap1\n      tag_54\n      jump\t// in\n    tag_85:\n      dup1\n      iszero\n      tag_86\n      jumpi\n      dup1\n      0x1f\n      lt\n      tag_87\n      jumpi\n      0x0100\n      dup1\n      dup4\n      sload\n      div\n      mul\n      dup4\n      mstore\n      swap2\n      0x20\n      add\n      swap2\n      jump(tag_86)\n    tag_87:\n      dup3\n      add\n      swap2\n      swap1\n      0x00\n      mstore\n      keccak256(0x00, 0x20)\n      swap1\n    tag_88:\n      dup2\n      sload\n      dup2\n      mstore\n      swap1\n      0x01\n      add\n      swap1\n      0x20\n      add\n      dup1\n      dup4\n      gt\n      tag_88\n      jumpi\n      dup3\n      swap1\n      sub\n      0x1f\n      and\n      dup3\n      add\n      swap2\n    tag_86:\n      pop\n      pop\n      pop\n      pop\n      pop\n      dup2\n      mstore\n      0x20\n      add\n      0x03\n      dup3\n      add\n      dup1\n      sload\n      tag_89\n      swap1\n      tag_54\n      jump\t// in\n    tag_89:\n      dup1\n      0x1f\n      add\n      0x20\n      dup1\n      swap2\n      div\n      mul\n      0x20\n      add\n      mload(0x40)\n      swap1\n      dup2\n      add\n      0x40\n      mstore\n      dup1\n      swap3\n      swap2\n      swap1\n      dup2\n      dup2\n      mstore\n      0x20\n      add\n      dup3\n      dup1\n      sload\n      tag_90\n      swap1\n      tag_54\n      jump\t// in\n    tag_90:\n      dup1\n      iszero\n      tag_91\n      jumpi\n      dup1\n      0x1f\n      lt\n      tag_92\n      jumpi\n      0x0100\n      dup1\n      dup4\n      sload\n      div\n      mul\n      dup4\n      mstore\n      swap2\n      0x20\n      add\n      swap2\n      jump(tag_91)\n    tag_92:\n      dup3\n      add\n      swap2\n      swap1\n      0x00\n      mstore\n      keccak256(0x00, 0x20)\n      swap1\n    tag_93:\n      dup2\n      sload\n      dup2\n      mstore\n      swap1\n      0x01\n      add\n      swap1\n      0x20\n      add\n      dup1\n      dup4\n      gt\n      tag_93\n      jumpi\n      dup3\n      swap1\n      sub\n      0x1f\n      and\n      dup3\n      add\n      swap2\n    tag_91:\n      pop\n      pop\n      pop\n      pop\n      pop\n      dup2\n      mstore\n      0x20\n      add\n      0x04\n      dup3\n      add\n      dup1\n      sload\n      tag_94\n      swap1\n      tag_54\n      jump\t// in\n    tag_94:\n      dup1\n      0x1f\n      add\n      0x20\n      dup1\n      swap2\n      div\n      mul\n      0x20\n      add\n      mload(0x40)\n      swap1\n      dup2\n      add\n      0x40\n      mstore\n      dup1\n      swap3\n      swap2\n      swap1\n      dup2\n      dup2\n      mstore\n      0x20\n      add\n      dup3\n      dup1\n      sload\n      tag_95\n      swap1\n      tag_54\n      jump\t// in\n    tag_95:\n      dup1\n      iszero\n      tag_96\n      jumpi\n      dup1\n      0x1f\n      lt\n      tag_97\n      jumpi\n      0x0100\n      dup1\n      dup4\n      sload\n      div\n      mul\n      dup4\n      mstore\n      swap2\n      0x20\n      add\n      swap2\n      jump(tag_96)\n    tag_97:\n      dup3\n      add\n      swap2\n      swap1\n      0x00\n      mstore\n      keccak256(0x00, 0x20)\n      swap1\n    tag_98:\n      dup2\n      sload\n      dup2\n      mstore\n      swap1\n      0x01\n      add\n      swap1\n      0x20\n      add\n      dup1\n      dup4\n      gt\n      tag_98\n      jumpi\n      dup3\n      swap1\n      sub\n      0x1f\n      and\n      dup3\n      add\n      swap2\n    tag_96:\n      pop\n      pop\n      pop\n      pop\n      pop\n      dup2\n      mstore\n      0x20\n      add\n      0x05\n      dup3\n      add\n      dup1\n      sload\n      tag_99\n      swap1\n      tag_54\n      jump\t// in\n    tag_99:\n      dup1\n      0x1f\n      add\n      0x20\n      dup1\n      swap2\n      div\n      mul\n      0x20\n      add\n      mload(0x40)\n      swap1\n      dup2\n      add\n      0x40\n      mstore\n      dup1\n      swap3\n      swap2\n      swap1\n      dup2\n      dup2\n      mstore\n      0x20\n      add\n      dup3\n      dup1\n      sload\n      tag_100\n      swap1\n      tag_54\n      jump\t// in\n    tag_100:\n      dup1\n      iszero\n      tag_101\n      jumpi\n      dup1\n      0x1f\n      lt\n      tag_102\n      jumpi\n      0x0100\n      dup1\n      dup4\n      sload\n      div\n      mul\n      dup4\n      mstore\n      swap2\n      0x20\n      add\n      swap2\n      jump(tag_101)\n    tag_102:\n      dup3\n      add\n      swap2\n      swap1\n      0x00\n      mstore\n      keccak256(0x00, 0x20)\n      swap1\n    tag_103:\n      dup2\n      sload\n      dup2\n      mstore\n      swap1\n      0x01\n      add\n      swap1\n      0x20\n      add\n      dup1\n      dup4\n      gt\n      tag_103\n      jumpi\n      dup3\n      swap1\n      sub\n      0x1f\n      and\n      dup3\n      add\n      swap2\n    tag_101:\n      pop\n      pop\n      pop\n      pop\n      pop\n      dup2\n      mstore\n      0x20\n      add\n      0x06\n      dup3\n      add\n      dup1\n      sload\n      tag_104\n      swap1\n      tag_54\n      jump\t// in\n    tag_104:\n      dup1\n      0x1f\n      add\n      0x20\n      dup1\n      swap2\n      div\n      mul\n      0x20\n      add\n      mload(0x40)\n      swap1\n      dup2\n      add\n      0x40\n      mstore\n      dup1\n      swap3\n      swap2\n      swap1\n      dup2\n      dup2\n      mstore\n      0x20\n      add\n      dup3\n      dup1\n      sload\n      tag_105\n      swap1\n      tag_54\n      jump\t// in\n    tag_105:\n      dup1\n      iszero\n      tag_106\n      jumpi\n      dup1\n      0x1f\n      lt\n      tag_107\n      jumpi\n      0x0100\n      dup1\n      dup4\n      sload\n      div\n      mul\n      dup4\n      mstore\n      swap2\n      0x20\n      add\n      swap2\n      jump(tag_106)\n    tag_107:\n      dup3\n      add\n      swap2\n      swap1\n      0x00\n      mstore\n      keccak256(0x00, 0x20)\n      swap1\n    tag_108:\n      dup2\n      sload\n      dup2\n      mstore\n      swap1\n      0x01\n      add\n      swap1\n      0x20\n      add\n      dup1\n      dup4\n      gt\n      tag_108\n      jumpi\n      dup3\n      swap1\n      sub\n      0x1f\n      and\n      dup3\n      add\n      swap2\n    tag_106:\n      pop\n      pop\n      pop\n      pop\n      pop\n      dup2\n      mstore\n      pop\n      pop\n      swap1\n      pop\n        /* \"profileManager.sol\":1924:2084  function fetchUserByAlias(string memory _swiftAlias)... */\n      swap2\n      swap1\n      pop\n      jump\t// out\n        /* \"profileManager.sol\":840:879  mapping(string => User) public swiftIds */\n    tag_31:\n      dup1\n      mload\n      0x20\n      dup2\n      dup4\n      add\n      dup2\n      add\n      dup1\n      mload\n      0x02\n      dup1\n      dup4\n      mstore\n      swap4\n      dup4\n      add\n      swap3\n      swap1\n      swap5\n      add\n      swap2\n      swap1\n      swap2\n      keccak256\n      swap3\n      swap1\n      mstore\n      dup2\n      sload\n      0x01\n      dup4\n      add\n      sload\n      swap2\n      dup4\n      add\n      dup1\n      sload\n      sub(shl(0xa0, 0x01), 0x01)\n      swap3\n      dup4\n      and\n      swap5\n      swap3\n      swap1\n      swap4\n      and\n      swap3\n      tag_53\n      swap1\n      tag_54\n      jump\t// in\n        /* \"@openzeppelin/contracts/access/Ownable.sol\":1831:1932   */\n    tag_34:\n        /* \"@openzeppelin/contracts/access/Ownable.sol\":1094:1107   */\n      tag_135\n        /* \"@openzeppelin/contracts/access/Ownable.sol\":1094:1105   */\n      tag_136\n        /* \"@openzeppelin/contracts/access/Ownable.sol\":1094:1107   */\n      jump\t// in\n    tag_135:\n        /* \"@openzeppelin/contracts/access/Ownable.sol\":1895:1925   */\n      tag_138\n        /* \"@openzeppelin/contracts/access/Ownable.sol\":1922:1923   */\n      0x00\n        /* \"@openzeppelin/contracts/access/Ownable.sol\":1895:1913   */\n      tag_139\n        /* \"@openzeppelin/contracts/access/Ownable.sol\":1895:1925   */\n      jump\t// in\n    tag_138:\n        /* \"@openzeppelin/contracts/access/Ownable.sol\":1831:1932   */\n      jump\t// out\n        /* \"profileManager.sol\":1006:1642  function createUser(... */\n    tag_42:\n      sub(shl(0xa0, 0x01), 0x01)\n        /* \"profileManager.sol\":1237:1261  SCWAddress != address(0) */\n      dup7\n      and\n        /* \"profileManager.sol\":1229:1300  require(SCWAddress != address(0), \"Smart Contract Wallet is not Valid\") */\n      tag_142\n      jumpi\n      mload(0x40)\n      shl(0xe5, 0x461bcd)\n      dup2\n      mstore\n        /* \"#utility.yul\":7009:7011   */\n      0x20\n        /* \"profileManager.sol\":1229:1300  require(SCWAddress != address(0), \"Smart Contract Wallet is not Valid\") */\n      0x04\n      dup3\n      add\n        /* \"#utility.yul\":6991:7012   */\n      mstore\n        /* \"#utility.yul\":7048:7050   */\n      0x22\n        /* \"#utility.yul\":7028:7046   */\n      0x24\n      dup3\n      add\n        /* \"#utility.yul\":7021:7051   */\n      mstore\n        /* \"#utility.yul\":7087:7121   */\n      0x536d61727420436f6e74726163742057616c6c6574206973206e6f742056616c\n        /* \"#utility.yul\":7067:7085   */\n      0x44\n      dup3\n      add\n        /* \"#utility.yul\":7060:7122   */\n      mstore\n      shl(0xf2, 0x1a59)\n        /* \"#utility.yul\":7138:7156   */\n      0x64\n      dup3\n      add\n        /* \"#utility.yul\":7131:7163   */\n      mstore\n        /* \"#utility.yul\":7180:7199   */\n      0x84\n      add\n        /* \"profileManager.sol\":1229:1300  require(SCWAddress != address(0), \"Smart Contract Wallet is not Valid\") */\n    tag_143:\n      mload(0x40)\n      dup1\n      swap2\n      sub\n      swap1\n      revert\n    tag_142:\n        /* \"profileManager.sol\":1330:1494  User(... */\n      0x40\n      dup1\n      mload\n      0xe0\n      dup2\n      add\n      dup3\n      mstore\n        /* \"profileManager.sol\":1348:1358  msg.sender */\n      caller\n        /* \"profileManager.sol\":1330:1494  User(... */\n      dup1\n      dup3\n      mstore\n      sub(shl(0xa0, 0x01), 0x01)\n      dup10\n      dup2\n      and\n      0x20\n      dup1\n      dup6\n      add\n      swap2\n      dup3\n      mstore\n      dup5\n      dup7\n      add\n      dup12\n      dup2\n      mstore\n      0x60\n      dup7\n      add\n      dup12\n      swap1\n      mstore\n      0x80\n      dup7\n      add\n      dup11\n      swap1\n      mstore\n      0xa0\n      dup7\n      add\n      dup10\n      swap1\n      mstore\n      0xc0\n      dup7\n      add\n      dup9\n      swap1\n      mstore\n        /* \"profileManager.sol\":1310:1327  User memory _user */\n      0x00\n        /* \"profileManager.sol\":1505:1529  userProfiles[msg.sender] */\n      swap5\n      dup6\n      mstore\n        /* \"profileManager.sol\":1505:1517  userProfiles */\n      0x01\n        /* \"profileManager.sol\":1505:1529  userProfiles[msg.sender] */\n      dup1\n      dup4\n      mstore\n      swap7\n      swap1\n      swap5\n      keccak256\n        /* \"profileManager.sol\":1505:1537  userProfiles[msg.sender] = _user */\n      dup6\n      mload\n      dup2\n      sload\n      swap1\n      dup6\n      and\n      not(0xffffffffffffffffffffffffffffffffffffffff)\n      swap2\n      dup3\n      and\n      or\n      dup3\n      sstore\n      swap3\n      mload\n      swap7\n      dup2\n      add\n      dup1\n      sload\n      swap8\n      swap1\n      swap5\n      and\n      swap7\n      swap1\n      swap3\n      and\n      swap6\n      swap1\n      swap6\n      or\n      swap1\n      swap2\n      sstore\n      swap1\n      mload\n      dup1\n      mload\n        /* \"profileManager.sol\":1330:1494  User(... */\n      swap3\n      swap4\n      dup5\n      swap4\n        /* \"profileManager.sol\":1505:1537  userProfiles[msg.sender] = _user */\n      tag_145\n      swap3\n      0x02\n      dup6\n      add\n      swap3\n      add\n      swap1\n      tag_52\n      jump\t// in\n    tag_145:\n      pop\n      0x60\n      dup3\n      add\n      mload\n      dup1\n      mload\n      tag_146\n      swap2\n      0x03\n      dup5\n      add\n      swap2\n      0x20\n      swap1\n      swap2\n      add\n      swap1\n      tag_52\n      jump\t// in\n    tag_146:\n      pop\n      0x80\n      dup3\n      add\n      mload\n      dup1\n      mload\n      tag_147\n      swap2\n      0x04\n      dup5\n      add\n      swap2\n      0x20\n      swap1\n      swap2\n      add\n      swap1\n      tag_52\n      jump\t// in\n    tag_147:\n      pop\n      0xa0\n      dup3\n      add\n      mload\n      dup1\n      mload\n      tag_148\n      swap2\n      0x05\n      dup5\n      add\n      swap2\n      0x20\n      swap1\n      swap2\n      add\n      swap1\n      tag_52\n      jump\t// in\n    tag_148:\n      pop\n      0xc0\n      dup3\n      add\n      mload\n      dup1\n      mload\n      tag_149\n      swap2\n      0x06\n      dup5\n      add\n      swap2\n      0x20\n      swap1\n      swap2\n      add\n      swap1\n      tag_52\n      jump\t// in\n    tag_149:\n      pop\n      swap1\n      pop\n      pop\n        /* \"profileManager.sol\":1571:1576  _user */\n      dup1\n        /* \"profileManager.sol\":1547:1555  swiftIds */\n      0x02\n        /* \"profileManager.sol\":1556:1567  _swiftAlias */\n      dup8\n        /* \"profileManager.sol\":1547:1568  swiftIds[_swiftAlias] */\n      mload(0x40)\n      tag_150\n      swap2\n      swap1\n      tag_83\n      jump\t// in\n    tag_150:\n      swap1\n      dup2\n      mstore\n      0x40\n      dup1\n      mload\n      swap2\n      dup3\n      swap1\n      sub\n      0x20\n      swap1\n      dup2\n      add\n      swap1\n      swap3\n      keccak256\n        /* \"profileManager.sol\":1547:1576  swiftIds[_swiftAlias] = _user */\n      dup4\n      mload\n      dup2\n      sload\n      sub(shl(0xa0, 0x01), 0x01)\n      swap2\n      dup3\n      and\n      not(0xffffffffffffffffffffffffffffffffffffffff)\n      swap2\n      dup3\n      and\n      or\n      dup4\n      sstore\n      dup6\n      dup6\n      add\n      mload\n      0x01\n      dup5\n      add\n      dup1\n      sload\n      swap2\n      swap1\n      swap4\n      and\n      swap2\n      and\n      or\n      swap1\n      sstore\n      swap1\n      dup4\n      add\n      mload\n      dup1\n      mload\n        /* \"profileManager.sol\":1547:1568  swiftIds[_swiftAlias] */\n      swap2\n      swap3\n        /* \"profileManager.sol\":1547:1576  swiftIds[_swiftAlias] = _user */\n      tag_151\n      swap3\n      0x02\n      dup6\n      add\n      swap3\n      swap1\n      swap2\n      add\n      swap1\n      tag_52\n      jump\t// in\n    tag_151:\n      pop\n      0x60\n      dup3\n      add\n      mload\n      dup1\n      mload\n      tag_152\n      swap2\n      0x03\n      dup5\n      add\n      swap2\n      0x20\n      swap1\n      swap2\n      add\n      swap1\n      tag_52\n      jump\t// in\n    tag_152:\n      pop\n      0x80\n      dup3\n      add\n      mload\n      dup1\n      mload\n      tag_153\n      swap2\n      0x04\n      dup5\n      add\n      swap2\n      0x20\n      swap1\n      swap2\n      add\n      swap1\n      tag_52\n      jump\t// in\n    tag_153:\n      pop\n      0xa0\n      dup3\n      add\n      mload\n      dup1\n      mload\n      tag_154\n      swap2\n      0x05\n      dup5\n      add\n      swap2\n      0x20\n      swap1\n      swap2\n      add\n      swap1\n      tag_52\n      jump\t// in\n    tag_154:\n      pop\n      0xc0\n      dup3\n      add\n      mload\n      dup1\n      mload\n      tag_155\n      swap2\n      0x06\n      dup5\n      add\n      swap2\n      0x20\n      swap1\n      swap2\n      add\n      swap1\n      tag_52\n      jump\t// in\n    tag_155:\n      pop\n      swap1\n      pop\n      pop\n        /* \"profileManager.sol\":1592:1635  UserCreated(msg.sender, _swiftAlias, _name) */\n      0xa2e1d286e25c6fce64acccdfd7a54d53cce2f617ddff648ab1dbb3458ccdd95b\n        /* \"profileManager.sol\":1604:1614  msg.sender */\n      caller\n        /* \"profileManager.sol\":1616:1627  _swiftAlias */\n      dup8\n        /* \"profileManager.sol\":1629:1634  _name */\n      dup6\n        /* \"profileManager.sol\":1592:1635  UserCreated(msg.sender, _swiftAlias, _name) */\n      mload(0x40)\n      tag_156\n      swap4\n      swap3\n      swap2\n      swap1\n      tag_157\n      jump\t// in\n    tag_156:\n      mload(0x40)\n      dup1\n      swap2\n      sub\n      swap1\n      log1\n        /* \"profileManager.sol\":1219:1642  {... */\n      pop\n        /* \"profileManager.sol\":1006:1642  function createUser(... */\n      pop\n      pop\n      pop\n      pop\n      pop\n      pop\n      jump\t// out\n        /* \"profileManager.sol\":1809:1918  function fetchUser(address user) public view returns (User memory) {... */\n    tag_45:\n        /* \"profileManager.sol\":1863:1874  User memory */\n      tag_158\n      mload(0x40)\n      dup1\n      0xe0\n      add\n      0x40\n      mstore\n      dup1\n      and(sub(shl(0xa0, 0x01), 0x01), 0x00)\n      dup2\n      mstore\n      0x20\n      add\n      and(sub(shl(0xa0, 0x01), 0x01), 0x00)\n      dup2\n      mstore\n      0x20\n      add\n      0x60\n      dup2\n      mstore\n      0x20\n      add\n      0x60\n      dup2\n      mstore\n      0x20\n      add\n      0x60\n      dup2\n      mstore\n      0x20\n      add\n      0x60\n      dup2\n      mstore\n      0x20\n      add\n      0x60\n      dup2\n      mstore\n      pop\n      swap1\n      jump\n    tag_158:\n      sub(shl(0xa0, 0x01), 0x01)\n        /* \"profileManager.sol\":1893:1911  userProfiles[user] */\n      dup1\n      dup4\n      and\n      0x00\n      swap1\n      dup2\n      mstore\n        /* \"profileManager.sol\":1893:1905  userProfiles */\n      0x01\n        /* \"profileManager.sol\":1893:1911  userProfiles[user] */\n      0x20\n      dup2\n      dup2\n      mstore\n      0x40\n      swap3\n      dup4\n      swap1\n      keccak256\n        /* \"profileManager.sol\":1886:1911  return userProfiles[user] */\n      dup4\n      mload\n      0xe0\n      dup2\n      add\n      dup6\n      mstore\n      dup2\n      sload\n      dup7\n      and\n      dup2\n      mstore\n      swap3\n      dup2\n      add\n      sload\n      swap1\n      swap5\n      and\n      swap1\n      dup3\n      add\n      mstore\n      0x02\n      dup4\n      add\n      dup1\n      sload\n      swap2\n      swap4\n        /* \"profileManager.sol\":1893:1911  userProfiles[user] */\n      swap3\n        /* \"profileManager.sol\":1886:1911  return userProfiles[user] */\n      dup5\n      add\n      swap2\n      tag_84\n      swap1\n      tag_54\n      jump\t// in\n        /* \"@openzeppelin/contracts/access/Ownable.sol\":2081:2279   */\n    tag_49:\n        /* \"@openzeppelin/contracts/access/Ownable.sol\":1094:1107   */\n      tag_186\n        /* \"@openzeppelin/contracts/access/Ownable.sol\":1094:1105   */\n      tag_136\n        /* \"@openzeppelin/contracts/access/Ownable.sol\":1094:1107   */\n      jump\t// in\n    tag_186:\n      sub(shl(0xa0, 0x01), 0x01)\n        /* \"@openzeppelin/contracts/access/Ownable.sol\":2169:2191   */\n      dup2\n      and\n        /* \"@openzeppelin/contracts/access/Ownable.sol\":2161:2234   */\n      tag_188\n      jumpi\n      mload(0x40)\n      shl(0xe5, 0x461bcd)\n      dup2\n      mstore\n        /* \"#utility.yul\":7920:7922   */\n      0x20\n        /* \"@openzeppelin/contracts/access/Ownable.sol\":2161:2234   */\n      0x04\n      dup3\n      add\n        /* \"#utility.yul\":7902:7923   */\n      mstore\n        /* \"#utility.yul\":7959:7961   */\n      0x26\n        /* \"#utility.yul\":7939:7957   */\n      0x24\n      dup3\n      add\n        /* \"#utility.yul\":7932:7962   */\n      mstore\n        /* \"#utility.yul\":7998:8032   */\n      0x4f776e61626c653a206e6577206f776e657220697320746865207a65726f2061\n        /* \"#utility.yul\":7978:7996   */\n      0x44\n      dup3\n      add\n        /* \"#utility.yul\":7971:8033   */\n      mstore\n        /* \"#utility.yul\":8069:8077   */\n      0x6464726573730000000000000000000000000000000000000000000000000000\n        /* \"#utility.yul\":8049:8067   */\n      0x64\n      dup3\n      add\n        /* \"#utility.yul\":8042:8078   */\n      mstore\n        /* \"#utility.yul\":8095:8114   */\n      0x84\n      add\n        /* \"@openzeppelin/contracts/access/Ownable.sol\":2161:2234   */\n      tag_143\n        /* \"#utility.yul\":7718:8120   */\n      jump\n        /* \"@openzeppelin/contracts/access/Ownable.sol\":2161:2234   */\n    tag_188:\n        /* \"@openzeppelin/contracts/access/Ownable.sol\":2244:2272   */\n      tag_191\n        /* \"@openzeppelin/contracts/access/Ownable.sol\":2263:2271   */\n      dup2\n        /* \"@openzeppelin/contracts/access/Ownable.sol\":2244:2262   */\n      tag_139\n        /* \"@openzeppelin/contracts/access/Ownable.sol\":2244:2272   */\n      jump\t// in\n    tag_191:\n        /* \"@openzeppelin/contracts/access/Ownable.sol\":2081:2279   */\n      pop\n      jump\t// out\n        /* \"@openzeppelin/contracts/access/Ownable.sol\":1359:1489   */\n    tag_136:\n        /* \"@openzeppelin/contracts/access/Ownable.sol\":1247:1254   */\n      0x00\n        /* \"@openzeppelin/contracts/access/Ownable.sol\":1273:1279   */\n      sload\n      sub(shl(0xa0, 0x01), 0x01)\n      and\n        /* \"@openzeppelin/contracts/utils/Context.sol\":719:729   */\n      caller\n        /* \"@openzeppelin/contracts/access/Ownable.sol\":1422:1445   */\n      eq\n        /* \"@openzeppelin/contracts/access/Ownable.sol\":1414:1482   */\n      tag_138\n      jumpi\n      mload(0x40)\n      shl(0xe5, 0x461bcd)\n      dup2\n      mstore\n        /* \"#utility.yul\":8327:8329   */\n      0x20\n        /* \"@openzeppelin/contracts/access/Ownable.sol\":1414:1482   */\n      0x04\n      dup3\n      add\n        /* \"#utility.yul\":8309:8330   */\n      dup2\n      swap1\n      mstore\n        /* \"#utility.yul\":8346:8364   */\n      0x24\n      dup3\n      add\n        /* \"#utility.yul\":8339:8369   */\n      mstore\n        /* \"#utility.yul\":8405:8439   */\n      0x4f776e61626c653a2063616c6c6572206973206e6f7420746865206f776e6572\n        /* \"#utility.yul\":8385:8403   */\n      0x44\n      dup3\n      add\n        /* \"#utility.yul\":8378:8440   */\n      mstore\n        /* \"#utility.yul\":8457:8475   */\n      0x64\n      add\n        /* \"@openzeppelin/contracts/access/Ownable.sol\":1414:1482   */\n      tag_143\n        /* \"#utility.yul\":8125:8481   */\n      jump\n        /* \"@openzeppelin/contracts/access/Ownable.sol\":2433:2620   */\n    tag_139:\n        /* \"@openzeppelin/contracts/access/Ownable.sol\":2506:2522   */\n      0x00\n        /* \"@openzeppelin/contracts/access/Ownable.sol\":2525:2531   */\n      dup1\n      sload\n      sub(shl(0xa0, 0x01), 0x01)\n        /* \"@openzeppelin/contracts/access/Ownable.sol\":2541:2558   */\n      dup4\n      dup2\n      and\n      not(0xffffffffffffffffffffffffffffffffffffffff)\n      dup4\n      and\n      dup2\n      or\n      dup5\n      sstore\n        /* \"@openzeppelin/contracts/access/Ownable.sol\":2573:2613   */\n      mload(0x40)\n        /* \"@openzeppelin/contracts/access/Ownable.sol\":2525:2531   */\n      swap2\n      swap1\n      swap3\n      and\n      swap3\n      dup4\n      swap2\n        /* \"@openzeppelin/contracts/access/Ownable.sol\":2573:2613   */\n      0x8be0079c531659141344cd1fd0a4f28419497f9722a3daafe3b4186f6b6457e0\n      swap2\n        /* \"@openzeppelin/contracts/access/Ownable.sol\":2506:2522   */\n      swap1\n        /* \"@openzeppelin/contracts/access/Ownable.sol\":2573:2613   */\n      log3\n        /* \"@openzeppelin/contracts/access/Ownable.sol\":2496:2620   */\n      pop\n        /* \"@openzeppelin/contracts/access/Ownable.sol\":2433:2620   */\n      pop\n      jump\t// out\n    tag_52:\n      dup3\n      dup1\n      sload\n      tag_201\n      swap1\n      tag_54\n      jump\t// in\n    tag_201:\n      swap1\n      0x00\n      mstore\n      keccak256(0x00, 0x20)\n      swap1\n      0x1f\n      add\n      0x20\n      swap1\n      div\n      dup2\n      add\n      swap3\n      dup3\n      tag_203\n      jumpi\n      0x00\n      dup6\n      sstore\n      jump(tag_206)\n    tag_203:\n      dup3\n      0x1f\n      lt\n      tag_204\n      jumpi\n      dup1\n      mload\n      not(0xff)\n      and\n      dup4\n      dup1\n      add\n      or\n      dup6\n      sstore\n      jump(tag_206)\n    tag_204:\n      dup3\n      dup1\n      add\n      0x01\n      add\n      dup6\n      sstore\n      dup3\n      iszero\n      tag_206\n      jumpi\n      swap2\n      dup3\n      add\n    tag_205:\n      dup3\n      dup2\n      gt\n      iszero\n      tag_206\n      jumpi\n      dup3\n      mload\n      dup3\n      sstore\n      swap2\n      0x20\n      add\n      swap2\n      swap1\n      0x01\n      add\n      swap1\n      jump(tag_205)\n    tag_206:\n      pop\n      tag_207\n      swap3\n      swap2\n      pop\n      tag_208\n      jump\t// in\n    tag_207:\n      pop\n      swap1\n      jump\t// out\n    tag_208:\n    tag_209:\n      dup1\n      dup3\n      gt\n      iszero\n      tag_207\n      jumpi\n      0x00\n      dup2\n      sstore\n      0x01\n      add\n      jump(tag_209)\n        /* \"#utility.yul\":14:141   */\n    tag_211:\n        /* \"#utility.yul\":75:85   */\n      0x4e487b71\n        /* \"#utility.yul\":70:73   */\n      0xe0\n        /* \"#utility.yul\":66:86   */\n      shl\n        /* \"#utility.yul\":63:64   */\n      0x00\n        /* \"#utility.yul\":56:87   */\n      mstore\n        /* \"#utility.yul\":106:110   */\n      0x41\n        /* \"#utility.yul\":103:104   */\n      0x04\n        /* \"#utility.yul\":96:111   */\n      mstore\n        /* \"#utility.yul\":130:134   */\n      0x24\n        /* \"#utility.yul\":127:128   */\n      0x00\n        /* \"#utility.yul\":120:135   */\n      revert\n        /* \"#utility.yul\":146:865   */\n    tag_212:\n        /* \"#utility.yul\":189:194   */\n      0x00\n        /* \"#utility.yul\":242:245   */\n      dup3\n        /* \"#utility.yul\":235:239   */\n      0x1f\n        /* \"#utility.yul\":227:233   */\n      dup4\n        /* \"#utility.yul\":223:240   */\n      add\n        /* \"#utility.yul\":219:246   */\n      slt\n        /* \"#utility.yul\":209:264   */\n      tag_220\n      jumpi\n        /* \"#utility.yul\":260:261   */\n      0x00\n        /* \"#utility.yul\":257:258   */\n      dup1\n        /* \"#utility.yul\":250:262   */\n      revert\n        /* \"#utility.yul\":209:264   */\n    tag_220:\n        /* \"#utility.yul\":296:302   */\n      dup2\n        /* \"#utility.yul\":283:303   */\n      calldataload\n        /* \"#utility.yul\":322:340   */\n      0xffffffffffffffff\n        /* \"#utility.yul\":359:361   */\n      dup1\n        /* \"#utility.yul\":355:357   */\n      dup3\n        /* \"#utility.yul\":352:362   */\n      gt\n        /* \"#utility.yul\":349:385   */\n      iszero\n      tag_222\n      jumpi\n        /* \"#utility.yul\":365:383   */\n      tag_222\n      tag_211\n      jump\t// in\n    tag_222:\n        /* \"#utility.yul\":440:442   */\n      0x40\n        /* \"#utility.yul\":434:443   */\n      mload\n        /* \"#utility.yul\":408:410   */\n      0x1f\n        /* \"#utility.yul\":494:507   */\n      dup4\n      add\n      not(0x1f)\n        /* \"#utility.yul\":490:512   */\n      swap1\n      dup2\n      and\n        /* \"#utility.yul\":514:516   */\n      0x3f\n        /* \"#utility.yul\":486:517   */\n      add\n        /* \"#utility.yul\":482:522   */\n      and\n        /* \"#utility.yul\":470:523   */\n      dup2\n      add\n      swap1\n        /* \"#utility.yul\":538:556   */\n      dup3\n      dup3\n      gt\n        /* \"#utility.yul\":558:580   */\n      dup2\n      dup4\n      lt\n        /* \"#utility.yul\":535:581   */\n      or\n        /* \"#utility.yul\":532:604   */\n      iszero\n      tag_224\n      jumpi\n        /* \"#utility.yul\":584:602   */\n      tag_224\n      tag_211\n      jump\t// in\n    tag_224:\n        /* \"#utility.yul\":624:634   */\n      dup2\n        /* \"#utility.yul\":620:622   */\n      0x40\n        /* \"#utility.yul\":613:635   */\n      mstore\n        /* \"#utility.yul\":659:661   */\n      dup4\n        /* \"#utility.yul\":651:657   */\n      dup2\n        /* \"#utility.yul\":644:662   */\n      mstore\n        /* \"#utility.yul\":705:708   */\n      dup7\n        /* \"#utility.yul\":698:702   */\n      0x20\n        /* \"#utility.yul\":693:695   */\n      dup6\n        /* \"#utility.yul\":685:691   */\n      dup9\n        /* \"#utility.yul\":681:696   */\n      add\n        /* \"#utility.yul\":677:703   */\n      add\n        /* \"#utility.yul\":674:709   */\n      gt\n        /* \"#utility.yul\":671:726   */\n      iszero\n      tag_225\n      jumpi\n        /* \"#utility.yul\":722:723   */\n      0x00\n        /* \"#utility.yul\":719:720   */\n      dup1\n        /* \"#utility.yul\":712:724   */\n      revert\n        /* \"#utility.yul\":671:726   */\n    tag_225:\n        /* \"#utility.yul\":786:788   */\n      dup4\n        /* \"#utility.yul\":779:783   */\n      0x20\n        /* \"#utility.yul\":771:777   */\n      dup8\n        /* \"#utility.yul\":767:784   */\n      add\n        /* \"#utility.yul\":760:764   */\n      0x20\n        /* \"#utility.yul\":752:758   */\n      dup4\n        /* \"#utility.yul\":748:765   */\n      add\n        /* \"#utility.yul\":735:789   */\n      calldatacopy\n        /* \"#utility.yul\":833:834   */\n      0x00\n        /* \"#utility.yul\":826:830   */\n      0x20\n        /* \"#utility.yul\":821:823   */\n      dup6\n        /* \"#utility.yul\":813:819   */\n      dup4\n        /* \"#utility.yul\":809:824   */\n      add\n        /* \"#utility.yul\":805:831   */\n      add\n        /* \"#utility.yul\":798:835   */\n      mstore\n        /* \"#utility.yul\":853:859   */\n      dup1\n        /* \"#utility.yul\":844:859   */\n      swap5\n      pop\n      pop\n      pop\n      pop\n      pop\n        /* \"#utility.yul\":146:865   */\n      swap3\n      swap2\n      pop\n      pop\n      jump\t// out\n        /* \"#utility.yul\":870:1192   */\n    tag_16:\n        /* \"#utility.yul\":939:945   */\n      0x00\n        /* \"#utility.yul\":992:994   */\n      0x20\n        /* \"#utility.yul\":980:989   */\n      dup3\n        /* \"#utility.yul\":971:978   */\n      dup5\n        /* \"#utility.yul\":967:990   */\n      sub\n        /* \"#utility.yul\":963:995   */\n      slt\n        /* \"#utility.yul\":960:1012   */\n      iszero\n      tag_227\n      jumpi\n        /* \"#utility.yul\":1008:1009   */\n      0x00\n        /* \"#utility.yul\":1005:1006   */\n      dup1\n        /* \"#utility.yul\":998:1010   */\n      revert\n        /* \"#utility.yul\":960:1012   */\n    tag_227:\n        /* \"#utility.yul\":1048:1057   */\n      dup2\n        /* \"#utility.yul\":1035:1058   */\n      calldataload\n        /* \"#utility.yul\":1081:1099   */\n      0xffffffffffffffff\n        /* \"#utility.yul\":1073:1079   */\n      dup2\n        /* \"#utility.yul\":1070:1100   */\n      gt\n        /* \"#utility.yul\":1067:1117   */\n      iszero\n      tag_228\n      jumpi\n        /* \"#utility.yul\":1113:1114   */\n      0x00\n        /* \"#utility.yul\":1110:1111   */\n      dup1\n        /* \"#utility.yul\":1103:1115   */\n      revert\n        /* \"#utility.yul\":1067:1117   */\n    tag_228:\n        /* \"#utility.yul\":1136:1186   */\n      tag_229\n        /* \"#utility.yul\":1178:1185   */\n      dup5\n        /* \"#utility.yul\":1169:1175   */\n      dup3\n        /* \"#utility.yul\":1158:1167   */\n      dup6\n        /* \"#utility.yul\":1154:1176   */\n      add\n        /* \"#utility.yul\":1136:1186   */\n      tag_212\n      jump\t// in\n    tag_229:\n        /* \"#utility.yul\":1126:1186   */\n      swap5\n        /* \"#utility.yul\":870:1192   */\n      swap4\n      pop\n      pop\n      pop\n      pop\n      jump\t// out\n        /* \"#utility.yul\":1197:1393   */\n    tag_213:\n        /* \"#utility.yul\":1265:1285   */\n      dup1\n      calldataload\n      sub(shl(0xa0, 0x01), 0x01)\n        /* \"#utility.yul\":1314:1368   */\n      dup2\n      and\n        /* \"#utility.yul\":1304:1369   */\n      dup2\n      eq\n        /* \"#utility.yul\":1294:1387   */\n      tag_231\n      jumpi\n        /* \"#utility.yul\":1383:1384   */\n      0x00\n        /* \"#utility.yul\":1380:1381   */\n      dup1\n        /* \"#utility.yul\":1373:1385   */\n      revert\n        /* \"#utility.yul\":1294:1387   */\n    tag_231:\n        /* \"#utility.yul\":1197:1393   */\n      swap2\n      swap1\n      pop\n      jump\t// out\n        /* \"#utility.yul\":1398:1584   */\n    tag_20:\n        /* \"#utility.yul\":1457:1463   */\n      0x00\n        /* \"#utility.yul\":1510:1512   */\n      0x20\n        /* \"#utility.yul\":1498:1507   */\n      dup3\n        /* \"#utility.yul\":1489:1496   */\n      dup5\n        /* \"#utility.yul\":1485:1508   */\n      sub\n        /* \"#utility.yul\":1481:1513   */\n      slt\n        /* \"#utility.yul\":1478:1530   */\n      iszero\n      tag_233\n      jumpi\n        /* \"#utility.yul\":1526:1527   */\n      0x00\n        /* \"#utility.yul\":1523:1524   */\n      dup1\n        /* \"#utility.yul\":1516:1528   */\n      revert\n        /* \"#utility.yul\":1478:1530   */\n    tag_233:\n        /* \"#utility.yul\":1549:1578   */\n      tag_234\n        /* \"#utility.yul\":1568:1577   */\n      dup3\n        /* \"#utility.yul\":1549:1578   */\n      tag_213\n      jump\t// in\n    tag_234:\n        /* \"#utility.yul\":1539:1578   */\n      swap4\n        /* \"#utility.yul\":1398:1584   */\n      swap3\n      pop\n      pop\n      pop\n      jump\t// out\n        /* \"#utility.yul\":1721:1979   */\n    tag_215:\n        /* \"#utility.yul\":1793:1794   */\n      0x00\n        /* \"#utility.yul\":1803:1916   */\n    tag_237:\n        /* \"#utility.yul\":1817:1823   */\n      dup4\n        /* \"#utility.yul\":1814:1815   */\n      dup2\n        /* \"#utility.yul\":1811:1824   */\n      lt\n        /* \"#utility.yul\":1803:1916   */\n      iszero\n      tag_239\n      jumpi\n        /* \"#utility.yul\":1893:1904   */\n      dup2\n      dup2\n      add\n        /* \"#utility.yul\":1887:1905   */\n      mload\n        /* \"#utility.yul\":1874:1885   */\n      dup4\n      dup3\n      add\n        /* \"#utility.yul\":1867:1906   */\n      mstore\n        /* \"#utility.yul\":1839:1841   */\n      0x20\n        /* \"#utility.yul\":1832:1842   */\n      add\n        /* \"#utility.yul\":1803:1916   */\n      jump(tag_237)\n    tag_239:\n        /* \"#utility.yul\":1934:1940   */\n      dup4\n        /* \"#utility.yul\":1931:1932   */\n      dup2\n        /* \"#utility.yul\":1928:1941   */\n      gt\n        /* \"#utility.yul\":1925:1973   */\n      iszero\n      tag_240\n      jumpi\n        /* \"#utility.yul\":1969:1970   */\n      0x00\n        /* \"#utility.yul\":1960:1966   */\n      dup5\n        /* \"#utility.yul\":1955:1958   */\n      dup5\n        /* \"#utility.yul\":1951:1967   */\n      add\n        /* \"#utility.yul\":1944:1971   */\n      mstore\n        /* \"#utility.yul\":1925:1973   */\n    tag_240:\n      pop\n        /* \"#utility.yul\":1721:1979   */\n      pop\n      pop\n      pop\n      jump\t// out\n        /* \"#utility.yul\":1984:2242   */\n    tag_216:\n        /* \"#utility.yul\":2026:2029   */\n      0x00\n        /* \"#utility.yul\":2064:2069   */\n      dup2\n        /* \"#utility.yul\":2058:2070   */\n      mload\n        /* \"#utility.yul\":2091:2097   */\n      dup1\n        /* \"#utility.yul\":2086:2089   */\n      dup5\n        /* \"#utility.yul\":2079:2098   */\n      mstore\n        /* \"#utility.yul\":2107:2170   */\n      tag_242\n        /* \"#utility.yul\":2163:2169   */\n      dup2\n        /* \"#utility.yul\":2156:2160   */\n      0x20\n        /* \"#utility.yul\":2151:2154   */\n      dup7\n        /* \"#utility.yul\":2147:2161   */\n      add\n        /* \"#utility.yul\":2140:2144   */\n      0x20\n        /* \"#utility.yul\":2133:2138   */\n      dup7\n        /* \"#utility.yul\":2129:2145   */\n      add\n        /* \"#utility.yul\":2107:2170   */\n      tag_215\n      jump\t// in\n    tag_242:\n        /* \"#utility.yul\":2224:2226   */\n      0x1f\n        /* \"#utility.yul\":2203:2218   */\n      add\n      not(0x1f)\n        /* \"#utility.yul\":2199:2228   */\n      and\n        /* \"#utility.yul\":2190:2229   */\n      swap3\n      swap1\n      swap3\n      add\n        /* \"#utility.yul\":2231:2235   */\n      0x20\n        /* \"#utility.yul\":2186:2236   */\n      add\n      swap3\n        /* \"#utility.yul\":1984:2242   */\n      swap2\n      pop\n      pop\n      jump\t// out\n        /* \"#utility.yul\":2247:3345   */\n    tag_23:\n        /* \"#utility.yul\":2607:2611   */\n      0x00\n      sub(shl(0xa0, 0x01), 0x01)\n        /* \"#utility.yul\":2717:2719   */\n      dup1\n        /* \"#utility.yul\":2709:2715   */\n      dup11\n        /* \"#utility.yul\":2705:2720   */\n      and\n        /* \"#utility.yul\":2694:2703   */\n      dup4\n        /* \"#utility.yul\":2687:2721   */\n      mstore\n        /* \"#utility.yul\":2769:2771   */\n      dup1\n        /* \"#utility.yul\":2761:2767   */\n      dup10\n        /* \"#utility.yul\":2757:2772   */\n      and\n        /* \"#utility.yul\":2752:2754   */\n      0x20\n        /* \"#utility.yul\":2741:2750   */\n      dup5\n        /* \"#utility.yul\":2737:2755   */\n      add\n        /* \"#utility.yul\":2730:2773   */\n      mstore\n      pop\n        /* \"#utility.yul\":2809:2812   */\n      0xe0\n        /* \"#utility.yul\":2804:2806   */\n      0x40\n        /* \"#utility.yul\":2793:2802   */\n      dup4\n        /* \"#utility.yul\":2789:2807   */\n      add\n        /* \"#utility.yul\":2782:2813   */\n      mstore\n        /* \"#utility.yul\":2836:2882   */\n      tag_244\n        /* \"#utility.yul\":2877:2880   */\n      0xe0\n        /* \"#utility.yul\":2866:2875   */\n      dup4\n        /* \"#utility.yul\":2862:2881   */\n      add\n        /* \"#utility.yul\":2854:2860   */\n      dup9\n        /* \"#utility.yul\":2836:2882   */\n      tag_216\n      jump\t// in\n    tag_244:\n        /* \"#utility.yul\":2930:2939   */\n      dup3\n        /* \"#utility.yul\":2922:2928   */\n      dup2\n        /* \"#utility.yul\":2918:2940   */\n      sub\n        /* \"#utility.yul\":2913:2915   */\n      0x60\n        /* \"#utility.yul\":2902:2911   */\n      dup5\n        /* \"#utility.yul\":2898:2916   */\n      add\n        /* \"#utility.yul\":2891:2941   */\n      mstore\n        /* \"#utility.yul\":2964:2997   */\n      tag_245\n        /* \"#utility.yul\":2990:2996   */\n      dup2\n        /* \"#utility.yul\":2982:2988   */\n      dup9\n        /* \"#utility.yul\":2964:2997   */\n      tag_216\n      jump\t// in\n    tag_245:\n        /* \"#utility.yul\":2950:2997   */\n      swap1\n      pop\n        /* \"#utility.yul\":3046:3055   */\n      dup3\n        /* \"#utility.yul\":3038:3044   */\n      dup2\n        /* \"#utility.yul\":3034:3056   */\n      sub\n        /* \"#utility.yul\":3028:3031   */\n      0x80\n        /* \"#utility.yul\":3017:3026   */\n      dup5\n        /* \"#utility.yul\":3013:3032   */\n      add\n        /* \"#utility.yul\":3006:3057   */\n      mstore\n        /* \"#utility.yul\":3080:3113   */\n      tag_246\n        /* \"#utility.yul\":3106:3112   */\n      dup2\n        /* \"#utility.yul\":3098:3104   */\n      dup8\n        /* \"#utility.yul\":3080:3113   */\n      tag_216\n      jump\t// in\n    tag_246:\n        /* \"#utility.yul\":3066:3113   */\n      swap1\n      pop\n        /* \"#utility.yul\":3162:3171   */\n      dup3\n        /* \"#utility.yul\":3154:3160   */\n      dup2\n        /* \"#utility.yul\":3150:3172   */\n      sub\n        /* \"#utility.yul\":3144:3147   */\n      0xa0\n        /* \"#utility.yul\":3133:3142   */\n      dup5\n        /* \"#utility.yul\":3129:3148   */\n      add\n        /* \"#utility.yul\":3122:3173   */\n      mstore\n        /* \"#utility.yul\":3196:3229   */\n      tag_247\n        /* \"#utility.yul\":3222:3228   */\n      dup2\n        /* \"#utility.yul\":3214:3220   */\n      dup7\n        /* \"#utility.yul\":3196:3229   */\n      tag_216\n      jump\t// in\n    tag_247:\n        /* \"#utility.yul\":3182:3229   */\n      swap1\n      pop\n        /* \"#utility.yul\":3278:3287   */\n      dup3\n        /* \"#utility.yul\":3270:3276   */\n      dup2\n        /* \"#utility.yul\":3266:3288   */\n      sub\n        /* \"#utility.yul\":3260:3263   */\n      0xc0\n        /* \"#utility.yul\":3249:3258   */\n      dup5\n        /* \"#utility.yul\":3245:3264   */\n      add\n        /* \"#utility.yul\":3238:3289   */\n      mstore\n        /* \"#utility.yul\":3306:3339   */\n      tag_248\n        /* \"#utility.yul\":3332:3338   */\n      dup2\n        /* \"#utility.yul\":3324:3330   */\n      dup6\n        /* \"#utility.yul\":3306:3339   */\n      tag_216\n      jump\t// in\n    tag_248:\n        /* \"#utility.yul\":3298:3339   */\n      swap11\n        /* \"#utility.yul\":2247:3345   */\n      swap10\n      pop\n      pop\n      pop\n      pop\n      pop\n      pop\n      pop\n      pop\n      pop\n      pop\n      jump\t// out\n        /* \"#utility.yul\":3350:4680   */\n    tag_28:\n        /* \"#utility.yul\":3521:3523   */\n      0x20\n        /* \"#utility.yul\":3510:3519   */\n      dup2\n        /* \"#utility.yul\":3503:3524   */\n      mstore\n      sub(shl(0xa0, 0x01), 0x01)\n        /* \"#utility.yul\":3570:3576   */\n      dup3\n        /* \"#utility.yul\":3564:3577   */\n      mload\n        /* \"#utility.yul\":3560:3622   */\n      and\n        /* \"#utility.yul\":3555:3557   */\n      0x20\n        /* \"#utility.yul\":3544:3553   */\n      dup3\n        /* \"#utility.yul\":3540:3558   */\n      add\n        /* \"#utility.yul\":3533:3623   */\n      mstore\n        /* \"#utility.yul\":3484:3488   */\n      0x00\n        /* \"#utility.yul\":3670:3672   */\n      0x20\n        /* \"#utility.yul\":3662:3668   */\n      dup4\n        /* \"#utility.yul\":3658:3673   */\n      add\n        /* \"#utility.yul\":3652:3674   */\n      mload\n        /* \"#utility.yul\":3683:3735   */\n      tag_250\n        /* \"#utility.yul\":3731:3733   */\n      0x40\n        /* \"#utility.yul\":3720:3729   */\n      dup5\n        /* \"#utility.yul\":3716:3734   */\n      add\n        /* \"#utility.yul\":3702:3714   */\n      dup3\n      sub(shl(0xa0, 0x01), 0x01)\n        /* \"#utility.yul\":1655:1709   */\n      and\n        /* \"#utility.yul\":1643:1710   */\n      swap1\n      mstore\n        /* \"#utility.yul\":1589:1716   */\n      jump\n        /* \"#utility.yul\":3683:3735   */\n    tag_250:\n      pop\n        /* \"#utility.yul\":3784:3786   */\n      0x40\n        /* \"#utility.yul\":3776:3782   */\n      dup4\n        /* \"#utility.yul\":3772:3787   */\n      add\n        /* \"#utility.yul\":3766:3788   */\n      mload\n        /* \"#utility.yul\":3824:3828   */\n      0xe0\n        /* \"#utility.yul\":3819:3821   */\n      0x60\n        /* \"#utility.yul\":3808:3817   */\n      dup5\n        /* \"#utility.yul\":3804:3822   */\n      add\n        /* \"#utility.yul\":3797:3829   */\n      mstore\n        /* \"#utility.yul\":3852:3906   */\n      tag_251\n        /* \"#utility.yul\":3901:3904   */\n      0x0100\n        /* \"#utility.yul\":3890:3899   */\n      dup5\n        /* \"#utility.yul\":3886:3905   */\n      add\n        /* \"#utility.yul\":3870:3884   */\n      dup3\n        /* \"#utility.yul\":3852:3906   */\n      tag_216\n      jump\t// in\n    tag_251:\n        /* \"#utility.yul\":3838:3906   */\n      swap1\n      pop\n        /* \"#utility.yul\":3955:3957   */\n      0x60\n        /* \"#utility.yul\":3947:3953   */\n      dup5\n        /* \"#utility.yul\":3943:3958   */\n      add\n        /* \"#utility.yul\":3937:3959   */\n      mload\n        /* \"#utility.yul\":3982:3984   */\n      0x1f\n        /* \"#utility.yul\":3978:3985   */\n      not\n        /* \"#utility.yul\":4050:4052   */\n      dup1\n        /* \"#utility.yul\":4038:4047   */\n      dup6\n        /* \"#utility.yul\":4030:4036   */\n      dup5\n        /* \"#utility.yul\":4026:4048   */\n      sub\n        /* \"#utility.yul\":4022:4053   */\n      add\n        /* \"#utility.yul\":4016:4019   */\n      0x80\n        /* \"#utility.yul\":4005:4014   */\n      dup7\n        /* \"#utility.yul\":4001:4020   */\n      add\n        /* \"#utility.yul\":3994:4054   */\n      mstore\n        /* \"#utility.yul\":4077:4118   */\n      tag_252\n        /* \"#utility.yul\":4111:4117   */\n      dup4\n        /* \"#utility.yul\":4095:4109   */\n      dup4\n        /* \"#utility.yul\":4077:4118   */\n      tag_216\n      jump\t// in\n    tag_252:\n        /* \"#utility.yul\":4063:4118   */\n      swap3\n      pop\n        /* \"#utility.yul\":4167:4170   */\n      0x80\n        /* \"#utility.yul\":4159:4165   */\n      dup7\n        /* \"#utility.yul\":4155:4171   */\n      add\n        /* \"#utility.yul\":4149:4172   */\n      mload\n        /* \"#utility.yul\":4127:4172   */\n      swap2\n      pop\n        /* \"#utility.yul\":4237:4239   */\n      dup1\n        /* \"#utility.yul\":4225:4234   */\n      dup6\n        /* \"#utility.yul\":4217:4223   */\n      dup5\n        /* \"#utility.yul\":4213:4235   */\n      sub\n        /* \"#utility.yul\":4209:4240   */\n      add\n        /* \"#utility.yul\":4203:4206   */\n      0xa0\n        /* \"#utility.yul\":4192:4201   */\n      dup7\n        /* \"#utility.yul\":4188:4207   */\n      add\n        /* \"#utility.yul\":4181:4241   */\n      mstore\n        /* \"#utility.yul\":4264:4305   */\n      tag_253\n        /* \"#utility.yul\":4298:4304   */\n      dup4\n        /* \"#utility.yul\":4282:4296   */\n      dup4\n        /* \"#utility.yul\":4264:4305   */\n      tag_216\n      jump\t// in\n    tag_253:\n        /* \"#utility.yul\":4250:4305   */\n      swap3\n      pop\n        /* \"#utility.yul\":4354:4357   */\n      0xa0\n        /* \"#utility.yul\":4346:4352   */\n      dup7\n        /* \"#utility.yul\":4342:4358   */\n      add\n        /* \"#utility.yul\":4336:4359   */\n      mload\n        /* \"#utility.yul\":4314:4359   */\n      swap2\n      pop\n        /* \"#utility.yul\":4424:4426   */\n      dup1\n        /* \"#utility.yul\":4412:4421   */\n      dup6\n        /* \"#utility.yul\":4404:4410   */\n      dup5\n        /* \"#utility.yul\":4400:4422   */\n      sub\n        /* \"#utility.yul\":4396:4427   */\n      add\n        /* \"#utility.yul\":4390:4393   */\n      0xc0\n        /* \"#utility.yul\":4379:4388   */\n      dup7\n        /* \"#utility.yul\":4375:4394   */\n      add\n        /* \"#utility.yul\":4368:4428   */\n      mstore\n        /* \"#utility.yul\":4451:4492   */\n      tag_254\n        /* \"#utility.yul\":4485:4491   */\n      dup4\n        /* \"#utility.yul\":4469:4483   */\n      dup4\n        /* \"#utility.yul\":4451:4492   */\n      tag_216\n      jump\t// in\n    tag_254:\n        /* \"#utility.yul\":4437:4492   */\n      swap3\n      pop\n        /* \"#utility.yul\":4541:4544   */\n      0xc0\n        /* \"#utility.yul\":4533:4539   */\n      dup7\n        /* \"#utility.yul\":4529:4545   */\n      add\n        /* \"#utility.yul\":4523:4546   */\n      mload\n        /* \"#utility.yul\":4501:4546   */\n      swap2\n      pop\n        /* \"#utility.yul\":4612:4614   */\n      dup1\n        /* \"#utility.yul\":4600:4609   */\n      dup6\n        /* \"#utility.yul\":4592:4598   */\n      dup5\n        /* \"#utility.yul\":4588:4610   */\n      sub\n        /* \"#utility.yul\":4584:4615   */\n      add\n        /* \"#utility.yul\":4577:4581   */\n      0xe0\n        /* \"#utility.yul\":4566:4575   */\n      dup7\n        /* \"#utility.yul\":4562:4582   */\n      add\n        /* \"#utility.yul\":4555:4616   */\n      mstore\n      pop\n        /* \"#utility.yul\":4633:4674   */\n      tag_255\n        /* \"#utility.yul\":4667:4673   */\n      dup3\n        /* \"#utility.yul\":4651:4665   */\n      dup3\n        /* \"#utility.yul\":4633:4674   */\n      tag_216\n      jump\t// in\n    tag_255:\n        /* \"#utility.yul\":4625:4674   */\n      swap6\n        /* \"#utility.yul\":3350:4680   */\n      swap5\n      pop\n      pop\n      pop\n      pop\n      pop\n      jump\t// out\n        /* \"#utility.yul\":4916:6136   */\n    tag_41:\n        /* \"#utility.yul\":5070:5076   */\n      0x00\n        /* \"#utility.yul\":5078:5084   */\n      dup1\n        /* \"#utility.yul\":5086:5092   */\n      0x00\n        /* \"#utility.yul\":5094:5100   */\n      dup1\n        /* \"#utility.yul\":5102:5108   */\n      0x00\n        /* \"#utility.yul\":5110:5116   */\n      dup1\n        /* \"#utility.yul\":5163:5166   */\n      0xc0\n        /* \"#utility.yul\":5151:5160   */\n      dup8\n        /* \"#utility.yul\":5142:5149   */\n      dup10\n        /* \"#utility.yul\":5138:5161   */\n      sub\n        /* \"#utility.yul\":5134:5167   */\n      slt\n        /* \"#utility.yul\":5131:5184   */\n      iszero\n      tag_258\n      jumpi\n        /* \"#utility.yul\":5180:5181   */\n      0x00\n        /* \"#utility.yul\":5177:5178   */\n      dup1\n        /* \"#utility.yul\":5170:5182   */\n      revert\n        /* \"#utility.yul\":5131:5184   */\n    tag_258:\n        /* \"#utility.yul\":5203:5232   */\n      tag_259\n        /* \"#utility.yul\":5222:5231   */\n      dup8\n        /* \"#utility.yul\":5203:5232   */\n      tag_213\n      jump\t// in\n    tag_259:\n        /* \"#utility.yul\":5193:5232   */\n      swap6\n      pop\n        /* \"#utility.yul\":5283:5285   */\n      0x20\n        /* \"#utility.yul\":5272:5281   */\n      dup8\n        /* \"#utility.yul\":5268:5286   */\n      add\n        /* \"#utility.yul\":5255:5287   */\n      calldataload\n        /* \"#utility.yul\":5306:5324   */\n      0xffffffffffffffff\n        /* \"#utility.yul\":5347:5349   */\n      dup1\n        /* \"#utility.yul\":5339:5345   */\n      dup3\n        /* \"#utility.yul\":5336:5350   */\n      gt\n        /* \"#utility.yul\":5333:5367   */\n      iszero\n      tag_260\n      jumpi\n        /* \"#utility.yul\":5363:5364   */\n      0x00\n        /* \"#utility.yul\":5360:5361   */\n      dup1\n        /* \"#utility.yul\":5353:5365   */\n      revert\n        /* \"#utility.yul\":5333:5367   */\n    tag_260:\n        /* \"#utility.yul\":5386:5436   */\n      tag_261\n        /* \"#utility.yul\":5428:5435   */\n      dup11\n        /* \"#utility.yul\":5419:5425   */\n      dup4\n        /* \"#utility.yul\":5408:5417   */\n      dup12\n        /* \"#utility.yul\":5404:5426   */\n      add\n        /* \"#utility.yul\":5386:5436   */\n      tag_212\n      jump\t// in\n    tag_261:\n        /* \"#utility.yul\":5376:5436   */\n      swap7\n      pop\n        /* \"#utility.yul\":5489:5491   */\n      0x40\n        /* \"#utility.yul\":5478:5487   */\n      dup10\n        /* \"#utility.yul\":5474:5492   */\n      add\n        /* \"#utility.yul\":5461:5493   */\n      calldataload\n        /* \"#utility.yul\":5445:5493   */\n      swap2\n      pop\n        /* \"#utility.yul\":5518:5520   */\n      dup1\n        /* \"#utility.yul\":5508:5516   */\n      dup3\n        /* \"#utility.yul\":5505:5521   */\n      gt\n        /* \"#utility.yul\":5502:5538   */\n      iszero\n      tag_262\n      jumpi\n        /* \"#utility.yul\":5534:5535   */\n      0x00\n        /* \"#utility.yul\":5531:5532   */\n      dup1\n        /* \"#utility.yul\":5524:5536   */\n      revert\n        /* \"#utility.yul\":5502:5538   */\n    tag_262:\n        /* \"#utility.yul\":5557:5609   */\n      tag_263\n        /* \"#utility.yul\":5601:5608   */\n      dup11\n        /* \"#utility.yul\":5590:5598   */\n      dup4\n        /* \"#utility.yul\":5579:5588   */\n      dup12\n        /* \"#utility.yul\":5575:5599   */\n      add\n        /* \"#utility.yul\":5557:5609   */\n      tag_212\n      jump\t// in\n    tag_263:\n        /* \"#utility.yul\":5547:5609   */\n      swap6\n      pop\n        /* \"#utility.yul\":5662:5664   */\n      0x60\n        /* \"#utility.yul\":5651:5660   */\n      dup10\n        /* \"#utility.yul\":5647:5665   */\n      add\n        /* \"#utility.yul\":5634:5666   */\n      calldataload\n        /* \"#utility.yul\":5618:5666   */\n      swap2\n      pop\n        /* \"#utility.yul\":5691:5693   */\n      dup1\n        /* \"#utility.yul\":5681:5689   */\n      dup3\n        /* \"#utility.yul\":5678:5694   */\n      gt\n        /* \"#utility.yul\":5675:5711   */\n      iszero\n      tag_264\n      jumpi\n        /* \"#utility.yul\":5707:5708   */\n      0x00\n        /* \"#utility.yul\":5704:5705   */\n      dup1\n        /* \"#utility.yul\":5697:5709   */\n      revert\n        /* \"#utility.yul\":5675:5711   */\n    tag_264:\n        /* \"#utility.yul\":5730:5782   */\n      tag_265\n        /* \"#utility.yul\":5774:5781   */\n      dup11\n        /* \"#utility.yul\":5763:5771   */\n      dup4\n        /* \"#utility.yul\":5752:5761   */\n      dup12\n        /* \"#utility.yul\":5748:5772   */\n      add\n        /* \"#utility.yul\":5730:5782   */\n      tag_212\n      jump\t// in\n    tag_265:\n        /* \"#utility.yul\":5720:5782   */\n      swap5\n      pop\n        /* \"#utility.yul\":5835:5838   */\n      0x80\n        /* \"#utility.yul\":5824:5833   */\n      dup10\n        /* \"#utility.yul\":5820:5839   */\n      add\n        /* \"#utility.yul\":5807:5840   */\n      calldataload\n        /* \"#utility.yul\":5791:5840   */\n      swap2\n      pop\n        /* \"#utility.yul\":5865:5867   */\n      dup1\n        /* \"#utility.yul\":5855:5863   */\n      dup3\n        /* \"#utility.yul\":5852:5868   */\n      gt\n        /* \"#utility.yul\":5849:5885   */\n      iszero\n      tag_266\n      jumpi\n        /* \"#utility.yul\":5881:5882   */\n      0x00\n        /* \"#utility.yul\":5878:5879   */\n      dup1\n        /* \"#utility.yul\":5871:5883   */\n      revert\n        /* \"#utility.yul\":5849:5885   */\n    tag_266:\n        /* \"#utility.yul\":5904:5956   */\n      tag_267\n        /* \"#utility.yul\":5948:5955   */\n      dup11\n        /* \"#utility.yul\":5937:5945   */\n      dup4\n        /* \"#utility.yul\":5926:5935   */\n      dup12\n        /* \"#utility.yul\":5922:5946   */\n      add\n        /* \"#utility.yul\":5904:5956   */\n      tag_212\n      jump\t// in\n    tag_267:\n        /* \"#utility.yul\":5894:5956   */\n      swap4\n      pop\n        /* \"#utility.yul\":6009:6012   */\n      0xa0\n        /* \"#utility.yul\":5998:6007   */\n      dup10\n        /* \"#utility.yul\":5994:6013   */\n      add\n        /* \"#utility.yul\":5981:6014   */\n      calldataload\n        /* \"#utility.yul\":5965:6014   */\n      swap2\n      pop\n        /* \"#utility.yul\":6039:6041   */\n      dup1\n        /* \"#utility.yul\":6029:6037   */\n      dup3\n        /* \"#utility.yul\":6026:6042   */\n      gt\n        /* \"#utility.yul\":6023:6059   */\n      iszero\n      tag_268\n      jumpi\n        /* \"#utility.yul\":6055:6056   */\n      0x00\n        /* \"#utility.yul\":6052:6053   */\n      dup1\n        /* \"#utility.yul\":6045:6057   */\n      revert\n        /* \"#utility.yul\":6023:6059   */\n    tag_268:\n      pop\n        /* \"#utility.yul\":6078:6130   */\n      tag_269\n        /* \"#utility.yul\":6122:6129   */\n      dup10\n        /* \"#utility.yul\":6111:6119   */\n      dup3\n        /* \"#utility.yul\":6100:6109   */\n      dup11\n        /* \"#utility.yul\":6096:6120   */\n      add\n        /* \"#utility.yul\":6078:6130   */\n      tag_212\n      jump\t// in\n    tag_269:\n        /* \"#utility.yul\":6068:6130   */\n      swap2\n      pop\n      pop\n        /* \"#utility.yul\":4916:6136   */\n      swap3\n      swap6\n      pop\n      swap3\n      swap6\n      pop\n      swap3\n      swap6\n      jump\t// out\n        /* \"#utility.yul\":6141:6521   */\n    tag_54:\n        /* \"#utility.yul\":6220:6221   */\n      0x01\n        /* \"#utility.yul\":6216:6228   */\n      dup2\n      dup2\n      shr\n      swap1\n        /* \"#utility.yul\":6263:6275   */\n      dup3\n      and\n      dup1\n        /* \"#utility.yul\":6284:6345   */\n      tag_271\n      jumpi\n        /* \"#utility.yul\":6338:6342   */\n      0x7f\n        /* \"#utility.yul\":6330:6336   */\n      dup3\n        /* \"#utility.yul\":6326:6343   */\n      and\n        /* \"#utility.yul\":6316:6343   */\n      swap2\n      pop\n        /* \"#utility.yul\":6284:6345   */\n    tag_271:\n        /* \"#utility.yul\":6391:6393   */\n      0x20\n        /* \"#utility.yul\":6383:6389   */\n      dup3\n        /* \"#utility.yul\":6380:6394   */\n      lt\n        /* \"#utility.yul\":6360:6378   */\n      dup2\n        /* \"#utility.yul\":6357:6395   */\n      sub\n        /* \"#utility.yul\":6354:6515   */\n      tag_272\n      jumpi\n        /* \"#utility.yul\":6437:6447   */\n      0x4e487b71\n        /* \"#utility.yul\":6432:6435   */\n      0xe0\n        /* \"#utility.yul\":6428:6448   */\n      shl\n        /* \"#utility.yul\":6425:6426   */\n      0x00\n        /* \"#utility.yul\":6418:6449   */\n      mstore\n        /* \"#utility.yul\":6472:6476   */\n      0x22\n        /* \"#utility.yul\":6469:6470   */\n      0x04\n        /* \"#utility.yul\":6462:6477   */\n      mstore\n        /* \"#utility.yul\":6500:6504   */\n      0x24\n        /* \"#utility.yul\":6497:6498   */\n      0x00\n        /* \"#utility.yul\":6490:6505   */\n      revert\n        /* \"#utility.yul\":6354:6515   */\n    tag_272:\n      pop\n        /* \"#utility.yul\":6141:6521   */\n      swap2\n      swap1\n      pop\n      jump\t// out\n        /* \"#utility.yul\":6526:6802   */\n    tag_83:\n        /* \"#utility.yul\":6657:6660   */\n      0x00\n        /* \"#utility.yul\":6695:6701   */\n      dup3\n        /* \"#utility.yul\":6689:6702   */\n      mload\n        /* \"#utility.yul\":6711:6764   */\n      tag_274\n        /* \"#utility.yul\":6757:6763   */\n      dup2\n        /* \"#utility.yul\":6752:6755   */\n      dup5\n        /* \"#utility.yul\":6745:6749   */\n      0x20\n        /* \"#utility.yul\":6737:6743   */\n      dup8\n        /* \"#utility.yul\":6733:6750   */\n      add\n        /* \"#utility.yul\":6711:6764   */\n      tag_215\n      jump\t// in\n    tag_274:\n        /* \"#utility.yul\":6780:6796   */\n      swap2\n      swap1\n      swap2\n      add\n      swap3\n        /* \"#utility.yul\":6526:6802   */\n      swap2\n      pop\n      pop\n      jump\t// out\n        /* \"#utility.yul\":7210:7713   */\n    tag_157:\n      sub(shl(0xa0, 0x01), 0x01)\n        /* \"#utility.yul\":7439:7445   */\n      dup5\n        /* \"#utility.yul\":7435:7490   */\n      and\n        /* \"#utility.yul\":7424:7433   */\n      dup2\n        /* \"#utility.yul\":7417:7491   */\n      mstore\n        /* \"#utility.yul\":7527:7529   */\n      0x60\n        /* \"#utility.yul\":7522:7524   */\n      0x20\n        /* \"#utility.yul\":7511:7520   */\n      dup3\n        /* \"#utility.yul\":7507:7525   */\n      add\n        /* \"#utility.yul\":7500:7530   */\n      mstore\n        /* \"#utility.yul\":7398:7402   */\n      0x00\n        /* \"#utility.yul\":7553:7598   */\n      tag_277\n        /* \"#utility.yul\":7594:7596   */\n      0x60\n        /* \"#utility.yul\":7583:7592   */\n      dup4\n        /* \"#utility.yul\":7579:7597   */\n      add\n        /* \"#utility.yul\":7571:7577   */\n      dup6\n        /* \"#utility.yul\":7553:7598   */\n      tag_216\n      jump\t// in\n    tag_277:\n        /* \"#utility.yul\":7646:7655   */\n      dup3\n        /* \"#utility.yul\":7638:7644   */\n      dup2\n        /* \"#utility.yul\":7634:7656   */\n      sub\n        /* \"#utility.yul\":7629:7631   */\n      0x40\n        /* \"#utility.yul\":7618:7627   */\n      dup5\n        /* \"#utility.yul\":7614:7632   */\n      add\n        /* \"#utility.yul\":7607:7657   */\n      mstore\n        /* \"#utility.yul\":7674:7707   */\n      tag_278\n        /* \"#utility.yul\":7700:7706   */\n      dup2\n        /* \"#utility.yul\":7692:7698   */\n      dup6\n        /* \"#utility.yul\":7674:7707   */\n      tag_216\n      jump\t// in\n    tag_278:\n        /* \"#utility.yul\":7666:7707   */\n      swap7\n        /* \"#utility.yul\":7210:7713   */\n      swap6\n      pop\n      pop\n      pop\n      pop\n      pop\n      pop\n      jump\t// out\n\n    auxdata: 0xa2646970667358221220ee02ebe20a595b3be46b9510d73601f54bcce6ad850e3c737ab8c302cbe455a764736f6c634300080d0033\n}\n",
    "bytecode": {
      "linkReferences": {},
      "object": "608060405234801561001057600080fd5b5061001a3361001f565b61006f565b600080546001600160a01b038381166001600160a01b0319831681178455604051919092169283917f8be0079c531659141344cd1fd0a4f28419497f9722a3daafe3b4186f6b6457e09190a35050565b6112108061007e6000396000f3fe608060405234801561001057600080fd5b50600436106100a35760003560e01c8063715018a611610076578063a377d18f1161005b578063a377d18f14610142578063be6f0ea214610155578063f2fde38b1461016857600080fd5b8063715018a61461011f5780638da5cb5b1461012757600080fd5b8063215c58bd146100a8578063332d56d7146100bd5780635498a29d146100ec578063638f6cc81461010c575b600080fd5b6100bb6100b6366004610e3c565b61017b565b005b6100d06100cb366004610e95565b6101a7565b6040516100e39796959493929190610f13565b60405180910390f35b6100ff6100fa366004610e3c565b610499565b6040516100e39190610f9b565b6100d061011a366004610e3c565b610814565b6100bb610858565b6000546040516001600160a01b0390911681526020016100e3565b6100bb610150366004611065565b61086c565b6100ff610163366004610e95565b610b1c565b6100bb610176366004610e95565b610bb9565b336000908152600160209081526040909120825190916101a2916002840191850190610d00565b505050565b60016020819052600091825260409091208054918101546002820180546001600160a01b039485169490921692916101de90611146565b80601f016020809104026020016040519081016040528092919081815260200182805461020a90611146565b80156102575780601f1061022c57610100808354040283529160200191610257565b820191906000526020600020905b81548152906001019060200180831161023a57829003601f168201915b50505050509080600301805461026c90611146565b80601f016020809104026020016040519081016040528092919081815260200182805461029890611146565b80156102e55780601f106102ba576101008083540402835291602001916102e5565b820191906000526020600020905b8154815290600101906020018083116102c857829003601f168201915b5050505050908060040180546102fa90611146565b80601f016020809104026020016040519081016040528092919081815260200182805461032690611146565b80156103735780601f1061034857610100808354040283529160200191610373565b820191906000526020600020905b81548152906001019060200180831161035657829003601f168201915b50505050509080600501805461038890611146565b80601f01602080910402602001604051908101604052809291908181526020018280546103b490611146565b80156104015780601f106103d657610100808354040283529160200191610401565b820191906000526020600020905b8154815290600101906020018083116103e457829003601f168201915b50505050509080600601805461041690611146565b80601f016020809104026020016040519081016040528092919081815260200182805461044290611146565b801561048f5780601f106104645761010080835404028352916020019161048f565b820191906000526020600020905b81548152906001019060200180831161047257829003601f168201915b5050505050905087565b6104eb6040518060e0016040528060006001600160a01b0316815260200160006001600160a01b0316815260200160608152602001606081526020016060815260200160608152602001606081525090565b6002826040516104fb9190611180565b90815260408051918290036020908101832060e08401835280546001600160a01b03908116855260018201541691840191909152600281018054919284019161054390611146565b80601f016020809104026020016040519081016040528092919081815260200182805461056f90611146565b80156105bc5780601f10610591576101008083540402835291602001916105bc565b820191906000526020600020905b81548152906001019060200180831161059f57829003601f168201915b505050505081526020016003820180546105d590611146565b80601f016020809104026020016040519081016040528092919081815260200182805461060190611146565b801561064e5780601f106106235761010080835404028352916020019161064e565b820191906000526020600020905b81548152906001019060200180831161063157829003601f168201915b5050505050815260200160048201805461066790611146565b80601f016020809104026020016040519081016040528092919081815260200182805461069390611146565b80156106e05780601f106106b5576101008083540402835291602001916106e0565b820191906000526020600020905b8154815290600101906020018083116106c357829003601f168201915b505050505081526020016005820180546106f990611146565b80601f016020809104026020016040519081016040528092919081815260200182805461072590611146565b80156107725780601f1061074757610100808354040283529160200191610772565b820191906000526020600020905b81548152906001019060200180831161075557829003601f168201915b5050505050815260200160068201805461078b90611146565b80601f01602080910402602001604051908101604052809291908181526020018280546107b790611146565b80156108045780601f106107d957610100808354040283529160200191610804565b820191906000526020600020905b8154815290600101906020018083116107e757829003601f168201915b5050505050815250509050919050565b8051602081830181018051600280835293830192909401919091209290528154600183015491830180546001600160a01b039283169492909316926101de90611146565b610860610c49565b61086a6000610ca3565b565b6001600160a01b0386166108d25760405162461bcd60e51b815260206004820152602260248201527f536d61727420436f6e74726163742057616c6c6574206973206e6f742056616c6044820152611a5960f21b60648201526084015b60405180910390fd5b6040805160e081018252338082526001600160a01b0389811660208085019182528486018b8152606086018b9052608086018a905260a0860189905260c0860188905260009485526001808352969094208551815490851673ffffffffffffffffffffffffffffffffffffffff199182161782559251968101805497909416969092169590951790915590518051929384936109749260028501920190610d00565b5060608201518051610990916003840191602090910190610d00565b50608082015180516109ac916004840191602090910190610d00565b5060a082015180516109c8916005840191602090910190610d00565b5060c082015180516109e4916006840191602090910190610d00565b50905050806002876040516109f99190611180565b90815260408051918290036020908101909220835181546001600160a01b0391821673ffffffffffffffffffffffffffffffffffffffff19918216178355858501516001840180549190931691161790559083015180519192610a6492600285019290910190610d00565b5060608201518051610a80916003840191602090910190610d00565b5060808201518051610a9c916004840191602090910190610d00565b5060a08201518051610ab8916005840191602090910190610d00565b5060c08201518051610ad4916006840191602090910190610d00565b509050507fa2e1d286e25c6fce64acccdfd7a54d53cce2f617ddff648ab1dbb3458ccdd95b338785604051610b0b9392919061119c565b60405180910390a150505050505050565b610b6e6040518060e0016040528060006001600160a01b0316815260200160006001600160a01b0316815260200160608152602001606081526020016060815260200160608152602001606081525090565b6001600160a01b03808316600090815260016020818152604092839020835160e081018552815486168152928101549094169082015260028301805491939284019161054390611146565b610bc1610c49565b6001600160a01b038116610c3d5760405162461bcd60e51b815260206004820152602660248201527f4f776e61626c653a206e6577206f776e657220697320746865207a65726f206160448201527f646472657373000000000000000000000000000000000000000000000000000060648201526084016108c9565b610c4681610ca3565b50565b6000546001600160a01b0316331461086a5760405162461bcd60e51b815260206004820181905260248201527f4f776e61626c653a2063616c6c6572206973206e6f7420746865206f776e657260448201526064016108c9565b600080546001600160a01b0383811673ffffffffffffffffffffffffffffffffffffffff19831681178455604051919092169283917f8be0079c531659141344cd1fd0a4f28419497f9722a3daafe3b4186f6b6457e09190a35050565b828054610d0c90611146565b90600052602060002090601f016020900481019282610d2e5760008555610d74565b82601f10610d4757805160ff1916838001178555610d74565b82800160010185558215610d74579182015b82811115610d74578251825591602001919060010190610d59565b50610d80929150610d84565b5090565b5b80821115610d805760008155600101610d85565b634e487b7160e01b600052604160045260246000fd5b600082601f830112610dc057600080fd5b813567ffffffffffffffff80821115610ddb57610ddb610d99565b604051601f8301601f19908116603f01168101908282118183101715610e0357610e03610d99565b81604052838152866020858801011115610e1c57600080fd5b836020870160208301376000602085830101528094505050505092915050565b600060208284031215610e4e57600080fd5b813567ffffffffffffffff811115610e6557600080fd5b610e7184828501610daf565b949350505050565b80356001600160a01b0381168114610e9057600080fd5b919050565b600060208284031215610ea757600080fd5b610eb082610e79565b9392505050565b60005b83811015610ed2578181015183820152602001610eba565b83811115610ee1576000848401525b50505050565b60008151808452610eff816020860160208601610eb7565b601f01601f19169290920160200192915050565b60006001600160a01b03808a16835280891660208401525060e06040830152610f3f60e0830188610ee7565b8281036060840152610f518188610ee7565b90508281036080840152610f658187610ee7565b905082810360a0840152610f798186610ee7565b905082810360c0840152610f8d8185610ee7565b9a9950505050505050505050565b602081526001600160a01b03825116602082015260006020830151610fcb60408401826001600160a01b03169052565b50604083015160e06060840152610fe6610100840182610ee7565b90506060840151601f19808584030160808601526110048383610ee7565b925060808601519150808584030160a08601526110218383610ee7565b925060a08601519150808584030160c086015261103e8383610ee7565b925060c08601519150808584030160e08601525061105c8282610ee7565b95945050505050565b60008060008060008060c0878903121561107e57600080fd5b61108787610e79565b9550602087013567ffffffffffffffff808211156110a457600080fd5b6110b08a838b01610daf565b965060408901359150808211156110c657600080fd5b6110d28a838b01610daf565b955060608901359150808211156110e857600080fd5b6110f48a838b01610daf565b9450608089013591508082111561110a57600080fd5b6111168a838b01610daf565b935060a089013591508082111561112c57600080fd5b5061113989828a01610daf565b9150509295509295509295565b600181811c9082168061115a57607f821691505b60208210810361117a57634e487b7160e01b600052602260045260246000fd5b50919050565b60008251611192818460208701610eb7565b9190910192915050565b6001600160a01b03841681526060602082015260006111be6060830185610ee7565b82810360408401526111d08185610ee7565b969550505050505056fea2646970667358221220ee02ebe20a595b3be46b9510d73601f54bcce6ad850e3c737ab8c302cbe455a764736f6c634300080d0033",
      "opcodes": "PUSH1 0x80 PUSH1 0x40 MSTORE CALLVALUE DUP1 ISZERO PUSH2 0x10 JUMPI PUSH1 0x0 DUP1 REVERT JUMPDEST POP PUSH2 0x1A CALLER PUSH2 0x1F JUMP JUMPDEST PUSH2 0x6F JUMP JUMPDEST PUSH1 0x0 DUP1 SLOAD PUSH1 0x1 PUSH1 0x1 PUSH1 0xA0 SHL SUB DUP4 DUP2 AND PUSH1 0x1 PUSH1 0x1 PUSH1 0xA0 SHL SUB NOT DUP4 AND DUP2 OR DUP5 SSTORE PUSH1 0x40 MLOAD SWAP2 SWAP1 SWAP3 AND SWAP3 DUP4 SWAP2 PUSH32 0x8BE0079C531659141344CD1FD0A4F28419497F9722A3DAAFE3B4186F6B6457E0 SWAP2 SWAP1 LOG3 POP POP JUMP JUMPDEST PUSH2 0x1210 DUP1 PUSH2 0x7E PUSH1 0x0 CODECOPY PUSH1 0x0 RETURN INVALID PUSH1 0x80 PUSH1 0x40 MSTORE CALLVALUE DUP1 ISZERO PUSH2 0x10 JUMPI PUSH1 0x0 DUP1 REVERT JUMPDEST POP PUSH1 0x4 CALLDATASIZE LT PUSH2 0xA3 JUMPI PUSH1 0x0 CALLDATALOAD PUSH1 0xE0 SHR DUP1 PUSH4 0x715018A6 GT PUSH2 0x76 JUMPI DUP1 PUSH4 0xA377D18F GT PUSH2 0x5B JUMPI DUP1 PUSH4 0xA377D18F EQ PUSH2 0x142 JUMPI DUP1 PUSH4 0xBE6F0EA2 EQ PUSH2 0x155 JUMPI DUP1 PUSH4 0xF2FDE38B EQ PUSH2 0x168 JUMPI PUSH1 0x0 DUP1 REVERT JUMPDEST DUP1 PUSH4 0x715018A6 EQ PUSH2 0x11F JUMPI DUP1 PUSH4 0x8DA5CB5B EQ PUSH2 0x127 JUMPI PUSH1 0x0 DUP1 REVERT JUMPDEST DUP1 PUSH4 0x215C58BD EQ PUSH2 0xA8 JUMPI DUP1 PUSH4 0x332D56D7 EQ PUSH2 0xBD JUMPI DUP1 PUSH4 0x5498A29D EQ PUSH2 0xEC JUMPI DUP1 PUSH4 0x638F6CC8 EQ PUSH2 0x10C JUMPI JUMPDEST PUSH1 0x0 DUP1 REVERT JUMPDEST PUSH2 0xBB PUSH2 0xB6 CALLDATASIZE PUSH1 0x4 PUSH2 0xE3C JUMP JUMPDEST PUSH2 0x17B JUMP JUMPDEST STOP JUMPDEST PUSH2 0xD0 PUSH2 0xCB CALLDATASIZE PUSH1 0x4 PUSH2 0xE95 JUMP JUMPDEST PUSH2 0x1A7 JUMP JUMPDEST PUSH1 0x40 MLOAD PUSH2 0xE3 SWAP8 SWAP7 SWAP6 SWAP5 SWAP4 SWAP3 SWAP2 SWAP1 PUSH2 0xF13 JUMP JUMPDEST PUSH1 0x40 MLOAD DUP1 SWAP2 SUB SWAP1 RETURN JUMPDEST PUSH2 0xFF PUSH2 0xFA CALLDATASIZE PUSH1 0x4 PUSH2 0xE3C JUMP JUMPDEST PUSH2 0x499 JUMP JUMPDEST PUSH1 0x40 MLOAD PUSH2 0xE3 SWAP2 SWAP1 PUSH2 0xF9B JUMP JUMPDEST PUSH2 0xD0 PUSH2 0x11A CALLDATASIZE PUSH1 0x4 PUSH2 0xE3C JUMP JUMPDEST PUSH2 0x814 JUMP JUMPDEST PUSH2 0xBB PUSH2 0x858 JUMP JUMPDEST PUSH1 0x0 SLOAD PUSH1 0x40 MLOAD PUSH1 0x1 PUSH1 0x1 PUSH1 0xA0 SHL SUB SWAP1 SWAP2 AND DUP2 MSTORE PUSH1 0x20 ADD PUSH2 0xE3 JUMP JUMPDEST PUSH2 0xBB PUSH2 0x150 CALLDATASIZE PUSH1 0x4 PUSH2 0x1065 JUMP JUMPDEST PUSH2 0x86C JUMP JUMPDEST PUSH2 0xFF PUSH2 0x163 CALLDATASIZE PUSH1 0x4 PUSH2 0xE95 JUMP JUMPDEST PUSH2 0xB1C JUMP JUMPDEST PUSH2 0xBB PUSH2 0x176 CALLDATASIZE PUSH1 0x4 PUSH2 0xE95 JUMP JUMPDEST PUSH2 0xBB9 JUMP JUMPDEST CALLER PUSH1 0x0 SWAP1 DUP2 MSTORE PUSH1 0x1 PUSH1 0x20 SWAP1 DUP2 MSTORE PUSH1 0x40 SWAP1 SWAP2 KECCAK256 DUP3 MLOAD SWAP1 SWAP2 PUSH2 0x1A2 SWAP2 PUSH1 0x2 DUP5 ADD SWAP2 DUP6 ADD SWAP1 PUSH2 0xD00 JUMP JUMPDEST POP POP POP JUMP JUMPDEST PUSH1 0x1 PUSH1 0x20 DUP2 SWAP1 MSTORE PUSH1 0x0 SWAP2 DUP3 MSTORE PUSH1 0x40 SWAP1 SWAP2 KECCAK256 DUP1 SLOAD SWAP2 DUP2 ADD SLOAD PUSH1 0x2 DUP3 ADD DUP1 SLOAD PUSH1 0x1 PUSH1 0x1 PUSH1 0xA0 SHL SUB SWAP5 DUP6 AND SWAP5 SWAP1 SWAP3 AND SWAP3 SWAP2 PUSH2 0x1DE SWAP1 PUSH2 0x1146 JUMP JUMPDEST DUP1 PUSH1 0x1F ADD PUSH1 0x20 DUP1 SWAP2 DIV MUL PUSH1 0x20 ADD PUSH1 0x40 MLOAD SWAP1 DUP2 ADD PUSH1 0x40 MSTORE DUP1 SWAP3 SWAP2 SWAP1 DUP2 DUP2 MSTORE PUSH1 0x20 ADD DUP3 DUP1 SLOAD PUSH2 0x20A SWAP1 PUSH2 0x1146 JUMP JUMPDEST DUP1 ISZERO PUSH2 0x257 JUMPI DUP1 PUSH1 0x1F LT PUSH2 0x22C JUMPI PUSH2 0x100 DUP1 DUP4 SLOAD DIV MUL DUP4 MSTORE SWAP2 PUSH1 0x20 ADD SWAP2 PUSH2 0x257 JUMP JUMPDEST DUP3 ADD SWAP2 SWAP1 PUSH1 0x0 MSTORE PUSH1 0x20 PUSH1 0x0 KECCAK256 SWAP1 JUMPDEST DUP2 SLOAD DUP2 MSTORE SWAP1 PUSH1 0x1 ADD SWAP1 PUSH1 0x20 ADD DUP1 DUP4 GT PUSH2 0x23A JUMPI DUP3 SWAP1 SUB PUSH1 0x1F AND DUP3 ADD SWAP2 JUMPDEST POP POP POP POP POP SWAP1 DUP1 PUSH1 0x3 ADD DUP1 SLOAD PUSH2 0x26C SWAP1 PUSH2 0x1146 JUMP JUMPDEST DUP1 PUSH1 0x1F ADD PUSH1 0x20 DUP1 SWAP2 DIV MUL PUSH1 0x20 ADD PUSH1 0x40 MLOAD SWAP1 DUP2 ADD PUSH1 0x40 MSTORE DUP1 SWAP3 SWAP2 SWAP1 DUP2 DUP2 MSTORE PUSH1 0x20 ADD DUP3 DUP1 SLOAD PUSH2 0x298 SWAP1 PUSH2 0x1146 JUMP JUMPDEST DUP1 ISZERO PUSH2 0x2E5 JUMPI DUP1 PUSH1 0x1F LT PUSH2 0x2BA JUMPI PUSH2 0x100 DUP1 DUP4 SLOAD DIV MUL DUP4 MSTORE SWAP2 PUSH1 0x20 ADD SWAP2 PUSH2 0x2E5 JUMP JUMPDEST DUP3 ADD SWAP2 SWAP1 PUSH1 0x0 MSTORE PUSH1 0x20 PUSH1 0x0 KECCAK256 SWAP1 JUMPDEST DUP2 SLOAD DUP2 MSTORE SWAP1 PUSH1 0x1 ADD SWAP1 PUSH1 0x20 ADD DUP1 DUP4 GT PUSH2 0x2C8 JUMPI DUP3 SWAP1 SUB PUSH1 0x1F AND DUP3 ADD SWAP2 JUMPDEST POP POP POP POP POP SWAP1 DUP1 PUSH1 0x4 ADD DUP1 SLOAD PUSH2 0x2FA SWAP1 PUSH2 0x1146 JUMP JUMPDEST DUP1 PUSH1 0x1F ADD PUSH1 0x20 DUP1 SWAP2 DIV MUL PUSH1 0x20 ADD PUSH1 0x40 MLOAD SWAP1 DUP2 ADD PUSH1 0x40 MSTORE DUP1 SWAP3 SWAP2 SWAP1 DUP2 DUP2 MSTORE PUSH1 0x20 ADD DUP3 DUP1 SLOAD PUSH2 0x326 SWAP1 PUSH2 0x1146 JUMP JUMPDEST DUP1 ISZERO PUSH2 0x373 JUMPI DUP1 PUSH1 0x1F LT PUSH2 0x348 JUMPI PUSH2 0x100 DUP1 DUP4 SLOAD DIV MUL DUP4 MSTORE SWAP2 PUSH1 0x20 ADD SWAP2 PUSH2 0x373 JUMP JUMPDEST DUP3 ADD SWAP2 SWAP1 PUSH1 0x0 MSTORE PUSH1 0x20 PUSH1 0x0 KECCAK256 SWAP1 JUMPDEST DUP2 SLOAD DUP2 MSTORE SWAP1 PUSH1 0x1 ADD SWAP1 PUSH1 0x20 ADD DUP1 DUP4 GT PUSH2 0x356 JUMPI DUP3 SWAP1 SUB PUSH1 0x1F AND DUP3 ADD SWAP2 JUMPDEST POP POP POP POP POP SWAP1 DUP1 PUSH1 0x5 ADD DUP1 SLOAD PUSH2 0x388 SWAP1 PUSH2 0x1146 JUMP JUMPDEST DUP1 PUSH1 0x1F ADD PUSH1 0x20 DUP1 SWAP2 DIV MUL PUSH1 0x20 ADD PUSH1 0x40 MLOAD SWAP1 DUP2 ADD PUSH1 0x40 MSTORE DUP1 SWAP3 SWAP2 SWAP1 DUP2 DUP2 MSTORE PUSH1 0x20 ADD DUP3 DUP1 SLOAD PUSH2 0x3B4 SWAP1 PUSH2 0x1146 JUMP JUMPDEST DUP1 ISZERO PUSH2 0x401 JUMPI DUP1 PUSH1 0x1F LT PUSH2 0x3D6 JUMPI PUSH2 0x100 DUP1 DUP4 SLOAD DIV MUL DUP4 MSTORE SWAP2 PUSH1 0x20 ADD SWAP2 PUSH2 0x401 JUMP JUMPDEST DUP3 ADD SWAP2 SWAP1 PUSH1 0x0 MSTORE PUSH1 0x20 PUSH1 0x0 KECCAK256 SWAP1 JUMPDEST DUP2 SLOAD DUP2 MSTORE SWAP1 PUSH1 0x1 ADD SWAP1 PUSH1 0x20 ADD DUP1 DUP4 GT PUSH2 0x3E4 JUMPI DUP3 SWAP1 SUB PUSH1 0x1F AND DUP3 ADD SWAP2 JUMPDEST POP POP POP POP POP SWAP1 DUP1 PUSH1 0x6 ADD DUP1 SLOAD PUSH2 0x416 SWAP1 PUSH2 0x1146 JUMP JUMPDEST DUP1 PUSH1 0x1F ADD PUSH1 0x20 DUP1 SWAP2 DIV MUL PUSH1 0x20 ADD PUSH1 0x40 MLOAD SWAP1 DUP2 ADD PUSH1 0x40 MSTORE DUP1 SWAP3 SWAP2 SWAP1 DUP2 DUP2 MSTORE PUSH1 0x20 ADD DUP3 DUP1 SLOAD PUSH2 0x442 SWAP1 PUSH2 0x1146 JUMP JUMPDEST DUP1 ISZERO PUSH2 0x48F JUMPI DUP1 PUSH1 0x1F LT PUSH2 0x464 JUMPI PUSH2 0x100 DUP1 DUP4 SLOAD DIV MUL DUP4 MSTORE SWAP2 PUSH1 0x20 ADD SWAP2 PUSH2 0x48F JUMP JUMPDEST DUP3 ADD SWAP2 SWAP1 PUSH1 0x0 MSTORE PUSH1 0x20 PUSH1 0x0 KECCAK256 SWAP1 JUMPDEST DUP2 SLOAD DUP2 MSTORE SWAP1 PUSH1 0x1 ADD SWAP1 PUSH1 0x20 ADD DUP1 DUP4 GT PUSH2 0x472 JUMPI DUP3 SWAP1 SUB PUSH1 0x1F AND DUP3 ADD SWAP2 JUMPDEST POP POP POP POP POP SWAP1 POP DUP8 JUMP JUMPDEST PUSH2 0x4EB PUSH1 0x40 MLOAD DUP1 PUSH1 0xE0 ADD PUSH1 0x40 MSTORE DUP1 PUSH1 0x0 PUSH1 0x1 PUSH1 0x1 PUSH1 0xA0 SHL SUB AND DUP2 MSTORE PUSH1 0x20 ADD PUSH1 0x0 PUSH1 0x1 PUSH1 0x1 PUSH1 0xA0 SHL SUB AND DUP2 MSTORE PUSH1 0x20 ADD PUSH1 0x60 DUP2 MSTORE PUSH1 0x20 ADD PUSH1 0x60 DUP2 MSTORE PUSH1 0x20 ADD PUSH1 0x60 DUP2 MSTORE PUSH1 0x20 ADD PUSH1 0x60 DUP2 MSTORE PUSH1 0x20 ADD PUSH1 0x60 DUP2 MSTORE POP SWAP1 JUMP JUMPDEST PUSH1 0x2 DUP3 PUSH1 0x40 MLOAD PUSH2 0x4FB SWAP2 SWAP1 PUSH2 0x1180 JUMP JUMPDEST SWAP1 DUP2 MSTORE PUSH1 0x40 DUP1 MLOAD SWAP2 DUP3 SWAP1 SUB PUSH1 0x20 SWAP1 DUP2 ADD DUP4 KECCAK256 PUSH1 0xE0 DUP5 ADD DUP4 MSTORE DUP1 SLOAD PUSH1 0x1 PUSH1 0x1 PUSH1 0xA0 SHL SUB SWAP1 DUP2 AND DUP6 MSTORE PUSH1 0x1 DUP3 ADD SLOAD AND SWAP2 DUP5 ADD SWAP2 SWAP1 SWAP2 MSTORE PUSH1 0x2 DUP2 ADD DUP1 SLOAD SWAP2 SWAP3 DUP5 ADD SWAP2 PUSH2 0x543 SWAP1 PUSH2 0x1146 JUMP JUMPDEST DUP1 PUSH1 0x1F ADD PUSH1 0x20 DUP1 SWAP2 DIV MUL PUSH1 0x20 ADD PUSH1 0x40 MLOAD SWAP1 DUP2 ADD PUSH1 0x40 MSTORE DUP1 SWAP3 SWAP2 SWAP1 DUP2 DUP2 MSTORE PUSH1 0x20 ADD DUP3 DUP1 SLOAD PUSH2 0x56F SWAP1 PUSH2 0x1146 JUMP JUMPDEST DUP1 ISZERO PUSH2 0x5BC JUMPI DUP1 PUSH1 0x1F LT PUSH2 0x591 JUMPI PUSH2 0x100 DUP1 DUP4 SLOAD DIV MUL DUP4 MSTORE SWAP2 PUSH1 0x20 ADD SWAP2 PUSH2 0x5BC JUMP JUMPDEST DUP3 ADD SWAP2 SWAP1 PUSH1 0x0 MSTORE PUSH1 0x20 PUSH1 0x0 KECCAK256 SWAP1 JUMPDEST DUP2 SLOAD DUP2 MSTORE SWAP1 PUSH1 0x1 ADD SWAP1 PUSH1 0x20 ADD DUP1 DUP4 GT PUSH2 0x59F JUMPI DUP3 SWAP1 SUB PUSH1 0x1F AND DUP3 ADD SWAP2 JUMPDEST POP POP POP POP POP DUP2 MSTORE PUSH1 0x20 ADD PUSH1 0x3 DUP3 ADD DUP1 SLOAD PUSH2 0x5D5 SWAP1 PUSH2 0x1146 JUMP JUMPDEST DUP1 PUSH1 0x1F ADD PUSH1 0x20 DUP1 SWAP2 DIV MUL PUSH1 0x20 ADD PUSH1 0x40 MLOAD SWAP1 DUP2 ADD PUSH1 0x40 MSTORE DUP1 SWAP3 SWAP2 SWAP1 DUP2 DUP2 MSTORE PUSH1 0x20 ADD DUP3 DUP1 SLOAD PUSH2 0x601 SWAP1 PUSH2 0x1146 JUMP JUMPDEST DUP1 ISZERO PUSH2 0x64E JUMPI DUP1 PUSH1 0x1F LT PUSH2 0x623 JUMPI PUSH2 0x100 DUP1 DUP4 SLOAD DIV MUL DUP4 MSTORE SWAP2 PUSH1 0x20 ADD SWAP2 PUSH2 0x64E JUMP JUMPDEST DUP3 ADD SWAP2 SWAP1 PUSH1 0x0 MSTORE PUSH1 0x20 PUSH1 0x0 KECCAK256 SWAP1 JUMPDEST DUP2 SLOAD DUP2 MSTORE SWAP1 PUSH1 0x1 ADD SWAP1 PUSH1 0x20 ADD DUP1 DUP4 GT PUSH2 0x631 JUMPI DUP3 SWAP1 SUB PUSH1 0x1F AND DUP3 ADD SWAP2 JUMPDEST POP POP POP POP POP DUP2 MSTORE PUSH1 0x20 ADD PUSH1 0x4 DUP3 ADD DUP1 SLOAD PUSH2 0x667 SWAP1 PUSH2 0x1146 JUMP JUMPDEST DUP1 PUSH1 0x1F ADD PUSH1 0x20 DUP1 SWAP2 DIV MUL PUSH1 0x20 ADD PUSH1 0x40 MLOAD SWAP1 DUP2 ADD PUSH1 0x40 MSTORE DUP1 SWAP3 SWAP2 SWAP1 DUP2 DUP2 MSTORE PUSH1 0x20 ADD DUP3 DUP1 SLOAD PUSH2 0x693 SWAP1 PUSH2 0x1146 JUMP JUMPDEST DUP1 ISZERO PUSH2 0x6E0 JUMPI DUP1 PUSH1 0x1F LT PUSH2 0x6B5 JUMPI PUSH2 0x100 DUP1 DUP4 SLOAD DIV MUL DUP4 MSTORE SWAP2 PUSH1 0x20 ADD SWAP2 PUSH2 0x6E0 JUMP JUMPDEST DUP3 ADD SWAP2 SWAP1 PUSH1 0x0 MSTORE PUSH1 0x20 PUSH1 0x0 KECCAK256 SWAP1 JUMPDEST DUP2 SLOAD DUP2 MSTORE SWAP1 PUSH1 0x1 ADD SWAP1 PUSH1 0x20 ADD DUP1 DUP4 GT PUSH2 0x6C3 JUMPI DUP3 SWAP1 SUB PUSH1 0x1F AND DUP3 ADD SWAP2 JUMPDEST POP POP POP POP POP DUP2 MSTORE PUSH1 0x20 ADD PUSH1 0x5 DUP3 ADD DUP1 SLOAD PUSH2 0x6F9 SWAP1 PUSH2 0x1146 JUMP JUMPDEST DUP1 PUSH1 0x1F ADD PUSH1 0x20 DUP1 SWAP2 DIV MUL PUSH1 0x20 ADD PUSH1 0x40 MLOAD SWAP1 DUP2 ADD PUSH1 0x40 MSTORE DUP1 SWAP3 SWAP2 SWAP1 DUP2 DUP2 MSTORE PUSH1 0x20 ADD DUP3 DUP1 SLOAD PUSH2 0x725 SWAP1 PUSH2 0x1146 JUMP JUMPDEST DUP1 ISZERO PUSH2 0x772 JUMPI DUP1 PUSH1 0x1F LT PUSH2 0x747 JUMPI PUSH2 0x100 DUP1 DUP4 SLOAD DIV MUL DUP4 MSTORE SWAP2 PUSH1 0x20 ADD SWAP2 PUSH2 0x772 JUMP JUMPDEST DUP3 ADD SWAP2 SWAP1 PUSH1 0x0 MSTORE PUSH1 0x20 PUSH1 0x0 KECCAK256 SWAP1 JUMPDEST DUP2 SLOAD DUP2 MSTORE SWAP1 PUSH1 0x1 ADD SWAP1 PUSH1 0x20 ADD DUP1 DUP4 GT PUSH2 0x755 JUMPI DUP3 SWAP1 SUB PUSH1 0x1F AND DUP3 ADD SWAP2 JUMPDEST POP POP POP POP POP DUP2 MSTORE PUSH1 0x20 ADD PUSH1 0x6 DUP3 ADD DUP1 SLOAD PUSH2 0x78B SWAP1 PUSH2 0x1146 JUMP JUMPDEST DUP1 PUSH1 0x1F ADD PUSH1 0x20 DUP1 SWAP2 DIV MUL PUSH1 0x20 ADD PUSH1 0x40 MLOAD SWAP1 DUP2 ADD PUSH1 0x40 MSTORE DUP1 SWAP3 SWAP2 SWAP1 DUP2 DUP2 MSTORE PUSH1 0x20 ADD DUP3 DUP1 SLOAD PUSH2 0x7B7 SWAP1 PUSH2 0x1146 JUMP JUMPDEST DUP1 ISZERO PUSH2 0x804 JUMPI DUP1 PUSH1 0x1F LT PUSH2 0x7D9 JUMPI PUSH2 0x100 DUP1 DUP4 SLOAD DIV MUL DUP4 MSTORE SWAP2 PUSH1 0x20 ADD SWAP2 PUSH2 0x804 JUMP JUMPDEST DUP3 ADD SWAP2 SWAP1 PUSH1 0x0 MSTORE PUSH1 0x20 PUSH1 0x0 KECCAK256 SWAP1 JUMPDEST DUP2 SLOAD DUP2 MSTORE SWAP1 PUSH1 0x1 ADD SWAP1 PUSH1 0x20 ADD DUP1 DUP4 GT PUSH2 0x7E7 JUMPI DUP3 SWAP1 SUB PUSH1 0x1F AND DUP3 ADD SWAP2 JUMPDEST POP POP POP POP POP DUP2 MSTORE POP POP SWAP1 POP SWAP2 SWAP1 POP JUMP JUMPDEST DUP1 MLOAD PUSH1 0x20 DUP2 DUP4 ADD DUP2 ADD DUP1 MLOAD PUSH1 0x2 DUP1 DUP4 MSTORE SWAP4 DUP4 ADD SWAP3 SWAP1 SWAP5 ADD SWAP2 SWAP1 SWAP2 KECCAK256 SWAP3 SWAP1 MSTORE DUP2 SLOAD PUSH1 0x1 DUP4 ADD SLOAD SWAP2 DUP4 ADD DUP1 SLOAD PUSH1 0x1 PUSH1 0x1 PUSH1 0xA0 SHL SUB SWAP3 DUP4 AND SWAP5 SWAP3 SWAP1 SWAP4 AND SWAP3 PUSH2 0x1DE SWAP1 PUSH2 0x1146 JUMP JUMPDEST PUSH2 0x860 PUSH2 0xC49 JUMP JUMPDEST PUSH2 0x86A PUSH1 0x0 PUSH2 0xCA3 JUMP JUMPDEST JUMP JUMPDEST PUSH1 0x1 PUSH1 0x1 PUSH1 0xA0 SHL SUB DUP7 AND PUSH2 0x8D2 JUMPI PUSH1 0x40 MLOAD PUSH3 0x461BCD PUSH1 0xE5 SHL DUP2 MSTORE PUSH1 0x20 PUSH1 0x4 DUP3 ADD MSTORE PUSH1 0x22 PUSH1 0x24 DUP3 ADD MSTORE PUSH32 0x536D61727420436F6E74726163742057616C6C6574206973206E6F742056616C PUSH1 0x44 DUP3 ADD MSTORE PUSH2 0x1A59 PUSH1 0xF2 SHL PUSH1 0x64 DUP3 ADD MSTORE PUSH1 0x84 ADD JUMPDEST PUSH1 0x40 MLOAD DUP1 SWAP2 SUB SWAP1 REVERT JUMPDEST PUSH1 0x40 DUP1 MLOAD PUSH1 0xE0 DUP2 ADD DUP3 MSTORE CALLER DUP1 DUP3 MSTORE PUSH1 0x1 PUSH1 0x1 PUSH1 0xA0 SHL SUB DUP10 DUP2 AND PUSH1 0x20 DUP1 DUP6 ADD SWAP2 DUP3 MSTORE DUP5 DUP7 ADD DUP12 DUP2 MSTORE PUSH1 0x60 DUP7 ADD DUP12 SWAP1 MSTORE PUSH1 0x80 DUP7 ADD DUP11 SWAP1 MSTORE PUSH1 0xA0 DUP7 ADD DUP10 SWAP1 MSTORE PUSH1 0xC0 DUP7 ADD DUP9 SWAP1 MSTORE PUSH1 0x0 SWAP5 DUP6 MSTORE PUSH1 0x1 DUP1 DUP4 MSTORE SWAP7 SWAP1 SWAP5 KECCAK256 DUP6 MLOAD DUP2 SLOAD SWAP1 DUP6 AND PUSH20 0xFFFFFFFFFFFFFFFFFFFFFFFFFFFFFFFFFFFFFFFF NOT SWAP2 DUP3 AND OR DUP3 SSTORE SWAP3 MLOAD SWAP7 DUP2 ADD DUP1 SLOAD SWAP8 SWAP1 SWAP5 AND SWAP7 SWAP1 SWAP3 AND SWAP6 SWAP1 SWAP6 OR SWAP1 SWAP2 SSTORE SWAP1 MLOAD DUP1 MLOAD SWAP3 SWAP4 DUP5 SWAP4 PUSH2 0x974 SWAP3 PUSH1 0x2 DUP6 ADD SWAP3 ADD SWAP1 PUSH2 0xD00 JUMP JUMPDEST POP PUSH1 0x60 DUP3 ADD MLOAD DUP1 MLOAD PUSH2 0x990 SWAP2 PUSH1 0x3 DUP5 ADD SWAP2 PUSH1 0x20 SWAP1 SWAP2 ADD SWAP1 PUSH2 0xD00 JUMP JUMPDEST POP PUSH1 0x80 DUP3 ADD MLOAD DUP1 MLOAD PUSH2 0x9AC SWAP2 PUSH1 0x4 DUP5 ADD SWAP2 PUSH1 0x20 SWAP1 SWAP2 ADD SWAP1 PUSH2 0xD00 JUMP JUMPDEST POP PUSH1 0xA0 DUP3 ADD MLOAD DUP1 MLOAD PUSH2 0x9C8 SWAP2 PUSH1 0x5 DUP5 ADD SWAP2 PUSH1 0x20 SWAP1 SWAP2 ADD SWAP1 PUSH2 0xD00 JUMP JUMPDEST POP PUSH1 0xC0 DUP3 ADD MLOAD DUP1 MLOAD PUSH2 0x9E4 SWAP2 PUSH1 0x6 DUP5 ADD SWAP2 PUSH1 0x20 SWAP1 SWAP2 ADD SWAP1 PUSH2 0xD00 JUMP JUMPDEST POP SWAP1 POP POP DUP1 PUSH1 0x2 DUP8 PUSH1 0x40 MLOAD PUSH2 0x9F9 SWAP2 SWAP1 PUSH2 0x1180 JUMP JUMPDEST SWAP1 DUP2 MSTORE PUSH1 0x40 DUP1 MLOAD SWAP2 DUP3 SWAP1 SUB PUSH1 0x20 SWAP1 DUP2 ADD SWAP1 SWAP3 KECCAK256 DUP4 MLOAD DUP2 SLOAD PUSH1 0x1 PUSH1 0x1 PUSH1 0xA0 SHL SUB SWAP2 DUP3 AND PUSH20 0xFFFFFFFFFFFFFFFFFFFFFFFFFFFFFFFFFFFFFFFF NOT SWAP2 DUP3 AND OR DUP4 SSTORE DUP6 DUP6 ADD MLOAD PUSH1 0x1 DUP5 ADD DUP1 SLOAD SWAP2 SWAP1 SWAP4 AND SWAP2 AND OR SWAP1 SSTORE SWAP1 DUP4 ADD MLOAD DUP1 MLOAD SWAP2 SWAP3 PUSH2 0xA64 SWAP3 PUSH1 0x2 DUP6 ADD SWAP3 SWAP1 SWAP2 ADD SWAP1 PUSH2 0xD00 JUMP JUMPDEST POP PUSH1 0x60 DUP3 ADD MLOAD DUP1 MLOAD PUSH2 0xA80 SWAP2 PUSH1 0x3 DUP5 ADD SWAP2 PUSH1 0x20 SWAP1 SWAP2 ADD SWAP1 PUSH2 0xD00 JUMP JUMPDEST POP PUSH1 0x80 DUP3 ADD MLOAD DUP1 MLOAD PUSH2 0xA9C SWAP2 PUSH1 0x4 DUP5 ADD SWAP2 PUSH1 0x20 SWAP1 SWAP2 ADD SWAP1 PUSH2 0xD00 JUMP JUMPDEST POP PUSH1 0xA0 DUP3 ADD MLOAD DUP1 MLOAD PUSH2 0xAB8 SWAP2 PUSH1 0x5 DUP5 ADD SWAP2 PUSH1 0x20 SWAP1 SWAP2 ADD SWAP1 PUSH2 0xD00 JUMP JUMPDEST POP PUSH1 0xC0 DUP3 ADD MLOAD DUP1 MLOAD PUSH2 0xAD4 SWAP2 PUSH1 0x6 DUP5 ADD SWAP2 PUSH1 0x20 SWAP1 SWAP2 ADD SWAP1 PUSH2 0xD00 JUMP JUMPDEST POP SWAP1 POP POP PUSH32 0xA2E1D286E25C6FCE64ACCCDFD7A54D53CCE2F617DDFF648AB1DBB3458CCDD95B CALLER DUP8 DUP6 PUSH1 0x40 MLOAD PUSH2 0xB0B SWAP4 SWAP3 SWAP2 SWAP1 PUSH2 0x119C JUMP JUMPDEST PUSH1 0x40 MLOAD DUP1 SWAP2 SUB SWAP1 LOG1 POP POP POP POP POP POP POP JUMP JUMPDEST PUSH2 0xB6E PUSH1 0x40 MLOAD DUP1 PUSH1 0xE0 ADD PUSH1 0x40 MSTORE DUP1 PUSH1 0x0 PUSH1 0x1 PUSH1 0x1 PUSH1 0xA0 SHL SUB AND DUP2 MSTORE PUSH1 0x20 ADD PUSH1 0x0 PUSH1 0x1 PUSH1 0x1 PUSH1 0xA0 SHL SUB AND DUP2 MSTORE PUSH1 0x20 ADD PUSH1 0x60 DUP2 MSTORE PUSH1 0x20 ADD PUSH1 0x60 DUP2 MSTORE PUSH1 0x20 ADD PUSH1 0x60 DUP2 MSTORE PUSH1 0x20 ADD PUSH1 0x60 DUP2 MSTORE PUSH1 0x20 ADD PUSH1 0x60 DUP2 MSTORE POP SWAP1 JUMP JUMPDEST PUSH1 0x1 PUSH1 0x1 PUSH1 0xA0 SHL SUB DUP1 DUP4 AND PUSH1 0x0 SWAP1 DUP2 MSTORE PUSH1 0x1 PUSH1 0x20 DUP2 DUP2 MSTORE PUSH1 0x40 SWAP3 DUP4 SWAP1 KECCAK256 DUP4 MLOAD PUSH1 0xE0 DUP2 ADD DUP6 MSTORE DUP2 SLOAD DUP7 AND DUP2 MSTORE SWAP3 DUP2 ADD SLOAD SWAP1 SWAP5 AND SWAP1 DUP3 ADD MSTORE PUSH1 0x2 DUP4 ADD DUP1 SLOAD SWAP2 SWAP4 SWAP3 DUP5 ADD SWAP2 PUSH2 0x543 SWAP1 PUSH2 0x1146 JUMP JUMPDEST PUSH2 0xBC1 PUSH2 0xC49 JUMP JUMPDEST PUSH1 0x1 PUSH1 0x1 PUSH1 0xA0 SHL SUB DUP2 AND PUSH2 0xC3D JUMPI PUSH1 0x40 MLOAD PUSH3 0x461BCD PUSH1 0xE5 SHL DUP2 MSTORE PUSH1 0x20 PUSH1 0x4 DUP3 ADD MSTORE PUSH1 0x26 PUSH1 0x24 DUP3 ADD MSTORE PUSH32 0x4F776E61626C653A206E6577206F776E657220697320746865207A65726F2061 PUSH1 0x44 DUP3 ADD MSTORE PUSH32 0x6464726573730000000000000000000000000000000000000000000000000000 PUSH1 0x64 DUP3 ADD MSTORE PUSH1 0x84 ADD PUSH2 0x8C9 JUMP JUMPDEST PUSH2 0xC46 DUP2 PUSH2 0xCA3 JUMP JUMPDEST POP JUMP JUMPDEST PUSH1 0x0 SLOAD PUSH1 0x1 PUSH1 0x1 PUSH1 0xA0 SHL SUB AND CALLER EQ PUSH2 0x86A JUMPI PUSH1 0x40 MLOAD PUSH3 0x461BCD PUSH1 0xE5 SHL DUP2 MSTORE PUSH1 0x20 PUSH1 0x4 DUP3 ADD DUP2 SWAP1 MSTORE PUSH1 0x24 DUP3 ADD MSTORE PUSH32 0x4F776E61626C653A2063616C6C6572206973206E6F7420746865206F776E6572 PUSH1 0x44 DUP3 ADD MSTORE PUSH1 0x64 ADD PUSH2 0x8C9 JUMP JUMPDEST PUSH1 0x0 DUP1 SLOAD PUSH1 0x1 PUSH1 0x1 PUSH1 0xA0 SHL SUB DUP4 DUP2 AND PUSH20 0xFFFFFFFFFFFFFFFFFFFFFFFFFFFFFFFFFFFFFFFF NOT DUP4 AND DUP2 OR DUP5 SSTORE PUSH1 0x40 MLOAD SWAP2 SWAP1 SWAP3 AND SWAP3 DUP4 SWAP2 PUSH32 0x8BE0079C531659141344CD1FD0A4F28419497F9722A3DAAFE3B4186F6B6457E0 SWAP2 SWAP1 LOG3 POP POP JUMP JUMPDEST DUP3 DUP1 SLOAD PUSH2 0xD0C SWAP1 PUSH2 0x1146 JUMP JUMPDEST SWAP1 PUSH1 0x0 MSTORE PUSH1 0x20 PUSH1 0x0 KECCAK256 SWAP1 PUSH1 0x1F ADD PUSH1 0x20 SWAP1 DIV DUP2 ADD SWAP3 DUP3 PUSH2 0xD2E JUMPI PUSH1 0x0 DUP6 SSTORE PUSH2 0xD74 JUMP JUMPDEST DUP3 PUSH1 0x1F LT PUSH2 0xD47 JUMPI DUP1 MLOAD PUSH1 0xFF NOT AND DUP4 DUP1 ADD OR DUP6 SSTORE PUSH2 0xD74 JUMP JUMPDEST DUP3 DUP1 ADD PUSH1 0x1 ADD DUP6 SSTORE DUP3 ISZERO PUSH2 0xD74 JUMPI SWAP2 DUP3 ADD JUMPDEST DUP3 DUP2 GT ISZERO PUSH2 0xD74 JUMPI DUP3 MLOAD DUP3 SSTORE SWAP2 PUSH1 0x20 ADD SWAP2 SWAP1 PUSH1 0x1 ADD SWAP1 PUSH2 0xD59 JUMP JUMPDEST POP PUSH2 0xD80 SWAP3 SWAP2 POP PUSH2 0xD84 JUMP JUMPDEST POP SWAP1 JUMP JUMPDEST JUMPDEST DUP1 DUP3 GT ISZERO PUSH2 0xD80 JUMPI PUSH1 0x0 DUP2 SSTORE PUSH1 0x1 ADD PUSH2 0xD85 JUMP JUMPDEST PUSH4 0x4E487B71 PUSH1 0xE0 SHL PUSH1 0x0 MSTORE PUSH1 0x41 PUSH1 0x4 MSTORE PUSH1 0x24 PUSH1 0x0 REVERT JUMPDEST PUSH1 0x0 DUP3 PUSH1 0x1F DUP4 ADD SLT PUSH2 0xDC0 JUMPI PUSH1 0x0 DUP1 REVERT JUMPDEST DUP2 CALLDATALOAD PUSH8 0xFFFFFFFFFFFFFFFF DUP1 DUP3 GT ISZERO PUSH2 0xDDB JUMPI PUSH2 0xDDB PUSH2 0xD99 JUMP JUMPDEST PUSH1 0x40 MLOAD PUSH1 0x1F DUP4 ADD PUSH1 0x1F NOT SWAP1 DUP2 AND PUSH1 0x3F ADD AND DUP2 ADD SWAP1 DUP3 DUP3 GT DUP2 DUP4 LT OR ISZERO PUSH2 0xE03 JUMPI PUSH2 0xE03 PUSH2 0xD99 JUMP JUMPDEST DUP2 PUSH1 0x40 MSTORE DUP4 DUP2 MSTORE DUP7 PUSH1 0x20 DUP6 DUP9 ADD ADD GT ISZERO PUSH2 0xE1C JUMPI PUSH1 0x0 DUP1 REVERT JUMPDEST DUP4 PUSH1 0x20 DUP8 ADD PUSH1 0x20 DUP4 ADD CALLDATACOPY PUSH1 0x0 PUSH1 0x20 DUP6 DUP4 ADD ADD MSTORE DUP1 SWAP5 POP POP POP POP POP SWAP3 SWAP2 POP POP JUMP JUMPDEST PUSH1 0x0 PUSH1 0x20 DUP3 DUP5 SUB SLT ISZERO PUSH2 0xE4E JUMPI PUSH1 0x0 DUP1 REVERT JUMPDEST DUP2 CALLDATALOAD PUSH8 0xFFFFFFFFFFFFFFFF DUP2 GT ISZERO PUSH2 0xE65 JUMPI PUSH1 0x0 DUP1 REVERT JUMPDEST PUSH2 0xE71 DUP5 DUP3 DUP6 ADD PUSH2 0xDAF JUMP JUMPDEST SWAP5 SWAP4 POP POP POP POP JUMP JUMPDEST DUP1 CALLDATALOAD PUSH1 0x1 PUSH1 0x1 PUSH1 0xA0 SHL SUB DUP2 AND DUP2 EQ PUSH2 0xE90 JUMPI PUSH1 0x0 DUP1 REVERT JUMPDEST SWAP2 SWAP1 POP JUMP JUMPDEST PUSH1 0x0 PUSH1 0x20 DUP3 DUP5 SUB SLT ISZERO PUSH2 0xEA7 JUMPI PUSH1 0x0 DUP1 REVERT JUMPDEST PUSH2 0xEB0 DUP3 PUSH2 0xE79 JUMP JUMPDEST SWAP4 SWAP3 POP POP POP JUMP JUMPDEST PUSH1 0x0 JUMPDEST DUP4 DUP2 LT ISZERO PUSH2 0xED2 JUMPI DUP2 DUP2 ADD MLOAD DUP4 DUP3 ADD MSTORE PUSH1 0x20 ADD PUSH2 0xEBA JUMP JUMPDEST DUP4 DUP2 GT ISZERO PUSH2 0xEE1 JUMPI PUSH1 0x0 DUP5 DUP5 ADD MSTORE JUMPDEST POP POP POP POP JUMP JUMPDEST PUSH1 0x0 DUP2 MLOAD DUP1 DUP5 MSTORE PUSH2 0xEFF DUP2 PUSH1 0x20 DUP7 ADD PUSH1 0x20 DUP7 ADD PUSH2 0xEB7 JUMP JUMPDEST PUSH1 0x1F ADD PUSH1 0x1F NOT AND SWAP3 SWAP1 SWAP3 ADD PUSH1 0x20 ADD SWAP3 SWAP2 POP POP JUMP JUMPDEST PUSH1 0x0 PUSH1 0x1 PUSH1 0x1 PUSH1 0xA0 SHL SUB DUP1 DUP11 AND DUP4 MSTORE DUP1 DUP10 AND PUSH1 0x20 DUP5 ADD MSTORE POP PUSH1 0xE0 PUSH1 0x40 DUP4 ADD MSTORE PUSH2 0xF3F PUSH1 0xE0 DUP4 ADD DUP9 PUSH2 0xEE7 JUMP JUMPDEST DUP3 DUP2 SUB PUSH1 0x60 DUP5 ADD MSTORE PUSH2 0xF51 DUP2 DUP9 PUSH2 0xEE7 JUMP JUMPDEST SWAP1 POP DUP3 DUP2 SUB PUSH1 0x80 DUP5 ADD MSTORE PUSH2 0xF65 DUP2 DUP8 PUSH2 0xEE7 JUMP JUMPDEST SWAP1 POP DUP3 DUP2 SUB PUSH1 0xA0 DUP5 ADD MSTORE PUSH2 0xF79 DUP2 DUP7 PUSH2 0xEE7 JUMP JUMPDEST SWAP1 POP DUP3 DUP2 SUB PUSH1 0xC0 DUP5 ADD MSTORE PUSH2 0xF8D DUP2 DUP6 PUSH2 0xEE7 JUMP JUMPDEST SWAP11 SWAP10 POP POP POP POP POP POP POP POP POP POP JUMP JUMPDEST PUSH1 0x20 DUP2 MSTORE PUSH1 0x1 PUSH1 0x1 PUSH1 0xA0 SHL SUB DUP3 MLOAD AND PUSH1 0x20 DUP3 ADD MSTORE PUSH1 0x0 PUSH1 0x20 DUP4 ADD MLOAD PUSH2 0xFCB PUSH1 0x40 DUP5 ADD DUP3 PUSH1 0x1 PUSH1 0x1 PUSH1 0xA0 SHL SUB AND SWAP1 MSTORE JUMP JUMPDEST POP PUSH1 0x40 DUP4 ADD MLOAD PUSH1 0xE0 PUSH1 0x60 DUP5 ADD MSTORE PUSH2 0xFE6 PUSH2 0x100 DUP5 ADD DUP3 PUSH2 0xEE7 JUMP JUMPDEST SWAP1 POP PUSH1 0x60 DUP5 ADD MLOAD PUSH1 0x1F NOT DUP1 DUP6 DUP5 SUB ADD PUSH1 0x80 DUP7 ADD MSTORE PUSH2 0x1004 DUP4 DUP4 PUSH2 0xEE7 JUMP JUMPDEST SWAP3 POP PUSH1 0x80 DUP7 ADD MLOAD SWAP2 POP DUP1 DUP6 DUP5 SUB ADD PUSH1 0xA0 DUP7 ADD MSTORE PUSH2 0x1021 DUP4 DUP4 PUSH2 0xEE7 JUMP JUMPDEST SWAP3 POP PUSH1 0xA0 DUP7 ADD MLOAD SWAP2 POP DUP1 DUP6 DUP5 SUB ADD PUSH1 0xC0 DUP7 ADD MSTORE PUSH2 0x103E DUP4 DUP4 PUSH2 0xEE7 JUMP JUMPDEST SWAP3 POP PUSH1 0xC0 DUP7 ADD MLOAD SWAP2 POP DUP1 DUP6 DUP5 SUB ADD PUSH1 0xE0 DUP7 ADD MSTORE POP PUSH2 0x105C DUP3 DUP3 PUSH2 0xEE7 JUMP JUMPDEST SWAP6 SWAP5 POP POP POP POP POP JUMP JUMPDEST PUSH1 0x0 DUP1 PUSH1 0x0 DUP1 PUSH1 0x0 DUP1 PUSH1 0xC0 DUP8 DUP10 SUB SLT ISZERO PUSH2 0x107E JUMPI PUSH1 0x0 DUP1 REVERT JUMPDEST PUSH2 0x1087 DUP8 PUSH2 0xE79 JUMP JUMPDEST SWAP6 POP PUSH1 0x20 DUP8 ADD CALLDATALOAD PUSH8 0xFFFFFFFFFFFFFFFF DUP1 DUP3 GT ISZERO PUSH2 0x10A4 JUMPI PUSH1 0x0 DUP1 REVERT JUMPDEST PUSH2 0x10B0 DUP11 DUP4 DUP12 ADD PUSH2 0xDAF JUMP JUMPDEST SWAP7 POP PUSH1 0x40 DUP10 ADD CALLDATALOAD SWAP2 POP DUP1 DUP3 GT ISZERO PUSH2 0x10C6 JUMPI PUSH1 0x0 DUP1 REVERT JUMPDEST PUSH2 0x10D2 DUP11 DUP4 DUP12 ADD PUSH2 0xDAF JUMP JUMPDEST SWAP6 POP PUSH1 0x60 DUP10 ADD CALLDATALOAD SWAP2 POP DUP1 DUP3 GT ISZERO PUSH2 0x10E8 JUMPI PUSH1 0x0 DUP1 REVERT JUMPDEST PUSH2 0x10F4 DUP11 DUP4 DUP12 ADD PUSH2 0xDAF JUMP JUMPDEST SWAP5 POP PUSH1 0x80 DUP10 ADD CALLDATALOAD SWAP2 POP DUP1 DUP3 GT ISZERO PUSH2 0x110A JUMPI PUSH1 0x0 DUP1 REVERT JUMPDEST PUSH2 0x1116 DUP11 DUP4 DUP12 ADD PUSH2 0xDAF JUMP JUMPDEST SWAP4 POP PUSH1 0xA0 DUP10 ADD CALLDATALOAD SWAP2 POP DUP1 DUP3 GT ISZERO PUSH2 0x112C JUMPI PUSH1 0x0 DUP1 REVERT JUMPDEST POP PUSH2 0x1139 DUP10 DUP3 DUP11 ADD PUSH2 0xDAF JUMP JUMPDEST SWAP2 POP POP SWAP3 SWAP6 POP SWAP3 SWAP6 POP SWAP3 SWAP6 JUMP JUMPDEST PUSH1 0x1 DUP2 DUP2 SHR SWAP1 DUP3 AND DUP1 PUSH2 0x115A JUMPI PUSH1 0x7F DUP3 AND SWAP2 POP JUMPDEST PUSH1 0x20 DUP3 LT DUP2 SUB PUSH2 0x117A JUMPI PUSH4 0x4E487B71 PUSH1 0xE0 SHL PUSH1 0x0 MSTORE PUSH1 0x22 PUSH1 0x4 MSTORE PUSH1 0x24 PUSH1 0x0 REVERT JUMPDEST POP SWAP2 SWAP1 POP JUMP JUMPDEST PUSH1 0x0 DUP3 MLOAD PUSH2 0x1192 DUP2 DUP5 PUSH1 0x20 DUP8 ADD PUSH2 0xEB7 JUMP JUMPDEST SWAP2 SWAP1 SWAP2 ADD SWAP3 SWAP2 POP POP JUMP JUMPDEST PUSH1 0x1 PUSH1 0x1 PUSH1 0xA0 SHL SUB DUP5 AND DUP2 MSTORE PUSH1 0x60 PUSH1 0x20 DUP3 ADD MSTORE PUSH1 0x0 PUSH2 0x11BE PUSH1 0x60 DUP4 ADD DUP6 PUSH2 0xEE7 JUMP JUMPDEST DUP3 DUP2 SUB PUSH1 0x40 DUP5 ADD MSTORE PUSH2 0x11D0 DUP2 DUP6 PUSH2 0xEE7 JUMP JUMPDEST SWAP7 SWAP6 POP POP POP POP POP POP JUMP INVALID LOG2 PUSH5 0x6970667358 0x22 SLT KECCAK256 0xEE MUL 0xEB 0xE2 EXP MSIZE JUMPDEST EXTCODESIZE 0xE4 PUSH12 0x9510D73601F54BCCE6AD850E EXTCODECOPY PUSH20 0x7AB8C302CBE455A764736F6C634300080D003300 "
    },
    "gasEstimates": {
      "creation": {
        "codeDepositCost": "924800",
        "executionCost": "26803",
        "totalCost": "951603"
      },
      "external": {
        "createUser(address,string,string,string,string,string)": "infinite",
        "fetchUser(address)": "infinite",
        "fetchUserByAlias(string)": "infinite",
        "owner()": "2346",
        "renounceOwnership()": "infinite",
        "swiftIds(string)": "infinite",
        "transferOwnership(address)": "28387",
        "updateSwiftAlias(string)": "infinite",
        "userProfiles(address)": "infinite"
      }
    },
    "methodIdentifiers": {
      "createUser(address,string,string,string,string,string)": "a377d18f",
      "fetchUser(address)": "be6f0ea2",
      "fetchUserByAlias(string)": "5498a29d",
      "owner()": "8da5cb5b",
      "renounceOwnership()": "715018a6",
      "swiftIds(string)": "638f6cc8",
      "transferOwnership(address)": "f2fde38b",
      "updateSwiftAlias(string)": "215c58bd",
      "userProfiles(address)": "332d56d7"
    }
  },
  "storageLayout": {
    "storage": [
      {
        "astId": 1058,
        "contract": "profileManager.sol:profileManager",
        "label": "_owner",
        "offset": 0,
        "slot": "0",
        "type": "t_address"
      },
      {
        "astId": 559,
        "contract": "profileManager.sol:profileManager",
        "label": "userProfiles",
        "offset": 0,
        "slot": "1",
        "type": "t_mapping(t_address,t_struct(User)545_storage)"
      },
      {
        "astId": 565,
        "contract": "profileManager.sol:profileManager",
        "label": "swiftIds",
        "offset": 0,
        "slot": "2",
        "type": "t_mapping(t_string_memory_ptr,t_struct(User)545_storage)"
      }
    ],
    "types": {
      "t_address": {
        "encoding": "inplace",
        "label": "address",
        "numberOfBytes": "20"
      },
      "t_mapping(t_address,t_struct(User)545_storage)": {
        "encoding": "mapping",
        "key": "t_address",
        "label": "mapping(address => struct profileManager.User)",
        "numberOfBytes": "32",
        "value": "t_struct(User)545_storage"
      },
      "t_mapping(t_string_memory_ptr,t_struct(User)545_storage)": {
        "encoding": "mapping",
        "key": "t_string_memory_ptr",
        "label": "mapping(string => struct profileManager.User)",
        "numberOfBytes": "32",
        "value": "t_struct(User)545_storage"
      },
      "t_string_memory_ptr": {
        "encoding": "bytes",
        "label": "string",
        "numberOfBytes": "32"
      },
      "t_string_storage": {
        "encoding": "bytes",
        "label": "string",
        "numberOfBytes": "32"
      },
      "t_struct(User)545_storage": {
        "encoding": "inplace",
        "label": "struct profileManager.User",
        "members": [
          {
            "astId": 532,
            "contract": "profileManager.sol:profileManager",
            "label": "userAddress",
            "offset": 0,
            "slot": "0",
            "type": "t_address"
          },
          {
            "astId": 534,
            "contract": "profileManager.sol:profileManager",
            "label": "SCW",
            "offset": 0,
            "slot": "1",
            "type": "t_address"
          },
          {
            "astId": 536,
            "contract": "profileManager.sol:profileManager",
            "label": "swiftId",
            "offset": 0,
            "slot": "2",
            "type": "t_string_storage"
          },
          {
            "astId": 538,
            "contract": "profileManager.sol:profileManager",
            "label": "ens",
            "offset": 0,
            "slot": "3",
            "type": "t_string_storage"
          },
          {
            "astId": 540,
            "contract": "profileManager.sol:profileManager",
            "label": "lens",
            "offset": 0,
            "slot": "4",
            "type": "t_string_storage"
          },
          {
            "astId": 542,
            "contract": "profileManager.sol:profileManager",
            "label": "name",
            "offset": 0,
            "slot": "5",
            "type": "t_string_storage"
          },
          {
            "astId": 544,
            "contract": "profileManager.sol:profileManager",
            "label": "qrCodeCId",
            "offset": 0,
            "slot": "6",
            "type": "t_string_storage"
          }
        ],
        "numberOfBytes": "224"
      }
    }
  },
  "userdoc": {
    "kind": "user",
    "methods": {
      "createUser(address,string,string,string,string,string)": {
        "notice": "issue an SwiftAlias and add user to the data"
      },
      "swiftIds(string)": {
        "notice": "mapping swiftId --> User"
      },
      "userProfiles(address)": {
        "notice": "mapping userAddress --> User"
      }
    },
    "version": 1
  }
}